S02B0000656B5F72613870315F766973696F6E5F70616C6D5F646574656374696F6E5F68616E645F6C616E64E3
S315020000006000012279EA000269E8000283EA00023E
S3150200001083EA000283EA000283EA000283EA00021C
S3150200002000000000000000000000000041A10002E4
S3150200003083EA00020000000059A10002C1A10002E9
S31502000040A1AF0002BBAE000227B0000279B00002E7
S31502000050AFD00002DBC70002DBC7000203C2000208
S3150200006091C30002B1C4000299C5000289DD0002F3
S31502000070A9DB000229A90002F5A900021DB90002A6
S315020000809DB900027DBA0002FDBA00027BBB0002E6
S3090200009047A5000276
S31502000094010100000060090000B00100484E1B2265
S315020000A400000000000000000C0000220000000016
S315020000B40000000000000000000018880000000094
S315020000C40000000001004000100F000001000000C3
S315020000D401000100002034400028344001010000E0
S315020000E400000300F7130102F9130102FF130102D0
S31502000100B0B54BF60C20C0F202208568D0E900415A
S315020001102A682046904769682046884740F2900040
S315020001200021C2F201200160B0BDB0B54BF60C2031
S31502000130C0F20220856804682046A968884740F212
S3150200014090000021C2F2012001602046E96888473A
S3150200015069682046BDE8B040084740F29000C2F206
S31502000160012000687047081A4CF6CD41CCF6CC4106
S31502000170A0FB0101C80870474FF47A71B1FBF0F099
S315020001807047007900B1704740F29000C2F2012038
S315020001900168013101607047B0B544F634744BF61C
S315020001A07811C2F21B24C0F2022120460AF0DCFFBB
S315020001B025694FF47A71D5F8080120F48030C5F824
S315020001C008010A200EF00DFBD5F808014FF47A71EA
S315020001D040F48030C5F8080101200EF002FB002130
S315020001E02046BDE8B0400BF0AFB8D4D4D4D4D4D4B2
S315020001F02DE9F04F81B02DED048B8AB00890184698
S315020002009946B0EE408A90460D4613F04FFC002800
S3150200021009905ED04FEA08104FF0000A00B207902C
S3150200022043F68040DDF820B0C0F20120002700F13D
S31502000230100400BF00BF00BF19F80A00452221467C
S3150200024011F8103C834207D0013A01F556713BD0B2
S31502000250F6E700BF00BF00BF51E903680120CDE900
S31502000260008058463246334603F026FA00EE106AFC
S3150200027001EE108AB8EE400AB8EE411A28EE009A4C
S3150200028028EE010A31B22E01BCEEC91ABCEEC00A32
S3150200029011EE100A10EE103A00010FFA88F21B0155
S315020002A036B21BB2CDE9023600B20023CDE90070A8
S315020002B0079804900C200590584603F02DFABDEEDF
S315020002C0C90A10EE100A054409980AF1010A824584
S315020002D0B2D10AB0BDEC048B01B0BDE8F08FD4D424
S315020002E02DE9F04F81B02DED028B8AB044F61475DC
S315020002F00446C2F21B25002128680FF093F8000479
S3150200030000F1F38128684FF480610FF08BF82868BA
S315020003104FF48061012201234FF0FF370097012538
S315020003200EF0CCFF00F0FFFB40F20400C2F2002008
S315020003300068012820DB40F2F041C2F2012101F0FF
S315020003401F010844A0F1200101EAE171BFF34F8FBA
S31502000350C94308444EF66871CEF2000105EB501E01
S3150200036040F2F040C2F20120086020300FF005C0D2
S31502000370BFF34F8FBFF36F8F44F6187840F2F04108
S31502000380C2F21B28C2F201214FF420724FF42073ED
S31502000390D8F800004FF4F077CDE9007503F08CF938
S315020003A0D8F8000000214FF416524FF44853CDE915
S315020003B00013002304910C27CDE902214FF420718A
S315020003C04FF4F072059703F0A7F940F29505C2F2D1
S315020003D001252878012861D842F25D53B7EE048AD6
S315020003E0D8F80000C0F202234FF44D713222B0EE6B
S315020003F0480AFFF7FDFE43F26303D8F80000C0F295
S3150200040002234FF44D715A22B0EE480AFFF7F0FE6E
S3150200041042F65333D8F80000C0F202234FF44D716E
S315020004207822B0EE480AFFF7E3FE43F24223D8F8F9
S315020004300000C0F202234FF44D71C822B0EE480A02
S31502000440FFF7D6FE42F6AF43D8F80000C0F2022309
S315020004504FF44D71E622B0EE480AFFF7C9FE43F2A9
S315020004605413D8F80000C0F202234FF44D714FF432
S31502000470AF72B0EE480AFFF7BBFE43F2C703D8F8E5
S315020004800000C0F202234FF44D714FF4BE72B0EE7B
S31502000490480AFFF7ADFE28780130287040F2940929
S315020004A0002CC2F2012972D044F2E06040F2C60A80
S315020004B0C2F21B2040F2B60B40F2A60540F29606A7
S315020004C00024071DC2F2012AC2F2012BC2F2012543
S315020004D0C2F20126B7EE048A89F8004000BF00BFC7
S315020004E037F9041C8BB2002B41D037F9020C82B2C9
S315020004F0EAB312B201EE102AB7F900201BB200EEDF
S31502000500103A114402EE101AB7F90210B8EEC00AF8
S31502000510084403EE100A20EE080A99F80000B8EE25
S31502000520C33AB8EEC11A0130B8EEC22A89F8000001
S3150200053023EE083A21EE081ABDEEC00A22EE082A78
S3150200054010EE101ABDEEC30A3180BDEEC11ABDEE21
S31502000550C22A10EE100A11EE102AAAF8000012EEB4
S31502000560103A20462A80ABF8003000F077F9204690
S3150200057000F0C2F8013408370AF1020A0BF1020B45
S31502000580082C05F1020506F10206A9D117E044F28C
S31502000590E0600024C2F21B20851C00BF00BF00BF22
S315020005A035F8020C20B1288810B1204600F056F921
S315020005B0204600F0A1F801340835082CF0D144F6A3
S315020005C0E84043F25B13C2F21B20B7EE048AC0F284
S315020005D002234FF44D710469D8F800004FF48C726F
S315020005E0B0EE480AFFF704FE43F2CE03D8F8000045
S315020005F0C0F202234FF44D714FF4D772B0EE480A9F
S31502000600FFF7F6FD48F21F5049F69A12C5F2EB10B3
S31502000610C1F69912A4FB000144F6D356C1F2620652
S315020006204FF0303049090890A1FB02374CF6CD4312
S31502000630CCF6CC434FF0300AA4FB0335B0EE480AA1
S31502000640A4FB060307EB8700EF0846F62056A7FB36
S315020006500225A1EB40000AEB93118DF8201007EB5F
S315020006608702C0F2730605EB8501099640F0300059
S315020006708DF82100A7EB410008ABA4EB420140F044
S3150200068030008DF8220041F030008DF82300D8F8B2
S3150200069000004FF44D714FF48C72FFF7A9FD99F8E3
S315020006A00000CD2243F23003ADF81C30C1B2002364
S315020006B051438DF81E3007ABB0EE480ACA0A0AEB60
S315020006C0D1218DF81C1002EB82024FF44D71A0EB82
S315020006D042004FF4D77240F030008DF81D00D8F872
S315020006E00000FFF785FD00F043FA0AB0BDEC028B6D
S315020006F001B0BDE8F08FD4D42DE9F0472DED028B81
S3150200070084B044F22075B421C2F21B2510FB0157B6
S315020007100446B8680128C0F29C8097ED000AB6EE3E
S31502000720001AB4EE410AF1EE10FA00F1928044F694
S3150200073018780021C2F21B284FF47F424FF00009BD
S31502000740D8F8000004F0F1F8B86801282CDBB420D0
S31502000750B7EE048A14FB0050002500F1100400BF16
S3150200076014ED010A94ED001AB8EEC00AD8F800009A
S31502000770B8EEC11A302320EE080ACDF8009021EE19
S31502000780081ABDEEC00ABDEEC11A10EE101A11EE1D
S31502000790102A0901120109B212B208F0E3FCB86884
S315020007A0013508348542DBDBD8F8000000214FF41E
S315020007B07F4204F0BAF843F2F8300C37C0F2022056
S315020007C01725041DB7EE048A4FF0100A00BF00BFBA
S315020007D054E90101CDE901A907EBC00090ED000A39
S315020007E090ED011A07EBC100B8EEC00AB8EEC11AC5
S315020007F090ED002A90ED013AB8EEC22AD8F8000030
S31502000800B8EEC33A20EE080A21EE081A22EE082AAA
S3150200081023EE083ABDEEC00ABDEEC11ABDEEC22AEB
S31502000820BDEEC33A10EE101A11EE102A12EE103A6D
S31502000830090113EE106A12011B0109B2360112B246
S315020008401BB236B2009608F04FFC013D04F10804D3
S31502000850BED104B0BDEC028BBDE8F0872DE9F04FA6
S3150200086083B044F618760446C2F21B2600214FF4E2
S315020008707F024FF0000A306804F057F840F29609FA
S3150200088040F2A60840F2B605C2F20129C2F20128D8
S31502000890C2F2012539F81410306838F8142035F8F8
S315020008A0143009014FF0200B12011B0112B2009203
S315020008B009B2CDE901BA1BB208F016FC40F2C6072E
S315020008C035F81410C2F2012738F8142009013068ED
S315020008D037F81430120109B2CDE901BA1B0112B27E
S315020008E01BB200930B4608F0FFFB35F8141037F8DD
S315020008F0142039F814303068090112011B0112B2B2
S3150200090009B200921BB2CDE901BA08F0EDFB39F843
S31502000910141037F8142038F814303068090112011F
S315020009201B0109B21BB2009312B20B46CDE901BA02
S3150200093008F0DAFB03B0BDE8F08FB0B582B0002054
S3150200094005F0B6F844F618750021C2F21B25286098
S3150200095005F012F94BF280012868C6F647014FF4FA
S3150200096080624FF480634FF0010C4FF49664CDE938
S31502000970004C09F035F828680221032204F022F817
S315020009802868012103F0FFFF2868FF2103F0E0FF3A
S315020009902868012104F052F82868002104F06EF854
S315020009A02868002104F07AF8002002B0B0BD80B5B4
S315020009B044F6C0604BF68801C2F21B20C0F2022147
S315020009C00CF059FC30B1002040F6072101220BF051
S315020009D025F900BE05204FF47A710DF002FF44F6A8
S315020009E0C060C2F21B200CF093FE30B1002040F62C
S315020009F0072101220BF012F900BEC8204FF47A71CA
S31502000A000DF0EFFE44F6C0604BF28001C2F21B20ED
S31502000A10C6F6470100220CF0B4FE44F6F06040F23E
S31502000A200E51C2F21B2001220BF0F8F8002080BD05
S31502000A3070B54BF280044EF66875C6F647044FF45D
S31502000A4016112046CEF2000504F01F0613F019F81F
S31502000A504BF6FF700121C0F212003044BFF34F8FF4
S31502000A6001EB5010214640F001E000BF00BF00BF7D
S31502000A70296020310FF005C0BFF34F8FBFF36F8F90
S31502000A80BFF34F8F40F001E004F5961000BF00BFA0
S31502000A90286020300FF005C0BFF34F8FBFF36F8F72
S31502000AA070BDB0B582B0007880074FF000000190AB
S31502000AB02ED040F2D805C2F201252C68FFF74DFB75
S31502000AC001462046FFF74FFB44F6E841C2F21B21DE
S31502000AD08860FFF742FB44F614712860C2F21B21BC
S31502000AE04FF29940C0F2002001AB09684FF48062D0
S31502000AF010F0E5FB60B1019850B14EF604504FF08C
S31502000B008051CEF200000160BFF34F8FBFF36F8FAB
S31502000B1040F2DC00C2F201200178772901D80131C6
S31502000B20017002B0B0BD10B582B044F61874C2F2BC
S31502000B301B24206807F05BFE40F200004BF28001A6
S31502000B40C2F200204FF49612C6F647014FF48063B4
S31502000B5000784FF0010C00FB021120684FF480620E
S31502000B604FF41674CDE9004C08F03AFF02B010BDFE
S31502000B7080B544F61870C2F21B20006807F04BFEDF
S31502000B8040F2000C4FF49611C2F2002C00229CF89F
S31502000B90000000285FEA1F934BF280008CF80030B9
S31502000BA0C6F6470003FB01014BF61010C0F2022005
S31502000BB00068BDE880400CF0E4BDD4D4D4D4D4D4CB
S31502000BC0012B1FDB80B502F01F001844A0F12001A3
S31502000BD001EAE171BFF34F8FC9430844012101EBDA
S31502000BE0501E4EF66870CEF2000000BF00BF00BF76
S31502000BF0026020320FF005C0BFF34F8FBFF36F8F35
S31502000C00BDE88040012070474BF64C21C0F202211C
S31502000C1007C912681047D4D4F0B581B004464BF622
S31502000C204C20C0F2022040F2E846C2F2012600221F
S31502000C3081680568326020468F6812F037FF0246E7
S31502000C4028462146B847044648B1142002F0B4FAB1
S31502000C5000BE04E000BF00BF01200FF017FC3068A1
S31502000C600028F9D024B11420142402F0A5FA00E0D9
S31502000C700024204601B0F0BD007901281BD00228CD
S31502000C8014D004281DD140F2E4400022C2F2012011
S31502000C900168B2EB912F18BF70474BF62C22C0F2B7
S31502000CA002225278022A0DD8013109E040F2E840C8
S31502000CB0C2F2012003E040F2E040C2F2012001212B
S31502000CC0016070470231FBE740F201010079C2F28E
S31502000CD0002108707047D4D410B582B0020A8DF88C
S31502000CE0060044F690508DF805208DF80710C2F2E2
S31502000CF01B200DF105010322002300240BF0C7F887
S31502000D0010B1012002B010BD40F201014FF6FF7092
S31502000D10C2F200210C7000BF01380204F1D00A7839
S31502000D200AB92FF007C8087800220A7001285FEA7C
S31502000D301F90E7E7D4D4D4D42DE9F04182B040BA6B
S31502000D40ADF8060044F690500C46C2F21B200DF197
S31502000D5006010222012301250BF099F8D0B940F2CF
S31502000D6001064FF6FF77C2F20026002030704FF6DA
S31502000D70FF7000BF00BF00BF0138010409D03178FF
S31502000D8009B92FF007C8307801284FF000003070FB
S31502000D9004D10125284602B0BDE8F08144F6905000
S31502000DA00122C2F21B200023214601254FF0000832
S31502000DB00BF067F80028EDD186F8008000BF00BF6F
S31502000DC0013F3804E5D0307808B92FF007C83078EB
S31502000DD001285FEA1F9500203070DBE770B582B00C
S31502000DE044F6F0650446C2F21B2500208DF8060083
S31502000DF08DF8050040F20971002228460AF00EFF1E
S31502000E0064200FF043FB40F20971012228460AF0E2
S31502000E1005FF44F670554BF2A861C2F21B25C0F2DB
S31502000E20022128460BF01CFD28460BF07AFF0A2009
S31502000E300FF02CFB44F6905001A9C2F21B200BF0D6
S31502000E4031F89DF80400002878D044F690503C21F1
S31502000E50C2F21B20012201260BF01FF80DF106013A
S31502000E6043F20A00FFF768FF0DF1050143F20B009A
S31502000E70FFF762FF9DF805000A2540380C286BD85B
S31502000E8041F2030106FA00F0084265D043F2B0408F
S31502000E90C0F2022000F064F843F235001221FFF797
S31502000EA01BFF43F236008C21FFF716FF43F2370091
S31502000EB01321FFF711FF43F208100121FFF70CFF80
S31502000EC04BF660000DF10701C0F202204069057C75
S31502000ED044F61400FFF730FF9DF8070000F03F00CC
S31502000EE040EA85108DF80700C1B244F61400FFF7F8
S31502000EF0F3FE2CB143F61C10C0F2022000F030F8CB
S31502000F0044F202200F21FFF7E7FE05200FF0BEFA9A
S31502000F1044F6AC604BF66001C2F21B20C0F202211D
S31502000F2009F0DFFB0546B8B905200FF0AFFA44F227
S31502000F30022000210025FFF7CFFE0DE044F6905077
S31502000F404BF2D061C2F21B20C0F202210AF054FF1A
S31502000F5000283FF47AAF6425284602B070BDD4D487
S31502000F6070B5841C4AF6AA254FF6FF7600BF00BF6D
S31502000F7034F8020CA84207D0B0420AD02178FFF713
S31502000F80ABFE04E000BF00BF20780FF07FFA043406
S31502000F90EEE770BDD4D4D4D410B540F2F0444FF489
S31502000FA01621C2F20124204612F06BFD45F6FF71AE
S31502000FB004F01800C0F2090108440121BFF34F8F63
S31502000FC001EB501E4EF66870CEF2000000BF00BF65
S31502000FD0046020340FF005C0BFF34F8FBFF36F8F4D
S31502000FE010BD44F6AC600021C2F21B2009F023BCFE
S31502000FF040F2040146F2F04CC2F20021C2F20A2C7F
S315020010000A68012A1FDB80B5DCF8003003F01F00F6
S315020010101044A0F1200202EAE272BFF34F8FD243DC
S315020010201044012202EB501E4EF65C72CEF2000212
S31502001030136020330FF005C0BFF34F8FBFF36F8FDE
S315020010400A68BDE8804040F2F040DCF80010C2F2C7
S31502001050012012F01ABD70B582B00178044680688C
S3150200106001294FF00001019137D110F0200034D050
S3150200107046F2F446C2F20A263568FFF76EF80146D2
S315020010802846FFF770F844F6E841C2F21B210860D1
S31502001090FFF763F846F2F04144F61472C2F20A21EF
S315020010A0C2F21B223060E06808604FF29940116874
S315020010B0C0F2002001AB4FF4805210F000F960B18B
S315020010C0019850B14EF604504FF08051CEF2000016
S315020010D00160BFF34F8FBFF36F8F02B070BD7047D1
S315020010E045F2404048F28041C0F20220C2F20A2193
S315020010F000680844704745F24C4048F28041C0F20D
S315020011000220C2F20A2100680844704745F24840AC
S3150200111048F28041C0F20220C2F20A210068084465
S31502001120704745F2444048F28041C0F20220C2F2C2
S315020011300A2100680844704700F000B8B0B598B0BC
S3150200114040F200010024C6F60001CDE90A1445F278
S315020011503C4148F28045C0F20221C2F20A2500282B
S31502001160CDE90C54096803914FF47521CDE90E546B
S315020011704FF413300690CDE9041105F5C421CDE9EB
S31502001180101408D005F590603F2112F07AFC85F81C
S31502001190C04485F8D04405F59061CDE912143F218B
S315020011A0079105F59A61CDE9161443F6241105F562
S315020011B09860C0F20221CDE914040120089009903A
S315020011C00A6803A8009044F6486043F63011C2F25A
S315020011D01B20C0F202210AAB0725CDE9015408F013
S315020011E098FF01305FEA1FA018B0B0BD2DE9F04F9D
S315020011F095B0154645F28842C0F202220D934FF091
S3150200120002080DF1480B0EAC45F2A8438DE814090D
S3150200121045F2B0420C910A9021990320CDE904804F
S31502001220C0F20222C0F20223284612270F974FF479
S31502001230FC6ACDF838A00026CDE912A84FF00109C4
S315020012400B95CDE90866CDE9069600F08DF845F2D4
S31502001250804045F2A042C0F2022045F260438DE88A
S315020012601109C0F20222C0F2022328462099CDE9D2
S315020012700EA7CDE912A8CDE90866CDE90489CDE924
S31502001280069600F071F845F2B8402146C0F20220F7
S315020012905D4690E88C008CC145F254430322C0F2AD
S315020012A002230C982146CDF84890CDE900B9DDF825
S315020012B028B002960396CDF810B000F07DF945F2FB
S315020012C050430EACC0F2022302221F9804905846E5
S315020012D02146CDE90EA9CDF84890CDF80890CDE982
S315020012E00059039600F068F945F278400395C0F27A
S315020012F00220AB4645F2904245F298430B9DC0F25E
S3150200130002228DE81101C0F2022328461E991227F5
S31502001310CDE90EA7CDE912A8CDE90866CDE9048983
S31502001320CDE9069600F020F845F2704045F25842A3
S31502001330C0F2022045F268438DE81109C0F202228A
S31502001340C0F2022328460D99CDE90EA7CDE912A8CF
S31502001350CDE90866CDE90489CDE9069600F004F8E0
S3150200136015B0BDE8F08FD4D42DE9F04FB5B00DF12C
S31502001370F80B1F461390DDE942900E91DDE94646D1
S31502001380039420ACDDE944158DE823009BE8080CA4
S31502001390204611463A46CDE9046B00F009FA0DF1F2
S315020013A06C0800208DF8D200052350465946424665
S315020013B000F0D6F916AA05234198494600F0D0F95D
S315020013C005222046594600F02BFA002220464146C5
S315020013D000F081FA0646002220464146334600F0D6
S315020013E09EFA054601222046414600F074FA03465B
S315020013F0012220464146069300F091FA0990022204
S315020014002046414600F067FA03460222204641463C
S31502001410089300F084FA0B9003222046414600F01E
S315020014205AFA03460322204641460A9300F077FA07
S31502001430129004222046414600F04DFA81460422CB
S31502001440204641464B4600F06AFA14902D9931988F
S31502001450119028463246079500F09EF9002800F0C2
S31502001460A88014984FF0000BA0EB09000D9013987A
S31502001470CDF8409048440C902E990998069C00BFDE
S31502001480224600F089F9002800F08A801594089C0B
S315020014902F990B98224600F07FF900280F94149C8E
S315020014A077D000BF00BF00BFDDF828A030991298A0
S315020014B0524600F071F9002861D000BF00BF00BF9C
S315020014C01198012820D10D9FDDF83CE0012F4BDB5E
S315020014D0DDE91E0148431D9B159D00FB06F24543AF
S315020014E002FB03FC0C9A01FB0A213A4600FB0E1092
S315020014F01C9905FB03000CFB01010E98584412F0DF
S31502001500C4FABB4430E000BF319920464A4600F097
S3150200151043F948B30E98DDF83C8000EB0B0500BF9B
S31502001520DDE91E01374648431D9B159C0BF1010B55
S3150200153000FB06F21C9E44435A437243139E4E44DA
S3150200154001FB0A6100FB0810319904FB0300149C9D
S3150200155089443E46805C4A4605F8010B204600F067
S315020015601BF908B12FF025C0309912988A445246C9
S3150200157000F012F9DDF8409008B12FF05FC82F99FC
S315020015800F9A0A440B980F9200F006F908B12FF051
S3150200159075C82E99159C0C44099871E700BF00BFC7
S315020015A02D9907980E44324600F0F6F808B12FF04E
S315020015B09DC835B0BDE8F08F2DE9F04F8BB0179F6F
S315020015C00124DDE915C8079302EAE8790CEAE77512
S315020015D009EB080A2F440546012F51F82A00059007
S315020015E015DB80EF5100084627F001E000BF00BF7F
S315020015F0B0EC043F20EF52091FF007C053EC110B69
S3150200160056EC104B584304FB06F303FB00F4574514
S315020016104FF00100099016DAAAEB070080EF51009D
S3150200162001EB870320F001E0B3EC043F20EF5209FF
S315020016301FF007C05EEC110B53EC106B00FB0EF0B3
S315020016407343584309900AF10103012693421ADAB9
S315020016506FEA090080EF5100104401EB8301A0EB11
S31502001660080020F001E000BFB1EC043F20EF520970
S315020016701FF007C051EC110B53EC102B484302FB31
S3150200168003F101FB00F667454FF001000A901ADAF2
S31502001690ACEB0700149A80EF510002EB870120F0B1
S315020016A001E000BF00BF00BFB1EC043F20EF5209CA
S315020016B01FF007C051EC110B53EC102B484302FBF1
S315020016C003F148430A90012C47DB0A99189801FB5B
S315020016D006F20490099808925043019088000090FF
S315020016E00020CDE9024000BF0998012827DB0998AE
S315020016F0039948434FF0000ADDF810B0069000BF88
S315020017000A98012814DB069805995044DDF81C90C6
S3150200171000FB01F85F460A9C59F8040B3246404426
S3150200172000FB0651384612F0B0F9013C3744F3D1BA
S3150200173009980AF1010A824508988344E0D1039880
S31502001740029C01300390A042049801990844049037
S315020017500798009908440790C6D10BB0BDE8F08FF0
S3150200176080B5012BB8BF80BDA3EB010C8900A1EBAC
S31502001770830143F001E00844002100BF00BF00BF1F
S31502001780614501DA012300E003680131043042F8C1
S31502001790043B0FF00BC880BD82425FEADF905FEA2E
S315020017A0AF92002950EA42807047D4D4D4D4D4D41C
S315020017B02DE9F04F81B00F4654211D461646834649
S315020017C0DDE90AA9DDE90E8412F05BF9012C8BF83A
S315020017D000408BF818408BF8304013DB0BF11C00ED
S315020017E024F001E000BF00BFB7EC041F00ED061FA6
S315020017F0B6EC041FA0EC041FB5EC041F80ED021F1B
S315020018001FF00FC0ABF848A00020ABF84A00ABF8B7
S315020018104C90ABF84E00ABF8508001B0BDE8F08FAB
S31502001820B0B590F900E0BEF1010FA2EB0E0C13DB8E
S3150200183000EB8E0100EB820401F1180304F118019A
S315020018409C698C6153F8184C41F8184C53F80449BA
S3150200185041F804490FF00DC0BCF1010F10DB80EF17
S31502001860500080EF512000F11C012CF001E000BF76
S3150200187001ED061FA1EC043F81ED023F1FF009C0F6
S31502001880B0F85010B0F84A30B0F84E404FF0FF3E74
S3150200189001FA0CF1A0F8501003FA0CF104FA0CF557
S315020018A0B0F84830B0F84C40A0F84A100EFA0CF1E5
S315020018B0A0F84E5003FA0CF304FA0CF563EA01039E
S315020018C0A0F8483065EA0101A0F84C1002700276D1
S315020018D080F83020B0BD80B500EB820C51F82210A2
S315020018E0DCF80430DCF834E0B0F848C0002B48BF1E
S315020018F00B44BEF1010F06DB99424FF00000A8BF70
S3150200190023EAE37105E0481E99420146C8BF43EA4D
S31502001910E3712CFA02F2D20751EA008080BD10B5BB
S31502001920B0F850E04FF0010C0CFA02FC51F822100C
S315020019301CEA0E0F03D08B4253EAA39010BD00EBB4
S31502001940820490F852E0E269BEF1000F646B18BFA0
S315020019501A44B0F84C00002A48BF0A44012C00EA97
S315020019600C0005DB0B469142A8BF22EAE27306E0B1
S315020019704B1E91424FF0FF31C8BF42EAE273002884
S3150200198053EA018010BD4AF6683048F28041C0F23F
S315020019900220C2F20A210068084470474AF6E06053
S315020019A04DF28041C0F20220C2F2192100680844B9
S315020019B0704746F2F840C2F20A20704747F2B84032
S315020019C0C2F20A2070474AF6E4604DF28041C0F244
S315020019D00220C2F21921006808447047D4D4D4D434
S315020019E02DE9F04784B080464AF67030C0F20220F4
S315020019F04AF66C31C0F202214EF65C750768404623
S31502001A00CEF20005D1F800A000F060F848F280405E
S31502001A1047F6FF72C2F20A204DF2804600F01F011D
S31502001A20C0F20D02C2F21926114406F01F0345F256
S31502001A309F6201241A44BFF34F8F04EB511E0146E5
S31502001A4004EB521900BF00BF296020310FF005C018
S31502001A504AF6D462C119C0F202224AF6DC67BFF323
S31502001A604F8F136800EB0A02F0184AF6D863C0F2E9
S31502001A700223C0F20227BFF36F8F1B683F68F41878
S31502001A8047F2B843C2F20A23CDE9003043F280009E
S31502001A9046F2F843C6F66D00C2F20A233744CDE990
S31502001AA00247FFF7A3FBBFF34F8F49F001E000BFE8
S31502001AB0EE6020360FF005C0BFF34F8FBFF36F8F76
S31502001AC0404604B0BDE8F04700F056B8B0B596B04F
S31502001AD04AF6643248F28044C0F2022243F260417E
S31502001AE00025C2F20A240028C6F613010B950A91B4
S31502001AF011680491CDE90C454FF458214FF4D830C2
S31502001B000790CDE90E45CDE90511CDE910450AD07C
S31502001B1004F5D83048F6C05111F0B3FF4FF4FC611A
S31502001B20204611F0AEFF45F2C44104F5D830C0F2AA
S31502001B300221CDE9120548F6C05008904FF4FC6028
S31502001B4009900A6804A8009044F6486045F2D0411C
S31502001B50C2F21B20C0F202210AABCDE914450624CB
S31502001B60CDE9014508F0D5FA01305FEA1FA016B0AB
S31502001B70B0BDD4D4D4D4D4D4B0B59CB02EA1002553
S31502001B804DF28044002891ED001F44F23031C2F23A
S31502001B901924C6F62901CDE90C154AF6D0614FF48F
S31502001BA07C60C0F202218DED051F0968049104F5DF
S31502001BB0BD510990CDE90E45CDE91045CDE9124555
S31502001BC0CDE9141504F5FC61CDE916150BD04FF4D9
S31502001BD0FC61204611F055FF42F260704FF4FC5151
S31502001BE0204411F04EFF4AF674314FF4FC60C0F205
S31502001BF002210A9042F260700CAB2044CDE91A052C
S31502001C004FF4FC500B900A6804A8009044F6486012
S31502001C104AF68031C2F21B20C0F2022119951894AD
S31502001C200824CDE9014508F074FA01305FEA1FA0E5
S31502001C301CB0B0BD00BF00BFA0560000A0560000F9
S31502001C40E0070000C00F00002DE9F04F81B02DED36
S31502001C50108BCCB04EF65C78CEF20008FEF77DFA19
S31502001C604B90FFF790FE43F680014FF4D832C6F64A
S31502001C706D0111F00AFF0020FFF7B2FE48F2804024
S31502001C8047F6FF72C2F20A204DF2804100F01F03AE
S31502001C90C0F20D02C2F219211A44BFF34F8F01F0AE
S31502001CA01F01049345F29F630127194407EB521E55
S31502001CB007EB511100BF00BFC8F8000020300FF03B
S31502001CC005C8BFF34F8FBFF36F8FBFF34F8F41F03E
S31502001CD001E04DF28040C2F2192000BF00BF00BFF2
S31502001CE0C8F8000020300FF005C8BFF34F8FBFF3CE
S31502001CF06F8FFFF753FE0546FFF765FE0446FFF7B3
S31502001D005DFE0746FFF755FE42F620390646C2F249
S31502001D101A299FED2C0A4FF4FC616FF07F022846C8
S31502001D204B464FF4FC6A00F027FE44F6A0259FEDD1
S31502001D30260AC2F21A254FF4FC516FF04F022046D2
S31502001D402B4600F019FE4CF6A0049FEDF28AC2F271
S31502001D501A244FF47C616FF069023846B0EE480AE5
S31502001D60234600F009FE40F2A0774FF47C61C2F2EE
S31502001D701B276FF069023046B0EE480A3B4600F078
S31502001D80FBFD46F2666049F69A1144F2A062C3F67A
S31502001D90E660C3F69961CDE9480102204A90C2F293
S31502001DA01B2248A9CDE900A149463B46CDE90220BE
S31502001DB02846224600F0FCFD834600251BAC002780
S31502001DC006E000BF0000803B212CE73B00BF00BFBE
S31502001DD0BEB20021002200233046009500F049FFE2
S31502001DE0B421204611F04DFE3046214600F057FF41
S31502001DF0072E07F10107EBD3BBF1000F40F3768103
S31502001E0044F6D04944F2A060C2F21B29C2F21B205A
S31502001E1000F10806002799ED040A99ED021AB8EEB8
S31502001E20C0BA99ED050AB8EEC1CA99ED031AB8EE21
S31502001E30C0DA9FEDBD8AB8EEC1EA9FEDBC9ABEEE4E
S31502001E4000FA9FEDBBAADFEDBB8A5D4600BF00BF6D
S31502001E5096ED011A16ED010AA1EE0F0A96ED002A79
S31502001E60A1EE0F2AB0EE4B3A21EE081A10EE083A0E
S31502001E70B0EE4D0A12EE080AB8B283EE0C2A81EED3
S31502001E800C3A22EE092A80EE0E0A23EE093A20EED9
S31502001E900A0AB5EE402A81EE0E1AF1EE10FA48BF92
S31502001EA0B0EE682A33EE024A21EE0A1AB5EE400A6D
S31502001EB0F1EE10FAB4EE494A48BFB0EE680AF1EE06
S31502001EC010FA31EE005A39EE424AB4EE4A5A34FE5C
S31502001ED0033AF1EE10FA3AEE404ABDEEC22A34FE59
S31502001EE0011ABDEEC00ABDEEC33ABDEEC11A12EE2C
S31502001EF0101A10EE102A13EE103A11EE104A009440
S31502001F0000F0B7FE013D07F1010706F120069FD159
S31502001F1099ED020ABBF1010FB8EEC00A4FF00100BB
S31502001F2050EA009644F2A06080EE09BA99ED050ADD
S31502001F30B8EEC00AC2F21B2000F11C0413A8B1EECF
S31502001F4040CA00F108059FED7CDAB6EE00EA9FED85
S31502001F507BFA059600BF00BF14ED030A14ED021AC0
S31502001F6020EE080A94ED003AB0EE4C2AA1EE082AB9
S31502001F70B0EE4C1AA3EE081A14ED013AC0EE0B8A23
S31502001F8023EE080AC2EE0B9AC1EE0BAAC0EE0BBAFA
S31502001F903AEEE90A7BEEE80A20EE001AA0EEA01A53
S31502001FA0F1EEC1CA10F082FE2CEEAC1A013E38EEFA
S31502001FB0AB2A04F1200439EEAA3A22EE0E2A23EEC7
S31502001FC00E3A21EE0F1AB1EEC11A31EE011A30EEB7
S31502001FD00D0A05ED010A81EE091A05ED021A82EED5
S31502001FE0090A85ED000A83EE0A0A85ED010A05F162
S31502001FF01005B1D148A0049944F2804548F28044C4
S3150200200090ED001F0FA8002606AFC6F6290580ED43
S31502002010001F44F6FF70C2F20A24C0F20F00B6EEA9
S31502002020008A0844012101EB501A00BF00BF00BF1D
S3150200203013A80FA900EB061240F2F040C2F20120EB
S315020020402B46009700F054F900284BD4FFF748F8C6
S315020020504FF41332294611F018FDBFF34F8F4AF0A1
S3150200206001E0204600BF00BFC8F80C0020300FF088
S3150200207005C8BFF34F8FBFF36F8F00203D46FFF7B2
S315020020805BF8BFF34F8F4AF001E0D146A2462046E5
S31502002090C8F8000020300FF005C8BFF34F8FBFF31A
S315020020A06F8FFFF73EF80446FFF725F80746FFF75E
S315020020B02DF80246204639462B46B0EE480A0DF167
S315020020C06C0BCDF800B02F4600F03AF8012803DB7E
S315020020D03046594600F0E3FD44F280455446C6F6C2
S315020020E02905CA46059801368642A1D14B9CFEF7C0
S315020020F034F801462046FEF736F844F6E842014631
S31502002100C2F21B22012011614CB0BDEC108B01B052
S31502002110BDE8F08FA441B23B80020000E00100005E
S3150200212000000000010000000000404300002044BF
S315020021300000F04300000000DA0FC9BF333333401A
S315020021402DE9F0412DED108BC0B0064600284FF068
S31502002150FF301CBF0D46002904D140B0BDEC108BE8
S31502002160BDE8F0811746002AF7D01C46002BF4D0B2
S31502002170DDF85881B8F1000FEFD0B4214046B0EE39
S31502002180408A11F07EFC95F900009FED551A00EE8B
S31502002190100A97F90000B8EEC00A9FED522A03EE24
S315020021A0100A152030EE010AC8F80800B8EEC33A44
S315020021B020EE020A33EE011A88ED000AB4EE480A4E
S315020021C0F1EE10FA21EE021A88ED011A01D500206D
S315020021D0C3E700224CF607033F2001A9C4F22C22D2
S315020021E0C3F68D7320F001E0B6EC040FBBFF400688
S315020021F030EE420F31EE630EA1EC041F1FF00DC04C
S3150200220001AE44F625113F20C3F69231324620F044
S3150200221001E000BF00BF00BF92ED001F31EE610E6C
S31502002220A2EC041F1FF009C094ED049A94ED00BAC3
S31502002230B0EE490A94ED01CA94ED02AAD4ED039ACE
S3150200224094ED05DA94ED06EA10F074FEB0EE408ADB
S31502002250B0EE490A11F0F2FAB0EE409A08F1100512
S31502002260B1EE40FA0436B6EE000A15276AEE008A87
S31502002270DFED1DAA69EE809A94ED080A96ED001A22
S31502002280B8EEC00A16ED012A91EE2A0A94ED071A53
S31502002290B8EEC11A92EE2A1A80EE0E0A81EE0D1AD5
S315020022A030EE690A31EE681A20EE0F2AA8EE012AEC
S315020022B028EE003AA9EE013A3BEE020A3CEE03AAE8
S315020022C011F04CFBB0EE4A0A45F8040C11F046FB3D
S315020022D0013F06F10C0645F8080BCDD101203CE77B
S315020022E0000000430000803B00006043D4D4D4D4F5
S315020022F02DE9F04F81B02DED108B8CB00B9000289C
S315020023004FF0FF301CBF0C46002905D10CB0BDECC6
S31502002310108B01B0BDE8F08F002AF7D01D46002BC6
S31502002320F4D020680A9001286FF00100EEDB66689F
S31502002330012EEBDB0A9992ED001AB14251EA868030
S3150200234000EE100A92ED032AB8EE400A2698B7EE7E
S3150200235000EA92ED019A21EE000A01EE101A03EE4E
S31502002360106AB4EE40EAF1EE10FAB8EE41AA92ED26
S31502002370021AB8EE43BAE2683EFE00FA9FEDEB0A95
S31502002380C0EE0F8A21EE0ACA07922FEE280A22EE23
S315020023900BDABDEEC00A10EE101A0191C1F1E0018E
S315020023A001EBD1714FEA610878B180ED00CA80ED88
S315020023B001DA80ED02FA80ED03FA80ED049AC0EDAF
S315020023C0058AC0ED068AC0E907884FF413318022D8
S315020023D0284611F051FBB0EE490A10F0ABFDB0EE03
S315020023E0408AB0EE490A11F029FA01980128C0F292
S315020023F0C1820B998EEE28EA481C059040F2A32072
S31502002400023108FB005004910A99B0EE409A0694F4
S31502002410B1EE4FFAA1F10109741E00F1020B002080
S31502002420F6EE008ADDF80480FEEE009A099400BFFB
S3150200243000EE100A4FF0000AB8EE400A0290CDF8FC
S315020024400CB030EE280A6EEE00AAF0EE6ABAEFEE93
S3150200245028BADFEE68AA00BF00EE10AAB8EE400A5C
S31502002460F0EE4CDA30EE280A2EEE000AAFEE280A1B
S31502002470E0EE08DAEAEE89DAF4EE69DAF1EE10FA5B
S3150200248000F16582F4EE4ADAF1EE10FA80F25F822A
S31502002490F0EE4DCAE0EE09CAEBEE88CAF4EE69CA5E
S315020024A0F1EE10FA00F15382F4EE4BCAF1EE10FA95
S315020024B080F24D82BBFE6D0ABDEEC01A11EE102AE5
S315020024C0BBFE6C1ABDEEC12A4A4552EA3980511C3E
S315020024D012EE106A002A3DEEC02A48BF0020494586
S315020024E059EA2291B2F1FF3F06F10102B8BF00217B
S315020024F0A64256EA3483002E3CEEC11A48BF002398
S31502002500A24254EA2692B6F1FF3FB8BF0022079FC5
S31502002510002F00F00D810A9F0B9D7B437A4305EB4A
S31502002520430305EB420203EB410602EB410103EBD7
S3150200253040037678497802EB40005B7806F0F802B1
S3150200254001F0F801407800EE101A03F0F801B8EE37
S31502002550403A00F0F80000EE102AB8EE404A00EECB
S31502002560101A05EE100AB8EE400AB8EE455A34EED5
S31502002570404A33EE453AA2EE040AA2EE035A35EE7B
S31502002580402AA1EE020A11F0E9F9BBFE6D2ABDEE60
S31502002590C20ABBFE6C1A254610EE103ABDEEC10AFF
S315020025A04B4553EA39815A1C002B48BF00214A4544
S315020025B059EA2392B3F1FF3F10EE103AB8BF002258
S315020025C0A34253EA34865C1C002B48BF0026AC4269
S315020025D055EA2394B3F1FF3F07FB06F6B8BF002482
S315020025E004FB07F30B9F07EB46063DEEC22A3CEEC1
S315020025F0C11A07EB4303FC2780F3080033F81240A5
S3150200260033F8113036F8111036F8122007EAD406DC
S3150200261000EE106A07EAD303B8EE403A00EE103A2B
S3150200262007EAD202B8EE404A07EAD10100EE102AC2
S315020026300890B8EE405A00EE101AB8EE400A33EE91
S31502002640443A35EE405AA2EE034AA2EE050A34EEA9
S31502002650402AA1EE020A11F081F9BBFE6D2ABDEEF7
S31502002660C20ABBFE6C1A3DEEC22A10EE103ABDEE4D
S31502002670C10A4B4553EA39815A1C002B48BF002137
S315020026804A4559EA2392B3F1FF3F10EE103AB8BF1A
S315020026900022AB4253EA35845F1C002B48BF00245C
S315020026A0AF4255EA23970A9DB3F1FF3FB8BF002711
S315020026B06C430B9E6F433CEEC11A06EB440306EBDA
S315020026C0470713F8114013F8123017F8122017F8BB
S315020026D01110DB00E400D200C900D2B200EE102ACB
S315020026E0C9B2B8EE403A00EE101ADBB2B8EE404A72
S315020026F000EE103AE4B2B8EE405A00EE104AB8EED6
S31502002700400A33EE443A35EE405AA2EE034AA2EEAE
S31502002710050A80F3080434EE402AA1EE020A11F0FB
S315020027201DF9089980F3080004E100BF0000604328
S315020027300A9D0B9E03FB050703FB051302FB05001F
S3150200274002FB051107EB470703EB430300EB4000CF
S31502002750F25D01EB4101F35C305C00EE102A715C24
S3150200276003EE103A04EE100A05EE101AB8EE400A0D
S31502002770B8EE433AB8EE444AB8EE455A33EE403A1A
S3150200278035EE445AA2EE030AA2EE054A34EE402A78
S31502002790A1EE020A11F0E2F8BBFE6D0ABDEEC01A06
S315020027A080F3080011EE103ABBFE6C1ABDEEC12A88
S315020027B04B4553EA39815A1C002B48BF00214A4532
S315020027C059EA2392B3F1FF3F12EE103AB8BF002244
S315020027D0A34253EA34875E1C002B48BF0027A64259
S315020027E054EA2396B3F1FF3F07FB0514B8BF002650
S315020027F007FB05233DEEC02A06FB051104EB440741
S3150200280006FB0522059E03EB43033CEEC11A01EBD0
S315020028104101F75D02EB4202F35C715C00EE107A55
S31502002820B25C03EE103A04EE101A089005EE102A76
S31502002830B8EE400AB8EE433AB8EE444AB8EE455A04
S3150200284033EE403A35EE445AA2EE030AA2EE054AA8
S3150200285034EE402AA1EE020A11F080F8BBFE6D0AA0
S31502002860BDEEC01A11EE103ABBFE6C1ABDEEC12ABD
S315020028704B4553EA39815A1C002B48BF00214A4571
S3150200288059EA2392B3F1FF3F12EE103AB8BF002283
S31502002890099E5C1C3DEEC02AB34253EA3687002BE2
S315020028A03CEEC11A48BF0027B44256EA2394B3F15C
S315020028B0FF3F07FB0516B8BF002407FB052304FBF1
S315020028C0051106EB460704FB0522049E03EB4303B0
S315020028D001EB4101F75D02EB4202F35C715C00EE33
S315020028E0107AB25C03EE103A04EE101A05EE102AC4
S315020028F0B8EE400AB8EE433AB8EE444AB8EE455A44
S3150200290033EE403A35EE445AA2EE030AA2EE054AE7
S3150200291080F3080434EE402AA1EE020A11F01EF8F2
S3150200292080F308010698089A8068002851EA028016
S3150200293052EA018181F080010BF8021C84F08001C9
S31502002940099C0BF8011C80F080008BF80000B8F19E
S3150200295001080AF1010A0BF1030B7FF47DAD02981F
S31502002960DDF804800130DDF80CB040450BF5287B1C
S315020029707FF45EAD0020C9E480B5012916DBA8B15B
S31502002980A3B101EE102A41F001E0B8EEC11A00BF70
S3150200299010F9011B02EE101AB8EEC22A32EE412AD3
S315020029A020EE022AA3EC012A0FF00FC080BDD4D478
S315020029B02DE9F04F81B02DED068BADF5816D002826
S315020029C04FF0FF3900F04281002900F03F81002AD2
S315020029D000F03C81002B00F03981DDF84CB4BBF1EC
S315020029E0000F00F033818446DDF85004002800F021
S315020029F02D81DDF848044FF000090128C0F2268136
S31502002A00DDF854040128C0F22181B0F5807F6FF011
S31502002A10010900F21B81DBF80870B7F5807F00F32D
S31502002A201581874257EAB0804FF0000901900128CC
S31502002A30C0F20C81BFEE000A0DF1080A9FED871A5B
S31502002A40B6EE002A00BF00BFDDF848049BED003A4F
S31502002A5040F001E000244FF0FF35B0EE404A00BFDF
S31502002A6001EB840090ED005AB4EE435AF1EE10FAEF
S31502002A7000F19A80B9F1000F00F08E8050464F4661
S31502002A8050F8048BA04500F08F80013FF8D10CEB83
S31502002A900410574690ED006A90ED027A77EE462AC8
S31502002AA0D0ED010AD0ED031A484671EEE03AF5EE92
S31502002AB0402AF1EE10FAF5EE403A48BFF0EE412A0E
S31502002AC0F1EE10FA48BFF0EE413A62EEA32ADBEDD0
S31502002AD0013A00BF00BF00BF57F8046B0CEB0616A5
S31502002AE0D6ED004AD6ED015AB4EE646AD6ED027A04
S31502002AF0F1EE10FAF4EE650A96ED039A76FE246A72
S31502002B00F1EE10FAF4EE477A77EEE44A30FEA58A41
S31502002B10F1EE10FAB4EE619A79EE655A37FE27AAFB
S31502002B20F1EE10FA7AEE666AF0EE627A31FE89AA60
S31502002B303AEE488AF5EE406AF1EE10FAB5EE408AB0
S31502002B4048BFF0EE416AF1EE10FAF5EE404A48BF90
S31502002B50B0EE418AF1EE10FAF5EE405A48BFF0EEB9
S31502002B60414AF1EE10FA48BFF0EE415A44EEA57A18
S31502002B7066EE884A77EEE45AC4EEA54AF5EE405A66
S31502002B80F1EE10FA98BFF0EE414AF4EE634AF1EE26
S31502002B9010FA09DC01389FD1B4EE445AF1EE10FA6C
S31502002BA054EAC58535FE044A01340FF0A7C8B5F1CB
S31502002BB0FF3F4BDD0CEB0510DDF850444FEA491799
S31502002BC090ED003A90ED024A34EE434A90ED015AF6
S31502002BD090ED036A04EB491036EE456AB5EE404ABB
S31502002BE0F1EE10FAB5EE406A48BFB0EE414AF1EE98
S31502002BF010FA48BFB0EE416AB4EE464A51F8256073
S31502002C00F1EE10FAA4EE023AE651A6EE025A4FEAA5
S31502002C10C50734FE067A80ED013A80ED025A80ED50
S31502002C20037A043752F8356006614AF82950D659B4
S31502002C30466153F835608661019E09F10109DF5943
S31502002C40C761B1457FF400AFDDF8049048460DF543
S31502002C50816DBDEC068B01B0BDE8F08F000000006F
S31502002C6080B5FEF7F1FF00284FF0020018BF0020E2
S31502002C7080BD072888BF704710B544F2E06C029CFD
S31502002C80C2F21B2C0CEBC00E2CF83010AEF8022050
S31502002C90AEF80430AEF80640BDE81040704707288B
S31502002CA00ED8002908BF704780B544F22072B423BB
S31502002CB0C2F21B2200FB0320B42210F0E6FE80BD06
S31502002CC07047D4D4D4D4D4D482B044F61477032132
S31502002CD0C2F21B27002201234FF0FF383868CDF8D5
S31502002CE000800CF0EBFA40F210004BF2FC61C2F2EB
S31502002CF00020C0F2022107F0BAFB386804210CF06A
S31502002D007BFA42F68750C0F2002006F0FCFE3868D5
S31502002D1008210CF071FA44F2E06444F22075C2F222
S31502002D201B24C2F21B2500BF38684FF40051012252
S31502002D300123CDF800800CF0C1FA4021204610F0A4
S31502002D40A0FE4FF4B461284610F09BFE00204FF41B
S31502002D50C061012208F062FFFFF782FF06460020EB
S31502002D604FF4C061002208F059FF022E02D1022060
S31502002D7000F022FA38684FF480410CF03DFA012047
S31502002D800DF084FBD0E70EF089BCD4D4D4D4D4D4CD
S31502002D9084B0FDF739FF10B1132000F00DFA00F0F0
S31502002DA0FFFA10B1162000F007FA44F6F0604FF46D
S31502002DB08471C2F21B20002208F030FFFDF738FEB4
S31502002DC0FDF7BBFD10B10A2000F0F6F9FDF7EFFDA5
S31502002DD044F61474C2F21B2418B10A2000F0ECF96E
S31502002DE003E0206801210CF007FAFEF7D5F800206F
S31502002DF0FDF7F4FF18B10F2000F0DEF903E02068BA
S31502002E0002210CF0F9F945F2555BC0F2030BFDF70E
S31502002E1077F9FDF78AF920684FF0FF3100910F210B
S31502002E20002201230CF04AFAFEF7DBF843F6800192
S31502002E3044F6C046C6F66D0144F6C44501F01F00CD
S31502002E4044F6E847421E60F01F00019043F202601A
S31502002E500844039068A0C2F21B26C2F21B25C2F2E6
S31502002E601B274FF0800A4FF0F8094FF0FC0890ED4F
S31502002E70009F029200BF00BF20684FF480510122DA
S31502002E8001233C464FF0FF3700970CF017FAFDF787
S31502002E9064F93060FEF7ACF8FDF75FF92860306838
S31502002EA02968FDF760F96060FDF757F9306043F66F
S31502002EB080004FF4D8318022C6F66D0010F0DCFD9A
S31502002EC040F2F04C0020039DC2F2012C00BF00BF6D
S31502002ED000FB0BF1C02242F001E00023090C01EBDA
S31502002EE081010CEB012229461C0C5B4432F814408A
S31502002EF009EA142708EAD40687F0800701F8027C5B
S31502002F0086F0800701F8017C8AEAC40701F8037B90
S31502002F100FF017C0013005F510759028D8D140F290
S31502002F20080044F6D042C2F20020C2F21B2244F646
S31502002F30147444F6C046006844F6C44544F6E847AD
S31502002F400128C2F21B24C2F21B26C2F21B25C2F2C0
S31502002F501B2782ED009F4FF000014FF01803C2E9D4
S31502002F6004131DDB0199029A0144104401EAE1713E
S31502002F70401A0121BFF34F8F01EB501E43F680002A
S31502002F804EF66871C6F66D00CEF2000100BF00BFB4
S31502002F90086020300FF005C0BFF34F8FBFF36F8F6D
S31502002FA0FDF7DBF8286030682968FDF7DCF8F86081
S31502002FB020684FF400510CF01FF901200DF066FA5B
S31502002FC0206800210CF02EFAC0F3803520684FF4F9
S31502002FD080410CF027FA2846FDF782F9284644F686
S31502002FE0C445C2F21B2500F00FF814200DF04EFA6C
S31502002FF042E700BF00BF00BF800200005000000091
S31502003000C0000000900000002DE9F04383B040F2BA
S31502003010DD0542F22351C2F2012543F2F32243F2C5
S31502003020D6030446C0F20221C0F20222C0F20223F3
S3150200303028460EF05DFB2846FDF7EEFD4AF6E861EE
S315020030401522C0F20221284610F01FFD2846FDF780
S31502003050E3FD44F6E847C2F21B273E683046FDF719
S315020030608BF842F6F7010346C0F2022128463246A1
S315020030700EF03EFB2846FDF7CFFD7E683046FDF793
S315020030807BF842F253710346C0F2022128463246C9
S315020030900EF02EFB2846FDF7BFFDFE683046FDF713
S315020030A06BF842F6D7610346C0F202212846324641
S315020030B00EF01EFB2846FDF7AFFD3E693046FDF7D2
S315020030C05BF842F630010346C0F202212846324638
S315020030D00EF00EFB2846FDF79FFDBE683046FDF753
S315020030E04BF842F6B5410346C0F202212846324663
S315020030F00EF0FEFA2846FDF78FFD4BF22821192223
S31502003100C0F20221284610F0C0FC2846FDF784FDD5
S3150200311040F2DD00C2F201202CB14AF660710F22A4
S31502003120C0F2022104E04BF28C511922C0F20221B4
S3150200313010F0ABFC40F2DD09C2F201294846FDF768
S315020031406BFD44F2E06042F24168C2F21B200026A7
S31502003150071D0825C0F2022837F9043C8BB137F95E
S31502003160020C70B1B7F90010B7F90240F2B28DE85D
S315020031701300484641460EF0BBFA4846FDF74CFDA1
S315020031800136013D07F10807E6D130061CBF03B040
S31502003190BDE8F08340F2DD044BF27041C2F2012435
S315020031A0C0F202214122204610F06FFC204603B0F5
S315020031B0BDE8F043FDF730BD0138152800F2EE8078
S315020031C080B5DFE800F00B754E623193B06BCE44EA
S315020031D0C4283BA61F58157FBAD8899D40F2DD0048
S315020031E04BF2FC41C2F20120C0F202213822CBE0AE
S315020031F040F2DD004BF2E021C2F20120C0F20221D0
S315020032005222C1E040F2DD004AF6F471C2F2012018
S31502003210C0F2022137E040F2DD004BF29031C2F2F9
S315020032200120C0F202219AE040F2DD004BF2D431D5
S31502003230C2F20120C0F202214822A5E040F2DD00DE
S315020032404BF24421C2F20120C0F202219BE040F27D
S31502003250DD004BF23431C2F20120C0F202215B22C0
S3150200326092E040F2DD004BF29C21C2F20120C0F254
S315020032700221422288E040F2DD004BF2A851C2F25E
S315020032800120C0F2022151227EE040F2DD004BF223
S31502003290E801C2F20120C0F2022160E040F2DD0044
S315020032A04BF22C11C2F20120C0F2022149226BE03C
S315020032B040F2DD004AF67071C2F20120C0F202212C
S315020032C03F2261E040F2DD004BF2FC51C2F20120E6
S315020032D0C0F20221502257E040F2DD004BF24801D3
S315020032E0C2F20120C0F2022153224DE040F2DD007B
S315020032F04BF2B441C2F20120C0F20221472243E05E
S3150200330040F2DD004BF27811C2F20120C0F2022136
S315020033102FE040F2DD004AF60071C2F20120C0F24F
S3150200332002215D2230E040F2DD004BF29C01C2F246
S315020033300120C0F202214B2226E040F2DD004BF2D0
S315020033401C41C2F20120C0F2022154221CE040F2CA
S31502003350DD004AF6B071C2F20120C0F20221432218
S3150200336012E040F2DD004BF2D011C2F20120C0F2AF
S315020033700221562208E040F2DD004BF23451C2F23D
S315020033800120C0F20221552210F07FFB40F2DD003F
S31502003390C2F20120FDF740FCBDE8804000BE704746
S315020033A080B544F6E0604BF63811C2F21B20C0F23B
S315020033B0022109F0A8F988B944F6D0604BF620112B
S315020033C0C2F21B20C0F2022109F09DF930B944F67F
S315020033D0E060C2F21B2009F0DEF900B180BD44F6BE
S315020033E0D060C2F21B20BDE8804009F0D4B910B506
S315020033F082B044F614740020C2F21B2401902068A5
S315020034000CF041F80004216818D44FF2994001AB40
S31502003410C0F200204FF400420DF051FF60B1019856
S3150200342050B14EF604504FF08051CEF200000160CA
S31502003430BFF34F8FBFF36F8F02B010BD4FF29D40A7
S315020034404FF40042C0F20020002302B0BDE8104053
S315020034500DF035BF704710B5022825D144F6F06449
S315020034604BF6C051C2F21B24C0F20221204608F0DC
S31502003470C4FB64204FF47A710BF0B3F94BF6D461B6
S315020034802046C0F2022108F0C3FB01200BF094FA99
S31502003490FCF782FE002808BF10BD002040F6072177
S315020034A0012208F0BBFB00BE10BD80B584B044F615
S315020034B0A4704BF24C63C2F21B2044F6FC4C49F654
S315020034C0D00EC0F2022301684FF48052013101602E
S315020034D00220009043F2135043F2B301C0F20020DF
S315020034E0C0F20221C2F21B2CC2F21B2ECDE901EC64
S315020034F00CF07DFD44F66C51C2F21B21086008B146
S3150200350004B080BD0020002104B0BDE8804000F078
S315020035105CB810B5044600F05BF82046BDE81040E2
S31502003520FFF7D2BB80B584B044F6A4704BF2F863C1
S31502003530C2F21B2044F6D05C4DF6D00EC0F2022336
S3150200354001684FF48062013101600120009043F26C
S315020035508D5042F65C31C0F20020C0F20221C2F266
S315020035601B2CC2F21B2ECDE901EC0CF040FD44F6F9
S315020035704061C2F21B21086008B104B080BD002080
S31502003580002104B0BDE8804000F01FB810B5044623
S3150200359000F01EF82046BDE81040FFF7F9BB80B5E3
S315020035A044F6F860C2F21B200BF0F3FD44F61471E8
S315020035B0C2F21B21086000B180BD00200021BDE8D7
S315020035C0804000F002B8FFF7EABF00BE7047D4D4CD
S315020035D0B0B544F69C744FF0FF31C2F21B2420684A
S315020035E00CF0BEFB012803D020680021FFF7EDFF97
S315020035F044F6A070C2F21B20017801B1B0BD0121D0
S315020036000170FFF7E0FF44F6A475C2F21B2500BF66
S31502003610286801382860F1D02068002100220023A2
S315020036200CF04AF80128F3D020680021FFF7CDFFFD
S31502003630EEE780B544F6A07244F6A470C2F21B22ED
S31502003640C2F21B200021117044F6A8720160C2F278
S315020036501B224FF4807001210CF00EF844F69C7187
S31502003660C2F21B21086018B900200021FFF7ADFF46
S31502003670FFF758FFFFF719FF0CF08CFF002080BD03
S3150200368044F6F07C45F26003C2F21B2CC2F21B2305
S31502003690C0F800C00B6080201060704745F2602CB5
S315020036A045F2D023C2F21B2CC2F21B23C0F800C083
S315020036B00B6080201060704710B5DDF80CC05FEA21
S315020036C0CC6E04D590F882E05FEA0E6E17D55FEAFB
S315020036D08C6E04D590F882E05FEA8E6E0FD52CF0E0
S315020036E0300EAEF10D0EBEF1020F0CD8D0F880E00E
S315020036F05FEACE3407D40EF0FE04092C03D8092162
S3150200370080F8C61106E0406A029C00F5B47080E8B3
S315020037101E100021084610BD2DE9F04F8DB0446AF7
S3150200372083469246DDF86C80D4E95B070D46169E09
S31502003730D4F87421B0F5006F01EB0300A8BF28F09E
S315020037400808B8420AEB06000B93C8BFFD1ADBF85D
S31502003750309006959042CDF830A0C8BFA2EB060A7B
S31502003760B9F1000F5FEA0F9018F4807F5FEA1080CC
S31502003770E27DD4F8787101280A90099174D189F80A
S31502003780002094F80E0189F8020094F8D50089F811
S315020037900100D4F8FC00C9F80400D4F80001C9F805
S315020037A00800D4F82C01C9F80C0094F8E90089F84D
S315020037B02900D4F83801C9F81000D4F83401C9F840
S315020037C0140094F8E80089F82800D4F8EC00C9F847
S315020037D01800D4F8F000C9F81C00D4F8F400C9F8AF
S315020037E02000D4F8F800C9F8240094F8EA0089F811
S315020037F02A0094F8EB0089F82B00D4F83C01C9F8AA
S315020038002C00D4F84001C9F83000D4F82401C9F8D4
S315020038103400D4F85801C9F83800D4F85C01C9F864
S315020038203C00B4F8A800A9F85400B4F8AA00A9F814
S315020038305600D4F8A000C9F84C00D4F8A400C9F880
S315020038405000D4F89800C9F84400D4F89C00C9F88E
S315020038504800D4F8B000C9F85C00D4F8B400C9F83E
S3150200386060000020079000E007920321584601F00D
S3150200387037F800210022584605F0B2FEF8060897EE
S315020038801FD4D4F8780120F030000F2829D8DFE8B9
S3150200389010F010002C0038002C002C0058013800C3
S315020038A02C002C0010001000100010001000100058
S315020038B01000D4E95A010B9A1044169A01FB02072A
S315020038C02AE008F00F015846D4F8686105F097FD22
S315020038D0D4E95B23D4E95D01CDE9000158463146BE
S315020038E028E0A0F14101022909D2D4E95A01169A27
S315020038F051430B9A00EB420000EB41070CE04028D3
S3150200390009D1D4E95A01169A51430B9A00EB820067
S3150200391000EB810700E0002708F00F01584605F08A
S315020039206EFDD4F86C21D4F87801CDE900A0584692
S315020039303946069B05F048FC4FEA08604FF07F4186
S3150200394001EAE0705FEA88614FF0A001179B58BF59
S315020039504FF07F4031EA080118BF4FF07F415FEA1E
S31502003960C862099F05D45FEA486207D46FF07F42B6
S3150200397007E05FEA4862A26801D402E0A268104347
S31502003980E268114394F80E21189D112BC4E95601E1
S3150200399042F0050084F80E0108D398B23905DDF825
S315020039A02CC09A46B1FBF0F14B0805E09A46DDF8C9
S315020039B02CC04FF480310023DDF868E0112D4FF062
S315020039C0000005DB0C9A1205B2FBF5F6720802E05E
S315020039D04FF48036002218F4007F51EA01B118BF75
S315020039E0C3EB07430C9F18F4806F18BFC2EB074264
S315020039F056EA06B65FEA487748BFA3F500435FEA90
S31502003A00087748BFA2F50042089F17F0100F169FCD
S31502003A1018BF03EB0C4318BF02EB0742199FCDE90F
S31502003A20002139467246CDE902005846049676468A
S31502003A3005F0B7FD584621463A463346CDE900A57C
S31502003A4000F029FC0A98002873D099F80000E07566
S31502003A5099F8020084F80E0199F8010084F8D5005D
S31502003A60D9F80400C4F8FC00D9F80800C4F800012B
S31502003A70D9F80C00C4F82C0199F8290084F8E90059
S31502003A80D9F81000C4F83801D9F81400C4F8340182
S31502003A9099F8280084F8E800D9F81800C4F8EC0070
S31502003AA0D9F81C00C4F8F000D9F82000C4F8F400D4
S31502003AB0D9F82400C4F8F80099F82A0084F8EA0034
S31502003AC099F82B0084F8EB00D9F82C00C4F83C01D5
S31502003AD0D9F83000C4F84001D9F83400C4F82401FA
S31502003AE0D9F83800C4F85801D9F83C00C4F85C018A
S31502003AF0B9F85400A4F8A800B9F85600A4F8AA0028
S31502003B00D9F84C00C4F8A000D9F85000C4F8A400B3
S31502003B10D9F84400C4F89800D9F84800C4F89C00C3
S31502003B20D9F85C00C4F8B000D9F86000C4F8B40053
S31502003B3003E05846079900F0D3FE00200DB0BDE819
S31502003B40F08F9BF88200800603D409208BF8C60109
S31502003B50F4E71020C0F20400C4F82C01012084F816
S31502003B60E900A6E62DE9F04F83B00C9E0446002E2E
S31502003B704FF0000000F096828A460D990129C0F2A4
S31502003B809182951922F00F00ADF8040023F00F0080
S31502003B90ADF80600681E5E1820F00F00ADF80800AA
S31502003BA0701E20F00F00ADF80A0001A920469B46C0
S31502003BB0174605F076FFC0B1A5F11000A6F1100177
S31502003BC00FFA80F920460FFA81F8514604F094FE66
S31502003BD09AF8D50081074FEAC07008D4002840F051
S31502003BE01D8101AA0023002030E200205AE20028AB
S31502003BF040F0148149EA070048EA0B0100074FEA40
S31502003C00017000F05282BDF904104FF48032002890
S31502003C10A1EB070140F20007CFF6FF7702EB013175
S31502003C20D4F8B82102F10803C4F8B8314FF00403FE
S31502003C30C2E90031D4F8BC11A1F10100C4F8BC01FB
S31502003C4000F0B482012903DCD4F8C011204688476B
S31502003C50D4F8B8014FF4803200F10801C4F8B81163
S31502003C600A21C0E90012D4F8BC010138C4F8BC012B
S31502003C7003DCD4F8C01120468847D4F8B8010022E4
S31502003C8000F10801C4F8B8111021C0E90012D4F8F5
S31502003C90BC010138C4F8BC0103DCD4F8C0112046CB
S31502003CA08847BDF904004FF48031A9EB000001EB0F
S31502003CB00030D4F8B81101F10802C4F8B82105227F
S31502003CC0C1E90020D4F8BC010138C4F8BC0103DC08
S31502003CD0D4F8C01120468847D4F8B80100F108018B
S31502003CE0C4F8B8110B21C0E90017D4F8BC01013899
S31502003CF0C4F8BC0103DCD4F8C01120468847D4F8C6
S31502003D00B801002200F10801C4F8B8111121C0E976
S31502003D100012D4F8BC010138C4F8BC0103DCD4F8A3
S31502003D20C01120468847BDF906004FF48031A0EB4A
S31502003D300B0001EB0030D4F8B81101F10802C4F807
S31502003D40B8210622C1E90020D4F8BC010138C4F822
S31502003D50BC0103DCD4F8C01120468847D4F8B80168
S31502003D60002200F10801C4F8B8110C21C0E90012C2
S31502003D70D4F8BC010138C4F8BC0103DCD4F8C01184
S31502003D8020468847D4F8B8014FF4803500F108017F
S31502003D90C4F8B8111221C0E90015D4F8BC010138E3
S31502003DA0C4F8BC0103DCD4F8C01120468847BDF92B
S31502003DB00600D4F8B81101F10802C4F8B821A8EB3C
S31502003DC00000072205EB0030C1E90020D4F8BC014F
S31502003DD00138C4F8BC0103DCD4F8C0112046884778
S31502003DE0D4F8B801002200F10801C4F8B8110D2177
S31502003DF0C0E90012D4F8BC010138C4F8BC0103DCE6
S31502003E00D4F8C01120468847D4F8B80100F1080159
S31502003E10C4F8B8111321C0E900170AE1BDF904007C
S31502003E20DAF81011C01B484301EB1010D4F8B81190
S31502003E3001F10802C4F8B8210422C1E90020D4F82D
S31502003E40BC010138C4F8BC0103DCD4F8C011204619
S31502003E508847D4F8B811DAF8100101F10802C4F85B
S31502003E60B8210A22C1E90020D4F8BC010138C4F8FD
S31502003E70BC0103DCD4F8C01120468847D4F8B80147
S31502003E80002200F10801C4F8B8111021C0E900129D
S31502003E90D4F8BC010138C4F8BC0103DCD4F8C01163
S31502003EA020468847BDF90400DAF81011A9EB000094
S31502003EB0484301EB1010D4F8B81101F10802C4F816
S31502003EC0B8210522C1E90020D4F8BC010138C4F8A2
S31502003ED0BC0103DCD4F8C01120468847D4F8B811D7
S31502003EE0DAF81001404201F10802C4F8B8210B22A7
S31502003EF0C1E90020D4F8BC010138C4F8BC0103DCD6
S31502003F00D4F8C01120468847D4F8B801002200F13F
S31502003F100801C4F8B8111121C0E90012D4F8BC0195
S31502003F200138C4F8BC0103DCD4F8C0112046884726
S31502003F30BDF90600DAF81011A0EB0B00484301EBBD
S31502003F401010D4F8B81101F10802C4F8B8210622FB
S31502003F50C1E90020D4F8BC010138C4F8BC0103DC75
S31502003F60D4F8C01120468847D4F8B801002200F1DF
S31502003F700801C4F8B8110C21C0E90012D4F8BC013A
S31502003F800138C4F8BC0103DCD4F8C01120468847C6
S31502003F90D4F8B811DAF8100101F10802C4F8B82110
S31502003FA01222C1E90020D4F8BC010138C4F8BC01D0
S31502003FB003DCD4F8C01120468847BDF90600DAF8BA
S31502003FC01011A8EB0000484301EB1010D4F8B81109
S31502003FD001F10802C4F8B8210722C1E90020D4F889
S31502003FE0BC010138C4F8BC0103DCD4F8C011204678
S31502003FF08847D4F8B801002200F10801C4F8B811C4
S315020040000D21C0E90012D4F8BC010138C4F8BC0184
S3150200401003DCD4F8C01120468847D4F8B811DAF880
S315020040201001404201F10802C4F8B8211322C1E985
S315020040300020D4F8BC010138C4F8BC0103DCD4F872
S31502004040C0112046884701AA04230F20009020466B
S31502004050514602F04EF901AF06460023204651466C
S315020040603A46002504F0E8F90023204651463A462E
S3150200407005F0E4FAD4F8B80100F10801C4F8B81161
S31502004080C0E90056D4F8BC010138C4F8BC0103DC0F
S31502004090D4F8C0112046884701A90022204604F020
S315020040A0E1FE012003B0BDE8F08F00283FF499AD90
S315020040B0BDF906004FF48031A0EB0B0001EB003096
S315020040C0D4F8B81101F10802C4F8B8210422C1E9F2
S315020040D00020D4F8BC010138C4F8BC0103DCD4F8D2
S315020040E0C01120468847D4F8B801002200F1080121
S315020040F0C4F8B8110A21C0E90012D4F8BC0101388B
S31502004100C4F8BC0103DCD4F8C01120468847D4F8B1
S31502004110B8014FF4803500F10801C4F8B811102136
S31502004120C0E90015D4F8BC010138C4F8BC0103DCAF
S31502004130D4F8C01120468847BDF90600D4F8B81154
S3150200414001F10802C4F8B821A8EB0000052205EB2C
S315020041500030C1E90020D4F8BC010138C4F8BC0122
S3150200416003DCD4F8C01120468847D4F8B8010022EF
S3150200417000F10801C4F8B8110B21C0E90012D4F805
S31502004180BC010138C4F8BC0103DCD4F8C0112046D6
S315020041908847D4F8B801112200F10801C4F8B81111
S315020041A00021CFF6FF71C0E9002166E0012903DC98
S315020041B0D4F8C01120468847D4F8B8014FF48032AB
S315020041C000F10801C4F8B8110A21C0E90012D4F8B6
S315020041D0BC010138C4F8BC0103DCD4F8C011204686
S315020041E08847D4F8B801002200F10801C4F8B811D2
S315020041F01021C0E90012D4F8BC010138C4F8BC0190
S3150200420003DCD4F8C01120468847BDF904004FF4F8
S315020042108031A9EB000001EB0030D4F8B81101F1AE
S315020042200802C4F8B8210522C1E90020D4F8BC016D
S315020042300138C4F8BC0103DCD4F8C0112046884713
S31502004240D4F8B80100F10801C4F8B8110B21C0E98D
S315020042500017D4F8BC010138C4F8BC0103DCD4F859
S31502004260C01120468847D4F8B801002200F108019F
S31502004270C4F8B8111121C0E90012D4F8BC01013802
S31502004280C4F8BC0103DCD4F8C0112046884701AA51
S3150200429002230320DAE680B5DDE902ECCDE902EC81
S315020042A0BDE88040FFF75EBC2DE9F04F8BB0DDF82C
S315020042B054A01D46BAF1010F93460C468046149847
S315020042C015DB1FFA8AF100EB5103A0EB51010BEB50
S315020042D00302EE18092953EAB08002F10F02079091
S315020042E006F10F01B8BF4FF0000A184607E00BEBC4
S315020042F000012B1801F10F0203F10F010790B4F927
S31502004300DA904FF6F0732E1AABEB000019401A4002
S3150200431026F00F0320F00F00B9F1010FADF82400CB
S31502004320ADF82630ADF82820ADF82A10089429DB1E
S31502004330B8F9727000B2B8F97440A0EB0900B8F986
S315020043407660AC46B8F978501BB2B84250EAC780DC
S31502004350A3EB0903ADF82400A34253EAC48009FA89
S3150200436082F2089C09FA81F1ADF82600B24252EABD
S31502004370B680A94251EAB5816546ADF82800ADF886
S315020043802A1001E04FF0000909A9404605F089FB11
S31502004390002865D0BDF82400BDF82610ABEB00005E
S315020043A00FFA80FB681A07B24046214604F0A4FAC7
S315020043B05FEA0A40D4F8286100F0AD800FFA8AF469
S315020043C0079800B204FB04F181424BDA089890F890
S315020043D0D500C00746D104F1100040F6FF71079AD6
S315020043E0089D00EBD0700132C0024FF0000A8843EC
S315020043F0012112B2CDE9007202900022CDE903A199
S31502004400404629465B4600F06AFB48F2410006F444
S31502004410007109AA0223084300904046294601F08A
S3150200442068FFD8F8B821210302F10803C8F8B831A9
S315020044301623C2E90031D8F8BC1107460139C8F87B
S31502004440BC1103DCD8F8C01140468847D8F8B80139
S31502004450089C00F10801C8F8B811C0E900A74DE0B0
S315020044600020A9E01FFA8AF00696089C00220AEBB1
S31502004470D030214605B2079806465B4600EB65003A
S315020044804FF0010900B2CDE9007040464FF0000A34
S31502004490CDF808A0CDE903A900F021FBA6EB650043
S315020044A048F20001CFF6FF7100B2CDE90070022298
S315020044B00291404621465B46CDE9039900F00FFB87
S315020044C098F88300069901F42061400701F1C500BE
S315020044D005D594F8D51001F0010140EA016009AA58
S315020044E0042300904046214601F003FFD8F8B81194
S315020044F001F10802C8F8B821C1E900A0D8F8BC0148
S315020045000138C8F8BC0144DCD8F8C01140468847D7
S315020045104FF0000A3DE007990120002509B2CDE9D6
S315020045200071002221465B46CDE9035040460295C2
S3150200453000F0D5FA98F8830006F4007141F44001C0
S31502004540400741F0410005D594F8D51001F001016C
S3150200455040EA016009AA022300904046214601F082
S31502004560C8FED8F8B81101F10802C8F8B821C1E9A5
S315020045700050D8F8BC010138C8F8BC0103DCD8F8F1
S31502004580C01140468847079809FA80F00F304FEA73
S31502004590101A09AF0023404621463A4603F04CFF63
S315020045A00023404621463A4605F048F84046394639
S315020045B0524604F057FC01200BB0BDE8F08F80B5DF
S315020045C082B094460A46DDF810E0816ACDE9003EE3
S315020045D06346FFF769FE002002B080BDB0B582B027
S315020045E0B0F86EC0B0F870E0069D8C440EEB020483
S315020045F00FFA8CF2C16A0FFA84FCCDE900356346E4
S31502004600FFF752FE002002B0B0BD2DE9F04F83B095
S31502004610B0F96C50012D2CDBDDF8309004461F46B4
S3150200462090468A46B9F1000F1FFA89F6A8B20FDD45
S3150200463072084FEA500B02EB5002E16AB81A524670
S3150200464000B2CDE9000520464346FFF72DFE01E004
S315020046504FEA500B09EBD630E16A00B252464346A6
S3150200466007EB5000584400B2CDE900052046FFF79B
S315020046701BFE002003B0BDE8F08F2DE9F04182B0A9
S315020046800446B0F96C00DDF820801F4615460E463A
S31502004690B8F1010FA8BF012813DAB8F1000F1BD138
S315020046A0012819DBA0F1100108308AB200B201EB31
S315020046B0D2310AB2E16A07EB520212B2CDE9002008
S315020046C005E008EB4000E16A00B2CDE90070204641
S315020046D032462B46FFF7E8FD204604F0A5F8A16A0C
S315020046E0204632462B46CDE90078FFF7DDFD20460F
S315020046F004F0ECF8002002B0BDE8F0812DE9F041AB
S3150200470082B004461546B0F86E000E46B4F8702024
S315020047101F463044E16A531902B21BB22046DDF845
S315020047202080CDE90078FFF7BFFD204604F07CF833
S31502004730A16A204632462B46CDE90078FFF7B4FD42
S31502004740204604F0C3F8002002B0BDE8F081D4D4BC
S3150200475070B504464FF4BE7003F0FBFD0546002813
S315020047604FF0010000F09D8087FF5F006FF07F41F0
S31502004770C5E90141E9604FF07F4185ED100F002642
S315020047804FF4803CC5F85411C5F8286185F80E61CE
S31502004790C5F810C1C5E95311022185F8D5101021BB
S315020047A0A9824FF4B052C5F81C214FF47033D4F8E5
S315020047B080204FF40021120140F20802C2F24002A8
S315020047C058BF4FF48002C5F82021C5F834310423BE
S315020047D085F8E930C5F82C11C5F83C61C5E9506683
S315020047E033A3616D85F8D400114393ED001F34A302
S315020047F041F4002141F4B051C5F82411AA21C5F8AB
S31502004800141140F20111A5F80C0105F11C0085ED09
S31502004810160FC0F2400193ED001FC5F830C1C5F86E
S3150200482018C185ED311FC5F8D610A5F8DA6085F8EE
S315020048300F61C5F84861C5E93F66C5E9416601F001
S3150200484053FD05F1340001F04FFD05F14C0001F076
S315020048504BFD05F1640001F047FD05F17C0001F016
S3150200486043FD05F1940001F03FFD05F1AC0001F0B6
S315020048703BFD17A005F1E4024FF0FF31C5E93761B0
S3150200488090ED001F0C2085F8E800C5F83811204687
S31502004890294682ED000F04F0CFFDE0692860002072
S315020048A0E56184F8C601284670BD00BF00BF00BF9F
S315020048B001000000000000000000000000000000EF
S315020048C0AA00000004000000000000001000000022
S315020048D001000000030000000300000003000000C6
S315020048E00246406A032990F80E31C17543F001036E
S315020048F080F80E3114D8DFE801F00202070D90F8B5
S31502004900D51001F0F30109E090F8D51001F0F3019A
S31502004910043103E090F8D51041F00C0180F8D5106F
S315020049200020002182F8C61170470346406A00EB58
S31502004930810022F07F418160586A90F80E1141F0A1
S31502004940010180F80E110020002183F8C61170477C
S315020049508446406A827C90F80E318A4243F0010214
S3150200496080F80E2103D043F0070280F80E21827DE3
S315020049708174D20702D00906C0F84C11002000212A
S315020049808CF8C61170478446406A827D90F80E31D3
S31502004990914243F0010280F80E2103D043F0070250
S315020049A080F80E21CA07817502D14FF07F4101E0DE
S315020049B0817C0906C0F84C11002000218CF8C61132
S315020049C07047D4D4B0B5D0F824E003299EF80EC1BE
S315020049D04CF001038EF80E310ED8032A0CD84BF692
S315020049E02C73C0F2022353F82110DFE802F0020C06
S315020049F0070A41F4805106E010211BE041F4806170
S31502004A0001E041F4A051CEF81C11DEF82C21436DD1
S31502004A10DEF820C1DEF83C511A43DEF8403142EAA4
S31502004A200C02DEF844412A431A4322431143CEF8CC
S31502004A302411002180F8C6110846B0BD0246406A1C
S31502004A4090F8D53039B143F0020180F8D510002133
S31502004A50C0F828110DE04FF4FC41C0F828114FF4BC
S31502004A608031C0F8101103F0FC0180F8D510102136
S31502004A7081820020002182F8C61170470246406AF0
S31502004A800023022980F8D6104FF0000108BF032345
S31502004A9080F80F31002082F8C61170470246406A3C
S31502004AA080F8D7100020002182F8C6117047D0F88E
S31502004AB04C11027C437C090A6FF07F4C01FB02C257
S31502004AC001FB03C190F80E3102F07F4201F07F41F3
S31502004AD0C0E9542103F0FD0180F80E1170472DE95B
S31502004AE0F04F85B00DF1380C044691F8D500934687
S31502004AF09CE84011DDF844E0C007A3EB0809A6EBE9
S31502004B00080A34D10FFA8AF10FFA89F252EA010041
S31502004B1040F20000CFF6C07000F08E801FFA88F7D0
S31502004B20994690FBF8F302FB02F008EBD73711FB2C
S31502004B3001003FB21144102283FB00054FEAE30A4B
S31502004B40A2EB490350EADF25A2EB46020AFB03F376
S31502004B5001EB57010AFB02F7DD17A0EB0132F8174A
S31502004B6003EB157107EB10700F110511B3E002A8E4
S31502004B7080E84810129818B194F8830040076DD463
S31502004B804FF07840B1F91420CDF804B0D1F810B145
S31502004B9090FBF8F0D3177546C71750EA0F27394628
S31502004BA00CF030FC19FB09F21FFA88F31AFB0A22F1
S31502004BB0AE4608EBD333120A0FFA83FCA0FB02754A
S31502004BC00FFA89F701FB025507FA8AF701FB02F38E
S31502004BD007EB6C07EE17FD17360FE0FB0263A7FB28
S31502004BE00B2756EA2F1305FB0B75DDF804B052EAC4
S31502004BF00F15B21A4FEAE176AB41DF1712EB1762D5
S31502004C00039F43F1000310EB165A41F100015AEAE1
S31502004C101F310299102052EA1F23A0EB4101A0EB9B
S31502004C20470001FB0AF100FB0AF0CF17C51701EB9B
S31502004C30177100EB15704AE000F5601090FBF8FA68
S31502004C401020A0EB48000AFB00F0C11700EB117020
S31502004C5000210511A1EBC8222F463CE04FF0784017
S31502004C60B1F9142019FB09F31FFA88F590FBF8F045
S31502004C701AFB0A3308EBD53580010FFA89FC1F0AA5
S31502004C802DB290FBF2F2D1F8101182FB0703180F36
S31502004C900023C2FB07030CFA8AF707EB55074FEA14
S31502004CA0221A029A7943102750EA2F13A7EB4202DF
S31502004CB00AFB02F5039AA7EB4202EF170AFB02F37D
S31502004CC0A0EB810205EB1771D81703EB10700F11D9
S31502004CD00511DDF810C0BEF1000F0BF1040002EB66
S31502004CE00C016AD0D4F8B821494202F10803C4F88B
S31502004CF0B831C2E90001D4F8BC010138C4F8BC01DC
S31502004D0003DCD4F8C01120468847D4F8B8110BF159
S31502004D10050001F10802C4F8B8217A42C1E900028D
S31502004D20D4F8BC010138C4F8BC0103DCD4F8C011C4
S31502004D3020468847D4F8B8110BF1100001F1080299
S31502004D40C4F8B8216A42C1E90002D4F8BC010138AC
S31502004D50C4F8BC0103DCD4F8C01120468847D4F855
S31502004D60B8010BF10B0100F10802C4F8B8210022C8
S31502004D70A2EB4A05C0E90015D4F8BC010138C4F813
S31502004D80BC0103DCD4F8C01120468847D4F8B80128
S31502004D9000F10801C4F8B8110BF11101C0E90015C0
S31502004DA0D4F8BC010138C4F8BC0168DCD4F8C011DF
S31502004DB0204605B0BDE8F04F0847D4F8B82102F105
S31502004DC00803C4F8B831C2E90001D4F8BC010138BD
S31502004DD0C4F8BC0103DCD4F8C01120468847D4F8D5
S31502004DE0B80100F10801C4F8B8110BF10501C0E9D8
S31502004DF00017D4F8BC010138C4F8BC0103DCD4F8AE
S31502004E00C01120468847D4F8B80100F10801C4F859
S31502004E10B8110BF11001C0E90015D4F8BC01013834
S31502004E20C4F8BC0103DCD4F8C01120468847D4F884
S31502004E30B8110BF10B0001F10802C4F8B8214FEAD0
S31502004E404A05C1E90005D4F8BC010138C4F8BC0121
S31502004E5003DCD4F8C01120468847D4F8B80100F123
S31502004E600801C4F8B8110BF11101C0E90015D4F814
S31502004E70BC010228A0F10100C4F8BC0196DB05B012
S31502004E80BDE8F08FF0B581B00646856914200F465D
S31502004E9003F05FFA044600284FF000002AD0C4E966
S31502004EA0027007EB870196F868008900C00703D1F4
S31502004EB0304603F07EFA02E0084603F04AFA01465B
S31502004EC06060A0B10027276196F86800C00717D175
S31502004ED0D6F88400C2060FD4800711D5A068042133
S31502004EE000EB80008200284608F0A0FF07E020467B
S31502004EF003F031FA002404E0284608F09FFF2061FF
S31502004F002760204601B0F0BD41B3F0B581B00C4632
S31502004F100546866900BF00BF95F868002746D4E9B2
S31502004F200041C00704D1284603F066FA03E000BF39
S31502004F30084603F010FA3A693AB195F884008007F8
S31502004F4003D50421304608F074FF384603F003FA0D
S31502004F500CB12FF01FC801B0BDE8F040704710B584
S31502004F6004468068006830B92068216AFFF78AFF24
S31502004F7048B1A16808600021C16041682161816869
S31502004F80E161A06010BD2068152180F8C71110BD2F
S31502004F90F0B581B00546086000204861EF6F0C4607
S31502004FA0CFB338686060202003F0D3F9606180B324
S31502004FB00646B868800003F0CCF9306048B3BA6898
S31502004FC072607968D5F888305943002AB1607A68E8
S31502004FD072610AD000200021326842F821000131B4
S31502004FE072689142F8D33068B168F06001EB8101D2
S31502004FF0A8698A00042108F019FF31680860306840
S31502005000006830B1306170687169C6E9061060687F
S3150200501006E000263DE028461146FFF733FF6060B2
S315020050204FF00006E060A0B3A0604168216180688D
S31502005030C4E906601020A0864020C4E90A6603F08F
S3150200504088F9206328B3616911B109680A680BE01F
S3150200505095F8841011F0120F616804D00A69002ACB
S3150200506008BF4A6800E04A68B4F9341001290ADB2D
S315020050700021002300BF00BF40F8041B0133B4F92E
S315020050803470BB42F8DB00202146E08600F018F8B7
S315020050900126304601B0F0BDB1F9340001280ADB21
S315020050A0086B4FF0000C002340F804CB0133B1F932
S315020050B034209342F8DB0020C8867047D4D4D4D477
S315020050C0F0B581B0B1F93660B1F934000C46174635
S315020050D0411EB142216B1ADC80B21030A08602B2A8
S315020050E09000012203F03CF9B4F9341020638E4299
S315020050F001460CDA01EB86000022334600BF00BFF0
S3150200510040F8042B0133B4F93450AB42F8DB01EB1F
S31502005110860041F82670711CE18601B0F0BDD4D438
S315020051202DE9F04381B0466904465EB1E069B16992
S31502005130002838D0012940F0E28020680121D0F809
S31502005140188067E0206948F23201C8F280010160E6
S31502005150002120694160A0682269151D40F2FF32D4
S31502005160C560206982600C302061E0690138E06127
S315020051702046A161FFF7F3FE206890F8C7010028D8
S3150200518071D0A16920690329A0F10C02226100F203
S31502005190B180DFE801F0029E8A9540F2FF3140F8C5
S315020051A00C1C0838A5E020680229D0F8188031D3F3
S315020051B0A5683369A8686968EF6800EB8002206910
S315020051C001EB820C03EB82091FB1C7F800900023A2
S315020051D0EB6060450ED29200031D11446FF003028C
S315020051E0994251EA8381411A22EA0101802204315D
S315020051F00EF042FCD5E90120316900EB8000830004
S3150200520010200090404608F01DFEB069C6F81090C6
S315020052100138AFE0F269022A1CD3F768A568501E6E
S31502005220F06157F8040F78B9B068042100EB8000EA
S315020052308200404608F0FAFD386028B9206801214C
S3150200524080F8C711386818B3E96881B10860002090
S31502005250E8601DE0002900F08E80012A04BF1521B6
S3150200526080F8C71187E0A0684068286047E0216996
S3150200527048F23202C8F280020A6021694860A068D8
S3150200528021690431C1602069083020610020A061D3
S31502005290A169032957D82069DFE801F00246343EA6
S315020052A040F2FF3140F8041B4CE00021C8F28001B5
S315020052B0090C20F80A1C40F2FF3140F8041B18E0E2
S315020052C0802100F8091C40F2FF3141602069143048
S315020052D00FE048F2000250F80C1CC0F2800262F3A2
S315020052E01F2141F4004140F80C1C40F2FF3140F806
S315020052F0041C20610020A061E0690138E06101B070
S31502005300BDE8F0830021C8F28001090C418040F219
S31502005310FF31C160103015E08021C17040F2FF31CB
S315020053200161206914300DE048F200020168C0F202
S31502005330800262F31F2141F40041016040F2FF3115
S3150200534081600C3020610020A061A068E16901390A
S31502005350E161D0E90120316900EB80008300102071
S315020053600090404608F06EFD386820B1F760386854
S3150200537030617069B061204601B0BDE8F043FFF7C5
S31502005380EEBDD4D4B0B58469032C1FD840F2000C0C
S315020053900169C8F2800C0CF500434FF0080EFF229B
S315020053A0DFE804F0190E02084FF00C0E4FF6FF72FA
S315020053B0634605E04FF0100E4FF000436FF07F4258
S315020053C00D682A401A430A60714401610021816115
S315020053D0C1690139C161B0BD10B50446006890F8D3
S315020053E06810890604D400F5BC703B210EF049FB17
S315020053F061696068C4E9020061B10868C8606069F1
S3150200540001680968016160694168C1616069416951
S31502005410816160684168216180680021C4E90610E3
S31502005420E16210BDD4D4D4D4F0B581B00546086883
S3150200543016460C4600F094F8A16903292AD8206979
S31502005440DFE801F00219071140F2FF3140F8041BB0
S315020054501FE00021C8F28001090C418040F2FF31B1
S31502005460C160103015E08021C17040F2FF31016148
S31502005470206914300DE048F200020168C0F2800291
S3150200548062F31F2141F40041016040F2FF31816065
S315020054900C3020610020A061E0690138E061E86F0C
S315020054A0C0B9A168086898B1A06A0130A0623C2818
S315020054B010D1086800BF00BF0F460146006808B158
S315020054C02FF007C02068FFF71FFD0020386000E0BC
S315020054D00020A062606990B14EB3206800F0ADFB77
S315020054E0A168E369D1E90121C91A636901EB810760
S315020054F01969BB000027009708F0A4FC11E0D5F853
