S02B0000766973696F6E5F61695F6574686F73755F6D6970696373695F676C63645F656B5F72613870315F6CD1
S31502000000201001223FC6000209C400024DC60002AA
S315020000104DC600024DC600024DC600024DC6000284
S31502000020000000000000000000000000E18900025C
S315020000304DC6000200000000F9890002618A000232
S3150200004071940002A593000247950002D195000221
S3150200005081AC0002DBA50002DBA50002079F0002BD
S31502000060F1A000023BA2000247A3000239B9000236
S3150200007045B70002ED8D0002791B0002CB1B000280
S31502000080771C0002231C0002C71C0002271D000267
S30902000090991D0002AC
S315020000941000000000000000017A5200017C0E01EB
S315020000A41B0C0D001000000018000000A4DE010065
S311020000B410000000000000000000000028
S315020000C000E1F5050101000000710200005802007E
S315020000D0D4030302B00D030216D70202D01703029D
S315020000E035EB02028F10030222D7020240EB020214
S315020000F033DD0202C7D40202E8E1020238CD02026F
S3150200010038FE020244FE0202C8F902022BD702029C
S315020001109E0B030245EB02023E080302A7F402020B
S31502000120041603021016030202DA0202CFD40202F6
S31502000130ABF60202D9E70202DCEC0202D7D40202D3
S31502000140D9E70202E4E70202DCEF020267F20202E8
S315020001504EDF02020DDA0202E8EC020281E5020239
S3150200016042CD020218DA0202E0FF02029C100302EA
S3150200017037DD0202DBD402024BCD020271F2020229
S3150200018071F202024AFE0202A505030237DD0202ED
S31502000190A4130302A8D2020215160302EDFF0202FD
S315020001A0ECE70202DA03030249EB0202B21303028C
S315020001B057FE02025ADF0202E4D40202D7F9020211
S315020001C0E1FB0202AA100302BA100302BE130302E3
S315020001D041DD0202EDFB0202C610030265020302C2
S315020001E0E5EF0202FAE70202E9030302B4F60202AB
S315020001F0E2F90202F7FB0202E2F90202D4CF02029C
S31502000200F4030302B90D030251CD02028CE5020288
S315020002104DDD0202F0EF020231D702023FD702029F
S31502000220E0CF02025ADD0202EFEC0202F0F902020C
S31502000230E8CF0202F9FF0202EECF020271020302C6
S31502000240FAEF0202F2E10202DC17030256CD0202C3
S31502000250BDF60202B2050302B1F4020260DD020239
S315020002604508030204F00202B2D2020296E5020235
S31502000270C4F602029FE50202F9EC02020BF0020248
S31502000280A5E5020223DA0202C50D030204E8020210
S3150200029067DF0202A50B030203FC0202F0D402028C
S315020002A066DD020257EB0202261A0302F9D40202A3
S315020002B0FBE1020200ED02020200030215F0020255
S315020002C00AED0202351A030260EB0202CB130302A5
S315020002D02FDA020250080302D3100302BBF4020211
S315020002E0FE0303023BDA0202411A03025ECD020258
S315020002F0CCF6020262FE020208E202025A08030277
S31502000300B1E50202640803026DDD0202C1F40202D3
S31502000310CFF4020278F2020267EB0202471A0302E4
S31502000320AB0B03024FD702026DDF020285F2020215
S3150200033023F0020270FE02021F160302521A030281
S3150200034023F0020277DD0202CE0D03028FF20202D1
S3150200035008FC020266CD020215FC020210E202024B
S315020003601CFC0202D71303026D08030276DF0202A7
S315020003702BF0020225FC020213ED0202DA0D030241
S31502000380BAD20202FDF902027A08030233F002022D
S31502000390D7F402020A00030203FA0202BBE50202D2
S315020003A00DE802020DE802020DE802020DE8020261
S315020003B00DE802020DE802020DE802020DE8020251
S315020003C00DE802020DE802020DE80202B805030278
S315020003D0D6F602020DE8020214000302F7CF020269
S315020003E08308030283080302830803020DE802025C
S315020003F00DE802020DE802020DE802020DE8020211
S315020004007CFE0202E1130302E1130302E11303027B
S31502000410E1130302E1130302C7E5020256D7020201
S3150200042043DA02027802030282FE020223F0020289
S315020004305DD702021C00030223F0020223F002022D
S3150200044023F0020223F002022CFC020215E8020249
S31502000450FCCF0202EB130302E40D03020EFA0202C0
S31502000460C105030290FE020290FE020299F2020206
S3150200047099F20202F4130302CA05030215FA0202F2
S3150200048008D00202DC10030233FC020233FC020231
S31502000490E817030271EB0202FD130302DEF4020205
S315020004A0DEF402022500030237FC02028502030281
S315020004B0A0F202021BE20202C2D2020224E20202FB
S315020004C08D080302E6F402026DCD02027FDF02020C
S315020004D0281603022D00030203D50202EB0D0302C6
S315020004E01DED02023C0003025B1A0302CFE5020283
S315020004F088DF0202D8E5020211D0020211D00202FE
S315020005000BD50202E3E5020265D7020270D70202A8
S3150200051022ED020245000302F60D030233FC02023B
S3150200052080DD020299FE0202D5050302ABF2020247
S315020005304B00030229ED020242FC02020D040302F1
S315020005402EE2020271CD02029B080302F417030295
S315020005508D020302B80B0302A208030295020302EC
S31502000560C50B03027ECD020214D5020286CD02021B
S315020005702FED020218D00202631A0302A90803022F
S31502000580EEF40202FBF4020279D702023EF0020204
S3150200059054000302EFE502023EF00202A1FE02024D
S315020005A03AE20202B6F20202CB0B03027DEB020230
S315020005B0B1080302600003021FD5020286DD0202B1
S315020005C0B9080302FC0D0302A8FE02020314030289
S315020005D03EE20202BAF20202DCF60202E51003026F
S315020005E052DA020252DA020248E20202070E03025B
S315020005F045F002021EFA02026C1A0302CF0B030234
S3150200060051E20202E4F6020289EB02022BFA02022C
S3150200061023D0020238FA02023516030229D5020253
S315020006204016030291DF020246160302100E03026F
S31502000630D40B03028DDD02023FFA020287D70202C1
S3150200064030D502025016030293EB0202F917030297
S315020006502AD002020418030238ED020250F0020206
S31502000660E10B03028DD7020291CD020290DD020256
S3150200067003F5020256F0020258160302ED100302B7
S315020006804CFC0202781A03020C18030298EB0202CF
S315020006909A02030209F50202FBE50202F7100302BF
S315020006A0180E03021F0E0302E80B0302FD100302DB
S315020006B05CDA020295DF020263DA0202C2F2020287
S315020006C05CF00202821A03025CDA0202D1D2020250
S315020006D0A3EB020292D702021418030205110302C7
S315020006E0ECF60202F8F6020219040302D5D202025D
S315020006F06E0003024DFA0202EF0B0302DAD2020285
S3150200070034D502025F1603023DD5020203F7020246
S3150200071020E8020212110302DD050302270E03027C
S3150200072009F70202380E030246ED0202D0F2020275
S315020007300D1403027A000302A1020302ED0503026D
S31502000740DED2020261F002026CDA020266160302CD
S31502000750870003022EE80202E5D202029EDF0202AF
S315020007606D1603021C11030231D00202C0080302F5
S31502000770F305030212F7020226110302400E0302D8
S315020007806FF00202EFD2020258E202021D040302D5
S3150200079044D50202470E030252FC020294000302EF
S315020007A030110302CD08030299CD020217F70202A5
S315020007B02518030217140302A7DF02023C110302E3
S315020007C0530E030276F00202A2D7020226040302A5
S315020007D05AFA0202A9D702029C0003022214030259
S315020007E0FE050302901A03025DFC020266FC020287
S315020007F07DF00202F8D2020281F0020236E802021B
S3150200080020F7020211F5020264FA0202DAF2020289
S31502000810B1DF020240E802022B140302A80203021D
S3150200082005060302A40003021DF5020239D00202E4
S3150200083031040302B8DF020245E8020287F002022F
S315020008405F0E0302AC0003022BF7020297DD0202DF
S3150200085063E20202D4080302E1F2020270FC02021F
S315020008604EE802024CD5020232F70202B00003023F
S3150200087070E202023704030231180302BA000302CD
S31502000880DD080302A1DD02024CED0202991A0302FF
S3150200089077FC0202B1FE020292F00202A71A0302DA
S315020008A058E8020256D50202AF1A0302B41A03022C
S315020008B0C3DF0202A9EB020238140302E8F20202C3
S315020008C0B50203025CD5020299F002027316030214
S315020008D002E602023D0403020CE60202B8FE02022E
S315020008E0A0CD0202411A0302B3D702026AD502025E
S315020008F07F16030276E20202E30803023C180302B1
S3150200090011E6020224F502029EF0020280FC0202B5
S31502000910B000030240110302E8080302B3EB02022D
S315020009200906030244040302A7CD02026AFA02027E
S31502000930BE02030216060302C302030238F70202CC
S31502000940ACDD020275DA02024C04030284160302CB
S31502000950680E03027ADA020289FC020256040302D4
S3150200096040F7020228F50202B2CD0202C1CD02020E
S31502000970471103028D160302EE0803025311030206
S315020009807EDA0202EDF20202CEDF0202D4DF0202B8
S3150200099070D5020240D00202BB1A0302B5DD020282
S315020009A0C400030252ED0202C2DD020280E202022A
S315020009B090FC020200D30202CDCD020219E6020227
S315020009C05EED020249D00202730E03023D140302D7
S315020009D065ED02026DED020272ED0202F7080302F4
S315020009E00ED3020251D0020292160302BCFE02028A
S315020009F080D50202BAD70202C8020302C41A03024F
S31502000A00B9EB020219D3020280FC020247F7020284
S31502000A1003090302CB1A0302E2DF02027D0E03027E
S31502000A20870E0302D51A0302E7DF020277ED0202FE
S31502000A30C0EB0202A01603021E0603028BD50202B7
S31502000A4058D00202C5EB0202C5D70202CAEB020265
S31502000A50CAD70202F4DF020254F7020222E60202B7
S31502000A60AA160302D302030243180302DD1A030283
S31502000A70461403028BE202024A18030225D302023B
S31502000A8096D5020275FA020294E202029DE202027F
S31502000A90D5CD020230E6020262D00202F9DF02027C
S31502000AA0501803028ADA02029DD502026104030289
S31502000AB0B51603025BF70202A4D50202F80B030283
S31502000AC0AFD502025F1103022D0603022D060302B1
S31502000AD093DA02026AD0020231F50202DC02030252
S31502000AE039F50202CEDD02025618030203E00202C3
S31502000AF011E0020261F702024B14030256140302CA
S31502000B008F0E03020D090302000C030261E80202C2
S31502000B10E61A030299FC0202080C0302ABE2020285
S31502000B2081ED0202C1160302A1DA0202EE1A0302E3
S31502000B3071D00202CFD70202A7DA0202D9EB020271
S31502000B4067110302E5EB0202A1FC020280FA02022D
S31502000B508DED0202B7E202025B180302DDCD02024C
S31502000B6085FA020268040302AEDA020239E60202DA
S31502000B70970E0302D0000302E8CD02021609030211
S31502000B806E11030279D00202F6F2020292ED02021D
S31502000B9082D00202C9160302350603021B090302AA
S31502000BA0D5D7020276110302A9FC0202D6DD0202A1
S31502000BB098ED0202B9DA02027D110302A3ED0202E6
S31502000BC02FD30202DCD70202841103029E0E030215
S31502000BD042E60202B7D502028FD00202651803026C
S31502000BE03C060302ABED02029211030244F5020235
S31502000BF0B6ED0202C5D50202E1020302E6D70202FF
S31502000C00F0CD020250E6020220E002026F18030251
S31502000C1057E60202D1D50202F81A0302DEDD02020B
S31502000C2001F30202E9EB0202C0DA02027A180302B7
S31502000C309C1103023BD302026D04030225E0020269
S31502000C40D8D5020263E60202A3F002022DE00202F6
S31502000C50071B0302B5FC0202D31603028CFA020238
S31502000C60D716030208F30202C0FC02024CF5020286
S31502000C7046D30202E7DD020253F502022709030206
S31502000C806BE80202F2D70202121B030251D30202DE
S31502000C9099FA020213F302021CF30202F8D70202C5
S31502000CA0181B03020F0C030222F30202BDE2020228
S31502000CB0C7FE020268E602026AF702026014030233
S31502000CC077E6020234E00202E3160302C6DA020201
S31502000CD075F70202A0FA0202F1EB0202241B0302DA
S31502000CE0A811030234090302AEF00202EE16030251
S31502000CF07DE6020280F70202FEEB0202C1ED02026B
S31502000D0086180302CCED020208D80202D7ED0202CF
S31502000D1081E60202F1DD020257D302028DE60202E9
S31502000D20FDCD020271E8020242E00202E60203027D
S31502000D3049E0020289F70202CBE2020272040302CE
S31502000D400FD80202D4DA0202EB020302D90003022E
S31502000D5069140302DAE202028F180302E8D50202DC
S31502000D603F09030295D0020258F50202F602030277
S31502000D7050E00202F516030294F7020259E002025B
S31502000D80B3110302A90E030294E60202FF1603023E
S31502000D90DDED0202760403024E0903020A1703027C
S31502000DA056040302A5FA020275DA0202C11103020F
S31502000DB0E1DA020227F30202A1D00202240C0302A4
S31502000DC007CE0202CD11030201030302F1D502028C
S31502000DD09A180302C8FC0202E5ED0202ABD0020237
S31502000DE0E600030245060302B1FA0202B3D002028A
S31502000DF0EAED0202D2FC0202B10E0302FED50202A3
S31502000E0066E0020218D802026DE002026E140302C4
S31502000E1020D80202A01803027314030204D60202A7
S31502000E20BBFA0202B80E0302BF0E0302C7FA02029F
S31502000E30E7DA0202EF0003022A0C030232F302028D
S31502000E4079140302FBDD0202810403029EE602021A
S31502000E5078E00202D7110302291B03028614030259
S31502000E60E2E20202D4FE020282E00202C70E03029C
S31502000E70BAD00202101703022CD8020294140302FB
S31502000E809D140302A9E60202B502030204EC020261
S31502000E90A11403023AF30202340C03025DF50202C4
S31502000EA05006030277E802023B0C030266D30202F3
S31502000EB0F0DA0202580903028BE002025F0903021A
S31502000EC0B5F00202C1D00202D00E030262F502029E
S31502000ED06B09030210CE02026BF50202E7E202027E
S31502000EE0560603027EE802021F1703028AE802027E
S31502000EF062060302B3E602020B030302CFFA020200
S31502000F0017CE020237D8020278F502020DEC02026F
S31502000F10A7180302DF1103020FD6020275090302A4
S31502000F201CCE020214D60202311B0302E511030291
S31502000F307006030296E002026FD302027A090302E6
S31502000F4017030302210303027E060302381B030270
S31502000F5007DE0202F60003023BD8020286060302FD
S31502000F6025CE0202DBFA02028C060302F11103020B
S31502000F70430C0302800903029EF70202EFED02020E
S31502000F8011DE02028909030211DE020285F502025E
S31502000F90AAF70202E8FA0202B4F702022A030302DD
S31502000FA0500C03022DCE02028EF502023F1B0302F3
S31502000FB095F50202D90E0302F8ED0202A2E0020240
S31502000FC01FD6020296090302451B03029306030279
S31502000FD0E0FE0202E30E0302BCF7020299F50202E8
S31502000FE0C0E60202C6F70202F1E20202C7E6020206
S31502000FF0F8DA02025D0C030247D8020242F3020249
S31502001000D0E602029FF5020233030302C8D00202AF
S31502001010F4FA0202C0F00202DDFC02023A03030203
S31502001020FAE20202ACE00202FCDA0202FFED02027E
S3150200103027170302F0FE0202A2090302AA14030200
S31502001040C8F002020BEE0202E90E03023017030297
S315020010504BD802029D060302F10E0302A706030203
S315020010600FEE020252D802028704030218DE0202BF
S31502001070004C02000000000000000000D0900E228A
S3150200108000000000000000000000000000001888B8
S31502001090000000000000000001004000101F0000D8
S315020010A00100000000000000002034400028344007
S315020010B00101000000000300451401024714010269
S315020010C04D1401023D150102351601028BE702029B
S309020010D0B4DD0E2253
S31502001100B0B502AF4DF6B430C0F20A208568D0E918
S3150200111000412A682046904769682046884741F27E
S3150200112080000021C2F201200160B0BDB0B502AF5D
S315020011304DF6B430C0F20A20856804682046A968D4
S31502001140884741F280000021C2F201200160204658
S31502001150E968884769682046BDE8B040084741F219
S315020011608000C2F2012000687047081A4CF6CD4191
S31502001170CCF6CC41A0FB0101C80870474FF47A7146
S31502001180B1FBF0F070470079002818BF704741F2B2
S315020011908000C2F201200168013101607047D4D497
S315020011A0F0B503AF2DE900072DED088B4EF22006B0
S315020011B0C4F2010696F9F000002809D443F20805A4
S315020011C0C4F220052868400505D4062000F0A1BC1B
S315020011D0132000F09EBC0124EFF3108884F31088DC
S315020011E003204FF003090BF079F944F20800C4F228
S315020011F02000016821F400410160816921F4004167
S31502001200816103200BF040F9286820F40030286041
S3150200121001200CF0FDFF3168B28842EA113002F07B
S315020012200F020007C1F3033020D449F67801C2F257
S315020012300E2109689140C14032E000BF286B6E4E14
S315020012400000AA4200001643000094420000FA423F
S31502001250000009440000F4420000B7430000C64201
S3150200126000000F430000C0420000D04202F0070314
S315020012700E0B09FA03F3082A38BF04FA02F306F042
S31502001280070249F67806C2F20E26090409FA02F2A4
S31502001290366806FB03F158BF04FA00F2B1FBF2F11D
S315020012A000EE101A4DF68362B8EE400AC4F21B3203
S315020012B01FED1E1A41F2840CA1FB022381EE000AE5
S315020012C0C2F2012C40F200021FED231AC2F20022E2
S315020012D081EE001ACCF80010C3F38741BFEE002A54
S315020012E01FED283AB3EE044A47F2100011604FF69A
S315020012F0384131EE021A83EE003AC4F2340084EE2B
S31502001300004ACFF6FF711FED305A1FED306A1FED0E
S31502001310307A5FED300A5FED301A5FED302A5FED0D
S31502001320303A5FED304AF2EE0A5A5FED316A85EEE7
S31502001330005A435886EE006A4FF6F03487EE007A7A
S3150200134023F00103C0EE800A4350C1EE801ACFF6A5
S31502001350FF74C2EE802A1168C3EE803A0139C4EEE8
S31502001360804A0359C5EE805AC6EE806AFCEEC17AFF
S3150200137033EE020A34EE021ABCEEC08ABCEEC19A01
S3150200138035EE020A36EE021ABCEEC0AABCEEC1BAAD
S3150200139061F307034FF60041CFF6FF7137EE026A9B
S315020013A030EE825A035131EE824A4FF60C4432EE47
S315020013B0823A435833EE820ACFF6FF7434EE821A2B
S315020013C043F0010317EE905A435018EE106A19EED5
S315020013D0102A1AEE109A1BEE10EA35EE827A36EED3
S315020013E0822A0159C907FCD04FF6144142F2F94448
S315020013F0CFF6FF71C0F20104BCEEC66A40F6FF7A70
S315020014004358BCEEC55A64F3120343504FF61841D3
S31502001410BCEEC44ACFF6FF71BCEEC33ABCEEC11AAB
S3150200142040F27F244358BCEEC00A23F0FF032B444C
S315020014304350435847F2404523F47F43C4F23405F0
S3150200144043EA06234350435823F47F0343EA024206
S3150200145042504FF61C4216EE103ACFF6FF728158F2
S3150200146021F0FF014944815081584FF6FF7921F45A
S315020014707F41CFF2000941EA0E2181504FF6204109
S315020014804FF0010ECFF6FF71465826F0FF063344A1
S31502001490435015EE103A465826F47F4646EA032391
S315020014A0435014EE103A465826F47F0646EA0343A2
S315020014B0435013EE106A435823F07F43BCEEC73AFB
S315020014C043EA066343504FF6244113EE106ACFF601
S315020014D0FF71435823F47F0343EA0643435011EE58
S315020014E0106A435823F47F4343EA06234350435882
S315020014F010EE106A23F0FF03BCEEC20A33444350D7
S315020015004FF6284110EE106ACFF6FF71435823F0CA
S31502001510FF03334443504FF6104347F20041CFF6E0
S31502001520FF73C4F23401C65846F00106C6500B6872
S315020015301E2623F001030B608B6823F002038B60E7
S3150200154055F8203C23F00F0345F8203C55F8203C83
S3150200155043F0007345F8203CAB6923F40063AB61AA
S3150200156055F8203C66F30D2345F8203C0B68AA2665
S315020015706EF312430B60AB6923F4E043AB61AB69D4
S3150200158023F48073AB61AB6923F00303AB61AB69F0
S3150200159023F4E043AB61AB6923F48073AB61AB69BF
S315020015A023F40063AB61AB6923F00303AB61AB6960
S315020015B023F00403AB61AB6943F01003AB61AB6983
S315020015C066F31F63AB614E6926EA0A064E618E69AF
S315020015D064F30B068E61CC68EF266FF30B04CC60C6
S315020015E00C6966F30B040C6155F8144C4FF4A076A3
S315020015F066F30C0445F8144C55F8144C240740F0D5
S315020016001C812C6A41F6D66304F07F042C620C68B6
S31502001610C0F2C21324F480140C6040F2FF34D5F8F1
S31502001620C06026EA0404C5F8C040D5F8C0406FF38E
S315020016309324C5F8C040D5F8C0406FF31D54C5F8D1
S31502001640C04041F29F24C0F20104C5F8C04240F6F0
S315020016500004C0F20014C5F8C44240F60254C1F6B2
S315020016608914C5F8C84242F24504C0F24564C5F879
S31502001670CC4240F20714C5F8E84140F20424C0F215
S315020016806404C5F8EC4140F60004C8F60124A4F54A
S315020016900066C5F8F06141F66876C5F8F461C5F8EA
S315020016A0F8314FF4E173C5F8FC41C5F8003241F652
S315020016B08763C1F6B773C5F80432C5F808424024F9
S315020016C00B6823F000730B600B6823F440430B6036
S315020016D00B6843F080730B600B686EF3C4030B60F8
S315020016E00B6823F040030B600B6823F040530B603A
S315020016F055F81C3C23F0010345F81C3C55F81C3CEC
S3150200170043F4803345F81C3C55F81C3C23F0300367
S3150200171045F81C3C2B6843F001032B602B6823F031
S3150200172002032B602B6823F004032B602B6823F043
S3150200173010032B602B6823F020032B602B6823F405
S3150200174080732B602B6823F400732B602B6843F4A1
S3150200175080432B602B6843F400432B602B6823F4F1
S3150200176080332B602B6843F400332B602B6823F005
S3150200177000432B600B6843F480030B600B68C3F3D2
S3150200178080530B68C3F380530B68C3F380530B6813
S31502001790C3F380530B68C3F380530B68C3F38053C0
S315020017A00B68C3F380530B68C3F380530B68C3F310
S315020017B080530B68C3F380530B6823F080630B607E
S315020017C02B6C23F480332B642B6C23F400332B64B1
S315020017D02B6C23F480232B642B6C23F480132B6451
S315020017E02B6C23F080532B642B6C43F080432B64C9
S315020017F06B6C23EA0A036B646B6C23F470436B64B1
S315020018006B6C03EA09036B646B6C23F070436B64C5
S315020018102B6D64F316432B652B6D64F306032B6560
S315020018206B6EF02464F30B036B666B6E03EA0903BB
S3150200183043F020736B660023AB608B58022423F0BF
S3150200184001038B500368B7EE081A64F303030360BF
S315020018500368B0EE082A23F480330360036809F1B3
S31502001860606543F400330360036843F400230360B6
S31502001870036843F480130360036843F080730360D4
S31502001880036823F0007303609CED000A8668B8EED5
S31502001890400A20EE011A20EE020A9FEDA02A81EEEE
S315020018A0021A80EE020ABCEEC11ABCEEC00A11EEA2
S315020018B0103A013363F30806866010EE103A866822
S315020018C02E404FF610750133C4F200056FF35F2305
S315020018D046EA034383604FF64040CFF6FF700B584B
S315020018E06FF31E430B500B5823F000430B5047F681
S315020018F0FF730E5826EA03030B500B584FF6604649
S3150200190023F400430B504FF64440CFF6FF76CFF652
S31502001910FF700B5823F040030B500B5823F0300393
S315020019200B504FF664408D51CFF6FF7000230F2502
S315020019300B504FF68060CFF6FF700E5865F3060621
S315020019400E500E584FF6784546F480360E500E5815
S31502001950CFF6FF7546F480360E504FF688404B514F
S31502001960CFF6FF700F23C0F203134FF608560B5043
S315020019704FF69840CFF6FF70CFF6FF7640F27F35EE
S315020019800B504FF68C60CFF6FF70C1F601658D5194
S3150200199013230B504FF60860CFF6FF70FC230B5053
S315020019A04FF62C40CFF6FF7041F802E00A58D207F4
S315020019B0FCD188F310884EF2124C49F61408CEF286
S315020019C0000CC2F20E284CF24836C4F200064FF062
S315020019D0C00E0CF804EC0020C8F838004FF4804220
S315020019E056F8104C6FF0FF0324F4803446F8104C7E
S315020019F056F8104C4EF2001444F63215CEF200049C
S31502001A00C4F25335BFF35F8FC4F8802122600CF80D
S31502001A1003ECC8F83C0056F80C2C22F4803246F847
S31502001A200C2C56F80C2CBFF35F8F4FF40042C4F80F
S31502001A30802122600CF801ECC8F8440056F8042C08
S31502001A4022F4803246F8042C56F8042CBFF35F8F3A
S31502001A504FF40032C4F8802122600CF802ECC8F878
S31502001A60400056F8082C22F4803246F8082C56F824
S31502001A70082CBFF35F8F4FF48032C4F880212260B6
S31502001A808CF800E0C8F84800326822F480323260EE
S31502001A903268BFF35F8F4FF48022C4F88021226040
S31502001AA0CD504FF0FF3341F8D03C41F8CC3C41F8E1
S31502001AB0C83C41F8C43C8CF800E0C8F848003168DC
S31502001AC021F4803131603168BFF35F8FC4F8802121
S31502001AD022608CF801E0C8F84C00716821F480316C
S31502001AE071607168BFF35F8F4FF40021C4F88011F3
S31502001AF021608CF802E0C8F85000B16821F4803108
S31502001B00B160B168BFF35F8F4FF48011C4F88011E2
S31502001B102160BDEC088BBDE80007F0BDB083854DA2
S31502001B2047F240414306C4F234014FF000030A680B
S31502001B300B600AD1D1F800C00B6041F8100C41F8D5
S31502001B400C0C41F8080CC1F800C051F8400C40F0EA
S31502001B50010041F8400C51F8380C40F00203002015
S31502001B6041F8383C0A60704741F288020146C2F2E7
S31502001B70012200201160704747F270004FF0FF31DA
S31502001B80C4F2340002684160EFF303804FF0704103
S31502001B9001EB00604CF200318015C4F2000143589B
S31502001BA023F480334350405841F28801C2F20121A6
S31502001BB00B68002B08BF704780B56F4686B00020C1
S31502001BC001210192984706B080BD47F280004FF08E
S31502001BD07041C4F234000368D0F810C04360C0F804
S31502001BE014C0EFF3038001EB00604CF20031801564
S31502001BF0C4F20001425822F480324250405841F267
S31502001C008801C2F201210A68002A08BF704780B51E
S31502001C106F4686B000200221CDF800C0904706B07C
S31502001C2080BD47F204104CF27F31C4F23400C1F693
S31502001C30016102680160EFF303804FF0704101EB2E
S31502001C4000604CF200318015C4F20001435823F4BF
S31502001C5080334350405841F28801C2F201210B6899
S31502001C60002B08BF704780B56F4686B0002003215F
S31502001C70984706B080BD47F20020C4F234000268DD
S31502001C80D1B24160EFF303804FF0704101EB006087
S31502001C904CF200318015C4F20001435823F480331C
S31502001CA04350405841F28801C2F201210B68002BD1
S31502001CB008BF704780B56F4686B0002004210292A5
S31502001CC0984706B080BDEFF303804FF0704101EBF9
S31502001CD000604CF200318015C4F20001425822F431
S31502001CE080324250405847F28421C4F234010868D7
S31502001CF00A68C2F30722002A1CBF13014B6041F295
S31502001D008801C2F201210B68002B08BF704780B51B
S31502001D106F4686B020F47F4C00200521CDE903C230
S31502001D20984706B080BD47F244414FF07043C4F273
S31502001D3034014CF2003CC4F2000C08680860EFF370
S31502001D40038203EB0262921552F80C3023F48033BD
S31502001D5042F80C3052F80C2051F8402C0A6941F234
S31502001D608802D1F82813C2F20122D2F800C0BCF1CF
S31502001D70000F08BF704780B56F4686B0002100226B
S31502001D8000234FF0000ECDE900EECDF808E0CDE9D4
S31502001D9003EEE04706B080BD47F244414FF0704281
S31502001DA0C4F2340108680860EFF3038102EB0161B3
S31502001DB04CF200328915C4F200028B5823F48033A8
S31502001DC08B50895841F28802C2F20122D2F800C031
S31502001DD0BCF1000F08BF704780B56F4686B0002180
S31502001DE0002200234FF0000ECDE900EECDF808E008
S31502001DF0CDE903EEE04706B080BDB0B502AF49F2C9
S31502001E00AC144DF60441C2F20E24C0F20A21204659
S31502001E1007F041FC48F208150121C4F2260528689C
S31502001E2020F4803028604FF47A700AF0ABFA286802
S31502001E30012140F4803028604FF47A700AF0A2FA49
S31502001E4000212046BDE8B04007F0FBBCF0B503AF69
S31502001E502DE9000F81B02DED048B8CB00990184648
S31502001E601C46B0EE408A91460B911CF073F800288E
S31502001E7001460A905DD04FEA09104FF0000900B200
S31502001E8008904EF28060DDF824A0C0F20120002501
S31502001E9000F1100B07943FE051E903480120CDE918
S31502001EA0008050462246234602F0D1FA00EE104A3E
S31502001EB00B9EB8EE400A01EE108AB8EE411A20EEE9
S31502001EC0089A21EE080A21B23401BCEEC91ABCEE08
S31502001ED0C00A11EE100A10EE103A00010FFA88F24B
S31502001EE000B21B01CDE9005008981BB204900C20E9
S31502001EF024B2CDE90234002305905046079C02F035
S31502001F00D7FABDEEC90A10EE100A06440B960A98D5
S31502001F1009F1010981450CD014F8090045225946F8
S31502001F2011F8103C8342B7D0013A01F55671F7D148
S31502001F30EDE70CB0BDEC048B01B0BDE8000FF0BDBF
S31502001F40B0B502AF82B0002004F0B2FA49F27015C1
S31502001F500021C2F20E25286004F01AFB40F20001AD
S31502001F602868C6F600014FF480624FF480634FF092
S31502001F70010C4FF49664CDE9004C06F0D5F82868BA
S31502001F80002105F05DFC28680221032203F056FBBE
S31502001F902868012103F034FB2868FF2103F015FBB2
S31502001FA02868012103F087FB2868002103F0A3FBC0
S31502001FB02868002103F0AFFB002002B0B0BDD0B507
S31502001FC002AF49F2481440F20661C2F20E24002220
S31502001FD0204607F0A9FC0A2001210AF0D3F940F2B3
S31502001FE006610122204607F09FFC78204FF47A71A1
S31502001FF00AF0C8F949F218104DF69021C2F20E20E5
S31502002000C0F20A2108F0C5FE30B1002040F60721D1
S31502002010012207F089FC00BE05204FF47A710AF00E
S31502002020B1F949F21810C2F20E2009F026F930B1C0
S31502002030002040F60721012207F076FC00BEC820E8
S315020020404FF47A710AF09EF949F2181040F2000133
S31502002050C2F20E20C6F60001002209F065F949F225
S31502002060481040F20E51C2F20E20012207F05CFC2B
S315020020700020D0BD80B56F4640F200004FF4161125
S31502002080C6F600001BF02FFF80BDB0B502AF82B0CE
S31502002090007880074FF0000001902ED041F28C05A7
S315020020A0C2F201252C68FFF75AF801462046FFF7CF
S315020020B05CF848F67471C2F20E218860FFF74FF899
S315020020C049F26C112860C2F20E214DF29900C0F25B
S315020020D0002001AB09684FF480620DF05CF860B134
S315020020E0019850B14EF604504FF08051CEF20000E6
S315020020F00160BFF34F8FBFF36F8F41F29000C2F2C0
S3150200210001200178772901D80131017002B0B0BDF2
S31502002110D0B502AF82B049F27014C2F20E24206822
S3150200212004F067FF40F2040040F20001C2F2002010
S31502002130C6F600014FF496124FF4806300784FF012
S31502002140010C00FB021120684FF480624FF41674F2
S31502002150CDE9004C05F0E8FF02B0D0BD80B56F4670
S3150200216049F27010C2F20E20006804F085FF40F2B8
S31502002170040C4FF49611C2F2002C00229CF80000C7
S3150200218000285FEA1F9340F200008CF80030C6F682
S31502002190000003FB01014DF61830C0F20A20006868
S315020021A0BDE8804009F0C0B8F0B503AF2DE9000FD5
S315020021B081B02DED048B8CB0804600F0B2FE49F260
S315020021C06C160790C2F20E2600214FF00009306805
S315020021D00AF023FF000400F15E8130684FF480614B
S315020021E000220123012600960AF060FEFFF790FF07
S315020021F049F270144FF28071C2F20E24C2F2052126
S315020022004FF4A0724FF4A0732068F025CDE9005672
S3150200221002F01DF94FF404514FF430522068CDE913
S315020022200092F0220023CDE902194FF4A071CDF8F5
S3150200223010900C26059602F03BF941F29104C2F287
S3150200224001242078012844D849F270154DF20F7303
S31502002250C2F20E25B7EE048AC0F202234FF44D7184
S3150200226028683222B0EE480AFFF7F0FD4EF2DE137E
S315020022702868C0F202234FF44D715A22B0EE480A82
S31502002280FFF7E4FD40F2A2532868C0F203234FF49D
S315020022904D717822B0EE480AFFF7D8FD4EF2CF73A1
S315020022A02868C0F202234FF44D71C822B0EE480AE4
S315020022B0FFF7CCFD4FF2A1432868C0F202234FF488
S315020022C04D71E622B0EE480AFFF7C0FD20780130D4
S315020022D02070B8F1000F00F0868048F6447B49F280
S315020022E0701A0026C2F20E2B08AC9FED6E9AB7EE5C
S315020022F0008A4FF00008C2F20E2A5BE020221BF091
S31502002300EDFD41F2920040F29351C2F20120C0F279
S31502002310032100EB4819224648468DF82E601AF032
S3150200232081F9204689F80F601BF014FE09EB0004C0
S3150200233048461BF00FFE411E202220461BF0CEFD12
S315020023400BEBC8004DF64571C0F2022190ED010A71
S3150200235041F2321020EE090AC2F2012000EBC80453
S315020023602046BCEEC00A10EE102A1AF05BF9C8EB42
S3150200237008104FF4A071B0EE480A234601EB400163
S31502002380DAF800000DB240F23E312A46667108AC18
S31502002390FFF75CFDDAF800004FF45C712A46B0EEF6
S315020023A0480A4B460026FFF751FD08F10108B8F12D
S315020023B0050F18D03BF8380007998DF82E60ADF856
S315020023C02C600A96CDE9086651F820200E21204697
S315020023D012F8013B2C2B18BF002B8FD0013900F8C5
S315020023E0013BF5D18DE748F6747048F21F51C2F2EF
S315020023F00E20C5F2EB1149F69A1344F6D35400693E
S31502002400C1F69913A0FB0112C1F262044FF0303CEF
S31502002410CDF820C052094FF0300CA2FB0365B7EE8F
S31502002420040A4CF6CD46CCF6CC46A0FB066105EB7B
S315020024308505A0FB0464C908A2EB4502A1FB03368D
S3150200244042F030020CEB94138DF8203046F62054FD
S3150200245006EB8603C0F2730401EB81060994A1EB35
S3150200246043018DF82120A0EB460041F0300140F0F7
S3150200247030008DF8230049F270108DF82210C2F256
S315020024800E2008AB4FF44D714FF48C720068FFF7C3
S31502002490DDFCFFF763FE0CB0BDEC048B01B0BDE8BA
S315020024A0000FF0BD0000C8424DF65441C0F20A21A9
S315020024B007C912681047F0B503AF4DF8048D0446FC
S315020024C04DF65440C0F20A2041F26456C2F2012689
S315020024D000228168056832602046D1F808801BF028
S315020024E039FD024628462146C047044638B1142023
S315020024F001F02EFD00BE02E001200BF089FE3068DD
S315020025000028F9D024B11420142401F021FD00E0A2
S31502002510002420465DF8048BF0BD007901281BD00B
S31502002520022814D004281DD141F260500022C2F2C2
S3150200253001200168B2EB912F18BF70474DF6344265
S31502002540C0F20A225278022A0DD8013109E041F27C
S315020025506450C2F2012003E041F25C50C2F2012053
S315020025600121016070470231FBE740F20501007963
S31502002570C2F2002108707047D0B502AF82B0020ADB
S3150200258007F80A0C49F21C0007F80B2C07F8091C7D
S31502002590C2F20E20A7F10B0103220023002407F04A
S315020025A003FB10B1012002B0D0BD40F205014FF687
S315020025B0FF70C2F200210C7001380204F2D00A78D0
S315020025C00AB92FF007C8087800220A7001285FEAC4
S315020025D01F9002B0D0BDF0B503AF2DE9000B82B05B
S315020025E08846010A07F8190C49F21C0007F81A1C5A
S315020025F0C2F20E20A7F11A0102220123012507F0D9
S31502002600D3FAB8B940F205060020C2F200264FF608
S31502002610FF7430704FF6FF700138010409D031782B
S3150200262009B92FF007C8307801284FF00000307042
S3150200263005D10125284602B0BDE8000BF0BD49F2DE
S315020026401C000122C2F20E200023414601254FF052
S31502002650000907F0A3FA0028ECD186F80090013CA5
S315020026602004E6D0307808B92FF007C83078012860
S315020026705FEA1F9500203070DCE7F0B503AF4DF836
S31502002680048D82B049F2481580460020C2F20E251A
S3150200269007F8120C07F8130C40F2097100222846BB
S315020026A007F042F964200BF0B3FD40F209710122F2
S315020026B0284607F039F948F6FC754DF61C21C2F298
S315020026C00E25C0F20A21284607F0CEFF284608F05A
S315020026D048F90A200BF09CFD49F21C0001A9C2F23E
S315020026E00E2007F06CFA9DF80400002800F098808E
S315020026F049F21C003C21C2F20E200122012407F0FD
S3150200270059FAA7F1120143F20A00FFF764FFA7F193
S31502002710130143F20B00FFF75EFF17F8130CA0F14B
S3150200272040010A200C2900F2898041F2030204FAD0
S3150200273001F1114200F0828041F670504AF6AA2653
S31502002740C0F203204FF6FF74851C03E028780BF0D5
S315020027505FFD043535F8020CB042F7D0A04204D032
S315020027602978FFF709FF0435F4E743F23500122111
S31502002770FFF702FF43F236008C21FFF7FDFE43F21C
S3150200278037001321FFF7F8FE43F208100121FFF785
S31502002790F3FEA7F1110144F61400FFF71CFF17F828
S315020027A0110C00F03F0144F6140007F8111CFFF764
S315020027B0E3FEB8F1000F18D042F2EC104AF6AA2551
S315020027C0C0F203204FF6FF76841C03E020780BF05C
S315020027D01FFD043434F8020CA842F7D0B04204D0EC
S315020027E02178FFF7C9FE0434F4E744F202200F21F0
S315020027F0FFF7C2FE05200BF00BFD42F64500C0F2C4
S315020028000020FFF7B1F9FEF7CBFCB8B905200BF0B3
S31502002810FFFC44F202200021FFF7AEFE00200DE08D
S3150200282049F21C004DF64421C2F20E20C0F20A21E2
S3150200283007F06AF900283FF45BAF642002B05DF846
S31502002840048BF0BDB0B502AF82B080034FF000003A
S31502002850019043D544F68075C2F208252C68FEF72E
S315020028607EFC01462046FEF780FC48F67471C2F2F1
S315020028700E210860FEF773FC49F26C112860C2F261
S315020028800E214DF29900C0F2002001AB09684FF407
S3150200289080520CF080FC60B1019850B14EF60450A3
S315020028A04FF08051CEF200000160BFF34F8FBFF3AD
S315020028B06F8F41F2695040F27121C2F2012041F25A
S315020028C06852C2F2012241F280530078C2F2012319
S315020028D01070414303EB0120FFF722F902B0B0BDAD
S315020028E080B56F4641F280504EF20021C2F20120BD
S315020028F0C0F204011BF0F7FA4FF280704FF4163162
S31502002900C2F205201BF0EFFA80BD41F2695041F296
S315020029108052C2F20120C2F20122017840F27120F5
S31502002920484302EB002041F26852C2F201221170C2
S31502002930FFF7F6B8D0B502AF41F2685C40F2080084
S31502002940C2F2012CC2F2002041F2695E41F28054C9
S315020029509CF800200068C2F2012EC2F20124002A6D
S315020029605FEA1F91431E8EF800101ADB002A5FEA07
S315020029701F9140F271200122484302EB531EBFF31E
S315020029804F8F4EF65C7304EB0022CEF200031A6000
S3150200299020320FF005C0BFF34F8FBFF36F8F9CF845
S315020029A00020002A5FEA1F9040F2712140F20C02D9
S315020029B04843C2F20022126804EB00214FF28070F3
S315020029C0C2F205201BF09DFAD0BDF0B503AF2DE98A
S315020029D0000F83B000284FF0050C019218BF0029A2
S315020029E004D1604603B0BDE8000FF0BD019A9A42D9
S315020029F002D24FF0030CF4E7FA68002A4AD0019A91
S31502002A00D7F808A0D61A42F2091944F2051B06EBBA
S31502002A10D67626F001063044009000200290FFE7A9
S31502002A204AF001C806E0029AF8680132029282422E
S31502002A3030D0F5E70298FA6858430024B0FBF2F06A
S31502002A40019A5043009A02EB4000B4FBFAF61C448A
S31502002A5030F816604FEAD628C6F3451C4FEA08221C
S31502002A6006F01F05A2EBD62202FB09F2CCEB0C26DE
S31502002A70C5EB052506FB0BF605FB09F5920C01F8DD
S31502002A80032B360DAA0C01F8026C01F8012C0FF08B
S31502002A9025C0C8E74FF0000CA3E7B0B502AF8CB073
S31502002AA09446072208464FF48071CDE90922012295
S31502002AB06FF07F030B91089242F204244FF0804597
S31502002AC0CDE9003104930423CDE9025208AA6146F6
S31502002AD04FF0020EC0F20324CDE9054E00F002F8D3
S31502002AE00CB0B0BDF0B503AF2DE9000F8BB0D7F82F
S31502002AF00CA047F8380C07201C4600EB8A009346C8
S31502002B0020F00700D7F81C90ADEB000547F8401CF3
S31502002B1047F844DC002147F8241C47F8301C47E9F3
S31502002B200B1147F8341CAD464FEA8A0128461BF0C2
S31502002B30DAF9A7F1340682B000200023009020467D
S31502002B405946324600F082F802B0804682B02046EC
S31502002B50594632463B6ACDF8009000F077F802B04B
S31502002B6057F8381C55F8202011F90810114445F879
S31502002B70201020465946324600F09AF808B12FF046
S31502002B8027C0386A012814DB40F001E00024012046
S31502002B90D7F8148059F8041B5BF82110CA17A0FB5A
S31502002BA0016300FB023004FB010430460FF00FC044
S31502002BB003E000240126D7F814803046214600F0AF
S31502002BC095F808F11F01C0F13F00324623468842BC
S31502002BD050EAB1893869C117B9F1200FA8BF4FF081
S31502002BE0200950EA0D911BF09BFBBAF1010F57F831
S31502002BF040BCBC6922DB0246B868704347F8380C11
S31502002C00A8EB090047F83C0C55F8040B57F8383C7A
S31502002C10C01A82B057F83C3C00930B4691460E46CA
S31502002C20A04600F074F831464A4602B02044BAF192
S31502002C30010A00F307000BF8010BE5D157F844DC53
S31502002C40A7F11C04A546BDE8000FF0BDF0B503AF21
S31502002C502DE9000B012827DBD7F808C08646BCF110
S31502002C60000F5FEA1F96012B5FEAAF954FF000094E
S31502002C70002046EA05080BE051F8294052F829508F
S31502002C8004FB005009F10109BEF1010E00D10CE06E
S31502002C90B8F1000F66461C46EED156F8045BA9450C
S31502002CA0F0D0013CF9D1E7E70020BDE8000BF0BD0A
S31502002CB0D0B502AF6FF0030303EB800319441A4445
S31502002CC0034601280EDB106851F804E900F1010CF5
S31502002CD0BEEB0C0454EA0090E64542F80409A3F15F
S31502002CE00100EDD0002B5FEADF90D0BD024608431B
S31502002CF00BD00020B1F1804FA8BF704752EA4F01B6
S31502002D000130B1F1804FF9DB704740207047F0B5D2
S31502002D1003AF4DF804BDA0FB0256D7F808C0002148
S31502002D20012400FB0363C017CCF11E0E54EA0DE129
S31502002D3000FB023260195141CCF11F0250EA2D21EB
S31502002D405DF804BBF0BD4FF6400044F69071C0F248
S31502002D500620C2F208210068084470474DF2D410DA
S31502002D6046F69071C0F20A20C2F20E2100680844AB
S31502002D707047F0B503AF4DF804BD4FF644014DF26E
S31502002D80D012C0F206210446C0F20A2246F6907319
S31502002D90086844F69071C2F208211268C2F20E2344
S31502002DA00D1820469E1800F00FF844F68470294646
S31502002DB0C2F208203246FFF770FE20465DF804BBD9
S31502002DC0BDE8F04000F04CB8B0B502AF92B042F6A2
S31502002DD060510024C0F20321CDE9081442F65C5189
S31502002DE044F69075C0F20321C2F208250028CDE907
S31502002DF00A54096803914FF4C421CDE90C544FF4E7
S31502002E0013300690CDE9041105F54431CDE90E14CF
S31502002E1007D044F690704FF44451C2F208201BF0DA
S31502002E2062F842F20C214FF44450C0F2032107909B
S31502002E3003A800900A6849F2D00042F21021C2F2B9
S31502002E400E20C0F2032108ABCDE910540525CDE9C9
S31502002E50015405F0A6FD01305FEA1FA012B0B0BD15
S31502002E60B0B502AF92B040F240010024C0F2072191
S31502002E70CDE9081440F2300146F69075C0F20721FA
S31502002E80C2F20E250028CDE90A54096803914FF4CF
S31502002E90FD51CDE90C544FF480700690CDE9041132
S31502002EA005F57C71CDE90E1405D005F57D604FF46C
S31502002EB07A711BF018F805F57D6010904FF47A7060
S31502002EC007904FF648004FF65001C0F20620C0F2B6
S31502002ED0062108AB1194026803A8009049F2D000BB
S31502002EE0C2F20E200525CDE9015405F05AFD013046
S31502002EF05FEA1FA012B0B0BD80E80E00704780B531
S31502002F006F4682B0D0F804C0016882680020DCF8FF
S31502002F100030D3F808E0052300906046F04702B07F
S31502002F2080BD40F21000C2F2002070474FF47A7062
S31502002F307047F0B503AF4DF804BD92B0FFF703FF3B
S31502002F4048F20001C6F62501411A10290ED24FF4A5
S31502002F50133E48F20001C6F6250111F8012B82F054
S31502002F60800200F8012B0FF009C00FE04FF4135E48
S31502002F7048F20001C6F6250180FF500EB1EC103E64
S31502002F8002FF5021A0EC103E0FF009C0FEF7E7F851
S31502002F90119000200024FFF7ECFEFEF7E0F81090F7
S31502002FA010981199401A0F9011981099FEF7DDF8B2
S31502002FB048F67471C2F20E210861FFF7CFFE0B903C
S31502002FC04FF47A70CDE90C4048F63C7040F2092184
S31502002FD0C2F20E20ADF838104FF06E51416048F63D
S31502002FE03071C2F20E2148F64072C2F20E226FF022
S31502002FF07F0381E8150001205360CDE907014DF2F8
S31502003000D810C0F20A2007A90830CDE90540684663
S3150200301006AA03AB8DF83A40CDE90344FFF76CFFED
S31502003020FFF76DFF0446D0B1FFF77BFFDDE9031022
S31502003030884227D0002608460025304490ED000B32
S3150200304001892846B7EEC00B00F08EFDDDE90301CB
S315020030500135091A1036B5EB211FEED312E04EF6F2
S315020030608E00C0F2022000F064FF4DF22D60C0F225
S31502003070022000F05EFF4FF24930C0F2022000F05B
S3150200308058FF039810B104900EF017FA204612B0BA
S315020030905DF804BBF0BDD2E900C060454ED0F0B584
S315020030A003AF4DF804BD0E4656F8040B864241D0D6
S315020030B04FF0000E3468354624B12346646834B1B5
S315020030C02FF005C8AB681868A8421D46FAD00CEB6B
S315020030D00E1093ED040AB7EEC00A80ED000B3046DF
S315020030E0346824B12346646834B12FF005C8836876
S315020030F01D6885421846FAD010685B6900EB0E100F
S315020031008360336823B11C465B6833B12FF005C870
S31502003110B4682068B0422646FAD0D2E900C00EF161
S31502003120010EA0EB0C00BEEB201F03D20868264658
S315020031308442BFD15DF804BBBDE8F0407047F0B5EC
S3150200314003AF2DE9000F81B02DED028B88B005A8E3
S31502003150984600F1040B8A464FF00009002B5C46A4
S315020031600092CDF81890CDF81C90CDF814B040D04E
S315020031700025DAF800005E4600EB850106985C46FB
S3150200318091ED008A18B919E020682646B0B190ED93
S31502003190040A0446B4EE408AF1EE10FAF4D4B4EE10
S315020031A0480AF1EE10FA04D460698542ECD3A842CB
S315020031B01BD2606808B12FF017C0261D1820AEF08A
S315020031C070F880ED048A4561C0E900990146846081
S315020031D030600598006800281CBF05903168069883
S315020031E000F04AF907980130079001354545C0D1EC
S315020031F0059CFFF79BFE0490049840455CD9002687
S3150200320045461EE01820AEF04CF880ED048A456172
S31502003210C0E9006601468460C8F8000005980068A7
S3150200322000281CBF0590D8F80010069800F024F973
S31502003230079801300790059CC846049801358542D7
S315020032403AD2DAF8000094ED040A00EB850090ED1C
S31502003250001AB4EE410AF1EE10FAEED504F11001AD
S3150200326005A8C14600F0A6F9DAF80000D84600EB38
S31502003270850106985C4691ED008A20B9C2E720686E
S31502003280A0460028BED090ED040A0446B4EE408A59
S31502003290F1EE10FAF3D4B4EE480AF1EE10FA04D4C1
S315020032A060698542EBD3A842C5D2606808B12FF0A7
S315020032B017C004F10408A5E70025B8F1000F01952F
S315020032C0CDE902550ED0B8F1805F26D24FEA081634
S315020032D03046ADF0E6FF3146044600EB08151AF01B
S315020032E002FE00E00024009E306810B170600EF00D
S315020032F0E4F8C6E9004505AC21463246B560FFF75B
S31502003300CAFE0699204600F0A3F8012008B0BDECDB
S31502003310028B01B0BDE8000FF0BD01A800F0EEFA85
S31502003320F0B503AF2DE9000F85B0002947D08D69AE
S31502003330581E0024A84280F080801068506003A8BE
S31502003340984691468B4600F059FBB5F1804F0094A2
S31502003350CDE9014476D2AE003046ADF0A2FF314649
S31502003360009000EB8504029482461AF0BCFD9BF89D
S315020033701C005E46019401283FD0092843464A466E
S315020033801FD0032854D1306945F001E0002110F81E
S31502003390016B9DED041A00EE106A009EB8EE400A1B
S315020033A00E44B8EEC11A043130EE410A9DED031AFD
S315020033B021EE000A86ED000A0FF017C82AE0002463
S315020033C03BE0306945F001E0002110F9016B9DED0B
S315020033D0041A00EE106A009EB8EEC00A0E44B8EE59
S315020033E0C11A043130EE410A9DED031A21EE000A9C
S315020033F086ED000A0FF017C80CE0306945F001E0CF
S31502003400002143464A46009E50F8045B755004313B
S315020034100FF007C8B86820B1684600F093FA4A462A
S3150200342043466946FFF78BFE0098012410B904E073
S315020034300024504601900EF040F8204605B0BDE843
S31502003440000FF0BD684600F06AFA70470EF035B814
S31502003450002908BF7047B0B502AF0A680D4611468B
S315020034600446FFF7F5FF69682046FFF7F1FF284695
S31502003470BDE8B0400EF021B881425FEA1F920A739E
S3150200348008BF7047D0B502AF4FF0010C0AE086457F
S315020034905FEA1F9183F80CC08EF80C10714682F811
S315020034A000C064D08B681A7B002A60D1D3F808E08A
S315020034B0DEF800209A4205D022B312F80C4F002CF7
S315020034C0E5D01FE0DEF804201AB112F80C4F002CEA
S315020034D0DDD0186888424DD05868016859600029C5
S315020034E01CBF8B60D3F808E07146C0F808E051F8BB
S315020034F0042B9A425EEA0181086003609860D0F864
S3150200350008E038E01868884201D0194613E0486896
S31502003510186000281CBF8360D3F808E07046C1F823
S3150200352008E050F8042B9A425EEA008001604B6084
S315020035309960D1F808E001200873DEF80400002142
S315020035408EF80C100168CEF80410002918BFC1F8D5
S3150200355008E0DEF8081081600A4652F8043B73451B
S3150200356051EA02810860C0F800E0CEF80800BDE822
S31502003570D0407047184601210173DEF80000002191
S315020035808EF80C104168CEF80010002918BFC1F859
S3150200359008E0DEF8081081600A4652F8043B7345DB
S315020035A051EA02810860C0F804E0CEF80800BDE8DE
S315020035B0D04070470346844653F8040F002842D091
S315020035C0B0B502AF91ED000A49681D46044602E015
S315020035D004342468D4B194ED041AB4EE401AF1EE20
S315020035E010FAF5D4B4EE410AF1EE10FA01D52546E9
S315020035F0EFE762698A425FEA2F9212F001022246DF
S3150200360055EA148518BF04321446E2E79D4218D0E3
S3150200361095ED041AB4EE410AF1EE10FA11D4B4EEA5
S31502003620401AF1EE10FA03D46A69914253EA3585DB
S315020036309D4206D06B6843B119461B685BB12FF0F9
S3150200364005C80020B0BD002070472B4699680A685D
S315020036509A420B46FAD1DCF80020AA4208BFCCF8FF
S315020036600010DCF808100139CCF80810294600F0E1
S3150200367005F828460DF021FF0120B0BDF0B503AFD5
S315020036804DF8048DD1F800C00B46BCF1000F07D0EF
S315020036904A680B464AB1134612680AB12FF005C8AA
S315020036A0D3F804C0BCF1000F05D09A684FF0000EA3
S315020036B0CCF8082004E09A684FF0000C4FF0010E97
S315020036C014689C4203D0C2F804C09A6806E083429A
S315020036D0C2F800C000F0A2809A680432126893F819
S315020036E00C808B4215D08D689D602E4656F8044B91
S315020036F08C4255EA068423600C681C60A3604D6800
S315020037005D60002D18BFAB60884253EA00800C7BD7
S315020037101C73B8F1000F18BF002802D15DF8048BA4
S31502003720F0BDBEF1000F73D04FF0010C4FF0000E4A
S3150200373007E08A68134653F8044B8C4253EA028127
S315020037400A689168157B0E6896422ED0D5B982F822
S315020037500CC081F80CE091684C6825684D60002D1C
S3150200376018BFA9608D68A5602E4656F8043B8B42A9
S3150200377055EA06831C6021608C601168884252EA11
S3150200378000804A68116811B10B7B002B4BD054683C
S3150200379014B1237B002B48D0916882F80CE0814259
S315020037A03FD00A7B002AC4D12DE0D5B982F80CC0DD
S315020037B081F80CE091680C6865680D60002D18BFF1
S315020037C0A9608B68A3601D4655F8046B8E4253EAC6
S315020037D005831C6061608C605168884252EA0080F1
S315020037E00A68116811B10B7B002B6AD0546814B1B8
S315020037F0237B002B4BD0916882F80CE00A7B002ACF
S3150200380018BF814295D1012008735DF8048BF0BD83
S3150200381001208CF80C005DF8048BF0BD0022604696
S315020038205DE70146EFE754680CB1207BA8B10120A1
S31502003830087310680021117341681160002918BFCE
S315020038408A60916881600B4653F8046B964251EA8E
S31502003850038108604260906000E0104681680A7B3E
S31502003860027301220A7341680A73806841680A6812
S315020038704260002A18BF906082688A60134653F835
S31502003880046B864252EA03821160086032E011B18B
S31502003890087BB0B15468012020735068002111736F
S315020038A001685160002918BF8A60916881600B46E1
S315020038B053F8046B964251EA0381086002609060F5
S315020038C000E0104681680A7B027301220A730168CE
S315020038D00A73806801684A680260002A18BF90600D
S315020038E082688A60134653F8046B864252EA038260
S315020038F01160486081605DF8048BF0BD80B56F464B
S3150200390040F2B160C0F2032000F000F880B56F46C5
S3150200391001464EF2D660C0F2022018F021FD80B5B3
S315020039206F4640F2B160C0F20320FFF7EFFF80B5A9
S315020039306F46FFF7FEFA0221002818BF002108464B
S3150200394080BDD4D4F0B503AF4DF8048D2DED028BB6
S31502003950D0E90065B5EB060831461CD0301D31466C
S31502003960A84218D0A8F10801012296ED000A02EB3E
S31502003970910E314690ED001AB4EE401AF1EE10FAAD
S31502003980B4EE410A31FE000AF1EE10FA50EA418124
S3150200399004300FF011C8AE4229D091ED008A3446A8
S315020039A094ED000A30EE480A1AF09CF9A4EC010ADA
S315020039B0AC42F5D1AE421AD0A8F1040001219FED26
S315020039C00E0A01EB900E3146B1EC011A30EE010AF5
S315020039D00FF007C0AE420AD0012101EB900E96ED20
S315020039E0001A81EE001AA6EC011A0FF009C0BDEC0E
S315020039F0028B5DF8048BF0BD000000000A684FF0F0
S31502003A007E53012A4FF00002C0E9003210D14A6803
S31502003A100AB193686BB191ED020AB5EE400AF1EE76
S31502003A2010FA08BF70470C3180ED000A0968416040
S31502003A30704711680B68002B1CBF4968016051680A
S31502003A400A68002AF4D00431F0E7B0B502AFD0B16B
S31502003A5000F01F020A44B2F1200358BF00230129D5
S31502003A60B8BFB0BDD94311440122BFF34F8F02EB59
S31502003A70511E4EF68051CEF20001C1F8E801203007
S31502003A800FF005C823E04EF680500021CEF200006A
S31502003A9043F6E07C4160BFF34F8F0268C2F34E31BA
S31502003AA0D308C2F3C902541C9A074B0103EA0C0558
S31502003AB044F001E01544C0F8EC5105F140450FF021
S31502003AC007C00029A1F10101A3F12003EED1BFF342
S31502003AD04F8FBFF36F8FB0BDB0B502AFD0B100F05C
S31502003AE01F020A44B2F1200358BF00230129B8BFBE
S31502003AF0B0BDD94311440122BFF34F8F02EB511ED1
S31502003B004EF68051CEF20001C1F8DC0120300FF0F2
S31502003B1005C823E04EF680500021CEF2000043F69F
S31502003B20E07C4160BFF34F8F0268C2F34E31D30887
S31502003B30C2F3C902541C9A074B0103EA0C0544F06E
S31502003B4001E01544C0F8E05105F140450FF007C009
S31502003B500029A1F10101A3F12003EED1BFF34F8F9A
S31502003B60BFF36F8FB0BDD4D480B56F46042824D876
S31502003B7048F644720428C2F20E2202EBC00322F86F
S31502003B80301083ED010A18BF80BD4FF0050E101DDF
S31502003B909FED0A0A014691ED001A083130EE010A3C
S31502003BA00FF007C84FF0050E90ED001A81EE001ACD
S31502003BB080ED001A08300FF009C880BDBD37863582
S31502003BC080B56F4682B049F26C160321C2F20E2608
S31502003BD0002201234FF0FF383068CDF8008009F04B
S31502003BE065F940F6B4704DF67021C2F20020C0F2BB
S31502003BF00A2105F084F83068042109F0F5F843F645
S31502003C007140C0F2002004F067FB3068082109F019
S31502003C10EBF848F64474C2F20E2407E030684FF41B
S31502003C20804109F0E1F819200AF0F2FA30684FF4FF
S31502003C30005101220123CDF8008009F037F9002056
S31502003C404FF4C061012205F06FFE282120461AF0CA
S31502003C504AF9FFF76CFE054600204FF4C0610022C8
S31502003C6005F062FE022DD9D1022000F071F9D5E7E6
S31502003C7018F078BC80B56F4684B0FEF715FC10B11B
S31502003C80132000F065F900F05CFA10B1162000F07E
S31502003C905FF949F248104FF48471C2F20E200022F5
S31502003CA005F042FEFEF7E6F9FEF74AF910B10A20E0
S31502003CB000F04EF9FEF783F949F26C15C2F20E25B1
S31502003CC018B10A2000F044F903E02868012109F03E
S31502003CD08BF8FEF705FE0020FEF7CFFC18B10F2089
S31502003CE000F036F903E02868022109F07DF8FDF7B5
S31502003CF007FAFDF71BFA4FF0FF31286800910F21F2
S31502003D000022012309F0D2F8FEF7FFFD48F2000077
S31502003D1048F66C7AC6F6250048F6707848F6747B43
S31502003D204EF6687900F01F00C2F20E2AC2F20E2881
S31502003D30C2F20E2BE024CEF20009411E029160F07F
S31502003D401F0003902BE0BFF34F8FBFF36F8FFDF77A
S31502003D5006FAC8F80000DAF80000D8F80010FDF7F5
S31502003D6004FACBF80C0028684FF4005109F03CF82D
S31502003D7001200AF04DFA2868002109F04EF9C0F335
S31502003D80803628684FF4804109F047F93046FEF73D
S31502003D900BFA002000F050F814200AF039FA2868CD
S31502003DA04FF48051012201234FF0FF36009609F0AD
S31502003DB07DF8FDF7D4F9CAF80000FEF7BBFDFDF762
S31502003DC0CEF9C8F80000DAF80000D8F80010FDF7BE
S31502003DD0CCF9CBF80400FDF7C2F9CAF800004FF29D
S31502003DE0807048F200014FF4A072F023C2F205205F
S31502003DF0C6F62501CDE90044FEF7E7FD40F6B070B0
S31502003E000399C2F2002000220068091851EA428191
S31502003E1001289CDB029A1044401A0121BFF34F8FFE
S31502003E2001EB501E48F20000C6F62500C9F8000054
S31502003E3020300FF005C886E7F0B503AF4DF804BD94
S31502003E4041F25A144DF24561C2F2012441F23D7229
S31502003E5040F6FB63C0F20221C0F20322C0F2032342
S31502003E60204618F0DFFB2046FEF725FB4DF2EC114B
S31502003E701522C0F20A2120461AF043F82046FEF720
S31502003E801AFB48F67476C2F20E2635682846FDF706
S31502003E9075F94EF697010346C0F2022120462A46DC
S31502003EA018F0C0FB2046FEF706FB75682846FDF7AC
S31502003EB065F94EF2B7010346C0F2022120462A46B0
S31502003EC018F0B0FB2046FEF7F6FAF5682846FDF72D
S31502003ED055F940F200110346C0F2032120462A4654
S31502003EE018F0A0FB2046FEF7E6FA35692846FDF7EC
S31502003EF045F94EF202310346C0F2022120462A4615
S31502003F0018F090FB2046FEF7D6FAB5682846FDF76C
S31502003F1035F94FF2AA510346C0F2022120462A463B
S31502003F2018F080FB20465DF804BBBDE8F040FEF7C2
S31502003F30C2BAD0B502AF41F25A140146C2F2012406
S31502003F40204618F06FFB2046FEF7B5FA0020D0BDDA
S31502003F500138152800F2F38080B56F46DFE800F0DD
S31502003F600B7850643396B46ED246C8293DAA1F5ABE
S31502003F701582BEDC8CA041F25A104DF61001C2F237
S31502003F800120C0F20A213722CFE041F25A104DF247
S31502003F904C51C2F20120C0F20A215122C5E041F27F
S31502003FA05A104DF2A821C2F20120C0F20A21502273
S31502003FB0BBE041F25A104DF2BC41C2F20120C0F2FE
S31502003FC00A214222B1E041F25A104DF27431C2F294
S31502003FD00120C0F20A214722A7E041F25A104DF20F
S31502003FE0A051C2F20120C0F20A219DE041F25A100C
S31502003FF04DF64801C2F20120C0F20A215A2294E08B
S3150200400041F25A104DF21441C2F20120C0F20A21C5
S3150200401041228AE041F25A104DF21021C2F20120E9
S31502004020C0F20A21502280E041F25A104DF2C071CC
S31502004030C2F20120C0F20A21422276E041F25A106F
S315020040404DF26021C2F20120C0F20A2148226CE040
S3150200405041F25A104DF2A861C2F20120C0F20A21C1
S315020040603E2262E041F25A104DF6D801C2F2012018
S31502004070C0F20A214F2258E041F25A104DF248612D
S31502004080C2F20120C0F20A2152224EE041F25A1037
S315020040904DF20061C2F20120C0F20A21462244E03A
S315020040A041F25A104DF2BC31C2F20120C0F20A218D
S315020040B056223AE041F25A104DF2E861C2F201206C
S315020040C0C0F20A215C2230E041F25A104DF2005150
S315020040D0C2F20120C0F20A214A2226E041F25A1017
S315020040E04DF24471C2F20120C0F20A2153221CE0B1
S315020040F041F25A104DF68811C2F20120C0F20A218D
S31502004100422212E041F25A104DF26441C2F20120FB
S31502004110C0F20A21552208E041F25A104DF220312E
S31502004120C2F20120C0F20A21542219F0EAFE41F23B
S315020041305A10C2F20120FEF7BEF9BDE8804000BE69
S31502004140704780B56F4649F238104DF64031C2F2DB
S315020041500E20C0F20A2106F0D0F998B949F22810C9
S315020041604DF62831C2F20E20C0F20A2106F0C5F938
S31502004170002818BF80BD49F23810C2F20E2006F0A0
S315020041800AFA00B180BD49F22810C2F20E20BDE83B
S31502004190804006F000BAD0B502AF82B049F26C1484
S315020041A00020C2F20E240190206808F06CFF000481
S315020041B0216818D44DF2990001ABC0F200204FF4E9
S315020041C000420AF0E8FF60B1019850B14EF6045081
S315020041D04FF08051CEF200000160BFF34F8FBFF364
S315020041E06F8F02B0D0BD4DF29D004FF40042C0F277
S315020041F00020002302B0BDE8D0400AF0CCBF7047D1
S31502004200022818BF704780B56F4649F248104EF231
S31502004210B801C2F20E20C0F20A2105F079FB012094
S3150200422008F0A6F9BDE88040FDF7E7BD80B56F4608
S3150200423084B049F2F8104DF6D813C2F20E2048F6B1
S31502004240887C4DF6D85EC0F20A2301684FF480528C
S31502004250013101600220009044F2992040F6644147
S31502004260C0F20020C0F20321C2F20E2CC2F20E2EC0
S31502004270CDE901EC09F05BFD48F6F8710028C2F2BF
S315020042800E2108601CBF04B080BD0020002104B0CE
S31502004290BDE8804000F062B8D0B502AF044600F037
S315020042A05FF82046BDE8D040FFF78ABC80B56F466E
S315020042B084B049F2F8104DF66C23C2F20E2049F290
S315020042C05C0C41F6D85EC0F20A2301684FF4006224
S315020042D0013101600120009044F219304FF2CE0103
S315020042E0C0F20020C0F20221C2F20E2CC2F20F2E40
S315020042F0CDE901EC09F01BFD49F2CC010028C2F21E
S315020043000E2108601CBF04B080BD0020002104B04D
S31502004310BDE8804000F022B8D0B502AF044600F0F6
S315020043201FF82046BDE8D040FFF7A4BC80B56F4613
S3150200433049F25010C2F20E2008F023FD49F26C1128
S315020043400028C2F20E21086018BF80BD002000219D
S31502004350BDE8804000F002B8FFF7E8BF00BE704734
S31502004360B0B502AF49F2F0144FF0FF31C2F20E249B
S31502004370206809F08EFB012803D020680021FFF790
S31502004380EDFF49F2F410C2F20E200178002918BF9F
S31502004390B0BD01210170FFF7DFFF49F2F815C2F245
S315020043A00E252868013828600CD0206800210022DA
S315020043B0002308F0E3FF0128F3D020680021FFF76D
S315020043C0CDFFEEE7B0BD80B56F4649F2F41249F271
S315020043D0F810C2F20E22C2F20E200021117049F22A
S315020043E0FC120160C2F20E224FF48070012108F025
S315020043F077FF49F2F011C2F20E21086018B90020C7
S315020044000021FFF7ABFFFFF751FFFFF70FFF09F0A0
S31502004410BBFF002080BD49F2442C49F2B423C2F20C
S315020044200E2CC2F20E23C0F800C00B608020106072
S31502004430704749F2B44C49F22453C2F20E2CC2F22E
S315020044400E23C0F800C00B60802010607047D0B504
S3150200445002AFD7F80CC05FEACC6E04D590F882E0C2
S315020044605FEA0E6E17D55FEA8C6E04D590F882E08D
S315020044705FEA8E6E0FD52CF0300EAEF10D0EBEF148
S31502004480020F0DD8D0F880E05FEACE3408D40EF0E1
S31502004490FE04092C04D8092180F8C6110920D0BDD2
S315020044A0406ABC6800F5B47080E81E100020D0BDDA
S315020044B0F0B503AF2DE9000F8DB0446A8246D7F8F6
S315020044C008C0D7F81C90D4E95B060CEB020ED4F8B0
S315020044D07451B0F5006F03EB01009346A8BF29F0B3
S315020044E00809B04208460C93C8BFF01AAE45DAF87E
S315020044F030800590C8BFA5EB0C0BB8F1000F5FEA40
S315020045000F9019F4807F5FEA1080E37DD4F878512A
S3150200451001280B90CDE9091274D188F8003094F87D
S315020045200E0188F8020094F8D50088F80100D4F844
S31502004530FC00C8F80400D4F80001C8F80800D4F852
S315020045402C01C8F80C0094F8E90088F82900D4F880
S315020045503801C8F81000D4F83401C8F8140094F8E9
S31502004560E80088F82800D4F8EC00C8F81800D4F857
S31502004570F000C8F81C00D4F8F400C8F82000D4F8FB
S31502004580F800C8F8240094F8EA0088F82A0094F89B
S31502004590EB0088F82B00D4F83C01C8F82C00D4F8BC
S315020045A04001C8F83000D4F82401C8F83400D4F821
S315020045B05801C8F83800D4F85C01C8F83C00B4F8D1
S315020045C0A800A8F85400B4F8AA00A8F85600D4F82F
S315020045D0A000C8F84C00D4F8A400C8F85000D4F8DB
S315020045E09800C8F84400D4F89C00C8F84800D4F8EB
S315020045F0B000C8F85C00D4F8B400C8F86000002027
S31502004600069000E006930321504600F0B9FF002110
S315020046100022504603F0A9FBE806089500F15580F2
S31502004620D4F87801002620F03000422800F270808B
S31502004630DFE810F043005B0065005B005B00880169
S3150200464065005B005B0043004300430043004300F8
S31502004650430043006E006E006E006E006E006E0038
S315020046606E006E006E006E006E006E006E006E00D2
S315020046706E006E006E006E006E006E006E006E00C2
S315020046806E006E006E006E006E006E006E006E00B2
S315020046906E006E006E006E006E006E006E006E00A2
S315020046A06E006E006E006E006E006E006E006E0092
S315020046B06E006E0065005B005B00D4E95A010C9A3D
S315020046C01044BA6801FB020622E009F00F015046C7
S315020046D0D4F8686103F01DFAD4E95D01D4E95B23DD
S315020046E0CDE900015046314620E0D4E95A01BA68C4
S315020046F051430C9A00EB420000EB410608E0D4E974
S315020047005A01BA6851430C9A00EB820000EB81060B
S3150200471009F00F01504603F0FCF9D4F87801D4F8F9
S315020047206C21CDE900B050463146059B03F092F864
S315020047304FEA09604FF07F4101EAE0705FEA896162
S3150200474009F0A001FB6858BF4FF07F40A03918BF9F
S315020047504FF07F415FEAC962DDE9095C05D45FEA91
S31502004760496207D46FF07F4207E05FEA4962A268B6
S3150200477001D402E0A2681043E268114394F80E21C4
S31502004780D7F810B0112BC4E9560142F0050084F89F
S315020047900E01CDF81CA005D398B22905B1FBF0F1A4
S315020047A04B0802E04FF480310023D7F818E0BBF142
S315020047B0110FD7F814A007DB4FEA0C521FFA8BF63B
S315020047C0B2FBF6F6720802E04FF48036002219F4C4
S315020047D0007018BFC3EB054351EA01B019F48061BA
S315020047E0089956EA06B618BFC2EB0C425FEA49754B
S315020047F001F0100148BFA3F500435FEA097548BFFF
S31502004800A2F5004200290C9918BF03EB0143B968CF
S31502004810754618BF02EB0142CDE900200020DDF803
S315020048201C905146CDE9020048467246049603F0B2
S315020048307AFAF868CDE9000B4846214652462B46DD
S3150200484000F029FC0B98002873D098F80000E07558
S3150200485098F8020084F80E0198F8010084F8D50051
S31502004860D8F80400C4F8FC00D8F80800C4F800011F
S31502004870D8F80C00C4F82C0198F8290084F8E9004D
S31502004880D8F81000C4F83801D8F81400C4F8340176
S3150200489098F8280084F8E800D8F81800C4F8EC0064
S315020048A0D8F81C00C4F8F000D8F82000C4F8F400C8
S315020048B0D8F82400C4F8F80098F82A0084F8EA0028
S315020048C098F82B0084F8EB00D8F82C00C4F83C01C9
S315020048D0D8F83000C4F84001D8F83400C4F82401EE
S315020048E0D8F83800C4F85801D8F83C00C4F85C017E
S315020048F0B8F85400A4F8A800B8F85600A4F8AA001C
S31502004900D8F84C00C4F8A000D8F85000C4F8A400A7
S31502004910D8F84400C4F89800D8F84800C4F89C00B7
S31502004920D8F85C00C4F8B000D8F86000C4F8B40047
S3150200493003E04846069900F023FE00200DB0BDE8CC
S31502004940000FF0BD9AF88200800603D409208AF887
S31502004950C601F3E71020C0F20400C4F82C010120BE
S3150200496084F8E900A9E6F0B503AF2DE9000F83B09C
S31502004970BE688146002E4FF0000000F09382884602
S31502004980F9680129C0F28E8222F00F001644ADF8B2
S31502004990040023F00F00ADF80600701E5C1820F02C
S315020049A00F00ADF80800601E20F00F00ADF80A00F7
S315020049B001A948469B46154603F05BFCB8B1A6F131
S315020049C01000A4F110010FFA80FA48460CB24146D3
S315020049D002F0CCFB98F8D50081074FEAC07008D4E4
S315020049E0002840F01C8101AA002300202EE20020AC
S315020049F058E2002840F013814AEA050044EA0B0116
S31502004A0000074FEA017000F05182BDF904104FF41D
S31502004A1080320028A1EB050140F20005CFF6FF75B2
S31502004A2002EB0131D9F8B82102F10803C9F8B8310D
S31502004A304FF00403C2E90031D9F8BC11A1F101001B
S31502004A40C9F8BC0100F0B282012903DCD9F8C01111
S31502004A5048468847D9F8B8014FF4803200F1080178
S31502004A60C9F8B8110A21C0E90012D9F8BC01013807
S31502004A70C9F8BC0103DCD9F8C01148468847D9F801
S31502004A80B801002200F10801C9F8B8111021C0E9E5
S31502004A900012D9F8BC010138C9F8BC0103DCD9F807
S31502004AA0C01148468847BDF904004FF48031AAEB8D
S31502004AB0000001EB0030D9F8B81101F10802C9F87B
S31502004AC0B8210522C1E90020D9F8BC010138C9F88C
S31502004AD0BC0103DCD9F8C01148468847D9F8B801A9
S31502004AE000F10801C9F8B8110B21C0E90015D9F87F
S31502004AF0BC010138C9F8BC0103DCD9F8C01148462B
S31502004B008847D9F8B801002200F10801C9F8B8119E
S31502004B101121C0E90012D9F8BC010138C9F8BC015B
S31502004B2003DCD9F8C01148468847BDF906004FF4A0
S31502004B308031A0EB0B0001EB0030D9F8B81101F17E
S31502004B400802C9F8B8210622C1E90020D9F8BC0139
S31502004B500138C9F8BC0103DCD9F8C01148468847B8
S31502004B60D9F8B801002200F10801C9F8B8110C21E0
S31502004B70C0E90012D9F8BC010138C9F8BC0103DC4E
S31502004B80D9F8C01148468847D9F8B8014FF480369B
S31502004B9000F10801C9F8B8111221C0E90016D9F8C6
S31502004BA0BC010138C9F8BC0103DCD9F8C01148467A
S31502004BB08847BDF90600D9F8B81101F10802C9F80B
S31502004BC0B821201A072206EB0030C1E90020D9F8E5
S31502004BD0BC010138C9F8BC0103DCD9F8C01148464A
S31502004BE08847D9F8B801002200F10801C9F8B811BE
S31502004BF00D21C0E90012D9F8BC010138C9F8BC017F
S31502004C0003DCD9F8C01148468847D9F8B80100F143
S31502004C100801C9F8B8111321C0E9001509E1BDF967
S31502004C200400D8F81011401B484301EB1010D9F8C4
S31502004C30B81101F10802C9F8B8210422C1E900201D
S31502004C40D9F8BC010138C9F8BC0103DCD9F8C01196
S31502004C5048468847D9F8B811D8F8100101F1080278
S31502004C60C9F8B8210A22C1E90020D9F8BC010138E5
S31502004C70C9F8BC0103DCD9F8C01148468847D9F8FF
S31502004C80B801002200F10801C9F8B8111021C0E9E3
S31502004C900012D9F8BC010138C9F8BC0103DCD9F805
S31502004CA0C01148468847BDF90400D8F81011AAEB8E
S31502004CB00000484301EB1010D9F8B81101F10802BF
S31502004CC0C9F8B8210522C1E90020D9F8BC0101388A
S31502004CD0C9F8BC0103DCD9F8C01148468847D9F89F
S31502004CE0B811D8F8100101F108024042C9F8B821FA
S31502004CF00B22C1E90020D9F8BC010138C9F8BC0170
S31502004D0003DCD9F8C01148468847D9F8B801002211
S31502004D1000F10801C9F8B8111121C0E90012D9F849
S31502004D20BC010138C9F8BC0103DCD9F8C0114846F8
S31502004D308847BDF90600D8F81011A0EB0B004843CE
S31502004D4001EB1010D9F8B81101F10802C9F8B8211F
S31502004D500622C1E90020D9F8BC010138C9F8BC0114
S31502004D6003DCD9F8C01148468847D9F8B8010022B1
S31502004D7000F10801C9F8B8110C21C0E90012D9F8EE
S31502004D80BC010138C9F8BC0103DCD9F8C011484698
S31502004D908847D9F8B811D8F8100101F10802C9F804
S31502004DA0B8211222C1E90020D9F8BC010138C9F89C
S31502004DB0BC0103DCD9F8C01148468847BDF9060094
S31502004DC0D8F81011201A484301EB1010D9F8B8117F
S31502004DD001F10802C9F8B8210722C1E90020D9F871
S31502004DE0BC010138C9F8BC0103DCD9F8C011484638
S31502004DF08847D9F8B801002200F10801C9F8B811AC
S31502004E000D21C0E90012D9F8BC010138C9F8BC016C
S31502004E1003DCD9F8C01148468847D9F8B811D8F842
S31502004E20100101F108024042C9F8B8211322C1E972
S31502004E300020D9F8BC010138C9F8BC0103DCD9F855
S31502004E40C0114846884701AA04230F20009048460D
S31502004E50414601F05CFC01AE054600234846414648
S31502004E603246002401F0D1FE00234846414632462E
S31502004E7002F0ABFFD9F8B80100F10801C9F8B81180
S31502004E80C0E90045D9F8BC010138C9F8BC0103DC08
S31502004E90D9F8C0114846884701A90022484602F0BF
S31502004EA028FC012003B0BDE8000FF0BD00283FF446
S31502004EB09AADBDF906004FF48031A0EB0B0001EB71
S31502004EC00030D9F8B81101F10802C9F8B821042254
S31502004ED0C1E90020D9F8BC010138C9F8BC0103DCDC
S31502004EE0D9F8C01148468847D9F8B801002200F11E
S31502004EF00801C9F8B8110A21C0E90012D9F8BC01A3
S31502004F000138C9F8BC0103DCD9F8C0114846884704
S31502004F10D9F8B8014FF4803500F10801C9F8B81183
S31502004F201021C0E90015D9F8BC010138C9F8BC0145
S31502004F3003DCD9F8C01148468847BDF90600D9F8FE
S31502004F40B81101F10802C9F8B821201A052205EBA9
S31502004F500030C1E90020D9F8BC010138C9F8BC010A
S31502004F6003DCD9F8C01148468847D9F8B8010022AF
S31502004F7000F10801C9F8B8110B21C0E90012D9F8ED
S31502004F80BC010138C9F8BC0103DCD9F8C011484696
S31502004F908847D9F8B801112200F10801C9F8B811F9
S31502004FA00021CFF6FF71C0E9002166E0012903DC8A
S31502004FB0D9F8C01148468847D9F8B8014FF480326B
S31502004FC000F10801C9F8B8110A21C0E90012D9F89E
S31502004FD0BC010138C9F8BC0103DCD9F8C011484646
S31502004FE08847D9F8B801002200F10801C9F8B811BA
S31502004FF01021C0E90012D9F8BC010138C9F8BC0178
S3150200500003DCD9F8C01148468847BDF904004FF4BD
S315020050108031AAEB000001EB0030D9F8B81101F19A
S315020050200802C9F8B8210522C1E90020D9F8BC0155
S315020050300138C9F8BC0103DCD9F8C01148468847D3
S31502005040D9F8B80100F10801C9F8B8110B21C0E975
S315020050500015D9F8BC010138C9F8BC0103DCD9F83E
S31502005060C01148468847D9F8B801002200F1080164
S31502005070C9F8B8111121C0E90012D9F8BC010138EA
S31502005080C9F8BC0103DCD9F8C0114846884701AA11
S3150200509002230320DAE680B56F4682B0D7E902CE54
S315020050A0CDE900CEFFF75FFC02B080BDF0B503AFDD
S315020050B02DE9000F83B004460D4641F20008B0F810
S315020050C072A0B0F87600B4F87460616CB4F978B086
S315020050D0C0F240180329ADF804A0ADF80800ADF8F7
S315020050E00660ADF80AB014DCA26E12F0100210D1FE
S315020050F0042292FBF1F9216C91FBF9F202FB1911E0
S3150200510039B994F83C10890704BFE16C5FEA8172F1
S315020051104BD0204601F046F9D4F8B80100F1080157
S31502005120C4F8B8111921C0E90015D4F8BC01013838
S31502005130C4F8BC0103DCD4F8C01120468847D4F871
S31502005140B80100F10801C4F8B8110021C0E9001144
S31502005150D4F8BC010138C4F8BC0103DCD4F8C01190
S3150200516020468847D4F8B811606D01F1080240EA7A
S315020051700800C4F8B8210122C1E90020D4F8BC0114
S315020051800138C4F8BC0103DCD4F8C01120468847B4
S3150200519001A90022204602F0ACFA204601F002F9EB
S315020051A0002003B0BDE8000FF0BDBAF10F0FB0D872
S315020051B002B2481EB0EB221FABD1A06C00920728A8
S315020051C00FD8DFE800F00431421042424020280E98
S315020051D005F07F4141EA004141EA002040EA1565B7
S315020051E033E0412831D14FF470404FF4706100EA48
S315020051F01540F02201EA153102EA15220844C5F3E8
S31502005200031110441BE04FF4704005F0F00100EA70
S3150200521015204FF4706241EA157102EA151208442C
S31502005220104400EB004510E04FF478404FF4FC6167
S3150200523000EA152001EA55110844C5F3C4010844E1
S3150200524000EB004501E04FEA3565204601F0AAF879
S31502005250D4F8B80100F10801C4F8B8111921C0E95F
S315020052600015D4F8BC010138C4F8BC0103DCD4F83B
S31502005270C01120468847D4F8B80100F10801C4F8E5
S31502005280B8110021C0E90011D4F8BC010138C4F8F4
S31502005290BC0103DCD4F8C01120468847D4F8B80113
S315020052A008F5001200F10801C4F8B8110121C0E99D
S315020052B00012D4F8BC0100990FFA86F8A1EB0A068F
S315020052C001384FF00105C4F8BC0103DCD4F8C01163
S315020052D020468847206CD4F8B81101F10802C4F8B8
S315020052E0B82190FBF9F01F2205EB261680B2C1E920
S315020052F00020D4F8BC01ABEB08050138C4F8BC01A8
S3150200530003DCD4F8C011204688474FF6FF70290304
S3150200531021EA000000F58030B6FBF9F10843D4F823
S31502005320B81101F10802C4F8B8211E22C1E9002011
S31502005330D4F8BC010138C4F8BC0103DCD4F8C011AE
S3150200534020468847606C04282DD002280DD00128FB
S315020053507FF423AFD4E90F014FEA281300EB1A10AA
S31502005360D4F8B82101FB03000CE0D4E90F014FEA9F
S3150200537028124FEA1A135143D4F8B82100EB43001E
S3150200538000EB410002F10801C4F8B8112021C2E97C
S315020053900010D4F8BC010228A0F10100C4F8BC0137
S315020053A0BFF6FBAE1BE0D4E90F014FEA28126FF0FD
S315020053B00303514303EA9A021044D4F8B82100EBDE
S315020053C0810002F10801C4F8B8112021C2E90010D7
S315020053D0D4F8BC010138C4F8BC013FF7DEAED4F8FC
S315020053E0C01120468847D8E6D4D4D4D4D4D4D4D451
S315020053F0F0B503AF4DF8048D04464FF4BE7001F0CC
S3150200540078FB00284FF0010100F09E806FF07F428A
S315020054104FF07F43C0F84C314FF0FF38C0E90142EC
S315020054200026C0F8286180F80E61C0E9032802222E
S3150200543080F8D5204FF0100CC0E954334FF4803E6B
S31502005440A0F814C0C0F810E14FF4B055C0F81C51D2
S31502005450D4F880504FF470322D014FF0040340F21D
S315020054600805C2F2400558BF4FF48005C0F8342142
S315020054704FF40022C0F82C2139A2C0F8205180F83E
S31502005480E930C0F83C6192ED001FC0E95066626DDA
S31502005490C0F830E12A43C0F818E142F4002200F1D4
S315020054A0C40E42F4B052C0F82421AA22C0F8142134
S315020054B080F8D410A0F80C118EE84C1040F20112BC
S315020054C000F11C0180ED160F0546A0F8D6204022F9
S315020054D0C0F8D82080F80F61C0E93F66C0F848617D
S315020054E0C0E94166084601F00AF905F1340001F007
S315020054F006F905F14C0001F002F905F1640001F02C
S31502005500FEF805F17C0001F0FAF805F1940001F0CD
