S02B0000766973696F6E5F61695F6574686F73755F6D6970696373695F676C63645F656B5F72613870315F6CD1
S3150200000020100122F7C70002C1C5000205C800027E
S3150200001005C8000205C8000205C8000205C800029C
S31502000020000000000000000000000000318A00020B
S3150200003005C8000200000000498A0002B18A0002D7
S31502000040C1940002F59300029795000221960002E0
S31502000050C1AC00021BA600021BA60002619F0002A1
S315020000604BA1000295A20002A1A3000279B90002E7
S3150200007085B700023D8E0002791B0002CB1B0002EF
S31502000080771C0002231C0002C71C0002271D000267
S30902000090991D0002AC
S315020000941000000000000000017A5200017C0E01EB
S315020000A41B0C0D001000000018000000A4E0010063
S311020000B410000000000000000000000028
S315020000C000E1F5050101000000710200005802007E
S315020000D0D4050302B00F030216D90202D019030295
S315020000E035ED02028F12030222D9020240ED02020C
S315020000F033DF0202C7D60202E8E3020238CF020267
S315020001003800030244000302C8FB02022BD9020292
S315020001109E0D030245ED02023E0A0302A7F6020203
S31502000120041803021018030202DC0202CFD60202EE
S31502000130ABF80202D9E90202DCEE0202D7D60202CB
S31502000140D9E90202E4E90202DCF1020267F40202E0
S315020001504EE102020DDC0202E8EE020281E7020231
S3150200016042CF020218DC0202E00103029C120302E1
S3150200017037DF0202DBD602024BCF020271F4020221
S3150200018071F402024A000302A507030237DF0202E4
S31502000190A4150302A8D4020215180302ED010302F4
S315020001A0ECE90202DA05030249ED0202B215030284
S315020001B0570003025AE10202E4D60202D7FB020208
S315020001C0E1FD0202AA120302BA120302BE150302DB
S315020001D041DF0202EDFD0202C612030265040302BA
S315020001E0E5F10202FAE90202E9050302B4F80202A3
S315020001F0E2FB0202F7FD0202E2FB0202D4D1020294
S31502000200F4050302B90F030251CF02028CE7020280
S315020002104DDF0202F0F1020231D902023FD9020297
S31502000220E0D102025ADF0202EFEE0202F0FB020204
S31502000230E8D10202F9010302EED1020271040302BD
S31502000240FAF10202F2E30202DC19030256CF0202BB
S31502000250BDF80202B2070302B1F6020260DF020231
S31502000260450A030204F20202B2D4020296E702022D
S31502000270C4F802029FE70202F9EE02020BF2020240
S31502000280A5E7020223DC0202C50F030204EA020208
S3150200029067E10202A50D030203FE0202F0D6020284
S315020002A066DF020257ED0202261C0302F9D602029B
S315020002B0FBE3020200EF02020202030215F202024D
S315020002C00AEF0202351C030260ED0202CB1503029D
S315020002D02FDC0202500A0302D3120302BBF6020209
S315020002E0FE0503023BDC0202411C03025ECF020250
S315020002F0CCF802026200030208E402025A0A03026E
S31502000300B1E70202640A03026DDF0202C1F60202CB
S31502000310CFF6020278F4020267ED0202471C0302DC
S31502000320AB0D03024FD902026DE1020285F402020D
S3150200033023F20202700003021F180302521C030278
S3150200034023F2020277DF0202CE0F03028FF40202C9
S3150200035008FE020266CF020215FE020210E4020243
S315020003601CFE0202D71503026D0A030276E102029F
S315020003702BF2020225FE020213EF0202DA0F030239
S31502000380BAD40202FDFB02027A0A030233F2020225
S31502000390D7F602020A02030203FC0202BBE70202CA
S315020003A00DEA02020DEA02020DEA02020DEA020259
S315020003B00DEA02020DEA02020DEA02020DEA020249
S315020003C00DEA02020DEA02020DEA0202B807030270
S315020003D0D6F802020DEA020214020302F7D1020261
S315020003E0830A0302830A0302830A03020DEA020254
S315020003F00DEA02020DEA02020DEA02020DEA020209
S315020004007C000302E1150302E1150302E115030272
S31502000410E1150302E1150302C7E7020256D90202F9
S3150200042043DC0202780403028200030223F2020280
S315020004305DD902021C02030223F2020223F2020225
S3150200044023F2020223F202022CFE020215EA020241
S31502000450FCD10202EB150302E40F03020EFC0202B8
S31502000460C1070302900003029000030299F40202FC
S3150200047099F40202F4150302CA07030215FC0202EA
S3150200048008D20202DC12030233FE020233FE020229
S31502000490E819030271ED0202FD150302DEF60202FD
S315020004A0DEF602022502030237FE02028504030279
S315020004B0A0F402021BE40202C2D4020224E40202F3
S315020004C08D0A0302E6F602026DCF02027FE1020204
S315020004D0281803022D02030203D70202EB0F0302BE
S315020004E01DEF02023C0203025B1C0302CFE702027B
S315020004F088E10202D8E7020211D2020211D20202F6
S315020005000BD70202E3E7020265D9020270D90202A0
S3150200051022EF020245020302F60F030233FE020233
S3150200052080DF020299000302D5070302ABF402023E
S315020005304B02030229EF020242FE02020D060302E9
S315020005402EE4020271CF02029B0A0302F41903028D
S315020005508D040302B80D0302A20A030295040302E4
S31502000560C50D03027ECF020214D7020286CF020213
S315020005702FEF020218D20202631C0302A90A030227
S31502000580EEF60202FBF6020279D902023EF20202FC
S3150200059054020302EFE702023EF20202A100030244
S315020005A03AE40202B6F40202CB0D03027DED020228
S315020005B0B10A0302600203021FD7020286DF0202A9
S315020005C0B90A0302FC0F0302A80003020316030280
S315020005D03EE40202BAF40202DCF80202E512030267
S315020005E052DC020252DC020248E402020710030253
S315020005F045F202021EFC02026C1C0302CF0D03022C
S3150200060051E40202E4F8020289ED02022BFC020224
S3150200061023D2020238FC02023518030229D702024B
S315020006204018030291E10202461803021010030267
S31502000630D40D03028DDF02023FFC020287D90202B9
S3150200064030D702025018030293ED0202F91903028F
S315020006502AD20202041A030238EF020250F20202FE
S31502000660E10D03028DD9020291CF020290DF02024E
S3150200067003F7020256F2020258180302ED120302AF
S315020006804CFE0202781C03020C1A030298ED0202C7
S315020006909A04030209F70202FBE70202F7120302B7
S315020006A0181003021F100302E80D0302FD120302D3
S315020006B05CDC020295E1020263DC0202C2F402027F
S315020006C05CF20202821C03025CDC0202D1D4020248
S315020006D0A3ED020292D90202141A030205130302BF
S315020006E0ECF80202F8F8020219060302D5D4020255
S315020006F06E0203024DFC0202EF0D0302DAD402027D
S3150200070034D702025F1803023DD7020203F902023E
S3150200071020EA020212130302DD0703022710030274
S3150200072009F902023810030246EF0202D0F402026D
S315020007300D1603027A020302A1040302ED07030265
S31502000740DED4020261F202026CDC020266180302C5
S31502000750870203022EEA0202E5D402029EE10202A7
S315020007606D1803021C13030231D20202C00A0302ED
S31502000770F307030212F902022613030240100302D0
S315020007806FF20202EFD4020258E402021D060302CD
S3150200079044D702024710030252FE020294020302E7
S315020007A030130302CD0A030299CF020217F902029D
S315020007B0251A030217160302A7E102023C130302DB
S315020007C05310030276F20202A2D90202260603029D
S315020007D05AFC0202A9D902029C0203022216030251
S315020007E0FE070302901C03025DFE020266FE02027F
S315020007F07DF20202F8D4020281F2020236EA020213
S3150200080020F9020211F7020264FC0202DAF4020281
S31502000810B1E1020240EA02022B160302A804030215
S3150200082005080302A40203021DF7020239D20202DC
S3150200083031060302B8E1020245EA020287F2020227
S315020008405F100302AC0203022BF9020297DF0202D7
S3150200085063E40202D40A0302E1F4020270FE020217
S315020008604EEA02024CD7020232F90202B002030237
S3150200087070E4020237060302311A0302BA020302C5
S31502000880DD0A0302A1DF02024CEF0202991C0302F7
S3150200089077FE0202B100030292F20202A71C0302D1
S315020008A058EA020256D70202AF1C0302B41C030224
S315020008B0C3E10202A9ED020238160302E8F40202BB
S315020008C0B50403025CD7020299F20202731803020C
S315020008D002E802023D0603020CE80202B800030225
S315020008E0A0CF0202411C0302B3D902026AD7020256
S315020008F07F18030276E40202E30A03023C1A0302A9
S3150200090011E8020224F702029EF2020280FE0202AD
S31502000910B002030240130302E80A0302B3ED020225
S315020009200908030244060302A7CF02026AFC020276
S31502000930BE04030216080302C304030238F90202C4
S31502000940ACDF020275DC02024C06030284180302C3
S31502000950681003027ADC020289FE020256060302CC
S3150200096040F9020228F70202B2CF0202C1CF020206
S31502000970471303028D180302EE0A030253130302FE
S315020009807EDC0202EDF40202CEE10202D4E10202B0
S3150200099070D7020240D20202BB1C0302B5DF02027A
S315020009A0C402030252EF0202C2DF020280E4020222
S315020009B090FE020200D50202CDCF020219E802021F
S315020009C05EEF020249D20202731003023D160302CF
S315020009D065EF02026DEF020272EF0202F70A0302EC
S315020009E00ED5020251D2020292180302BC00030281
S315020009F080D70202BAD90202C8040302C41C030247
S31502000A00B9ED020219D5020280FE020247F902027C
S31502000A10030B0302CB1C0302E2E102027D10030276
S31502000A2087100302D51C0302E7E1020277EF0202F6
S31502000A30C0ED0202A01803021E0803028BD70202AF
S31502000A4058D20202C5ED0202C5D90202CAED02025D
S31502000A50CAD90202F4E1020254F9020222E80202AF
S31502000A60AA180302D3040302431A0302DD1C03027B
S31502000A70461603028BE402024A1A030225D5020233
S31502000A8096D7020275FC020294E402029DE4020277
S31502000A90D5CF020230E8020262D20202F9E1020274
S31502000AA0501A03028ADC02029DD702026106030281
S31502000AB0B51803025BF90202A4D70202F80D03027B
S31502000AC0AFD702025F1303022D0803022D080302A9
S31502000AD093DC02026AD2020231F70202DC0403024A
S31502000AE039F70202CEDF0202561A030203E20202BB
S31502000AF011E2020261F902024B16030256160302C2
S31502000B008F1003020D0B0302000E030261EA0202BA
S31502000B10E61C030299FE0202080E0302ABE402027D
S31502000B2081EF0202C1180302A1DC0202EE1C0302DB
S31502000B3071D20202CFD90202A7DC0202D9ED020269
S31502000B4067130302E5ED0202A1FE020280FC020225
S31502000B508DEF0202B7E402025B1A0302DDCF020244
S31502000B6085FC020268060302AEDC020239E80202D2
S31502000B7097100302D0020302E8CF0202160B030209
S31502000B806E13030279D20202F6F4020292EF020215
S31502000B9082D20202C9180302350803021B0B0302A2
S31502000BA0D5D9020276130302A9FE0202D6DF020299
S31502000BB098EF0202B9DC02027D130302A3EF0202DE
S31502000BC02FD50202DCD90202841303029E1003020D
S31502000BD042E80202B7D702028FD20202651A030264
S31502000BE03C080302ABEF02029213030244F702022D
S31502000BF0B6EF0202C5D70202E1040302E6D90202F7
S31502000C00F0CF020250E8020220E202026F1A030249
S31502000C1057E80202D1D70202F81C0302DEDF020203
S31502000C2001F50202E9ED0202C0DC02027A1A0302AF
S31502000C309C1303023BD502026D06030225E2020261
S31502000C40D8D7020263E80202A3F202022DE20202EE
S31502000C50071D0302B5FE0202D31803028CFC020230
S31502000C60D718030208F50202C0FE02024CF702027E
S31502000C7046D50202E7DF020253F70202270B0302FE
S31502000C806BEA0202F2D90202121D030251D50202D6
S31502000C9099FC020213F502021CF50202F8D90202BD
S31502000CA0181D03020F0E030222F50202BDE4020220
S31502000CB0C700030268E802026AF90202601603022A
S31502000CC077E8020234E20202E3180302C6DC0202F9
S31502000CD075F90202A0FC0202F1ED0202241D0302D2
S31502000CE0A8130302340B0302AEF20202EE18030249
S31502000CF07DE8020280F90202FEED0202C1EF020263
S31502000D00861A0302CCEF020208DA0202D7EF0202C7
S31502000D1081E80202F1DF020257D502028DE80202E1
S31502000D20FDCF020271EA020242E20202E604030275
S31502000D3049E2020289F90202CBE4020272060302C6
S31502000D400FDA0202D4DC0202EB040302D902030226
S31502000D5069160302DAE402028F1A0302E8D70202D4
S31502000D603F0B030295D2020258F70202F60403026F
S31502000D7050E20202F518030294F9020259E2020253
S31502000D80B3130302A910030294E80202FF18030236
S31502000D90DDEF0202760603024E0B03020A19030274
S31502000DA056060302A5FC020275DC0202C113030207
S31502000DB0E1DC020227F50202A1D20202240E03029C
S31502000DC007D00202CD13030201050302F1D7020284
S31502000DD09A1A0302C8FE0202E5EF0202ABD202022F
S31502000DE0E602030245080302B1FC0202B3D2020282
S31502000DF0EAEF0202D2FE0202B1100302FED702029B
S31502000E0066E2020218DA02026DE202026E160302BC
S31502000E1020DA0202A01A03027316030204D802029F
S31502000E20BBFC0202B8100302BF100302C7FC020297
S31502000E30E7DC0202EF0203022A0E030232F5020285
S31502000E4079160302FBDF0202810603029EE8020212
S31502000E5078E20202D7130302291D03028616030251
S31502000E60E2E40202D400030282E20202C710030293
S31502000E70BAD20202101903022CDA020294160302F3
S31502000E809D160302A9E80202B504030204EE020259
S31502000E90A11603023AF50202340E03025DF70202BC
S31502000EA05008030277EA02023B0E030266D50202EB
S31502000EB0F0DC0202580B03028BE202025F0B030212
S31502000EC0B5F20202C1D20202D010030262F7020296
S31502000ED06B0B030210D002026BF70202E7E4020276
S31502000EE0560803027EEA02021F1903028AEA020276
S31502000EF062080302B3E802020B050302CFFC0202F8
S31502000F0017D0020237DA020278F702020DEE020267
S31502000F10A71A0302DF1303020FD80202750B03029C
S31502000F201CD0020214D80202311D0302E513030289
S31502000F307008030296E202026FD502027A0B0302DE
S31502000F4017050302210503027E080302381D030268
S31502000F5007E00202F60203023BDA020286080302F5
S31502000F6025D00202DBFC02028C080302F113030203
S31502000F70430E0302800B03029EF90202EFEF020206
S31502000F8011E00202890B030211E0020285F7020256
S31502000F90AAF90202E8FC0202B4F902022A050302D5
S31502000FA0500E03022DD002028EF702023F1D0302EB
S31502000FB095F70202D9100302F8EF0202A2E2020238
S31502000FC01FD80202960B0302451D03029308030271
S31502000FD0E0000302E3100302BCF9020299F70202DF
S31502000FE0C0E80202C6F90202F1E40202C7E80202FE
S31502000FF0F8DC02025D0E030247DA020242F5020241
S31502001000D0E802029FF7020233050302C8D20202A7
S31502001010F4FC0202C0F20202DDFE02023A050302FB
S31502001020FAE40202ACE20202FCDC0202FFEF020276
S3150200103027190302F0000302A20B0302AA160302F7
S31502001040C8F202020BF00202E9100302301903028F
S315020010504BDA02029D080302F1100302A7080302FB
S315020010600FF0020252DA02028706030218E00202B7
S31502001070004C02000000000000000000D0900E228A
S3150200108000000000000000000000000000001888B8
S31502001090000000000000000001004000101F0000D8
S315020010A00100000000000000002034400028344007
S315020010B0010100000000030041160102431601026D
S315020010C04916010239170102311801028BE902029F
S309020010D0B4DD0E2253
S31502001100B0B502AF4DF6B450C0F20A208568D0E9F8
S3150200111000412A682046904769682046884741F27E
S3150200112080000021C2F201200160B0BDB0B502AF5D
S315020011304DF6B450C0F20A20856804682046A968B4
S31502001140884741F280000021C2F201200160204658
S31502001150E968884769682046BDE8B040084741F219
S315020011608000C2F2012000687047081A4CF6CD4191
S31502001170CCF6CC41A0FB0101C80870474FF47A7146
S31502001180B1FBF0F070470079002818BF704741F2B2
S315020011908000C2F201200168013101607047D4D497
S315020011A0F0B503AF2DE900072DED088B4EF22006B0
S315020011B0C4F2010696F9F000002809D443F20805A4
S315020011C0C4F220052868400505D4062000F0A1BC1B
S315020011D0132000F09EBC0124EFF3108884F31088DC
S315020011E003204FF003090BF055FA44F20800C4F24B
S315020011F02000016821F400410160816921F4004167
S31502001200816103200BF01CFA286820F40030286064
S3150200121001200DF0FBF83168B28842EA113002F083
S315020012200F020007C1F3033020D449F67801C2F257
S315020012300E2109689140C14032E000BF286B6E4E14
S315020012400000AA4200001643000094420000FA423F
S31502001250000009440000F4420000B7430000C64201
S3150200126000000F430000C0420000D04202F0070314
S315020012700E0B09FA03F3082A38BF04FA02F306F042
S31502001280070249F67806C2F20E26090409FA02F2A4
S31502001290366806FB03F158BF04FA00F2B1FBF2F11D
S315020012A000EE101A4DF68362B8EE400AC4F21B3203
S315020012B01FED1E1A41F2840CA1FB022381EE000AE5
S315020012C0C2F2012C40F200021FED231AC2F20022E2
S315020012D081EE001ACCF80010C3F38741BFEE002A54
S315020012E01FED283AB3EE044A47F2100011604FF69A
S315020012F0384131EE021A83EE003AC4F2340084EE2B
S31502001300004ACFF6FF711FED305A1FED306A1FED0E
S31502001310307A5FED300A5FED301A5FED302A5FED0D
S31502001320303A5FED304AF2EE0A5A5FED316A85EEE7
S31502001330005A435886EE006A4FF6F03487EE007A7A
S3150200134023F00103C0EE800A4350C1EE801ACFF6A5
S31502001350FF74C2EE802A1168C3EE803A0139C4EEE8
S31502001360804A0359C5EE805AC6EE806AFCEEC17AFF
S3150200137033EE020A34EE021ABCEEC08ABCEEC19A01
S3150200138035EE020A36EE021ABCEEC0AABCEEC1BAAD
S3150200139061F307034FF60041CFF6FF7137EE026A9B
S315020013A030EE825A035131EE824A4FF60C4432EE47
S315020013B0823A435833EE820ACFF6FF7434EE821A2B
S315020013C043F0010317EE905A435018EE106A19EED5
S315020013D0102A1AEE109A1BEE10EA35EE827A36EED3
S315020013E0822A0159C907FCD04FF6144142F2F94448
S315020013F0CFF6FF71C0F20104BCEEC66A40F6FF7A70
S315020014004358BCEEC55A64F3120343504FF61841D3
S31502001410BCEEC44ACFF6FF71BCEEC33ABCEEC11AAB
S3150200142040F27F244358BCEEC00A23F0FF032B444C
S315020014304350435847F2404523F47F43C4F23405F0
S3150200144043EA06234350435823F47F0343EA024206
S3150200145042504FF61C4216EE103ACFF6FF728158F2
S3150200146021F0FF014944815081584FF6FF7921F45A
S315020014707F41CFF2000941EA0E2181504FF6204109
S315020014804FF0010ECFF6FF71465826F0FF063344A1
S31502001490435015EE103A465826F47F4646EA032391
S315020014A0435014EE103A465826F47F0646EA0343A2
S315020014B0435013EE106A435823F07F43BCEEC73AFB
S315020014C043EA066343504FF6244113EE106ACFF601
S315020014D0FF71435823F47F0343EA0643435011EE58
S315020014E0106A435823F47F4343EA06234350435882
S315020014F010EE106A23F0FF03BCEEC20A33444350D7
S315020015004FF6284110EE106ACFF6FF71435823F0CA
S31502001510FF03334443504FF6104347F20041CFF6E0
S31502001520FF73C4F23401C65846F00106C6500B6872
S315020015301E2623F001030B608B6823F002038B60E7
S3150200154055F8203C23F00F0345F8203C55F8203C83
S3150200155043F0007345F8203CAB6923F40063AB61AA
S3150200156055F8203C66F30D2345F8203C0B68AA2665
S315020015706EF312430B60AB6923F4E043AB61AB69D4
S3150200158023F48073AB61AB6923F00303AB61AB69F0
S3150200159023F4E043AB61AB6923F48073AB61AB69BF
S315020015A023F40063AB61AB6923F00303AB61AB6960
S315020015B023F00403AB61AB6943F01003AB61AB6983
S315020015C066F31F63AB614E6926EA0A064E618E69AF
S315020015D064F30B068E61CC68EF266FF30B04CC60C6
S315020015E00C6966F30B040C6155F8144C4FF4A076A3
S315020015F066F30C0445F8144C55F8144C240740F0D5
S315020016001C812C6A41F6D66304F07F042C620C68B6
S31502001610C0F2C21324F480140C6040F2FF34D5F8F1
S31502001620C06026EA0404C5F8C040D5F8C0406FF38E
S315020016309324C5F8C040D5F8C0406FF31D54C5F8D1
S31502001640C04041F29F24C0F20104C5F8C04240F6F0
S315020016500004C0F20014C5F8C44240F60254C1F6B2
S315020016608914C5F8C84242F24504C0F24564C5F879
S31502001670CC4240F20714C5F8E84140F20424C0F215
S315020016806404C5F8EC4140F60004C8F60124A4F54A
S315020016900066C5F8F06141F66876C5F8F461C5F8EA
S315020016A0F8314FF4E173C5F8FC41C5F8003241F652
S315020016B08763C1F6B773C5F80432C5F808424024F9
S315020016C00B6823F000730B600B6823F440430B6036
S315020016D00B6843F080730B600B686EF3C4030B60F8
S315020016E00B6823F040030B600B6823F040530B603A
S315020016F055F81C3C23F0010345F81C3C55F81C3CEC
S3150200170043F4803345F81C3C55F81C3C23F0300367
S3150200171045F81C3C2B6843F001032B602B6823F031
S3150200172002032B602B6823F004032B602B6823F043
S3150200173010032B602B6823F020032B602B6823F405
S3150200174080732B602B6823F400732B602B6843F4A1
S3150200175080432B602B6843F400432B602B6823F4F1
S3150200176080332B602B6843F400332B602B6823F005
S3150200177000432B600B6843F480030B600B68C3F3D2
S3150200178080530B68C3F380530B68C3F380530B6813
S31502001790C3F380530B68C3F380530B68C3F38053C0
S315020017A00B68C3F380530B68C3F380530B68C3F310
S315020017B080530B68C3F380530B6823F080630B607E
S315020017C02B6C23F480332B642B6C23F400332B64B1
S315020017D02B6C23F480232B642B6C23F480132B6451
S315020017E02B6C23F080532B642B6C43F080432B64C9
S315020017F06B6C23EA0A036B646B6C23F470436B64B1
S315020018006B6C03EA09036B646B6C23F070436B64C5
S315020018102B6D64F316432B652B6D64F306032B6560
S315020018206B6EF02464F30B036B666B6E03EA0903BB
S3150200183043F020736B660023AB608B58022423F0BF
S3150200184001038B500368B7EE081A64F303030360BF
S315020018500368B0EE082A23F480330360036809F1B3
S31502001860606543F400330360036843F400230360B6
S31502001870036843F480130360036843F080730360D4
S31502001880036823F0007303609CED000A8668B8EED5
S31502001890400A20EE011A20EE020A9FEDA02A81EEEE
S315020018A0021A80EE020ABCEEC11ABCEEC00A11EEA2
S315020018B0103A013363F30806866010EE103A866822
S315020018C02E404FF610750133C4F200056FF35F2305
S315020018D046EA034383604FF64040CFF6FF700B584B
S315020018E06FF31E430B500B5823F000430B5047F681
S315020018F0FF730E5826EA03030B500B584FF6604649
S3150200190023F400430B504FF64440CFF6FF76CFF652
S31502001910FF700B5823F040030B500B5823F0300393
S315020019200B504FF664408D51CFF6FF7000230F2502
S315020019300B504FF68060CFF6FF700E5865F3060621
S315020019400E500E584FF6784546F480360E500E5815
S31502001950CFF6FF7546F480360E504FF688404B514F
S31502001960CFF6FF700F23C0F203134FF608560B5043
S315020019704FF69840CFF6FF70CFF6FF7640F27F35EE
S315020019800B504FF68C60CFF6FF70C1F601658D5194
S3150200199013230B504FF60860CFF6FF70FC230B5053
S315020019A04FF62C40CFF6FF7041F802E00A58D207F4
S315020019B0FCD188F310884EF2124C49F61408CEF286
S315020019C0000CC2F20E284CF24836C4F200064FF062
S315020019D0C00E0CF804EC0020C8F838004FF4804220
S315020019E056F8104C6FF0FF0324F4803446F8104C7E
S315020019F056F8104C4EF2001444F63215CEF200049C
S31502001A00C4F25335BFF35F8FC4F8802122600CF80D
S31502001A1003ECC8F83C0056F80C2C22F4803246F847
S31502001A200C2C56F80C2CBFF35F8F4FF40042C4F80F
S31502001A30802122600CF801ECC8F8440056F8042C08
S31502001A4022F4803246F8042C56F8042CBFF35F8F3A
S31502001A504FF40032C4F8802122600CF802ECC8F878
S31502001A60400056F8082C22F4803246F8082C56F824
S31502001A70082CBFF35F8F4FF48032C4F880212260B6
S31502001A808CF800E0C8F84800326822F480323260EE
S31502001A903268BFF35F8F4FF48022C4F88021226040
S31502001AA0CD504FF0FF3341F8D03C41F8CC3C41F8E1
S31502001AB0C83C41F8C43C8CF800E0C8F848003168DC
S31502001AC021F4803131603168BFF35F8FC4F8802121
S31502001AD022608CF801E0C8F84C00716821F480316C
S31502001AE071607168BFF35F8F4FF40021C4F88011F3
S31502001AF021608CF802E0C8F85000B16821F4803108
S31502001B00B160B168BFF35F8F4FF48011C4F88011E2
S31502001B102160BDEC088BBDE80007F0BDB083854DA2
S31502001B2047F240414306C4F234014FF000030A680B
S31502001B300B600AD1D1F800C00B6041F8100C41F8D5
S31502001B400C0C41F8080CC1F800C051F8400C40F0EA
S31502001B50010041F8400C51F8380C40F00203002015
S31502001B6041F8383C0A60704741F288020146C2F2E7
S31502001B70012200201160704747F270004FF0FF31DA
S31502001B80C4F2340002684160EFF303804FF0704103
S31502001B9001EB00604CF200318015C4F2000143589B
S31502001BA023F480334350405841F28801C2F20121A6
S31502001BB00B68002B08BF704780B56F4686B00020C1
S31502001BC001210192984706B080BD47F280004FF08E
S31502001BD07041C4F234000368D0F810C04360C0F804
S31502001BE014C0EFF3038001EB00604CF20031801564
S31502001BF0C4F20001425822F480324250405841F267
S31502001C008801C2F201210A68002A08BF704780B51E
S31502001C106F4686B000200221CDF800C0904706B07C
S31502001C2080BD47F204104CF27F31C4F23400C1F693
S31502001C30016102680160EFF303804FF0704101EB2E
S31502001C4000604CF200318015C4F20001435823F4BF
S31502001C5080334350405841F28801C2F201210B6899
S31502001C60002B08BF704780B56F4686B0002003215F
S31502001C70984706B080BD47F20020C4F234000268DD
S31502001C80D1B24160EFF303804FF0704101EB006087
S31502001C904CF200318015C4F20001435823F480331C
S31502001CA04350405841F28801C2F201210B68002BD1
S31502001CB008BF704780B56F4686B0002004210292A5
S31502001CC0984706B080BDEFF303804FF0704101EBF9
S31502001CD000604CF200318015C4F20001425822F431
S31502001CE080324250405847F28421C4F234010868D7
S31502001CF00A68C2F30722002A1CBF13014B6041F295
S31502001D008801C2F201210B68002B08BF704780B51B
S31502001D106F4686B020F47F4C00200521CDE903C230
S31502001D20984706B080BD47F244414FF07043C4F273
S31502001D3034014CF2003CC4F2000C08680860EFF370
S31502001D40038203EB0262921552F80C3023F48033BD
S31502001D5042F80C3052F80C2051F8402C0A6941F234
S31502001D608802D1F82813C2F20122D2F800C0BCF1CF
S31502001D70000F08BF704780B56F4686B0002100226B
S31502001D8000234FF0000ECDE900EECDF808E0CDE9D4
S31502001D9003EEE04706B080BD47F244414FF0704281
S31502001DA0C4F2340108680860EFF3038102EB0161B3
S31502001DB04CF200328915C4F200028B5823F48033A8
S31502001DC08B50895841F28802C2F20122D2F800C031
S31502001DD0BCF1000F08BF704780B56F4686B0002180
S31502001DE0002200234FF0000ECDE900EECDF808E008
S31502001DF0CDE903EEE04706B080BDB0B502AF49F2C9
S31502001E00AC144DF60461C2F20E24C0F20A21204639
S31502001E1007F069FC48F208150121C4F22605286874
S31502001E2020F4803028604FF47A700AF086FB286826
S31502001E30012140F4803028604FF47A700AF07DFB6D
S31502001E4000212046BDE8B04007F023BDF0B503AF40
S31502001E502DE9000F81B02DED048B8CB00990184648
S31502001E601C46B0EE408A91460B911CF073F900288D
S31502001E7001460A905DD04FEA09104FF0000900B200
S31502001E8008904EF68000DDF824A0C0F2012000255D
S31502001E9000F1100B07943FE051E903480120CDE918
S31502001EA0008050462246234602F0F9FA00EE104A16
S31502001EB00B9EB8EE400A01EE108AB8EE411A20EEE9
S31502001EC0089A21EE080A21B23401BCEEC91ABCEE08
S31502001ED0C00A11EE100A10EE103A00010FFA88F24B
S31502001EE000B21B01CDE9005008981BB204900C20E9
S31502001EF024B2CDE90234002305905046079C02F035
S31502001F00FFFABDEEC90A10EE100A06440B960A98AD
S31502001F1009F1010981450CD014F8090045225946F8
S31502001F2011F8103C8342B7D0013A01F55671F7D148
S31502001F30EDE70CB0BDEC048B01B0BDE8000FF0BDBF
S31502001F40B0B502AF82B0002004F0DAFA49F2701599
S31502001F500021C2F20E25286004F042FB40F2000185
S31502001F602868C6F600014FF480624FF480634FF092
S31502001F70010C4FF49664CDE9004C06F0FDF8286892
S31502001F80002105F085FC28680221032203F07EFB6E
S31502001F902868012103F05CFB2868FF2103F03DFB62
S31502001FA02868012103F0AFFB2868002103F0CBFB70
S31502001FB02868002103F0D7FB002002B0B0BDD0B5DF
S31502001FC002AF49F2481440F20661C2F20E24002220
S31502001FD0204607F0D1FC0A2001210AF0AEFA40F2AF
S31502001FE006610122204607F0C7FC78204FF47A7179
S31502001FF00AF0A3FA49F218104DF69041C2F20E20E9
S31502002000C0F20A2108F0E5FE30B1002040F60721B1
S31502002010012207F0B1FC00BE05204FF47A710AF0E6
S315020020208CFA49F21810C2F20E2009F046F930B1C4
S31502002030002040F60721012207F09EFC00BEC820C0
S315020020404FF47A710AF079FA49F2181040F2000157
S31502002050C2F20E20C6F60001002209F085F949F205
S31502002060481040F20E51C2F20E20012207F084FC03
S315020020700020D0BD80B56F4640F200004FF4161125
S31502002080C6F600001CF02FF880BDB0B502AF82B0D4
S31502002090007880074FF0000001902ED041F28C05A7
S315020020A0C2F201252C68FFF75AF801462046FFF7CF
S315020020B05CF848F67471C2F20E218860FFF74FF899
S315020020C049F26C112860C2F20E214DF29520C0F23F
S315020020D0002001AB09684FF480620DF05AF960B135
S315020020E0019850B14EF604504FF08051CEF20000E6
S315020020F00160BFF34F8FBFF36F8F41F29000C2F2C0
S3150200210001200178772901D80131017002B0B0BDF2
S31502002110D0B502AF82B049F27014C2F20E24206822
S3150200212004F08FFF40F2040040F20001C2F20020E8
S31502002130C6F600014FF496124FF4806300784FF012
S31502002140010C00FB021120684FF480624FF41674F2
S31502002150CDE9004C06F010F802B0D0BD80B56F464E
S3150200216049F27010C2F20E20006804F0ADFF40F290
S31502002170040C4FF49611C2F2002C00229CF80000C7
S3150200218000285FEA1F9340F200008CF80030C6F682
S31502002190000003FB01014DF61850C0F20A20006848
S315020021A0BDE8804009F0E0B8F0B503AF2DE9000FB5
S315020021B081B02DED048B8CB0804600F0DAFE49F238
S315020021C06C140790C2F20E240021002620680BF040
S315020021D022F8000400F1868120684FF48061002213
S315020021E00123012400940AF05FFFFFF791FF40F2FA
S315020021F00C004FF28071C2F20020C2F20521026881
S3150200220001F01F001044B0F1200151EA4681012A73
S3150200221015DBC94308444EF66871BFF34F8F04EBD2
S31502002220501E4FF28070C2F20520CEF20001086005
S3150200223020300FF005C0BFF34F8FBFF36F8F49F207
S3150200224070154FF28071C2F20E25C2F205214FF4CB
S31502002250A0724FF4A0732868F026CDE9006402F05C
S315020022601EF900214FF404524FF430532868CDE989
S315020022700013002304910C26CDE902214FF4A0712C
S31502002280F022059602F03CF941F29104C2F20124D1
S315020022902078012844D849F270164DF60F13C2F27F
S315020022A00E26B7EE048AC0F202234FF44D7130684F
S315020022B03222B0EE480AFFF7C9FD4EF2DE3330682D
S315020022C0C0F202234FF44D715A22B0EE480AFFF7CC
S315020022D0BDFD40F2A2733068C0F203234FF44D7184
S315020022E07822B0EE480AFFF7B1FD4EF6CF133068FA
S315020022F0C0F202234FF44D71C822B0EE480AFFF72E
S31502002300A5FD4FF2A1633068C0F202234FF44D716E
S31502002310E622B0EE480AFFF799FD207801302070D8
S31502002320B8F1000F00F0868048F6447B49F2701A35
S315020023300026C2F20E2B08AC9FED6E9AB7EE008A0B
S315020023404FF00008C2F20E2A5BE020221BF0C6FE06
S3150200235041F2920040F29371C2F20120C0F20321CF
S3150200236000EB4819224648468DF82E601AF05AFAB2
S31502002370204689F80F601BF0EDFE09EB0004484683
S315020023801BF0E8FE411E202220461BF0A7FE0BEBA7
S31502002390C8004EF24511C0F2022190ED010A41F247
S315020023A0321020EE090AC2F2012000EBC8042046D0
S315020023B0BCEEC00A10EE102A1AF034FAC8EB081066
S315020023C04FF4A071B0EE480A234601EB4001DAF859
S315020023D000000DB240F23E312A46667108ACFFF7A4
S315020023E035FDDAF800004FF45C712A46B0EE480A71
S315020023F04B460026FFF72AFD08F10108B8F1050F42
S3150200240018D03BF8380007998DF82E60ADF82C608D
S315020024100A96CDE9086651F820200E21204612F8C8
S31502002420013B2C2B18BF002B8FD0013900F8013B42
S31502002430F5D18DE748F6747048F21F51C2F20E20AC
S31502002440C5F2EB1149F69A1344F6D3540069C1F664
S315020024509913A0FB0112C1F262044FF0303CCDF891
S3150200246020C052094FF0300CA2FB0365B7EE040AF6
S315020024704CF6CD46CCF6CC46A0FB066105EB8505AF
S31502002480A0FB0464C908A2EB4502A1FB033642F095
S3150200249030020CEB94138DF8203046F6205406EBEE
S315020024A08603C0F2730401EB81060994A1EB430192
S315020024B08DF82120A0EB460041F0300140F03000BB
S315020024C08DF8230049F270108DF82210C2F20E2008
S315020024D008AB4FF44D714FF48C720068FFF7B6FCEF
S315020024E0FFF73CFE0CB0BDEC048B01B0BDE8000F5B
S315020024F0F0BD00BF0000C8424DF65461C0F20A2189
S3150200250007C912681047F0B503AF4DF8048D0446AB
S315020025104DF65460C0F20A2041F26456C2F2012618
S3150200252000228168056832602046D1F808801BF0D7
S3150200253011FE024628462146C047044638B11420F9
S3150200254001F02EFD00BE02E001200BF05FFF3068B5
S315020025500028F9D024B11420142401F021FD00E052
S31502002560002420465DF8048BF0BD007901281BD0BB
S31502002570022814D004281DD141F260500022C2F272
S3150200258001200168B2EB912F18BF70474DF63462F5
S31502002590C0F20A225278022A0DD8013109E041F22C
S315020025A06450C2F2012003E041F25C50C2F2012003
S315020025B00121016070470231FBE740F20501007913
S315020025C0C2F2002108707047D0B502AF82B0020A8B
S315020025D007F80A0C49F21C0007F80B2C07F8091C2D
S315020025E0C2F20E20A7F10B0103220023002407F0FA
S315020025F003FB10B1012002B0D0BD40F205014FF637
S31502002600FF70C2F200210C7001380204F2D00A787F
S315020026100AB92FF007C8087800220A7001285FEA73
S315020026201F9002B0D0BDF0B503AF2DE9000B82B00A
S315020026308846010A07F8190C49F21C0007F81A1C09
S31502002640C2F20E20A7F11A0102220123012507F088
S31502002650D3FAB8B940F205060020C2F200264FF6B8
S31502002660FF7430704FF6FF700138010409D03178DB
S3150200267009B92FF007C8307801284FF000003070F2
S3150200268005D10125284602B0BDE8000BF0BD49F28E
S315020026901C000122C2F20E200023414601254FF002
S315020026A0000907F0A3FA0028ECD186F80090013C55
S315020026B02004E6D0307808B92FF007C83078012810
S315020026C05FEA1F9500203070DCE7F0B503AF4DF8E6
S315020026D0048D82B049F2481580460020C2F20E25CA
S315020026E007F8120C07F8130C40F20971002228466B
S315020026F007F042F964200BF089FE40F209710122CB
S31502002700284607F039F948F6FC754DF61C41C2F227
S315020027100E25C0F20A21284607F0C6FF284608F011
S3150200272040F90A200BF072FE49F21C0001A9C2F21E
S315020027300E2007F06CFA9DF80400002800F098803D
S3150200274049F21C003C21C2F20E200122012407F0AC
S3150200275059FAA7F1120143F20A00FFF764FFA7F143
S31502002760130143F20B00FFF75EFF17F8130CA0F1FB
S3150200277040010A200C2900F2898041F2030204FA80
S3150200278001F1114200F0828041F670704AF6AA26E3
S31502002790C0F203204FF6FF74851C03E028780BF085
S315020027A035FE043535F8020CB042F7D0A04204D00B
S315020027B02978FFF709FF0435F4E743F235001221C1
S315020027C0FFF702FF43F236008C21FFF7FDFE43F2CC
S315020027D037001321FFF7F8FE43F208100121FFF735
S315020027E0F3FEA7F1110144F61400FFF71CFF17F8D8
S315020027F0110C00F03F0144F6140007F8111CFFF714
S31502002800E3FEB8F1000F18D042F2EC304AF6AA25E0
S31502002810C0F203204FF6FF76841C03E020780BF00B
S31502002820F5FD043434F8020CA842F7D0B04204D0C5
S315020028302178FFF7C9FE0434F4E744F202200F219F
S31502002840FFF7C2FE05200BF0E1FD42F69500C0F24D
S315020028500020FFF789F9FEF7A3FCB8B905200BF0B3
S31502002860D5FD44F202200021FFF7AEFE00200DE066
S3150200287049F21C004DF64441C2F20E20C0F20A2172
S3150200288007F06AF900283FF45BAF642002B05DF8F6
S31502002890048BF0BDB0B502AF82B080034FF00000EA
S315020028A0019043D544F68075C2F208252C68FEF7DE
S315020028B056FC01462046FEF758FC48F67471C2F2F1
S315020028C00E210860FEF74BFC49F26C112860C2F239
S315020028D00E214DF29520C0F2002001AB09684FF49B
S315020028E080520CF056FD60B1019850B14EF604507C
S315020028F04FF08051CEF200000160BFF34F8FBFF35D
S315020029006F8F41F2695040F27121C2F2012041F209
S315020029106852C2F2012241F280530078C2F20123C8
S315020029201070414303EB0120FFF7FAF802B0B0BD85
S3150200293080B56F4641F280504EF20021C2F201206C
S31502002940C0F204011BF0CFFB4FF280704FF4163138
S31502002950C2F205201BF0C7FB80BD41F2695041F26D
S315020029608052C2F20120C2F20122017840F27120A5
S31502002970484302EB002041F26852C2F20122117072
S31502002980FFF7CEB8D0B502AF41F2685C40F208005C
S31502002990C2F2012CC2F2002041F2695E41F2805479
S315020029A09CF800200068C2F2012EC2F20124002A1D
S315020029B05FEA1F91431E8EF800101ADB002A5FEAB7
S315020029C01F9140F271200122484302EB531EBFF3CE
S315020029D04F8F4EF65C7304EB0022CEF200031A60B0
S315020029E020320FF005C0BFF34F8FBFF36F8F9CF8F5
S315020029F00020002A5FEA1F9040F2712140F20C0289
S31502002A004843C2F20022126804EB00214FF28070A2
S31502002A10C2F205201BF075FBD0BDF0B503AF2DE960
S31502002A20000F83B000284FF0050C019218BF002951
S31502002A3004D1604603B0BDE8000FF0BD019A9A4288
S31502002A4002D24FF0030CF4E7FA68002A4AD0019A40
S31502002A50D7F808A0D61A42F2091944F2051B06EB6A
S31502002A60D67626F001063044009000200290FFE759
S31502002A704AF001C806E0029AF868013202928242DE
S31502002A8030D0F5E70298FA6858430024B0FBF2F01A
S31502002A90019A5043009A02EB4000B4FBFAF61C443A
S31502002AA030F816604FEAD628C6F3451C4FEA0822CC
S31502002AB006F01F05A2EBD62202FB09F2CCEB0C268E
S31502002AC0C5EB052506FB0BF605FB09F5920C01F88D
S31502002AD0032B360DAA0C01F8026C01F8012C0FF03B
S31502002AE025C0C8E74FF0000CA3E7B0B502AF8CB023
S31502002AF09446072208464FF48071CDE90922012245
S31502002B006FF07F030B91089242F204444FF0804526
S31502002B10CDE9003104930423CDE9025208AA6146A5
S31502002B204FF0020EC0F20324CDE9054E00F002F882
S31502002B300CB0B0BDF0B503AF2DE9000F8BB0D7F8DE
S31502002B400CA047F8380C07201C4600EB8A00934677
S31502002B5020F00700D7F81C90ADEB000547F8401CA3
S31502002B6047F844DC002147F8241C47F8301C47E9A3
S31502002B700B1147F8341CAD464FEA8A0128461BF072
S31502002B80B2FAA7F1340682B0002000230090204654
S31502002B905946324600F082F802B0804682B020469C
S31502002BA0594632463B6ACDF8009000F077F802B0FB
S31502002BB057F8381C55F8202011F90810114445F829
S31502002BC0201020465946324600F09AF808B12FF0F6
S31502002BD027C0386A012814DB40F001E000240120F6
S31502002BE0D7F8148059F8041B5BF82110CA17A0FB0A
S31502002BF0016300FB023004FB010430460FF00FC0F4
S31502002C0003E000240126D7F814803046214600F05E
S31502002C1095F808F11F01C0F13F003246234688426B
S31502002C2050EAB1893869C117B9F1200FA8BF4FF030
S31502002C30200950EA0D911BF073FCBAF1010F57F807
S31502002C4040BCBC6922DB0246B868704347F8380CC0
S31502002C50A8EB090047F83C0C55F8040B57F8383C2A
S31502002C60C01A82B057F83C3C00930B4691460E467A
S31502002C70A04600F074F831464A4602B02044BAF142
S31502002C80010A00F307000BF8010BE5D157F844DC03
S31502002C90A7F11C04A546BDE8000FF0BDF0B503AFD1
S31502002CA02DE9000B012827DBD7F808C08646BCF1C0
S31502002CB0000F5FEA1F96012B5FEAAF954FF00009FE
S31502002CC0002046EA05080BE051F8294052F829503F
S31502002CD004FB005009F10109BEF1010E00D10CE01E
S31502002CE0B8F1000F66461C46EED156F8045BA945BC
S31502002CF0F0D0013CF9D1E7E70020BDE8000BF0BDBA
S31502002D00D0B502AF6FF0030303EB800319441A44F4
S31502002D10034601280EDB106851F804E900F1010CA4
S31502002D20BEEB0C0454EA0090E64542F80409A3F10E
S31502002D300100EDD0002B5FEADF90D0BD02460843CA
S31502002D400BD00020B1F1804FA8BF704752EA4F0165
S31502002D500130B1F1804FF9DB704740207047F0B582
S31502002D6003AF4DF804BDA0FB0256D7F808C00021F8
S31502002D70012400FB0363C017CCF11E0E54EA0DE1D9
S31502002D8000FB023260195141CCF11F0250EA2D219B
S31502002D905DF804BBF0BD4FF6402044F69071C0F2D8
S31502002DA00620C2F208210068084470474DF2D4306A
S31502002DB046F69071C0F20A20C2F20E21006808445B
S31502002DC07047F0B503AF4DF804BD4FF644214DF2FE
S31502002DD0D032C0F206210446C0F20A2246F69073A9
S31502002DE0086844F69071C2F208211268C2F20E23F4
S31502002DF00D1820469E1800F00FF844F684702946F6
S31502002E00C2F208203246FFF770FE20465DF804BB88
S31502002E10BDE8F04000F04CB8B0B502AF92B042F651
S31502002E2060710024C0F20321CDE9081442F65C71F8
S31502002E3044F69075C0F20321C2F208250028CDE9B6
S31502002E400A54096803914FF4C421CDE90C544FF496
S31502002E5013300690CDE9041105F54431CDE90E147F
S31502002E6007D044F690704FF44451C2F208201BF08A
S31502002E703AF942F20C414FF44450C0F20321079052
S31502002E8003A800900A6849F2D00042F21041C2F249
S31502002E900E20C0F2032108ABCDE910540525CDE979
S31502002EA0015405F0A6FD01305FEA1FA012B0B0BDC5
S31502002EB0B0B502AF92B040F240210024C0F2072121
S31502002EC0CDE9081440F2302146F69075C0F207218A
S31502002ED0C2F20E250028CDE90A54096803914FF47F
S31502002EE0FD51CDE90C544FF480700690CDE90411E2
S31502002EF005F57C71CDE90E1405D005F57D604FF41C
S31502002F007A711BF0F0F805F57D6010904FF47A7037
S31502002F1007904FF648204FF65021C0F20620C0F225
S31502002F20062108AB1194026803A8009049F2D0006A
S31502002F30C2F20E200525CDE9015405F05AFD0130F5
S31502002F405FEA1FA012B0B0BD80E80E00704780B5E0
S31502002F506F4682B0D0F804C0016882680020DCF8AF
S31502002F600030D3F808E0052300906046F04702B02F
S31502002F7080BD40F21000C2F2002070474FF47A7012
S31502002F807047F0B503AF4DF804BD92B0FFF703FFEB
S31502002F9048F20001C6F62501411A10290ED24FF455
S31502002FA0133E48F20001C6F6250111F8012B82F004
S31502002FB0800200F8012B0FF009C00FE04FF4135EF8
S31502002FC048F20001C6F6250180FF500EB1EC103E14
S31502002FD002FF5021A0EC103E0FF009C0FEF7BFF829
S31502002FE0119000200024FFF7ECFEFEF7B8F81090CF
S31502002FF010981199401A0F9011981099FEF7B5F88A
S3150200300048F67471C2F20E210861FFF7CFFE0B90EB
S315020030104FF47A70CDE90C4048F63C7040F2092133
S31502003020C2F20E20ADF838104FF06E51416048F6EC
S315020030303071C2F20E2148F64072C2F20E226FF0D1
S315020030407F0381E8150001205360CDE907014DF2A7
S31502003050D830C0F20A2007A90830CDE905406846F3
S3150200306006AA03AB8DF83A40CDE90344FFF76CFF9D
S31502003070FFF76DFF0446D0B1FFF77BFFDDE90310D2
S31502003080884227D0002608460025304490ED000BE2
S3150200309001892846B7EEC00B00F08EFDDDE903017B
S315020030A00135091A1036B5EB211FEED312E04EF6A2
S315020030B08E20C0F2022000F064FF4DF62D00C0F211
S315020030C0022000F05EFF4FF24950C0F2022000F0EB
S315020030D058FF039810B104900EF0EDFA204612B094
S315020030E05DF804BBF0BDD2E900C060454ED0F0B534
S315020030F003AF4DF804BD0E4656F8040B864241D086
S315020031004FF0000E3468354624B12346646834B164
S315020031102FF005C8AB681868A8421D46FAD00CEB1A
S315020031200E1093ED040AB7EEC00A80ED000B30468E
S31502003130346824B12346646834B12FF005C8836825
S315020031401D6885421846FAD010685B6900EB0E10BE
S315020031508360336823B11C465B6833B12FF005C820
S31502003160B4682068B0422646FAD0D2E900C00EF111
S31502003170010EA0EB0C00BEEB201F03D20868264608
S315020031808442BFD15DF804BBBDE8F0407047F0B59C
S3150200319003AF2DE9000F81B02DED028B88B005A893
S315020031A0984600F1040B8A464FF00009002B5C4654
S315020031B00092CDF81890CDF81C90CDF814B040D0FE
S315020031C00025DAF800005E4600EB850106985C46AB
S315020031D091ED008A18B919E020682646B0B190ED43
S315020031E0040A0446B4EE408AF1EE10FAF4D4B4EEC0
S315020031F0480AF1EE10FA04D460698542ECD3A8427B
S315020032001BD2606808B12FF017C0261D1820AEF039
S3150200321050F980ED048A4561C0E90099014684604F
S3150200322030600598006800281CBF05903168069832
S3150200323000F04AF907980130079001354545C0D19B
S31502003240059CFFF79BFE0490049840455CD9002636
S3150200325045461EE01820AEF02CF980ED048A456141
S31502003260C0E9006601468460C8F800000598006857
S3150200327000281CBF0590D8F80010069800F024F923
S31502003280079801300790059CC84604980135854287
S315020032903AD2DAF8000094ED040A00EB850090EDCC
S315020032A0001AB4EE410AF1EE10FAEED504F110015D
S315020032B005A8C14600F0A6F9DAF80000D84600EBE8
S315020032C0850106985C4691ED008A20B9C2E720681E
S315020032D0A0460028BED090ED040A0446B4EE408A09
S315020032E0F1EE10FAF3D4B4EE480AF1EE10FA04D471
S315020032F060698542EBD3A842C5D2606808B12FF057
S3150200330017C004F10408A5E70025B8F1000F0195DE
S31502003310CDE902550ED0B8F1805F26D24FEA0816E3
S315020033203046AEF0C6F83146044600EB08151AF0F0
S31502003330DAFE00E00024009E306810B170600EF0E4
S31502003340BAF9C6E9004505AC21463246B560FFF733
S31502003350CAFE0699204600F0A3F8012008B0BDEC8B
S31502003360028B01B0BDE8000FF0BD01A800F0EEFA35
S31502003370F0B503AF2DE9000F85B0002947D08D695E
S31502003380581E0024A84280F080801068506003A86E
S31502003390984691468B4600F059FBB5F1804F009452
S315020033A0CDE9014476D2AE003046AEF082F831461F
S315020033B0009000EB8504029482461AF094FE9BF874
S315020033C01C005E46019401283FD0092843464A461E
S315020033D01FD0032854D1306945F001E0002110F8CE
S315020033E0016B9DED041A00EE106A009EB8EE400ACB
S315020033F00E44B8EEC11A043130EE410A9DED031AAD
S3150200340021EE000A86ED000A0FF017C82AE0002412
S315020034103BE0306945F001E0002110F9016B9DEDBA
S31502003420041A00EE106A009EB8EEC00A0E44B8EE08
S31502003430C11A043130EE410A9DED031A21EE000A4B
S3150200344086ED000A0FF017C80CE0306945F001E07E
S31502003450002143464A46009E50F8045B75500431EB
S315020034600FF007C8B86820B1684600F093FA4A46DA
S3150200347043466946FFF78BFE0098012410B904E023
S315020034800024504601900EF016F9204605B0BDE81C
S31502003490000FF0BD684600F06AFA70470EF00BB9ED
S315020034A0002908BF7047B0B502AF0A680D4611463B
S315020034B00446FFF7F5FF69682046FFF7F1FF284645
S315020034C0BDE8B0400EF0F7B881425FEA1F920A7378
S315020034D008BF7047D0B502AF4FF0010C0AE086452F
S315020034E05FEA1F9183F80CC08EF80C10714682F8C1
S315020034F000C064D08B681A7B002A60D1D3F808E03A
S31502003500DEF800209A4205D022B312F80C4F002CA6
S31502003510E5D01FE0DEF804201AB112F80C4F002C99
S31502003520DDD0186888424DD0586801685960002974
S315020035301CBF8B60D3F808E07146C0F808E051F86A
S31502003540042B9A425EEA0181086003609860D0F813
S3150200355008E038E01868884201D0194613E0486846
S31502003560186000281CBF8360D3F808E07046C1F8D3
S3150200357008E050F8042B9A425EEA008001604B6034
S315020035809960D1F808E001200873DEF804000021F2
S315020035908EF80C100168CEF80410002918BFC1F885
S315020035A008E0DEF8081081600A4652F8043B7345CB
S315020035B051EA02810860C0F800E0CEF80800BDE8D2
S315020035C0D0407047184601210173DEF80000002141
S315020035D08EF80C104168CEF80010002918BFC1F809
S315020035E008E0DEF8081081600A4652F8043B73458B
S315020035F051EA02810860C0F804E0CEF80800BDE88E
S31502003600D04070470346844653F8040F002842D040
S31502003610B0B502AF91ED000A49681D46044602E0C4
S3150200362004342468D4B194ED041AB4EE401AF1EECF
S3150200363010FAF5D4B4EE410AF1EE10FA01D5254698
S31502003640EFE762698A425FEA2F9212F0010222468E
S3150200365055EA148518BF04321446E2E79D4218D093
S3150200366095ED041AB4EE410AF1EE10FA11D4B4EE55
S31502003670401AF1EE10FA03D46A69914253EA35858B
S315020036809D4206D06B6843B119461B685BB12FF0A9
S3150200369005C80020B0BD002070472B4699680A680D
S315020036A09A420B46FAD1DCF80020AA4208BFCCF8AF
S315020036B00010DCF808100139CCF80810294600F091
S315020036C005F828460DF0F7FF0120B0BDF0B503AFAF
S315020036D04DF8048DD1F800C00B46BCF1000F07D09F
S315020036E04A680B464AB1134612680AB12FF005C85A
S315020036F0D3F804C0BCF1000F05D09A684FF0000E53
S31502003700CCF8082004E09A684FF0000C4FF0010E46
S3150200371014689C4203D0C2F804C09A6806E0834249
S31502003720C2F800C000F0A2809A680432126893F8C8
S315020037300C808B4215D08D689D602E4656F8044B40
S315020037408C4255EA068423600C681C60A3604D68AF
S315020037505D60002D18BFAB60884253EA00800C7B87
S315020037601C73B8F1000F18BF002802D15DF8048B54
S31502003770F0BDBEF1000F73D04FF0010C4FF0000EFA
S3150200378007E08A68134653F8044B8C4253EA0281D7
S315020037900A689168157B0E6896422ED0D5B982F8D2
S315020037A00CC081F80CE091684C6825684D60002DCC
S315020037B018BFA9608D68A5602E4656F8043B8B4259
S315020037C055EA06831C6021608C601168884252EAC1
S315020037D000804A68116811B10B7B002B4BD05468EC
S315020037E014B1237B002B48D0916882F80CE0814209
S315020037F03FD00A7B002AC4D12DE0D5B982F80CC08D
S3150200380081F80CE091680C6865680D60002D18BFA0
S31502003810A9608B68A3601D4655F8046B8E4253EA75
S3150200382005831C6061608C605168884252EA0080A0
S315020038300A68116811B10B7B002B6AD0546814B167
S31502003840237B002B4BD0916882F80CE00A7B002A7E
S3150200385018BF814295D1012008735DF8048BF0BD33
S3150200386001208CF80C005DF8048BF0BD0022604646
S315020038705DE70146EFE754680CB1207BA8B1012051
S31502003880087310680021117341681160002918BF7E
S315020038908A60916881600B4653F8046B964251EA3E
S315020038A0038108604260906000E0104681680A7BEE
S315020038B0027301220A7341680A73806841680A68C2
S315020038C04260002A18BF906082688A60134653F8E5
S315020038D0046B864252EA03821160086032E011B13B
S315020038E0087BB0B15468012020735068002111731F
S315020038F001685160002918BF8A60916881600B4691
S3150200390053F8046B964251EA0381086002609060A4
S3150200391000E0104681680A7B027301220A7301687D
S315020039200A73806801684A680260002A18BF9060BC
S3150200393082688A60134653F8046B864252EA03820F
S315020039401160486081605DF8048BF0BD80B56F46FA
S3150200395040F6B100C0F2032000F000F880B56F46D1
S3150200396001464EF6D600C0F2022018F0F7FD80B5E9
S315020039706F4640F6B100C0F20320FFF7EFFF80B5B5
S315020039806F46FFF7FEFA0221002818BF00210846FB
S3150200399080BDD4D4F0B503AF4DF8048D2DED028B66
S315020039A0D0E90065B5EB060831461CD0301D31461C
S315020039B0A84218D0A8F10801012296ED000A02EBEE
S315020039C0910E314690ED001AB4EE401AF1EE10FA5D
S315020039D0B4EE410A31FE000AF1EE10FA50EA4181D4
S315020039E004300FF011C8AE4229D091ED008A344658
S315020039F094ED000A30EE480A1AF074FAA4EC010AB1
S31502003A00AC42F5D1AE421AD0A8F1040001219FEDD5
S31502003A100E0A01EB900E3146B1EC011A30EE010AA4
S31502003A200FF007C0AE420AD0012101EB900E96EDCF
S31502003A30001A81EE001AA6EC011A0FF009C0BDECBD
S31502003A40028B5DF8048BF0BD000000000A684FF09F
S31502003A507E53012A4FF00002C0E9003210D14A68B3
S31502003A600AB193686BB191ED020AB5EE400AF1EE26
S31502003A7010FA08BF70470C3180ED000A09684160F0
S31502003A80704711680B68002B1CBF496801605168BA
S31502003A900A68002AF4D00431F0E7B0B502AFD0B11B
S31502003AA000F01F020A44B2F1200358BF0023012985
S31502003AB0B8BFB0BDD94311440122BFF34F8F02EB09
S31502003AC0511E4EF68051CEF20001C1F8E8012030B7
S31502003AD00FF005C823E04EF680500021CEF200001A
S31502003AE043F6E07C4160BFF34F8F0268C2F34E316A
S31502003AF0D308C2F3C902541C9A074B0103EA0C0508
S31502003B0044F001E01544C0F8EC5105F140450FF0D0
S31502003B1007C00029A1F10101A3F12003EED1BFF3F1
S31502003B204F8FBFF36F8FB0BDB0B502AFD0B100F00B
S31502003B301F020A44B2F1200358BF00230129B8BF6D
S31502003B40B0BDD94311440122BFF34F8F02EB511E80
S31502003B504EF68051CEF20001C1F8DC0120300FF0A2
S31502003B6005C823E04EF680500021CEF2000043F64F
S31502003B70E07C4160BFF34F8F0268C2F34E31D30837
S31502003B80C2F3C902541C9A074B0103EA0C0544F01E
S31502003B9001E01544C0F8E05105F140450FF007C0B9
S31502003BA00029A1F10101A3F12003EED1BFF34F8F4A
S31502003BB0BFF36F8FB0BDD4D480B56F46042824D826
S31502003BC048F644720428C2F20E2202EBC00322F81F
S31502003BD0301083ED010A18BF80BD4FF0050E101D8F
S31502003BE09FED0A0A014691ED001A083130EE010AEC
S31502003BF00FF007C84FF0050E90ED001A81EE001A7D
S31502003C0080ED001A08300FF009C880BDBD37863531
S31502003C1080B56F4682B049F26C160321C2F20E26B7
S31502003C20002201234FF0FF383068CDF8008009F0FA
S31502003C303BFA40F6B4704DF67041C2F20020C0F273
S31502003C400A2105F084F83068042109F0CBF943F61D
S31502003C50C140C0F2002004F067FB3068082109F079
S31502003C60C1F948F64474C2F20E2407E030684FF4F4
S31502003C70804109F0B7F919200AF0C8FB30684FF401
S31502003C80005101220123CDF8008009F00DFA00202F
S31502003C904FF4C061012205F06FFE282120461AF07A
S31502003CA022FAFFF76CFE054600204FF4C06100229F
S31502003CB005F062FE022DD9D1022000F071F9D5E796
S31502003CC018F050BD80B56F4684B0FEF715FC10B1F2
S31502003CD0132000F065F900F05CFA10B1162000F02E
S31502003CE05FF949F248104FF48471C2F20E200022A5
S31502003CF005F042FEFEF7BEF9FEF722F910B10A20E0
S31502003D0000F04EF9FEF75BF949F26C15C2F20E2588
S31502003D1018B10A2000F044F903E02868012109F0ED
S31502003D2061F9FEF705FE0020FEF7CFFC18B10F2061
S31502003D3000F036F903E02868022109F053F9FDF78D
S31502003D40DFF9FDF7F3F94FF0FF31286800910F21F3
S31502003D500022012309F0A8F9FEF7FFFD48F2000050
S31502003D6048F66C7AC6F6250048F6707848F6747BF3
S31502003D704EF6687900F01F00C2F20E2AC2F20E2831
S31502003D80C2F20E2BE024CEF20009411E029160F02F
S31502003D901F0003902BE0BFF34F8FBFF36F8FFDF72A
S31502003DA0DEF9C8F80000DAF80000D8F80010FDF7CE
S31502003DB0DCF9CBF80C0028684FF4005109F012F92F
S31502003DC001200AF023FB2868002109F024FAC0F337
S31502003DD0803628684FF4804109F01DFA3046FEF716
S31502003DE0E3F9002000F050F814200AF00FFB2868CF
S31502003DF04FF48051012201234FF0FF36009609F05D
S31502003E0053F9FDF7ACF9CAF80000FEF7BBFDFDF762
S31502003E10A6F9C8F80000DAF80000D8F80010FDF795
S31502003E20A4F9CBF80400FDF79AF9CAF800004FF29C
S31502003E30807048F200014FF4A072F023C2F205200E
S31502003E40C6F62501CDE90044FEF7E7FD40F6B0705F
S31502003E500399C2F2002000220068091851EA428141
S31502003E6001289CDB029A1044401A0121BFF34F8FAE
S31502003E7001EB501E48F20000C6F62500C9F8000004
S31502003E8020300FF005C886E7F0B503AF4DF804BD44
S31502003E9041F25A144DF64501C2F2012441F63D1291
S31502003EA041F2FB03C0F20221C0F20322C0F2032355
S31502003EB0204618F0B7FC2046FEF725FB4DF2EC3102
S31502003EC01522C0F20A2120461AF01BF92046FEF7F7
S31502003ED01AFB48F67476C2F20E2635682846FDF7B6
S31502003EE04DF94EF697210346C0F2022120462A4694
S31502003EF018F098FC2046FEF706FB75682846FDF783
S31502003F003DF94EF2B7210346C0F2022120462A4667
S31502003F1018F088FC2046FEF7F6FAF5682846FDF703
S31502003F202DF940F200310346C0F2032120462A460B
S31502003F3018F078FC2046FEF7E6FA35692846FDF7C2
S31502003F401DF94EF202510346C0F2022120462A46CC
S31502003F5018F068FC2046FEF7D6FAB5682846FDF743
S31502003F600DF94FF2AA710346C0F2022120462A46F3
S31502003F7018F058FC20465DF804BBBDE8F040FEF799
S31502003F80C2BAD0B502AF41F25A140146C2F20124B6
S31502003F90204618F047FC2046FEF7B5FA0020D0BDB1
S31502003FA00138152800F2F38080B56F46DFE800F08D
S31502003FB00B7850643396B46ED246C8293DAA1F5A6E
S31502003FC01582BEDC8CA041F25A104DF61021C2F2C7
S31502003FD00120C0F20A213722CFE041F25A104DF2F7
S31502003FE04C71C2F20120C0F20A215122C5E041F20F
S31502003FF05A104DF2A841C2F20120C0F20A21502203
S31502004000BBE041F25A104DF2BC61C2F20120C0F28D
S315020040100A214222B1E041F25A104DF27451C2F223
S315020040200120C0F20A214722A7E041F25A104DF2BE
S31502004030A071C2F20120C0F20A219DE041F25A109B
S315020040404DF64821C2F20120C0F20A215A2294E01A
S3150200405041F25A104DF21461C2F20120C0F20A2155
S3150200406041228AE041F25A104DF21041C2F2012079
S31502004070C0F20A21502280E041F25A104DF6C011D8
S31502004080C2F20120C0F20A21422276E041F25A101F
S315020040904DF26041C2F20120C0F20A2148226CE0D0
S315020040A041F25A104DF6A801C2F20120C0F20A21CD
S315020040B03E2262E041F25A104DF6D821C2F20120A8
S315020040C0C0F20A214F2258E041F25A104DF6480139
S315020040D0C2F20120C0F20A2152224EE041F25A10E7
S315020040E04DF60001C2F20120C0F20A21462244E046
S315020040F041F25A104DF2BC51C2F20120C0F20A211D
S3150200410056223AE041F25A104DF6E801C2F2012077
S31502004110C0F20A215C2230E041F25A104DF20071DF
S31502004120C2F20120C0F20A214A2226E041F25A10C6
S315020041304DF64411C2F20120C0F20A2153221CE0BC
S3150200414041F25A104DF68831C2F20120C0F20A211C
S31502004150422212E041F25A104DF26461C2F201208B
S31502004160C0F20A21552208E041F25A104DF22051BE
S31502004170C2F20120C0F20A21542219F0C2FF41F212
S315020041805A10C2F20120FEF7BEF9BDE8804000BE19
S31502004190704780B56F4649F238104DF64051C2F26B
S315020041A00E20C0F20A2106F0C8F998B949F2281081
S315020041B04DF62851C2F20E20C0F20A2106F0BDF9D0
S315020041C0002818BF80BD49F23810C2F20E2006F050
S315020041D002FA00B180BD49F22810C2F20E20BDE8F3
S315020041E0804006F0F8B9D0B502AF82B049F26C143D
S315020041F00020C2F20E240190206809F042F8000461
S31502004200216818D44DF2952001ABC0F200204FF47C
S3150200421000420BF0BEF860B1019850B14EF6045060
S315020042204FF08051CEF200000160BFF34F8FBFF313
S315020042306F8F02B0D0BD4DF299204FF40042C0F20A
S315020042400020002302B0BDE8D0400BF0A2B87047B0
S31502004250022818BF704780B56F4649F248104EF2E1
S31502004260B821C2F20E20C0F20A2105F079FB012024
S3150200427008F05AFABDE88040FDF7BFBD80B56F462B
S3150200428084B049F2F8104DF6D833C2F20E2048F641
S31502004290887C4DF6D85EC0F20A2301684FF480523C
S315020042A0013101600220009044F2E92040F6646187
S315020042B0C0F20020C0F20321C2F20E2CC2F20E2E70
S315020042C0CDE901EC09F031FE48F6F8710028C2F298
S315020042D00E2108601CBF04B080BD0020002104B07E
S315020042E0BDE8804000F062B8D0B502AF044600F0E7
S315020042F05FF82046BDE8D040FFF78ABC80B56F461E
S3150200430084B049F2F8104DF66C43C2F20E2049F21F
S315020043105C0C41F6D85EC0F20A2301684FF40062D3
S31502004320013101600120009044F269304FF2CE2142
S31502004330C0F20020C0F20221C2F20E2CC2F20F2EEF
S31502004340CDE901EC09F0F1FD49F2CC010028C2F2F7
S315020043500E2108601CBF04B080BD0020002104B0FD
S31502004360BDE8804000F022B8D0B502AF044600F0A6
S315020043701FF82046BDE8D040FFF7A4BC80B56F46C3
S3150200438049F25010C2F20E2008F0F9FD49F26C1102
S315020043900028C2F20E21086018BF80BD002000214D
S315020043A0BDE8804000F002B8FFF7E8BF00BE7047E4
S315020043B0B0B502AF49F2F0144FF0FF31C2F20E244B
S315020043C0206809F064FC012803D020680021FFF769
S315020043D0EDFF49F2F410C2F20E200178002918BF4F
S315020043E0B0BD01210170FFF7DFFF49F2F815C2F2F5
S315020043F00E252868013828600CD02068002100228A
S31502004400002309F0B9F80128F3D020680021FFF74C
S31502004410CDFFEEE7B0BD80B56F4649F2F41249F220
S31502004420F810C2F20E22C2F20E200021117049F2D9
S31502004430FC120160C2F20E224FF48070012109F0D3
S315020044404DF849F2F011C2F20E21086018B90020A7
S315020044500021FFF7ABFFFFF751FFFFF70FFF0AF04F
S3150200446091F8002080BD49F2442C49F2B423C2F2ED
S315020044700E2CC2F20E23C0F800C00B608020106022
S31502004480704749F2B44C49F22453C2F20E2CC2F2DE
S315020044900E23C0F800C00B60802010607047D0B5B4
S315020044A002AFD7F80CC05FEACC6E04D590F882E072
S315020044B05FEA0E6E17D55FEA8C6E04D590F882E03D
S315020044C05FEA8E6E0FD52CF0300EAEF10D0EBEF1F8
S315020044D0020F0DD8D0F880E05FEACE3408D40EF091
S315020044E0FE04092C04D8092180F8C6110920D0BD82
S315020044F0406ABC6800F5B47080E81E100020D0BD8A
S31502004500F0B503AF2DE9000F8DB0446A8246D7F8A5
S3150200451008C0D7F81C90D4E95B060CEB020ED4F85F
S315020045207451B0F5006F03EB01009346A8BF29F062
S315020045300809B04208460C93C8BFF01AAE45DAF82D
S3150200454030800590C8BFA5EB0C0BB8F1000F5FEAEF
S315020045500F9019F4807F5FEA1080E37DD4F87851DA
S3150200456001280B90CDE9091274D188F8003094F82D
S315020045700E0188F8020094F8D50088F80100D4F8F4
S31502004580FC00C8F80400D4F80001C8F80800D4F802
S315020045902C01C8F80C0094F8E90088F82900D4F830
S315020045A03801C8F81000D4F83401C8F8140094F899
S315020045B0E80088F82800D4F8EC00C8F81800D4F807
S315020045C0F000C8F81C00D4F8F400C8F82000D4F8AB
S315020045D0F800C8F8240094F8EA0088F82A0094F84B
S315020045E0EB0088F82B00D4F83C01C8F82C00D4F86C
S315020045F04001C8F83000D4F82401C8F83400D4F8D1
S315020046005801C8F83800D4F85C01C8F83C00B4F880
S31502004610A800A8F85400B4F8AA00A8F85600D4F8DE
S31502004620A000C8F84C00D4F8A400C8F85000D4F88A
S315020046309800C8F84400D4F89C00C8F84800D4F89A
S31502004640B000C8F85C00D4F8B400C8F860000020D6
S31502004650069000E006930321504600F0B9FF0021C0
S315020046600022504603F0A9FBE806089500F15580A2
S31502004670D4F87801002620F03000422800F270803B
S31502004680DFE810F043005B0065005B005B00880119
S3150200469065005B005B0043004300430043004300A8
S315020046A0430043006E006E006E006E006E006E00E8
S315020046B06E006E006E006E006E006E006E006E0082
S315020046C06E006E006E006E006E006E006E006E0072
S315020046D06E006E006E006E006E006E006E006E0062
S315020046E06E006E006E006E006E006E006E006E0052
S315020046F06E006E006E006E006E006E006E006E0042
S315020047006E006E0065005B005B00D4E95A010C9AEC
S315020047101044BA6801FB020622E009F00F01504676
S31502004720D4F8686103F01DFAD4E95D01D4E95B238C
S31502004730CDE900015046314620E0D4E95A01BA6873
S3150200474051430C9A00EB420000EB410608E0D4E923
S315020047505A01BA6851430C9A00EB820000EB8106BB
S3150200476009F00F01504603F0FCF9D4F87801D4F8A9
S315020047706C21CDE900B050463146059B03F092F814
S315020047804FEA09604FF07F4101EAE0705FEA896112
S3150200479009F0A001FB6858BF4FF07F40A03918BF4F
S315020047A04FF07F415FEAC962DDE9095C05D45FEA41
S315020047B0496207D46FF07F4207E05FEA4962A26866
S315020047C001D402E0A2681043E268114394F80E2174
S315020047D0D7F810B0112BC4E9560142F0050084F84F
S315020047E00E01CDF81CA005D398B22905B1FBF0F154
S315020047F04B0802E04FF480310023D7F818E0BBF1F2
S31502004800110FD7F814A007DB4FEA0C521FFA8BF6EA
S31502004810B2FBF6F6720802E04FF48036002219F473
S31502004820007018BFC3EB054351EA01B019F4806169
S31502004830089956EA06B618BFC2EB0C425FEA4975FA
S3150200484001F0100148BFA3F500435FEA097548BFAE
S31502004850A2F5004200290C9918BF03EB0143B9687F
S31502004860754618BF02EB0142CDE900200020DDF8B3
S315020048701C905146CDE9020048467246049603F062
S315020048807AFAF868CDE9000B4846214652462B468D
S3150200489000F029FC0B98002873D098F80000E07508
S315020048A098F8020084F80E0198F8010084F8D50001
S315020048B0D8F80400C4F8FC00D8F80800C4F80001CF
S315020048C0D8F80C00C4F82C0198F8290084F8E900FD
S315020048D0D8F81000C4F83801D8F81400C4F8340126
S315020048E098F8280084F8E800D8F81800C4F8EC0014
S315020048F0D8F81C00C4F8F000D8F82000C4F8F40078
S31502004900D8F82400C4F8F80098F82A0084F8EA00D7
S3150200491098F82B0084F8EB00D8F82C00C4F83C0178
S31502004920D8F83000C4F84001D8F83400C4F824019D
S31502004930D8F83800C4F85801D8F83C00C4F85C012D
S31502004940B8F85400A4F8A800B8F85600A4F8AA00CB
S31502004950D8F84C00C4F8A000D8F85000C4F8A40057
S31502004960D8F84400C4F89800D8F84800C4F89C0067
S31502004970D8F85C00C4F8B000D8F86000C4F8B400F7
S3150200498003E04846069900F023FE00200DB0BDE87C
S31502004990000FF0BD9AF88200800603D409208AF837
S315020049A0C601F3E71020C0F20400C4F82C0101206E
S315020049B084F8E900A9E6F0B503AF2DE9000F83B04C
S315020049C0BE688146002E4FF0000000F093828846B2
S315020049D0F9680129C0F28E8222F00F001644ADF862
S315020049E0040023F00F00ADF80600701E5C1820F0DC
S315020049F00F00ADF80800601E20F00F00ADF80A00A7
S31502004A0001A948469B46154603F05BFCB8B1A6F1E0
S31502004A101000A4F110010FFA80FA48460CB2414682
S31502004A2002F0CCFB98F8D50081074FEAC07008D493
S31502004A30002840F01C8101AA002300202EE200205B
S31502004A4058E2002840F013814AEA050044EA0B01C5
S31502004A5000074FEA017000F05182BDF904104FF4CD
S31502004A6080320028A1EB050140F20005CFF6FF7562
S31502004A7002EB0131D9F8B82102F10803C9F8B831BD
S31502004A804FF00403C2E90031D9F8BC11A1F10100CB
S31502004A90C9F8BC0100F0B282012903DCD9F8C011C1
S31502004AA048468847D9F8B8014FF4803200F1080128
S31502004AB0C9F8B8110A21C0E90012D9F8BC010138B7
S31502004AC0C9F8BC0103DCD9F8C01148468847D9F8B1
S31502004AD0B801002200F10801C9F8B8111021C0E995
S31502004AE00012D9F8BC010138C9F8BC0103DCD9F8B7
S31502004AF0C01148468847BDF904004FF48031AAEB3D
S31502004B00000001EB0030D9F8B81101F10802C9F82A
S31502004B10B8210522C1E90020D9F8BC010138C9F83B
S31502004B20BC0103DCD9F8C01148468847D9F8B80158
S31502004B3000F10801C9F8B8110B21C0E90015D9F82E
S31502004B40BC010138C9F8BC0103DCD9F8C0114846DA
S31502004B508847D9F8B801002200F10801C9F8B8114E
S31502004B601121C0E90012D9F8BC010138C9F8BC010B
S31502004B7003DCD9F8C01148468847BDF906004FF450
S31502004B808031A0EB0B0001EB0030D9F8B81101F12E
S31502004B900802C9F8B8210622C1E90020D9F8BC01E9
S31502004BA00138C9F8BC0103DCD9F8C0114846884768
S31502004BB0D9F8B801002200F10801C9F8B8110C2190
S31502004BC0C0E90012D9F8BC010138C9F8BC0103DCFE
S31502004BD0D9F8C01148468847D9F8B8014FF480364B
S31502004BE000F10801C9F8B8111221C0E90016D9F876
S31502004BF0BC010138C9F8BC0103DCD9F8C01148462A
S31502004C008847BDF90600D9F8B81101F10802C9F8BA
S31502004C10B821201A072206EB0030C1E90020D9F894
S31502004C20BC010138C9F8BC0103DCD9F8C0114846F9
S31502004C308847D9F8B801002200F10801C9F8B8116D
S31502004C400D21C0E90012D9F8BC010138C9F8BC012E
S31502004C5003DCD9F8C01148468847D9F8B80100F1F3
S31502004C600801C9F8B8111321C0E9001509E1BDF917
S31502004C700400D8F81011401B484301EB1010D9F874
S31502004C80B81101F10802C9F8B8210422C1E90020CD
S31502004C90D9F8BC010138C9F8BC0103DCD9F8C01146
S31502004CA048468847D9F8B811D8F8100101F1080228
S31502004CB0C9F8B8210A22C1E90020D9F8BC01013895
S31502004CC0C9F8BC0103DCD9F8C01148468847D9F8AF
S31502004CD0B801002200F10801C9F8B8111021C0E993
S31502004CE00012D9F8BC010138C9F8BC0103DCD9F8B5
S31502004CF0C01148468847BDF90400D8F81011AAEB3E
S31502004D000000484301EB1010D9F8B81101F108026E
S31502004D10C9F8B8210522C1E90020D9F8BC01013839
S31502004D20C9F8BC0103DCD9F8C01148468847D9F84E
S31502004D30B811D8F8100101F108024042C9F8B821A9
S31502004D400B22C1E90020D9F8BC010138C9F8BC011F
S31502004D5003DCD9F8C01148468847D9F8B8010022C1
S31502004D6000F10801C9F8B8111121C0E90012D9F8F9
S31502004D70BC010138C9F8BC0103DCD9F8C0114846A8
S31502004D808847BDF90600D8F81011A0EB0B0048437E
S31502004D9001EB1010D9F8B81101F10802C9F8B821CF
S31502004DA00622C1E90020D9F8BC010138C9F8BC01C4
S31502004DB003DCD9F8C01148468847D9F8B801002261
S31502004DC000F10801C9F8B8110C21C0E90012D9F89E
S31502004DD0BC010138C9F8BC0103DCD9F8C011484648
S31502004DE08847D9F8B811D8F8100101F10802C9F8B4
S31502004DF0B8211222C1E90020D9F8BC010138C9F84C
S31502004E00BC0103DCD9F8C01148468847BDF9060043
S31502004E10D8F81011201A484301EB1010D9F8B8112E
S31502004E2001F10802C9F8B8210722C1E90020D9F820
S31502004E30BC010138C9F8BC0103DCD9F8C0114846E7
S31502004E408847D9F8B801002200F10801C9F8B8115B
S31502004E500D21C0E90012D9F8BC010138C9F8BC011C
S31502004E6003DCD9F8C01148468847D9F8B811D8F8F2
S31502004E70100101F108024042C9F8B8211322C1E922
S31502004E800020D9F8BC010138C9F8BC0103DCD9F805
S31502004E90C0114846884701AA04230F2000904846BD
S31502004EA0414601F05CFC01AE0546002348464146F8
S31502004EB03246002401F0D1FE0023484641463246DE
S31502004EC002F0ABFFD9F8B80100F10801C9F8B81130
S31502004ED0C0E90045D9F8BC010138C9F8BC0103DCB8
S31502004EE0D9F8C0114846884701A90022484602F06F
S31502004EF028FC012003B0BDE8000FF0BD00283FF4F6
S31502004F009AADBDF906004FF48031A0EB0B0001EB20
S31502004F100030D9F8B81101F10802C9F8B821042203
S31502004F20C1E90020D9F8BC010138C9F8BC0103DC8B
S31502004F30D9F8C01148468847D9F8B801002200F1CD
S31502004F400801C9F8B8110A21C0E90012D9F8BC0152
S31502004F500138C9F8BC0103DCD9F8C01148468847B4
S31502004F60D9F8B8014FF4803500F10801C9F8B81133
S31502004F701021C0E90015D9F8BC010138C9F8BC01F5
S31502004F8003DCD9F8C01148468847BDF90600D9F8AE
S31502004F90B81101F10802C9F8B821201A052205EB59
S31502004FA00030C1E90020D9F8BC010138C9F8BC01BA
S31502004FB003DCD9F8C01148468847D9F8B80100225F
S31502004FC000F10801C9F8B8110B21C0E90012D9F89D
S31502004FD0BC010138C9F8BC0103DCD9F8C011484646
S31502004FE08847D9F8B801112200F10801C9F8B811A9
S31502004FF00021CFF6FF71C0E9002166E0012903DC3A
S31502005000D9F8C01148468847D9F8B8014FF480321A
S3150200501000F10801C9F8B8110A21C0E90012D9F84D
S31502005020BC010138C9F8BC0103DCD9F8C0114846F5
S315020050308847D9F8B801002200F10801C9F8B81169
S315020050401021C0E90012D9F8BC010138C9F8BC0127
S3150200505003DCD9F8C01148468847BDF904004FF46D
S315020050608031AAEB000001EB0030D9F8B81101F14A
S315020050700802C9F8B8210522C1E90020D9F8BC0105
S315020050800138C9F8BC0103DCD9F8C0114846884783
S31502005090D9F8B80100F10801C9F8B8110B21C0E925
S315020050A00015D9F8BC010138C9F8BC0103DCD9F8EE
S315020050B0C01148468847D9F8B801002200F1080114
S315020050C0C9F8B8111121C0E90012D9F8BC0101389A
S315020050D0C9F8BC0103DCD9F8C0114846884701AAC1
S315020050E002230320DAE680B56F4682B0D7E902CE04
S315020050F0CDE900CEFFF75FFC02B080BDF0B503AF8D
S315020051002DE9000F83B004460D4641F20008B0F8BF
S3150200511072A0B0F87600B4F87460616CB4F978B035
S31502005120C0F240180329ADF804A0ADF80800ADF8A6
S315020051300660ADF80AB014DCA26E12F0100210D1AD
S31502005140042292FBF1F9216C91FBF9F202FB19118F
S3150200515039B994F83C10890704BFE16C5FEA8172A1
S315020051604BD0204601F046F9D4F8B80100F1080107
S31502005170C4F8B8111921C0E90015D4F8BC010138E8
S31502005180C4F8BC0103DCD4F8C01120468847D4F821
S31502005190B80100F10801C4F8B8110021C0E90011F4
S315020051A0D4F8BC010138C4F8BC0103DCD4F8C01140
S315020051B020468847D4F8B811606D01F1080240EA2A
S315020051C00800C4F8B8210122C1E90020D4F8BC01C4
S315020051D00138C4F8BC0103DCD4F8C0112046884764
S315020051E001A90022204602F0ACFA204601F002F99B
S315020051F0002003B0BDE8000FF0BDBAF10F0FB0D822
S3150200520002B2481EB0EB221FABD1A06C0092072857
S315020052100FD8DFE800F00431421042424020280E47
S3150200522005F07F4141EA004141EA002040EA156566
S3150200523033E0412831D14FF470404FF4706100EAF7
S315020052401540F02201EA153102EA15220844C5F397
S31502005250031110441BE04FF4704005F0F00100EA20
S3150200526015204FF4706241EA157102EA15120844DC
S31502005270104400EB004510E04FF478404FF4FC6117
S3150200528000EA152001EA55110844C5F3C401084491
S3150200529000EB004501E04FEA3565204601F0AAF829
S315020052A0D4F8B80100F10801C4F8B8111921C0E90F
S315020052B00015D4F8BC010138C4F8BC0103DCD4F8EB
S315020052C0C01120468847D4F8B80100F10801C4F895
S315020052D0B8110021C0E90011D4F8BC010138C4F8A4
S315020052E0BC0103DCD4F8C01120468847D4F8B801C3
S315020052F008F5001200F10801C4F8B8110121C0E94D
S315020053000012D4F8BC0100990FFA86F8A1EB0A063E
S3150200531001384FF00105C4F8BC0103DCD4F8C01112
S3150200532020468847206CD4F8B81101F10802C4F867
S31502005330B82190FBF9F01F2205EB261680B2C1E9CF
S315020053400020D4F8BC01ABEB08050138C4F8BC0157
S3150200535003DCD4F8C011204688474FF6FF702903B4
S3150200536021EA000000F58030B6FBF9F10843D4F8D3
S31502005370B81101F10802C4F8B8211E22C1E90020C1
S31502005380D4F8BC010138C4F8BC0103DCD4F8C0115E
S3150200539020468847606C04282DD002280DD00128AB
S315020053A07FF423AFD4E90F014FEA281300EB1A105A
S315020053B0D4F8B82101FB03000CE0D4E90F014FEA4F
S315020053C028124FEA1A135143D4F8B82100EB4300CE
S315020053D000EB410002F10801C4F8B8112021C2E92C
S315020053E00010D4F8BC010228A0F10100C4F8BC01E7
S315020053F0BFF6FBAE1BE0D4E90F014FEA28126FF0AD
S315020054000303514303EA9A021044D4F8B82100EB8D
S31502005410810002F10801C4F8B8112021C2E9001086
S31502005420D4F8BC010138C4F8BC013FF7DEAED4F8AB
S31502005430C01120468847D8E6D4D4D4D4D4D4D4D400
S31502005440F0B503AF4DF8048D04464FF4BE7001F07B
S3150200545078FB00284FF0010100F09E806FF07F423A
S315020054604FF07F43C0F84C314FF0FF38C0E901429C
S315020054700026C0F8286180F80E61C0E903280222DE
S3150200548080F8D5204FF0100CC0E954334FF4803E1B
S31502005490A0F814C0C0F810E14FF4B055C0F81C5182
S315020054A0D4F880504FF470322D014FF0040340F2CD
S315020054B00805C2F2400558BF4FF48005C0F83421F2
S315020054C04FF40022C0F82C2139A2C0F8205180F8EE
S315020054D0E930C0F83C6192ED001FC0E95066626D8A
S315020054E0C0F830E12A43C0F818E142F4002200F184
S315020054F0C40E42F4B052C0F82421AA22C0F81421E4
S3150200550080F8D410A0F80C118EE84C1040F201126B
