S02B0000656B5F72613870315F766973696F6E5F70616C6D5F646574656374696F6E5F6D6F64656C5F63616DDB
S315020000006000012251D8000241D600025BD80002EC
S315020000105BD800025BD800025BD800025BD8000204
S31502000020000000000000000000000000198F00021E
S315020000305BD8000200000000318F0002998F000297
S31502000040799D0002939C0002FF9D0002519E0002D0
S3150200005087BE0002B3B50002B3B50002DBAF0002F1
S3150200006069B1000289B2000271B3000261CB0002DB
S3150200007081C9000201970002CD970002F5A600028F
S3150200008075A7000255A80002D5A8000253A90002CE
S309020000901F930002B0
S31502000094010100000060090000B00100E85D1822B9
S315020000A400000000000000000C0000220000000016
S315020000B40000000000000000000018880000000094
S315020000C40000000001004000100F000001000000C3
S315020000D401000100002034400028344001010000E0
S315020000E400000300CF010102D1010102D70101027E
S31502000100B0B547F6AC60C0F202208568D0E900417E
S315020001102A682046904769682046884740F2900040
S315020001200021C2F201200160B0BDB0B547F6AC6055
S31502000130C0F20220856804682046A968884740F212
S3150200014090000021C2F2012001602046E96888473A
S3150200015069682046BDE8B040084740F29000C2F206
S31502000160012000687047081A4CF6CD41CCF6CC4106
S31502000170A0FB0101C80870474FF47A71B1FBF0F099
S315020001807047007900B1704740F29000C2F2012038
S315020001900168013101607047B0B545F6D46447F68F
S315020001A01861C2F21824C0F20221204609F0C8FEE4
S315020001B025694FF47A71D5F8080120F48030C5F824
S315020001C008010A200DF0F9F9D5F808014FF47A7101
S315020001D040F48030C5F8080101200DF0EEF9002147
S315020001E02046BDE8B04009F09BBFD4D4D4D4D4D4C1
S315020001F02DE9F04F81B02DED048B8AB00890184698
S315020002009946B0EE408A90460D4611F057FC0028FA
S3150200021009905ED04FEA08104FF0000A00B207902C
S3150200022041F60050DDF820B0C0F20120002700F1AF
S31502000230100400BF00BF00BF19F80A00452221467C
S3150200024011F8103C834207D0013A01F556713BD0B2
S31502000250F6E700BF00BF00BF51E903680120CDE900
S31502000260008058463246334602F096FB00EE106A8C
S3150200027001EE108AB8EE400AB8EE411A28EE009A4C
S3150200028028EE010A31B22E01BCEEC91ABCEEC00A32
S3150200029011EE100A10EE103A00010FFA88F21B0155
S315020002A036B21BB2CDE9023600B20023CDE90070A8
S315020002B0079804900C200590584602F09DFBBDEE6F
S315020002C0C90A10EE100A054409980AF1010A824584
S315020002D0B2D10AB0BDEC048B01B0BDE8F08FD4D424
S315020002E02DE9F04F81B02DED048B8AB045F6B46549
S315020002F00446C2F21825002128680DF07FFF00048B
S3150200030000F1148228684FF480610DF077FF2868A7
S315020003104FF48061012201234FF0FF370097012538
S315020003200DF0B8FE00F06FFB40F20400C2F20020AE
S315020003300068012820DB40F2F041C2F2012101F0FF
S315020003401F010844A0F1200101EAE171BFF34F8FBA
S31502000350C94308444EF66871CEF2000105EB501E01
S3150200036040F2F040C2F20120086020300FF005C0D2
S31502000370BFF34F8FBFF36F8F45F6B86840F2F04177
S31502000380C2F21828C2F201214FF420724FF42073F0
S31502000390D8F800004FF4F077CDE9007502F0FCFAC8
S315020003A0D8F8000000214FF416524FF44853CDE915
S315020003B00013002304910C27CDE902214FF420718A
S315020003C04FF4F072059702F017FB40F29505C2F260
S315020003D001252878012861D840F2DD53B7EE048A58
S315020003E0D8F80000C0F202234FF44D713222B0EE6B
S315020003F0480AFFF7FDFE40F68A53D8F80000C0F21D
S3150200040002234FF44D715A22B0EE480AFFF7F0FE6E
S3150200041040F61633D8F80000C0F202234FF44D71AD
S315020004207822B0EE480AFFF7E3FE40F67713D8F8D3
S315020004300000C0F202234FF44D71C822B0EE480A02
S31502000440FFF7D6FE40F63A53D8F80000C0F2022370
S315020004504FF44D71E622B0EE480AFFF7C9FE41F2AB
S31502000460DF13D8F80000C0F202234FF44D714FF4A7
S31502000470AF72B0EE480AFFF7BBFE41F25213D8F84C
S315020004800000C0F202234FF44D714FF4BE72B0EE7B
S31502000490480AFFF7ADFE28780130287040F2940929
S315020004A0002CC2F2012900F0998045F6204040F264
S315020004B0C60AC2F2182040F2B60B40F2A60540F276
S315020004C096060024071DC2F2012AC2F2012BC2F2CD
S315020004D00125B0EE048AC2F20126B7EE049A89F823
S315020004E0004000BF00BF00BF37F8041C002968D0D7
S315020004F037F8020C002864D009B200EE101AB8EEE2
S31502000500C00A00B201EE100AB7F9000020EE080A8E
S3150200051002EE100AB7F90200B8EEC22ABDEEC00A10
S3150200052022EE082A03EE100AB8EEC11AB8EEC33A52
S3150200053010EE100A21EE081ABDEEC20A503023EE62
S31502000540082A03EE100AB8EEC33ABDEEC11A10EE3F
S31502000550101ABDEEC20A23EE093A0844B8EEC14AA1
S3150200056011EE101A10EE102A01EE100A24EE094AB4
S315020005705018BDEEC32AB8EEC11A03EE100A99F856
S315020005800000B8EEC33A21EE091A0130BDEEC40AE4
S3150200059089F8000023EE093A10EE102ABDEEC10AD0
S315020005A02A80BDEEC31A10EE100AABF8000011EE57
S315020005B0100A12EE101AAAF800002046318000F046
S315020005C0BBF8013408370AF1020A0BF1020B082CB8
S315020005D005F1020506F1020686D111E045F6204034
S315020005E00024C2F21820851C35F8020C20B1288896
S315020005F010B1204600F0A0F801340835082CF3D1DA
S3150200060045F6884041F2E613C2F21820B7EE048A94
S31502000610C0F202234FF44D710469D8F800004FF47A
S315020006208C72B0EE480AFFF7E3FD41F25913D8F88F
S315020006300000C0F202234FF44D714FF4D772B0EEB0
S31502000640480AFFF7D5FD48F21F5049F69A12C5F23D
S31502000650EB10C1F69912A4FB000144F6D356C1F27F
S3150200066062064FF0303049090890A1FB02374CF67A
S31502000670CD43CCF6CC434FF0300AA4FB0335B0EEA3
S31502000680480AA4FB060307EB8700EF0846F6205646
S31502000690A7FB0225A1EB40000AEB93118DF820106F
S315020006A007EB8702C0F2730605EB8501099640F057
S315020006B030008DF82100A7EB410008ABA4EB420104
S315020006C040F030008DF8220041F030008DF8230012
S315020006D0D8F800004FF44D714FF48C72FFF788FD85
S315020006E099F80000CD2243F23003ADF81C30C1B2B6
S315020006F0002351438DF81E3007ABB0EE480ACA0AF2
S315020007000AEBD1218DF81C1002EB82024FF44D71D7
S31502000710A0EB42004FF4D77240F030008DF81D0076
S31502000720D8F80000FFF764FD00F092F90AB0BDECBC
S31502000730048B01B0BDE8F08F2DE9F04F83B045F68A
S31502000740B8660446C2F21826002100224FF0000ABB
S31502000750306803F006F840F2960940F2A60840F225
S31502000760B605C2F20129C2F20128C2F2012539F800
S315020007701410306838F8142035F8143009014FF097
S31502000780200B12011B0112B2009209B2CDE901BA85
S315020007901BB207F0C5FB40F2C60735F81410C2F2C9
S315020007A0012738F814200901306837F8143012018D
S315020007B009B2CDE901BA1B0112B21BB200930B4674
S315020007C007F0AEFB35F8141037F8142039F8143058
S315020007D03068090112011B0112B209B200921BB262
S315020007E0CDE901BA07F09CFB39F8141037F814204A
S315020007F038F814303068090112011B0109B21BB224
S31502000800009312B20B46CDE901BA07F089FB03B099
S31502000810BDE8F08FB0B582B0002004F065F845F669
S31502000820B8650021C2F21825286004F0C1F843F227
S3150200083000012868C6F632014FF480624FF48063E5
S315020008404FF0010C4FF49664CDE9004C07F0B4FF6B
S3150200085028680221032202F0D1FF2868012102F052
S31502000860AEFF2868FF2102F08FFF2868012103F0FE
S3150200087001F82868002103F01DF82868002103F01A
S3150200088029F8002002B0B0BD80B545F6606047F693
S315020008902851C2F21820C0F202210BF0D8FB30B167
S315020008A0002040F6072101220AF0A4F800BE052026
S315020008B04FF47A710CF081FE45F66060C2F21820A0
S315020008C00BF012FE30B1002040F6072101220AF099
S315020008D091F800BEC8204FF47A710CF06EFE45F610
S315020008E0606043F20001C2F21820C6F6320100220D
S315020008F00BF033FE45F6906040F20E51C2F218201C
S3150200090001220AF077F8002080BDD4D4D4D4D4D4FE
S3150200091070B543F200044EF66875C6F632044FF41B
S3150200092016112046CEF2000504F01F0611F0B2F8A9
S315020009304BF6FF700121C0F212003044BFF34F8F15
S3150200094001EB5010214640F001E000BF00BF00BF9E
S31502000950296020310FF005C0BFF34F8FBFF36F8FB1
S31502000960BFF34F8F40F001E004F5961000BF00BFC1
S31502000970286020300FF005C0BFF34F8FBFF36F8F93
S3150200098070BDB0B582B0007880074FF000000190CC
S315020009902ED040F2D805C2F201252C68FFF7DDFB06
S315020009A001462046FFF7DFFB45F68841C2F21821D1
S315020009B08860FFF7D2FB45F6B4612860C2F21821BF
S315020009C04EF27120C0F2002001AB09684FF480623A
S315020009D00FF061FB60B1019850B14EF604504FF032
S315020009E08051CEF200000160BFF34F8FBFF36F8FCD
S315020009F040F2DC00C2F201200178772901D80131E8
S31502000A00017002B0B0BD10B582B045F6B864C2F24C
S31502000A101824206806F007FE40F2000043F20001A7
S31502000A20C2F200204FF49612C6F632014FF48063EA
S31502000A3000784FF0010C00FB021120684FF480622F
S31502000A404FF41674CDE9004C07F0B6FE02B010BDA5
S31502000A5080B545F6B860C2F21820006806F0F7FDC8
S31502000A6040F2000C4FF49611C2F2002C00229CF8C0
S31502000A70000000285FEA1F9343F200008CF8003062
S31502000A80C6F6320003FB010147F6B050C0F202205F
S31502000A900068BDE880400BF060BDD4D4D4D4D4D471
S31502000AA0012B1FDB80B502F01F001844A0F12001C4
S31502000AB001EAE171BFF34F8FC9430844012101EBFB
S31502000AC0501E4EF66870CEF2000000BF00BF00BF97
S31502000AD0026020320FF005C0BFF34F8FBFF36F8F56
S31502000AE0BDE880400120704747F6EC61C0F2022162
S31502000AF007C912681047D4D4F0B581B0044647F648
S31502000B00EC60C0F2022040F2E846C2F20126002260
S31502000B1081680568326020468F6810F0CFFF024672
S31502000B2028462146B847044648B1142001F0B4FCD1
S31502000B3000BE04E000BF00BF01200EF093FB306848
S31502000B400028F9D024B11420142401F0A5FC00E0F9
S31502000B500024204601B0F0BD007901281BD00228EE
S31502000B6014D004281DD140F2E4400022C2F2012032
S31502000B700168B2EB912F18BF704747F6CC62C0F2FC
S31502000B8002225278022A0DD8013109E040F2E840E9
S31502000B90C2F2012003E040F2E040C2F2012001214C
S31502000BA0016070470231FBE740F201010079C2F2AF
S31502000BB0002108707047D4D410B582B0020A8DF8AD
S31502000BC0060045F630508DF805208DF80710C2F262
S31502000BD018200DF105010322002300240AF043F830
S31502000BE010B1012002B010BD40F201014FF6FF70B4
S31502000BF0C2F200210C7000BF01380204F1D00A785B
S31502000C000AB92FF007C8087800220A7001285FEA9D
S31502000C101F90E7E7D4D4D4D42DE9F04182B040BA8C
S31502000C20ADF8060045F630500C46C2F218200DF11A
S31502000C3006010222012301250AF015F8D0B940F275
S31502000C4001064FF6FF77C2F20026002030704FF6FB
S31502000C50FF7000BF00BF00BF0138010409D0317820
S31502000C6009B92FF007C8307801284FF0000030701C
S31502000C7004D10125284602B0BDE8F08145F6305080
S31502000C800122C2F218200023214601254FF0000856
S31502000C9009F0E3FF0028EDD186F8008000BF00BF0F
S31502000CA0013F3804E5D0307808B92FF007C830780C
S31502000CB001285FEA1F9500203070DBE770B582B02D
S31502000CC045F690650446C2F2182500208DF8060006
S31502000CD08DF8050040F209710022284609F08AFEC5
S31502000CE064200EF0BFFA40F209710122284609F08B
S31502000CF081FE45F6105547F64831C2F21825C0F274
S31502000D00022128460AF098FC28460AF0F6FE0A2036
S31502000D100EF0A8FA45F6305001A9C2F2182009F0E1
S31502000D20ADFF9DF80400002878D045F630503C21EE
S31502000D30C2F218200122012609F09BFF0DF10601DD
S31502000D4043F20A00FFF768FF0DF1050143F20B00BB
S31502000D50FFF762FF9DF805000A2540380C286BD87C
S31502000D6041F2030106FA00F0084265D041F27840EA
S31502000D70C0F2022000F064F843F235001221FFF7B8
S31502000D801BFF43F236008C21FFF716FF43F23700B2
S31502000D901321FFF711FF43F208100121FFF70CFFA1
S31502000DA047F600500DF10701C0F202204069057CAA
S31502000DB044F61400FFF730FF9DF8070000F03F00ED
S31502000DC040EA85108DF80700C1B244F61400FFF719
S31502000DD0F3FE2CB141F6E400C0F2022000F030F836
S31502000DE044F202200F21FFF7E7FE05200EF03AFA41
S31502000DF045F64C6047F60051C2F21820C0F20221B5
S31502000E0008F05BFB0546B8B905200EF02BFA44F252
S31502000E10022000210025FFF7CFFE0DE045F63050F7
S31502000E2047F67031C2F21820C0F2022109F0D0FE54
S31502000E3000283FF47AAF6425284602B070BDD4D4A8
S31502000E4070B5841C4AF6AA254FF6FF7600BF00BF8E
S31502000E5034F8020CA84207D0B0420AD02178FFF734
S31502000E60ABFE04E000BF00BF20780EF0FBF90434AD
S31502000E70EEE770BDD4D4D4D410B540F2F0444FF4AA
S31502000E801621C2F20124204610F004FE45F6FF7137
S31502000E9004F01800C0F2090108440121BFF34F8F84
S31502000EA001EB501E4EF66870CEF2000000BF00BF86
S31502000EB0046020340FF005C0BFF34F8FBFF36F8F6E
S31502000EC010BD45F64C600021C2F2182008F09FBB07
S31502000ED040F2040146F2F04CC2F20021C2F20A2CA0
S31502000EE00A68012A1FDB80B5DCF8003003F01F0018
S31502000EF01044A0F1200202EAE272BFF34F8FD243FE
S31502000F001044012202EB501E4EF65C72CEF2000233
S31502000F10136020330FF005C0BFF34F8FBFF36F8FFF
S31502000F200A68BDE8804040F2F040DCF80010C2F2E8
S31502000F30012010F0B3BD70B582B001780446806816
S31502000F4001294FF00001019137D110F0200034D071
S31502000F5046F2F446C2F20A263568FFF7FEF8014663
S31502000F602846FFF700F945F68841C2F218210860C3
S31502000F70FFF7F3F846F2F04145F6B462C2F20A21EF
S31502000F80C2F218223060E06808604EF271201168E1
S31502000F90C0F2002001AB4FF480520FF07CF860B132
S31502000FA0019850B14EF604504FF08051CEF2000037
S31502000FB00160BFF34F8FBFF36F8F02B070BD7047F2
S31502000FC02DE9F04F95B0154641F62412C0F20222E1
S31502000FD00D934FF002080DF1480B0EAC41F6441387
S31502000FE08DE8140941F64C120C910A9021990320BE
S31502000FF0CDE90480C0F20222C0F20223284612275B
S315020010000F974FF4FC6ACDF838A00026CDE912A856
S315020010104FF001090B95CDE90866CDE9069600F079
S315020010208FF841F61C1041F63C12C0F2022041F63E
S31502001030FC038DE81109C0F20222C0F202232846FF
S315020010402099CDE90EA7CDE912A8CDE90866CDE92A
S315020010500489CDE9069600F073F841F6541021464C
S31502001060C0F202205D4690E88C008CC141F6F00386
S315020010700322C0F202230C982146CDF84890CDE90E
S3150200108000B9DDF828B002960396CDF810B000F04C
S315020010907FF941F6EC030EACC0F2022302221F983E
S315020010A0049058462146CDE90EA9CDF84890CDF8D0
S315020010B00890CDE90059039600F06AF941F614103A
S315020010C00395C0F20220AB4641F62C1241F63413C8
S315020010D00B9DC0F202228DE81101C0F202232846BE
S315020010E01E991227CDE90EA7CDE912A8CDE9086609
S315020010F0CDE90489CDE9069600F022F841F60C10F6
S3150200110041F6F402C0F2022041F604138DE81109F9
S31502001110C0F20222C0F2022328460D99CDE90EA79B
S31502001120CDE912A8CDE90866CDE90489CDE906968E
S3150200113000F006F815B0BDE8F08FD4D4D4D4D4D4D8
S315020011402DE9F04FB5B00DF1F80B1F461390DDE90E
S3150200115042900E91DDE94646039420ACDDE9441542
S315020011608DE823009BE8080C204611463A46CDE955
S31502001170046B00F009FA0DF16C0800208DF8D2001C
S31502001180052350465946424600F0D6F916AA0523CB
S315020011904198494600F0D0F905222046594600F00A
S315020011A02BFA00222046414600F081FA064600222A
S315020011B020464146334600F09EFA05460122204665
S315020011C0414600F074FA0346012220464146069340
S315020011D000F091FA099002222046414600F067FA91
S315020011E00346022220464146089300F084FA0B90F9
S315020011F003222046414600F05AFA034603222046BD
S3150200120041460A9300F077FA12900422204641469C
S3150200121000F04DFA81460422204641464B4600F034
S315020012206AFA14902D9931981190284632460795FC
S3150200123000F09EF9002800F0A88014984FF0000BE9
S31502001240A0EB09000D901398CDF8409048440C90FD
S315020012502E990998069C00BF224600F089F90028BB
S3150200126000F08A801594089C2F990B98224600F06C
S315020012707FF900280F94149C77D000BF00BF00BFEF
S31502001280DDF828A030991298524600F071F900282C
S3150200129061D000BF00BF00BF1198012820D10D9F69
S315020012A0DDF83CE0012F4BDBDDE91E0148431D9BC7
S315020012B0159D00FB06F2454302FB03FC0C9A01FB5B
S315020012C00A213A4600FB0E101C9905FB03000CFB93
S315020012D001010E98584410F0E1FBBB4430E000BF18
S315020012E0319920464A4600F043F948B30E98DDF894
S315020012F03C8000EB0B0500BFDDE91E013746484383
S315020013001D9B159C0BF1010B00FB06F21C9E444330
S315020013105A437243139E4E4401FB0A6100FB0810B6
S31502001320319904FB0300149C89443E46805C4A467C
S3150200133005F8010B204600F01BF908B12FF025C075
S31502001340309912988A44524600F012F9DDF840901C
S3150200135008B12FF05FC82F990F9A0A440B980F9283
S3150200136000F006F908B12FF075C82E99159C0C44A9
S31502001370099871E700BF00BF2D9907980E443246BF
S3150200138000F0F6F808B12FF09DC835B0BDE8F08F31
S315020013902DE9F04F8BB0179F0124DDE915C807939D
S315020013A002EAE8790CEAE77509EB080A2F440546D2
S315020013B0012F51F82A00059015DB80EF51000846EF
S315020013C027F001E000BF00BFB0EC043F20EF520956
S315020013D01FF007C053EC110B56EC104B584304FB9D
S315020013E006F303FB00F457454FF00100099016DAA5
S315020013F0AAEB070080EF510001EB870320F001E022
S31502001400B3EC043F20EF52091FF007C05EEC110B4C
S3150200141053EC106B00FB0EF07343584309900AF12C
S315020014200103012693421ADA6FEA090080EF51009E
S31502001430104401EB8301A0EB080020F001E000BF9D
S31502001440B1EC043F20EF52091FF007C051EC110B1B
S3150200145053EC102B484302FB03F101FB00F66745F0
S315020014604FF001000A901ADAACEB0700149A80EFEB
S31502001470510002EB870120F001E000BF00BF00BF70
S31502001480B1EC043F20EF52091FF007C051EC110BDB
S3150200149053EC102B484302FB03F148430A90012CFC
S315020014A047DB0A99189801FB06F2049009980892FC
S315020014B050430190880000900020CDE9024000BF11
S315020014C00998012827DB0998039948434FF0000A37
S315020014D0DDF810B0069000BF0A98012814DB0698C2
S315020014E005995044DDF81C9000FB01F85F460A9C02
S315020014F059F8040B3246404400FB0651384610F0B8
S31502001500CDFA013C3744F3D109980AF1010A824522
S3150200151008988344E0D10398029C01300390A042CC
S315020015200498019908440490079800990844079082
S31502001530C6D10BB0BDE8F08F80B5012BB8BF80BD18
S31502001540A3EB010C8900A1EB830143F001E00844FF
S31502001550002100BF00BF00BF614501DA012300E0A0
S3150200156003680131043042F8043B0FF00BC880BD1A
S3150200157082425FEADF905FEAAF92002950EA428038
S315020015807047D4D4D4D4D4D42DE9F04F81B00F46C9
S3150200159054211D4616468346DDE90AA9DDE90E8475
S315020015A010F078FA012C8BF800408BF818408BF873
S315020015B0304013DB0BF11C0024F001E000BF00BF3A
S315020015C0B7EC041F00ED061FB6EC041FA0EC041FC7
S315020015D0B5EC041F80ED021F1FF00FC0ABF848A048
S315020015E00020ABF84A00ABF84C90ABF84E00ABF8D3
S315020015F0508001B0BDE8F08FB0B590F900E0BEF1C1
S31502001600010FA2EB0E0C13DB00EB8E0100EB820442
S3150200161001F1180304F118019C698C6153F8184C06
S3150200162041F8184C53F8044941F804490FF00DC02B
S31502001630BCF1010F10DB80EF500080EF512000F16A
S315020016401C012CF001E000BF01ED061FA1EC043FD6
S3150200165081ED023F1FF009C0B0F85010B0F84A30D1
S31502001660B0F84E404FF0FF3E01FA0CF1A0F85010D0
S3150200167003FA0CF104FA0CF5B0F84830B0F84C4015
S31502001680A0F84A100EFA0CF1A0F84E5003FA0CF329
S3150200169004FA0CF563EA0103A0F8483065EA010191
S315020016A0A0F84C100270027680F83020B0BD80B5EA
S315020016B000EB820C51F82210DCF80430DCF834E03E
S315020016C0B0F848C0002B48BF0B44BEF1010F06DB41
S315020016D099424FF00000A8BF23EAE37105E0481ED5
S315020016E099420146C8BF43EAE3712CFA02F2D207D5
S315020016F051EA008080BD10B5B0F850E04FF0010C01
S315020017000CFA02FC51F822101CEA0E0F03D08B428F
S3150200171053EAA39010BD00EB820490F852E0E2690E
S31502001720BEF1000F646B18BF1A44B0F84C00002AD1
S3150200173048BF0A44012C00EA0C0005DB0B46914225
S31502001740A8BF22EAE27306E04B1E91424FF0FF3138
S31502001750C8BF42EAE273002853EA018010BD47F28D
S31502001760080048F28041C0F20220C2F20A21006853
S315020017700844704747F2803040F28041C0F20220AE
S31502001780C2F2182100680844704746F2F840C2F2D5
S315020017900A20704747F2B840C2F20A20704747F261
S315020017A0843040F28041C0F20220C2F21821006861
S315020017B008447047D4D4D4D42DE9F04784B0804687
S315020017C047F21000C0F2022047F20C01C0F20221D9
S315020017D04EF65C7507684046CEF20005D1F800A0C9
S315020017E000F060F848F2804047F6FF72C2F20A2023
S315020017F040F2804600F01F01C0F20D02C2F2182626
S31502001800114406F01F0345F29F6201241A44BFF3F6
S315020018104F8F04EB511E014604EB521900BF00BF65
S31502001820296020310FF005C047F27432C119C0F2A7
S31502001830022247F27C37BFF34F8F136800EB0A028E
S31502001840F01847F27833C0F20223C0F20227BFF340
S315020018506F8F1B683F68F41847F2B843C2F20A2337
S31502001860CDE900304BF2000046F2F843C6F65700C7
S31502001870C2F20A233744CDE90247FFF7A1FBBFF3C1
S315020018804F8F49F001E000BFEE6020360FF005C031
S31502001890BFF34F8FBFF36F8F404604B0BDE8F047EA
S315020018A000F056B8B0B596B047F2040248F280444A
S315020018B0C0F2022240F200010025C2F20A240028E8
S315020018C0C6F600010B950A9111680491CDE90C4503
S315020018D04FF458214FF4D8300790CDE90E45CDE9A3
S315020018E00511CDE910450AD004F5D83048F6C051A5
S315020018F010F0D0F84FF4FC61204610F0CBF841F618
S31502001900601104F5D830C0F20221CDE9120548F67D
S31502001910C05008904FF4FC6009900A6804A8009031
S3150200192045F6E85041F67011C2F21820C0F20221C3
S315020019300AABCDE914450624CDE9014507F0D5FAEF
S3150200194001305FEA1FA016B0B0BDD4D4D4D4D4D42B
S31502001950B0B59CB02EA1002540F28044002891ED3E
S31502001960001F40F6D061C2F21824C6F61601CDE970
S315020019700C1547F270314FF47C60C0F202218DEDF6
S31502001980051F0968049104F5BD510990CDE90E457C
S31502001990CDE91045CDE91245CDE9141504F5FC61F2
S315020019A0CDE916150BD04FF4FC61204610F072F803
S315020019B042F260704FF4FC51204410F06BF847F28B
S315020019C014014FF4FC60C0F202210A9042F26070E8
S315020019D00CAB2044CDE91A054FF4FC500B900A6873
S315020019E004A8009045F6E85047F22001C2F21820FA
S315020019F0C0F20221199518940824CDE9014507F091
S31502001A0074FA01305FEA1FA01CB0B0BD00BF00BF70
S31502001A10A0560000A0560000E0070000C00F00001C
S31502001A202DE9F0472DED088B88B04EF65C75CEF2A7
S31502001A300005FFF794FE4DF280314FF4D832C6F618
S31502001A40580110F02BF8FEF788FB07900020FFF7ED
S31502001A50B3FE079CFEF781FB01462046FEF783FB99
S31502001A6045F6884248F28041C2F21822C2F20A21A1
S31502001A7047F6FF730127106101F01F0040F2804212
S31502001A80C0F20D03C2F21822184402F01F0245F2F8
S31502001A909F63BFF34F8F1A4407EB501E07EB52109A
S31502001AA0296020310FF005C0BFF34F8FBFF36F8F50
S31502001AB0BFF34F8F40F001E040F28040C2F218209F
S31502001AC0286020300FF005C0BFF34F8FBFF36F8F32
S31502001AD0FFF750FE0546FFF762FE0446FFF75AFE81
S31502001AE00746FFF752FE4BF2E8780646C6F6570857
S31502001AF09FED630A4FF4FC616FF07F02284643466E
S31502001B004FF4FC6900F0C8F84DF268759FED5D0A66
S31502001B10C6F657054FF4FC516FF04F0220462B468E
S31502001B2000F0BAF845F268549FED578AC6F6580493
S31502001B304FF47C616FF069023846B0EE480A2346DC
S31502001B4000F0AAF849F268474FF47C61C6F65807D6
S31502001B506FF069023046B0EE480A3B4600F09CF848
S31502001B6046F2666049F69A1145F6203AC3F6E660F1
S31502001B70C3F69961CDE9040108200690C2F2182A3B
S31502001B8004A9CDE90091414622463B46CDE902A091
S31502001B90284600F09DF804460027002600BF00BF35
S31502001BA0B5B20021002200232846009700F0F1F981
S31502001BB0072D06F10106F3D3012C5BDB0AF10805BA
S31502001BC000269FED328ABEEE009A9FED31AA9FED66
S31502001BD031BA00BF00BF00BF95ED010A15ED011A2B
S31502001BE020EE080A95ED002AB0B2A0EE091AA0EE80
S31502001BF0092A20EE0A0A21EE0A1A22EE0A2AB5EE6E
S31502001C00401AF1EE10FA48BFB0EE4B1A30EE013A26
S31502001C10B5EE402AF1EE10FAB4EE4A3A48BFB0EEFB
S31502001C204B2AF1EE10FA30EE023A3AEE414AB4EE9F
S31502001C304A3A34FE003AF1EE10FA3AEE424ABDEE64
S31502001C40C11A34FE000ABDEEC22ABDEEC33ABDEE8B
S31502001C50C00A11EE101A12EE102A13EE103A10EE06
S31502001C60107A009700F095F9013C06F1010605F19C
S31502001C702005B1D1012008B0BDEC088BBDE8F08784
S31502001C800000803B212CE73BA441B23B9A993940A4
S31502001C90000040430000000080B5012916DBA8B110
S31502001CA0A3B101EE102A41F001E0B8EEC11A00BF5D
S31502001CB010F9011B02EE101AB8EEC22A32EE412AC0
S31502001CC020EE022AA3EC012A0FF00FC080BDD4D465
S31502001CD02DE9F04F81B02DED068BADF5816D002813
S31502001CE04FF0FF3900F04281002900F03F81002ABF
S31502001CF000F03C81002B00F03981DDF84CB4BBF1D9
S31502001D00000F00F033818446DDF85004002800F00D
S31502001D102D81DDF848044FF000090128C0F2268122
S31502001D20DDF854040128C0F22181B0F5807F6FF0FE
S31502001D30010900F21B81DBF80870B7F5807F00F31A
S31502001D401581874257EAB0804FF0000901900128B9
S31502001D50C0F20C81BFEE000A0DF1080A9FED871A48
S31502001D60B6EE002A00BF00BFDDF848049BED003A3C
S31502001D7040F001E000244FF0FF35B0EE404A00BFCC
S31502001D8001EB840090ED005AB4EE435AF1EE10FADC
S31502001D9000F19A80B9F1000F00F08E8050464F464E
S31502001DA050F8048BA04500F08F80013FF8D10CEB70
S31502001DB00410574690ED006A90ED027A77EE462AB5
S31502001DC0D0ED010AD0ED031A484671EEE03AF5EE7F
S31502001DD0402AF1EE10FAF5EE403A48BFF0EE412AFB
S31502001DE0F1EE10FA48BFF0EE413A62EEA32ADBEDBD
S31502001DF0013A00BF00BF00BF57F8046B0CEB061692
S31502001E00D6ED004AD6ED015AB4EE646AD6ED027AF0
S31502001E10F1EE10FAF4EE650A96ED039A76FE246A5E
S31502001E20F1EE10FAF4EE477A77EEE44A30FEA58A2E
S31502001E30F1EE10FAB4EE619A79EE655A37FE27AAE8
S31502001E40F1EE10FA7AEE666AF0EE627A31FE89AA4D
S31502001E503AEE488AF5EE406AF1EE10FAB5EE408A9D
S31502001E6048BFF0EE416AF1EE10FAF5EE404A48BF7D
S31502001E70B0EE418AF1EE10FAF5EE405A48BFF0EEA6
S31502001E80414AF1EE10FA48BFF0EE415A44EEA57A05
S31502001E9066EE884A77EEE45AC4EEA54AF5EE405A53
S31502001EA0F1EE10FA98BFF0EE414AF4EE634AF1EE13
S31502001EB010FA09DC01389FD1B4EE445AF1EE10FA59
S31502001EC054EAC58535FE044A01340FF0A7C8B5F1B8
S31502001ED0FF3F4BDD0CEB0510DDF850444FEA491786
S31502001EE090ED003A90ED024A34EE434A90ED015AE3
S31502001EF090ED036A04EB491036EE456AB5EE404AA8
S31502001F00F1EE10FAB5EE406A48BFB0EE414AF1EE84
S31502001F1010FA48BFB0EE416AB4EE464A51F825605F
S31502001F20F1EE10FAA4EE023AE651A6EE025A4FEA92
S31502001F30C50734FE067A80ED013A80ED025A80ED3D
S31502001F40037A043752F8356006614AF82950D659A1
S31502001F50466153F835608661019E09F10109DF5930
S31502001F60C761B1457FF400AFDDF8049048460DF530
S31502001F70816DBDEC068B01B0BDE8F08F000000005C
S31502001F8080B5FFF74DFD00284FF0020018BF002074
S31502001F9080BD072888BF704710B545F6204C029CC5
S31502001FA0C2F2182C0CEBC00E2CF83010AEF8022040
S31502001FB0AEF80430AEF80640BDE810407047D4D4FF
S31502001FC082B045F6B4660321C2F218260022012326
S31502001FD04FF0FF37306800970CF05CF840F21000C3
S31502001FE047F69C31C2F20020C0F2022107F02BF91B
S31502001FF0306804210BF0ECFF42F26B00C0F20020C5
S3150200200006F06DFC306808210BF0E2FF45F620442D
S31502002010C2F2182400BF00BF30684FF400510122FB
S31502002020012300970CF036F8402120460FF032FDCE
S3150200203000204FF4C061012208F0DCFCFFF7A0FF8C
S31502002040054600204FF4C061002208F0D3FC022DA1
S3150200205002D1022000F020FA30684FF480410BF0E2
S31502002060B7FF01200DF0FEF8D6E70EF007BAD4D47A
S3150200207084B0FEF739FD10B1132000F00DFA00F01E
S31502002080FFFA10B1162000F007FA45F690604FF4F9
S315020020908471C2F21820002208F0ACFCFEF738FC6C
S315020020A0FEF7B8FB10B10A2000F0F6F9FEF7ECFBDA
S315020020B045F6B464C2F2182418B10A2000F0ECF90D
S315020020C003E0206801210BF083FFFEF7D5FE002016
S315020020D0FEF7F4FD18B10F2000F0DEF903E02068E8
S315020020E002210BF075FF45F2555BC0F2030BFEF7BA
S315020020F007F8FEF71AF820684FF0FF3100910F211A
S31502002100002201230BF0C6FFFEF7DBFE4DF2803103
S3150200211045F66046C6F6580145F6644501F01F00CD
S3150200212045F68847421E60F01F00019043F20260A6
S315020021300844039068A0C2F21826C2F21825C2F219
S3150200214018274FF0800A4FF0F8094FF0FC0890ED7F
S31502002150009F029200BF00BF20684FF48051012207
S3150200216001233C464FF0FF3700970BF093FFFDF734
S31502002170F4FF3060FEF7ACFEFDF7EFFF2860306833
S315020021802968FDF7F0FF6060FDF7E7FF30604DF26A
S3150200219080304FF4D8318022C6F658000FF075FC15
S315020021A040F2F04C0020039DC2F2012C00BF00BF9A
S315020021B000FB0BF1C02242F001E00023090C01EB07
S315020021C081010CEB012229461C0C5B4432F81440B7
S315020021D009EA142708EAD40687F0800701F8027C88
S315020021E086F0800701F8017C8AEAC40701F8037BBE
S315020021F00FF017C0013005F510759028D8D140F2BE
S31502002200080045F67042C2F20020C2F2182245F6D4
S31502002210B46445F66046006845F6644545F6884767
S315020022200128C2F21824C2F21826C2F21825C2F2F6
S31502002230182782ED009F4FF000014FF01803C2E904
S3150200224004131DDB0199029A0144104401EAE1716B
S31502002250401A0121BFF34F8F01EB501E4DF2803021
S315020022604EF66871C6F65800CEF2000100BF00BFF6
S31502002270086020300FF005C0BFF34F8FBFF36F8F9A
S31502002280FDF76BFF286030682968FDF76CFFF86080
S3150200229020684FF400510BF09BFE01200CF0E2FF88
S315020022A0206800210BF0AAFFC0F3803520684FF4A6
S315020022B080410BF0A3FF2846FEF712F8284645F6A2
S315020022C06445C2F2182500F00FF814200CF0CAFF7C
S315020022D042E700BF00BF00BF8002000050000000BE
S315020022E0C0000000900000002DE9F04383B040F2E8
S315020022F0DD0540F2A351C2F2012541F2753241F2E7
S3150200230061130446C0F20221C0F20222C0F2022385
S3150200231028460EF0DDF82846FEF7EEFB47F2883136
S315020023201522C0F2022128460FF0B8FB2846FEF716
S31502002330E3FB45F68847C2F218273E683046FDF7AA
S315020023401BFF40F681110346C0F20221284632469F
S315020023500EF0BEF82846FEF7CFFB7E683046FDF744
S315020023600BFF40F2D3710346C0F2022128463246E1
S315020023700EF0AEF82846FEF7BFFBFE683046FDF7C4
S31502002380FBFE40F667710346C0F20221284632463A
S315020023900EF09EF82846FEF7AFFB3E693046FDF783
S315020023A0EBFE40F6B0010346C0F202212846324651
S315020023B00EF08EF82846FEF79FFBBE683046FDF704
S315020023C0DBFE40F640510346C0F202212846324661
S315020023D00EF07EF82846FEF78FFB47F2C8611922F7
S315020023E0C0F2022128460FF059FB2846FEF784FB6D
S315020023F040F2DD00C2F201202CB147F200410F2269
S31502002400C0F2022104E047F62C211922C0F2022171
S315020024100FF044FB40F2DD09C2F201294846FEF7FD
S315020024206BFB45F6204040F2C168C2F21820002636
S31502002430071D0825C0F2022837F9043C83B137F993
S31502002440020CB7F90010B7F90240F2B28DE8130098
S31502002450484641460EF03CF84846FEF74DFB01362B
S31502002460013D07F10807E7D130061CBF03B0BDE8FE
S31502002470F08340F2DD0447F61011C2F20124C0F2E5
S315020024800221412220460FF009FB204603B0BDE897
S31502002490F043FEF731BBD4D40138152800F2EE80A2
S315020024A080B5DFE800F00B754E623193B06BCE4417
S315020024B0C4283BA61F58157FBAD8899D40F2DD0075
S315020024C047F69C11C2F20120C0F202213822CBE06B
S315020024D040F2DD0047F28071C2F20120C0F2022111
S315020024E05222C1E040F2DD0047F29441C2F20120DD
S315020024F0C0F2022137E040F2DD0047F63001C2F2B7
S315020025000120C0F202219AE040F2DD0047F6740192
S31502002510C2F20120C0F202214822A5E040F2DD000B
S3150200252047F2E461C2F20120C0F202219BE040F2CE
S31502002530DD0047F2D471C2F20120C0F202215B2211
S3150200254092E040F2DD0047F23C71C2F20120C0F295
S315020025500221422288E040F2DD0047F64821C2F21B
S315020025600120C0F2022151227EE040F2DD0047F254
S315020025708851C2F20120C0F2022160E040F2DD0081
S3150200258047F2CC51C2F20120C0F2022149226BE08D
S3150200259040F2DD0047F21041C2F20120C0F20221F0
S315020025A03F2261E040F2DD0047F69C21C2F20120A3
S315020025B0C0F20221502257E040F2DD0047F2E84124
S315020025C0C2F20120C0F2022153224DE040F2DD00A8
S315020025D047F65411C2F20120C0F20221472243E01B
S315020025E040F2DD0047F21861C2F20120C0F2022178
S315020025F02FE040F2DD0047F2A031C2F20120C0F224
S3150200260002215D2230E040F2DD0047F23C51C2F287
S315020026100120C0F202214B2226E040F2DD0047F6FD
S31502002620BC01C2F20120C0F2022154221CE040F297
S31502002630DD0047F25041C2F20120C0F202214322DC
S3150200264012E040F2DD0047F27061C2F20120C0F2F0
S315020026500221562208E040F2DD0047F6D411C2F20A
S315020026600120C0F2022155220FF018FA40F2DD00D5
S31502002670C2F20120FEF740FABDE8804000BE704774
S3150200268080B545F6806047F6D851C2F21820C0F2EE
S31502002690022108F024FF88B945F6706047F6C0515A
S315020026A0C2F21820C0F2022108F019FF30B945F62D
S315020026B08060C2F2182008F05AFF00B180BD45F6CC
S315020026C07060C2F21820BDE8804008F050BF10B515
S315020026D082B045F6B4640020C2F218240190206844
S315020026E00BF0BDFD0004216818D44EF2712001AB37
S315020026F0C0F200204FF400420DF0CDFC60B101980B
S3150200270050B14EF604504FF08051CEF200000160F7
S31502002710BFF34F8FBFF36F8F02B010BD4EF275201D
S315020027204FF40042C0F20020002302B0BDE8104080
S315020027300DF0B1BC704710B5022825D145F690645C
S3150200274048F26021C2F21824C0F20221204608F0A3
S3150200275040F964204FF47A710AF02FFF48F274317F
S315020027602046C0F2022108F03FF901200BF010F8D2
S31502002770FDF712FD002808BF10BD002040F6072114
S31502002780012208F037F900BE10BD80B584B045F6C7
S31502002790447047F6EC23C2F2182045F69C4C4AF6E2
S315020027A0700EC0F2022301684FF4805201310160BB
S315020027B00220009042F2F37041F23E11C0F2002074
S315020027C0C0F20221C2F2182CC2F2182ECDE901EC97
S315020027D00CF0F9FA45F60C51C2F21821086008B15C
S315020027E004B080BD0020002104B0BDE8804000F0A6
S315020027F05CB810B5044600F05BF82046BDE8104010
S31502002800FFF7DEBB80B584B045F6447047F69833D1
S31502002810C2F2182045F6705C4EF6700EC0F2022324
S3150200282001684FF48062013101600120009042F696
S315020028306D0040F6E731C0F20020C0F20221C2F27A
S31502002840182CC2F2182ECDE901EC0CF0BCFA45F6B2
S31502002850E051C2F21821086008B104B080BD002020
S31502002860002104B0BDE8804000F01FB810B5044650
S3150200287000F01EF82046BDE81040FFF7F9BB80B510
S3150200288045F69860C2F218200BF06FFB45F6B4616C
S31502002890C2F21821086000B180BD00200021BDE807
S315020028A0804000F002B8FFF7EABF00BE7047D4D4FA
S315020028B0B0B545F63C744FF0FF31C2F218242068D9
S315020028C00CF03AF9012803D020680021FFF7EDFF4A
S315020028D045F64070C2F21820017801B1B0BD01215F
S315020028E00170FFF7E0FF45F64475C2F2182500BFF6
S315020028F0286801382860F1D02068002100220023D0
S315020029000BF0C6FD0128F3D020680021FFF7CDFFAA
S31502002910EEE780B545F6407245F64470C2F21822DB
S31502002920C2F218200021117045F648720160C2F207
S3150200293018224FF4807001210BF08AFD45F63C7196
S31502002940C2F21821086018B900200021FFF7ADFF76
S31502002950FFF758FFFFF719FF0CF008FD002080BDB6
S3150200296045F6907C46F20003C2F2182CC2F21823F6
S31502002970C0F800C00B6080201060704746F2002C41
S3150200298046F27023C2F2182CC2F21823C0F800C015
S315020029900B6080201060704710B5DDF80CC05FEA4E
S315020029A0CC6E04D590F882E05FEA0E6E17D55FEA28
S315020029B08C6E04D590F882E05FEA8E6E0FD52CF00D
S315020029C0300EAEF10D0EBEF1020F0CD8D0F880E03B
S315020029D05FEACE3407D40EF0FE04092C03D809218F
S315020029E080F8C61106E0406A029C00F5B47080E8E1
S315020029F01E100021084610BD2DE9F04F8DB0446A25
S31502002A0083469246DDF86C80D4E95B070D46169E36
S31502002A10D4F87421B0F5006F01EB0300A8BF28F0CB
S31502002A200808B8420AEB06000B93C8BFFD1ADBF88A
S31502002A30309006959042CDF830A0C8BFA2EB060AA8
S31502002A40B9F1000F5FEA0F9018F4807F5FEA1080F9
S31502002A50E27DD4F8787101280A90099174D189F837
S31502002A60002094F80E0189F8020094F8D50089F83E
S31502002A700100D4F8FC00C9F80400D4F80001C9F832
S31502002A800800D4F82C01C9F80C0094F8E90089F87A
S31502002A902900D4F83801C9F81000D4F83401C9F86D
S31502002AA0140094F8E80089F82800D4F8EC00C9F874
S31502002AB01800D4F8F000C9F81C00D4F8F400C9F8DC
S31502002AC02000D4F8F800C9F8240094F8EA0089F83E
S31502002AD02A0094F8EB0089F82B00D4F83C01C9F8D7
S31502002AE02C00D4F84001C9F83000D4F82401C9F802
S31502002AF03400D4F85801C9F83800D4F85C01C9F892
S31502002B003C00B4F8A800A9F85400B4F8AA00A9F841
S31502002B105600D4F8A000C9F84C00D4F8A400C9F8AD
S31502002B205000D4F89800C9F84400D4F89C00C9F8BB
S31502002B304800D4F8B000C9F85C00D4F8B400C9F86B
S31502002B4060000020079000E007920321584600F03B
S31502002B50E3FD00210022584605F02CFCF8060897F2
S31502002B601FD4D4F8780120F030000F2829D8DFE8E6
S31502002B7010F010002C0038002C002C0058013800F0
S31502002B802C002C0010001000100010001000100085
S31502002B901000D4E95A010B9A1044169A01FB020757
S31502002BA02AE008F00F015846D4F8686105F011FBD7
S31502002BB0D4E95B23D4E95D01CDE9000158463146EB
S31502002BC028E0A0F14101022909D2D4E95A01169A54
S31502002BD051430B9A00EB420000EB41070CE0402800
S31502002BE009D1D4E95A01169A51430B9A00EB820095
S31502002BF000EB810700E0002708F00F01584605F0B8
S31502002C00E8FAD4F86C21D4F87801CDE900A0584648
S31502002C103946069B05F0C2F94FEA08604FF07F413C
S31502002C2001EAE0705FEA88614FF0A001179B58BF86
S31502002C304FF07F4031EA080118BF4FF07F415FEA4B
S31502002C40C862099F05D45FEA486207D46FF07F42E3
S31502002C5007E05FEA4862A26801D402E0A268104374
S31502002C60E268114394F80E21189D112BC4E956010E
S31502002C7042F0050084F80E0108D398B23905DDF852
S31502002C802CC09A46B1FBF0F14B0805E09A46DDF8F6
S31502002C902CC04FF480310023DDF868E0112D4FF08F
S31502002CA0000005DB0C9A1205B2FBF5F6720802E08B
S31502002CB04FF48036002218F4007F51EA01B118BFA2
S31502002CC0C3EB07430C9F18F4806F18BFC2EB074291
S31502002CD056EA06B65FEA487748BFA3F500435FEABD
S31502002CE0087748BFA2F50042089F17F0100F169FFB
S31502002CF018BF03EB0C4318BF02EB0742199FCDE93D
S31502002D00002139467246CDE90200584604967646B7
S31502002D1005F031FB584621463A463346CDE900A531
S31502002D2000F029FC0A98002873D099F80000E07593
S31502002D3099F8020084F80E0199F8010084F8D5008A
S31502002D40D9F80400C4F8FC00D9F80800C4F8000158
S31502002D50D9F80C00C4F82C0199F8290084F8E90086
S31502002D60D9F81000C4F83801D9F81400C4F83401AF
S31502002D7099F8280084F8E800D9F81800C4F8EC009D
S31502002D80D9F81C00C4F8F000D9F82000C4F8F40001
S31502002D90D9F82400C4F8F80099F82A0084F8EA0061
S31502002DA099F82B0084F8EB00D9F82C00C4F83C0102
S31502002DB0D9F83000C4F84001D9F83400C4F8240127
S31502002DC0D9F83800C4F85801D9F83C00C4F85C01B7
S31502002DD0B9F85400A4F8A800B9F85600A4F8AA0055
S31502002DE0D9F84C00C4F8A000D9F85000C4F8A400E1
S31502002DF0D9F84400C4F89800D9F84800C4F89C00F1
S31502002E00D9F85C00C4F8B000D9F86000C4F8B40080
S31502002E1003E05846079900F07FFC00200DB0BDE89C
S31502002E20F08F9BF88200800603D409208BF8C60136
S31502002E30F4E71020C0F20400C4F82C01012084F843
S31502002E40E900A6E62DE9F04F83B00C9E0446002E5B
S31502002E504FF0000000F096828A460D990129C0F2D1
S31502002E609182951922F00F00ADF8040023F00F00AD
S31502002E70ADF80600681E5E1820F00F00ADF80800D7
S31502002E80701E20F00F00ADF80A0001A920469B46ED
S31502002E90174605F0F2FCC0B1A5F11000A6F110012B
S31502002EA00FFA80F920460FFA81F8514604F040FCE9
S31502002EB09AF8D50081074FEAC07008D4002840F07E
S31502002EC01D8101AA0023002030E200205AE20028D8
S31502002ED040F0148149EA070048EA0B0100074FEA6D
S31502002EE0017000F05282BDF904104FF480320028BE
S31502002EF0A1EB070140F20007CFF6FF7702EB0131A3
S31502002F00D4F8B82102F10803C4F8B8314FF004032B
S31502002F10C2E90031D4F8BC11A1F10100C4F8BC0128
S31502002F2000F0B482012903DCD4F8C0112046884798
S31502002F30D4F8B8014FF4803200F10801C4F8B81190
S31502002F400A21C0E90012D4F8BC010138C4F8BC0158
S31502002F5003DCD4F8C01120468847D4F8B801002211
S31502002F6000F10801C4F8B8111021C0E90012D4F822
S31502002F70BC010138C4F8BC0103DCD4F8C0112046F8
S31502002F808847BDF904004FF48031A9EB000001EB3C
S31502002F900030D4F8B81101F10802C4F8B8210522AC
S31502002FA0C1E90020D4F8BC010138C4F8BC0103DC35
S31502002FB0D4F8C01120468847D4F8B80100F10801B8
S31502002FC0C4F8B8110B21C0E90017D4F8BC010138C6
S31502002FD0C4F8BC0103DCD4F8C01120468847D4F8F3
S31502002FE0B801002200F10801C4F8B8111121C0E9A4
S31502002FF00012D4F8BC010138C4F8BC0103DCD4F8D1
S31502003000C01120468847BDF906004FF48031A0EB77
S315020030100B0001EB0030D4F8B81101F10802C4F834
S31502003020B8210622C1E90020D4F8BC010138C4F84F
S31502003030BC0103DCD4F8C01120468847D4F8B80195
S31502003040002200F10801C4F8B8110C21C0E90012EF
S31502003050D4F8BC010138C4F8BC0103DCD4F8C011B1
S3150200306020468847D4F8B8014FF4803500F10801AC
S31502003070C4F8B8111221C0E90015D4F8BC01013810
S31502003080C4F8BC0103DCD4F8C01120468847BDF958
S315020030900600D4F8B81101F10802C4F8B821A8EB69
S315020030A00000072205EB0030C1E90020D4F8BC017C
S315020030B00138C4F8BC0103DCD4F8C01120468847A5
S315020030C0D4F8B801002200F10801C4F8B8110D21A4
S315020030D0C0E90012D4F8BC010138C4F8BC0103DC13
S315020030E0D4F8C01120468847D4F8B80100F1080187
S315020030F0C4F8B8111321C0E900170AE1BDF90400AA
S31502003100DAF81011C01B484301EB1010D4F8B811BD
S3150200311001F10802C4F8B8210422C1E90020D4F85A
S31502003120BC010138C4F8BC0103DCD4F8C011204646
S315020031308847D4F8B811DAF8100101F10802C4F888
S31502003140B8210A22C1E90020D4F8BC010138C4F82A
S31502003150BC0103DCD4F8C01120468847D4F8B80174
S31502003160002200F10801C4F8B8111021C0E90012CA
S31502003170D4F8BC010138C4F8BC0103DCD4F8C01190
S3150200318020468847BDF90400DAF81011A9EB0000C1
S31502003190484301EB1010D4F8B81101F10802C4F843
S315020031A0B8210522C1E90020D4F8BC010138C4F8CF
S315020031B0BC0103DCD4F8C01120468847D4F8B81104
S315020031C0DAF81001404201F10802C4F8B8210B22D4
S315020031D0C1E90020D4F8BC010138C4F8BC0103DC03
S315020031E0D4F8C01120468847D4F8B801002200F16D
S315020031F00801C4F8B8111121C0E90012D4F8BC01C3
S315020032000138C4F8BC0103DCD4F8C0112046884753
S31502003210BDF90600DAF81011A0EB0B00484301EBEA
S315020032201010D4F8B81101F10802C4F8B821062228
S31502003230C1E90020D4F8BC010138C4F8BC0103DCA2
S31502003240D4F8C01120468847D4F8B801002200F10C
S315020032500801C4F8B8110C21C0E90012D4F8BC0167
S315020032600138C4F8BC0103DCD4F8C01120468847F3
S31502003270D4F8B811DAF8100101F10802C4F8B8213D
S315020032801222C1E90020D4F8BC010138C4F8BC01FD
S3150200329003DCD4F8C01120468847BDF90600DAF8E7
S315020032A01011A8EB0000484301EB1010D4F8B81136
S315020032B001F10802C4F8B8210722C1E90020D4F8B6
S315020032C0BC010138C4F8BC0103DCD4F8C0112046A5
S315020032D08847D4F8B801002200F10801C4F8B811F1
S315020032E00D21C0E90012D4F8BC010138C4F8BC01B2
S315020032F003DCD4F8C01120468847D4F8B811DAF8AE
S315020033001001404201F10802C4F8B8211322C1E9B2
S315020033100020D4F8BC010138C4F8BC0103DCD4F89F
S31502003320C0112046884701AA04230F200090204698
S31502003330514601F0FAFE01AF0646002320465146E9
S315020033403A46002503F094FF0023204651463A46AA
S3150200335005F05EF8D4F8B80100F10801C4F8B81116
S31502003360C0E90056D4F8BC010138C4F8BC0103DC3C
S31502003370D4F8C0112046884701A90022204604F04D
S315020033808DFC012003B0BDE8F08F00283FF499AD13
S31502003390BDF906004FF48031A0EB0B0001EB0030C3
S315020033A0D4F8B81101F10802C4F8B8210422C1E91F
S315020033B00020D4F8BC010138C4F8BC0103DCD4F8FF
S315020033C0C01120468847D4F8B801002200F108014E
S315020033D0C4F8B8110A21C0E90012D4F8BC010138B8
S315020033E0C4F8BC0103DCD4F8C01120468847D4F8DF
S315020033F0B8014FF4803500F10801C4F8B811102164
S31502003400C0E90015D4F8BC010138C4F8BC0103DCDC
S31502003410D4F8C01120468847BDF90600D4F8B81181
S3150200342001F10802C4F8B821A8EB0000052205EB59
S315020034300030C1E90020D4F8BC010138C4F8BC014F
S3150200344003DCD4F8C01120468847D4F8B80100221C
S3150200345000F10801C4F8B8110B21C0E90012D4F832
S31502003460BC010138C4F8BC0103DCD4F8C011204603
S315020034708847D4F8B801112200F10801C4F8B8113E
S315020034800021CFF6FF71C0E9002166E0012903DCC5
S31502003490D4F8C01120468847D4F8B8014FF48032D8
S315020034A000F10801C4F8B8110A21C0E90012D4F8E3
S315020034B0BC010138C4F8BC0103DCD4F8C0112046B3
S315020034C08847D4F8B801002200F10801C4F8B811FF
S315020034D01021C0E90012D4F8BC010138C4F8BC01BD
S315020034E003DCD4F8C01120468847BDF904004FF426
S315020034F08031A9EB000001EB0030D4F8B81101F1DC
S315020035000802C4F8B8210522C1E90020D4F8BC019A
S315020035100138C4F8BC0103DCD4F8C0112046884740
S31502003520D4F8B80100F10801C4F8B8110B21C0E9BA
S315020035300017D4F8BC010138C4F8BC0103DCD4F886
S31502003540C01120468847D4F8B801002200F10801CC
S31502003550C4F8B8111121C0E90012D4F8BC0101382F
S31502003560C4F8BC0103DCD4F8C0112046884701AA7E
S3150200357002230320DAE680B5DDE902ECCDE902ECAE
S31502003580BDE88040FFF75EBC70B504464FF4BE70DE
S3150200359003F0FBFD054600284FF0010000F09D8078
S315020035A087FF5F006FF07F41C5E90141E9604FF097
S315020035B07F4185ED100F00264FF4803CC5F854116B
S315020035C0C5F8286185F80E61C5F810C1C5E9531121
S315020035D0022185F8D5101021A9824FF4B052C5F800
S315020035E01C214FF47033D4F880204FF400211201CD
S315020035F040F20802C2F2400258BF4FF48002C5F8F8
S315020036002021C5F83431042385F8E930C5F82C1198
S31502003610C5F83C61C5E9506633A3616D85F8D400EF
S31502003620114393ED001F34A341F4002141F4B0513C
S31502003630C5F82411AA21C5F8141140F20111A5F802
S315020036400C0105F11C0085ED160FC0F2400193ED49
S31502003650001FC5F830C1C5F818C185ED311FC5F880
S31502003660D610A5F8DA6085F80F61C5F84861C5E994
S315020036703F66C5E9416601F053FD05F1340001F0EC
S315020036804FFD05F14C0001F04BFD05F1640001F020
S3150200369047FD05F17C0001F043FD05F1940001F0C0
S315020036A03FFD05F1AC0001F03BFD17A005F1E40278
S315020036B04FF0FF31C5E9376190ED001F0C2085F808
S315020036C0E800C5F838112046294682ED000F04F0BD
S315020036D09DFDE06928600020E56184F8C601284660
S315020036E070BD00BF00BF00BF010000000000000067
S315020036F00000000000000000AA0000000400000014
S31502003700000000001000000001000000030000009D
S3150200371003000000030000000246406A032990F8F5
S315020037200E31C17543F0010380F80E3114D8DFE87B
S3150200373001F00202070D90F8D51001F0F30109E03D
S3150200374090F8D51001F0F301043103E090F8D5109A
S3150200375041F00C0180F8D5100020002182F8C61134
S3150200376070470346406A00EB810022F07F41816088
S31502003770586A90F80E1141F0010180F80E110020EE
S31502003780002183F8C61170478446406A827C90F80D
S315020037900E318A4243F0010280F80E2103D043F033
S315020037A0070280F80E21827D8174D20702D00906B3
S315020037B0C0F84C11002000218CF8C61170478446CF
S315020037C0406A827D90F80E31914243F0010280F800
S315020037D00E2103D043F0070280F80E21CA07817535
S315020037E002D14FF07F4101E0817C0906C0F84C11FD
S315020037F0002000218CF8C6117047D4D4B0B5D0F899
S3150200380024E003299EF80EC14CF001038EF80E3116
S315020038100ED8032A0CD848F2CC33C0F2022353F84E
S315020038202110DFE802F0020C070A41F4805106E09B
S3150200383010211BE041F4806101E041F4A051CEF871
S315020038401C11DEF82C21436DDEF820C1DEF83C5156
S315020038501A43DEF8403142EA0C02DEF844412A43BA
S315020038601A4322431143CEF82411002180F8C611CF
S315020038700846B0BD0246406A90F8D53039B143F0E9
S31502003880020180F8D5100021C0F828110DE04FF48E
S31502003890FC41C0F828114FF48031C0F8101103F032
S315020038A0FC0180F8D510102181820020002182F8C7
S315020038B0C61170470246406A0023022980F8D610D4
S315020038C04FF0000108BF032380F80F31002082F871
S315020038D0C61170470246406A80F8D71000200021C0
S315020038E082F8C6117047D0F84C11027C437C090A53
S315020038F06FF07F4C01FB02C201FB03C190F80E314F
S3150200390002F07F4201F07F41C0E9542103F0FD013C
S3150200391080F80E1170472DE9F04F85B00DF1380C85
S31502003920044691F8D50093469CE84011DDF844E040
S31502003930C007A3EB0809A6EB080A34D10FFA8AF1ED
S315020039400FFA89F252EA010040F20000CFF6C07087
S3150200395000F08E801FFA88F7994690FBF8F302FB77
S3150200396002F008EBD73711FB01003FB211441022D7
S3150200397083FB00054FEAE30AA2EB490350EADF257F
S31502003980A2EB46020AFB03F301EB57010AFB02F71D
S31502003990DD17A0EB0132F81703EB157107EB107078
S315020039A00F110511B3E002A880E84810129818B169
S315020039B094F8830040076DD44FF07840B1F9142093
S315020039C0CDF804B0D1F810B190FBF8F0D3177546D4
S315020039D0C71750EA0F2739460CF000FC19FB09F20B
S315020039E01FFA88F31AFB0A22AE4608EBD333120AF1
S315020039F00FFA83FCA0FB02750FFA89F701FB025549
S31502003A0007FA8AF701FB02F307EB6C07EE17FD17BD
S31502003A10360FE0FB0263A7FB0B2756EA2F1305FBC3
S31502003A200B75DDF804B052EA0F15B21A4FEAE176C9
S31502003A30AB41DF1712EB1762039F43F1000310EB52
S31502003A40165A41F100015AEA1F310299102052EA30
S31502003A501F23A0EB4101A0EB470001FB0AF100FB8B
S31502003A600AF0CF17C51701EB177100EB15704AE084
S31502003A7000F5601090FBF8FA1020A0EB48000AFB54
S31502003A8000F0C11700EB117000210511A1EBC8224D
S31502003A902F463CE04FF07840B1F9142019FB09F3A8
S31502003AA01FFA88F590FBF8F01AFB0A3308EBD535B6
S31502003AB080010FFA89FC1F0A2DB290FBF2F2D1F8AF
S31502003AC0101182FB0703180F0023C2FB07030CFA2F
S31502003AD08AF707EB55074FEA221A029A794310270B
S31502003AE050EA2F13A7EB42020AFB02F5039AA7EB51
S31502003AF04202EF170AFB02F3A0EB810205EB1771F4
S31502003B00D81703EB10700F110511DDF810C0BEF1C6
S31502003B10000F0BF1040002EB0C016AD0D4F8B821B5
S31502003B20494202F10803C4F8B831C2E90001D4F8E7
S31502003B30BC010138C4F8BC0103DCD4F8C01120462C
S31502003B408847D4F8B8110BF1050001F10802C4F850
S31502003B50B8217A42C1E90002D4F8BC010138C4F89E
S31502003B60BC0103DCD4F8C01120468847D4F8B8114A
S31502003B700BF1100001F10802C4F8B8216A42C1E94A
S31502003B800002D4F8BC010138C4F8BC0103DCD4F845
S31502003B90C01120468847D4F8B8010BF10B0100F199
S31502003BA00802C4F8B8210022A2EB4A05C0E90015B2
S31502003BB0D4F8BC010138C4F8BC0103DCD4F8C01146
S31502003BC020468847D4F8B80100F10801C4F8B811B4
S31502003BD00BF11101C0E90015D4F8BC010138C4F893
S31502003BE0BC0168DCD4F8C011204605B0BDE8F04F30
S31502003BF00847D4F8B82102F10803C4F8B831C2E97B
S31502003C000001D4F8BC010138C4F8BC0103DCD4F8C5
S31502003C10C01120468847D4F8B80100F10801C4F85B
S31502003C20B8110BF10501C0E90017D4F8BC0101383F
S31502003C30C4F8BC0103DCD4F8C01120468847D4F886
S31502003C40B80100F10801C4F8B8110BF11001C0E97E
S31502003C500015D4F8BC010138C4F8BC0103DCD4F861
S31502003C60C01120468847D4F8B8110BF10B0001F1B8
S31502003C700802C4F8B8214FEA4A05C1E90005D4F89A
S31502003C80BC010138C4F8BC0103DCD4F8C0112046DB
S31502003C908847D4F8B80100F10801C4F8B8110BF14D
S31502003CA01101C0E90015D4F8BC010228A0F10100F7
S31502003CB0C4F8BC0196DB05B0BDE8F08FF0B581B063
S31502003CC00646856914200F4603F05FFA044600286B
S31502003CD04FF000002AD0C4E9027007EB870196F87C
S31502003CE068008900C00703D1304603F07EFA02E07D
S31502003CF0084603F04AFA01466060A0B10027276130
S31502003D0096F86800C00717D1D6F88400C2060FD409
S31502003D10800711D5A068042100EB800082002846A6
S31502003D2008F070FF07E0204603F031FA002404E0B1
S31502003D30284608F06FFF20612760204601B0F0BDDB
S31502003D4041B3F0B581B00C460546866900BF00BF97
S31502003D5095F868002746D4E90041C00704D12846F1
S31502003D6003F066FA03E000BF084603F010FA3A6968
S31502003D703AB195F88400800703D50421304608F04D
S31502003D8044FF384603F003FA0CB12FF01FC801B006
S31502003D90BDE8F040704710B504468068006830B947
S31502003DA02068216AFFF78AFF48B1A16808600021EE
S31502003DB0C160416821618168E161A06010BD20682F
S31502003DC0152180F8C71110BDF0B581B0054608600F
S31502003DD000204861EF6F0C46CFB338686060202040
S31502003DE003F0D3F9606180B30646B868800003F039
S31502003DF0CCF9306048B3BA6872607968D5F8883011
S31502003E005943002AB1607A6872610AD00020002103
S31502003E10326842F82100013172689142F8D3306863
S31502003E20B168F06001EB8101A8698A00042108F0FB
S31502003E30E9FE316808603068006830B13061706848
S31502003E407169C6E90610606806E000263DE028466C
S31502003E501146FFF733FF60604FF00006E060A0B343
S31502003E60A060416821618068C4E906601020A086CE
S31502003E704020C4E90A6603F088F9206328B3616921
S31502003E8011B109680A680BE095F8841011F0120F57
S31502003E90616804D00A69002A08BF4A6800E04A68D5
S31502003EA0B4F9341001290ADB0021002300BF00BF48
S31502003EB040F8041B0133B4F93470BB42F8DB00202E
S31502003EC02146E08600F018F80126304601B0F0BD22
S31502003ED0B1F9340001280ADB086B4FF0000C00230D
S31502003EE040F804CB0133B1F934209342F8DB0020C9
S31502003EF0C8867047D4D4D4D4F0B581B0B1F936604F
S31502003F00B1F934000C461746411EB142216B1ADC48
S31502003F1080B21030A08602B29000012203F03CF972
S31502003F20B4F9341020638E4201460CDA01EB8600A6
S31502003F300022334600BF00BF40F8042B0133B4F918
S31502003F403450AB42F8DB01EB860041F82670711C57
S31502003F50E18601B0F0BDD4D42DE9F04381B04669C3
S31502003F6004465EB1E069B169002838D0012940F003
S31502003F70E28020680121D0F8188067E0206948F2C3
S31502003F803201C8F280010160002120694160A06807
S31502003F902269151D40F2FF32C560206982600C302D
S31502003FA02061E0690138E0612046A161FFF7F3FE76
S31502003FB0206890F8C701002871D0A16920690329F9
S31502003FC0A0F10C02226100F2B180DFE801F0029E4C
S31502003FD08A9540F2FF3140F80C1C0838A5E02068AB
S31502003FE00229D0F8188031D3A5683369A8686968B0
S31502003FF0EF6800EB8002206901EB820C03EB820979
S315020040001FB1C7F800900023EB6060450ED2920004
S31502004010031D11446FF00302994251EA8381411A4A
S3150200402022EA0101802204310DF02FFDD5E901209B
S31502004030316900EB8000830010200090404608F0B2
S31502004040EDFDB069C6F810900138AFE0F269022AB8
S315020040501CD3F768A568501EF06157F8040F78B9AB
S31502004060B068042100EB80008200404608F0CAFDD9
S31502004070386028B92068012180F8C711386818B35A
S31502004080E96881B108600020E8601DE0002900F0BF
S315020040908E80012A04BF152180F8C71187E0A06827
S315020040A04068286047E0216948F23202C8F280027D
S315020040B00A6021694860A06821690431C1602069EB
S315020040C0083020610020A061A169032957D8206920
S315020040D0DFE801F00246343E40F2FF3140F8041BAD
S315020040E04CE00021C8F28001090C20F80A1C40F2BB
S315020040F0FF3140F8041B18E0802100F8091C40F249
S31502004100FF314160206914300FE048F2000250F896
S315020041100C1CC0F2800262F31F2141F4004140F8F8
S315020041200C1C40F2FF3140F8041C20610020A06103
S31502004130E0690138E06101B0BDE8F0830021C8F210
S315020041408001090C418040F2FF31C160103015E058
S315020041508021C17040F2FF310161206914300DE007
S3150200416048F200020168C0F2800262F31F2141F4A4
S315020041700041016040F2FF3181600C302061002075
S31502004180A061A068E1690139E161D0E901203169E4
S3150200419000EB8000830010200090404608F03EFDB0
S315020041A0386820B1F760386830617069B0612046BE
S315020041B001B0BDE8F043FFF7EEBDD4D4B0B58469D3
S315020041C0032C1FD840F2000C0169C8F2800C0CF5D2
S315020041D000434FF0080EFF22DFE804F0190E020832
S315020041E04FF00C0E4FF6FF72634605E04FF0100ECD
S315020041F04FF000436FF07F420D682A401A430A606F
S315020042007144016100218161C1690139C161B0BD99
S3150200421010B50446006890F86810890604D400F5C3
S31502004220BC703B210DF036FC61696068C4E902008E
S3150200423061B10868C86060690168096801616069FE
S315020042404168C16160694169816160684168216153
S3150200425080680021C4E90610E16210BDD4D4D4D42A
S31502004260F0B581B00546086816460C4600F094F88B
S31502004270A16903292AD82069DFE801F0021907118A
S3150200428040F2FF3140F8041B1FE00021C8F2800112
S31502004290090C418040F2FF31C160103015E08021E7
S315020042A0C17040F2FF310161206914300DE048F21D
S315020042B000020168C0F2800262F31F2141F400414C
S315020042C0016040F2FF3181600C3020610020A06164
S315020042D0E0690138E061E86FC0B9A168086898B181
S315020042E0A06A0130A0623C2810D1086800BF00BF56
S315020042F00F460146006808B12FF007C02068FFF795
S315020043001FFD0020386000E00020A062606990B1C5
S315020043104EB3206800F0ADFBA168E369D1E9012143
S31502004320C91A636901EB81071969BB000027009767
S3150200433008F074FC11E0D5F88400810705D4C006A4
S3150200434007D4204600F068F906E0204600F0FCF8A3
S3150200435002E0204600F02CF92EB12046FFF758FF66
S315020043600020606215E00020E0612046FFF7F4FDC0
S315020043706169A068E06009B108690AE095F88410ED
S3150200438011F0120F04D00069002808BF206900E06E
S31502004390206901B0F0BDD4D42DE9F04F81B080463A
S315020043A0C56890F86810D0E96D60821B89064FEAED
S315020043B0E20729684CD4B042AC69CDF8008000F01F
S315020043C0B78048F2DC3B01F18C0901F5BC7A286919
S315020043D0C0F2022B4FF00108296891F8C711002993
S315020043E040F0A680D6E900211BF8023053B11AF834
S315020043F002301BB159F822308B4211D00AF80280E2
S3150200440049F8221000EB84030255E24359609207F1
S31502004410E96A01F10101E9620AD0611C01F00304B3
S31502004420013F06F10806D7D182E000BF00BF00BFF8
S31502004430E96928690139143001294FF0000428611D
S31502004440E961EDD82846AC61FFF786FD2869E7E702
S31502004450EA6AAB693A44EA6291F8C71100296AD15D
S315020044602BB3B04267D02869011D00BF00BF00BF51
S315020044701A46013FF6E80234835441F8224006D038
S3150200448002F00303541C032B04F00303F0D1D043C0
S31502004490800750D10020A861E869296901381431E2
S315020044A001282961E86102D82846FFF755FDBC08B4
S315020044B026D000BF00BF00BF286890F8C701F8B930
S315020044C0286931680170B168417031698170B169DA
S315020044D0C17071684160F16881607169C160F1699A
S315020044E00161E86929690138143101282961E86105
S315020044F002D82846FFF730FD013C06F12006DBD143
S3150200450017F0030017D000BF296891F8C71191B9B7
S31502004510A9692A69F6E80274013802EB8103575445
S3150200452001F101015C6001F00301A961ECD102E035
S31502004530AC61DDF80080D8F8B4014021C8E96E010B
S3150200454001B0BDE8F08FD4D42DE9F04182B08046A7
S31502004550006890F86810C90727D1D8E902768569FC
S31502004560BE4214D0002400BF306818B1F16809B108
S3150200457000690860D6E901203169009400EB8000E9
S315020045808300284608F04AFB3668BE42ECD1D6E9DB
S315020045900120D8F81C10401A316900EB8000830014
S315020045A000200090284608F039FB02B0BDE8F081F1
S315020045B0F0B581B00446006890F86810C90727D1A3
S315020045C0D4E902768569BE4214D000BF00BF00BF9F
S315020045D0306818B1F16809B100690860B0683269DB
S315020045E0042100EB800083002846FCF759FA36685E
S315020045F0BE42EDD1B068E169401A3269042100EB8E
S3150200460080008300284601B0BDE8F040FCF748BAB6
S3150200461001B0F0BDD4D4D4D4F0B581B0044600685C
S3150200462090F86810C90721D1D4E902768569BE429D
S315020046300ED000BF00BF00BFD6E90120042100EB67
S31502004640800083002846FCF72BFA3668BE42F3D177
S31502004650D6E90120E169401A042100EB80008300BB
S31502004660284601B0BDE8F040FCF71ABA01B0F0BD29
S315020046702DE9F0410C4685694FF0000800BF00BFE6
S31502004680276817F0803F07D0B7F1803F38D104344E
S31502004690F6E700BF00BF00BF07F07F066268284644
S315020046A0314600F0ABFE202E02D1284600F0ACFEC9
S315020046B0C7F30626A2682846314600F09FFE202E42
S315020046C002D1284600F0A0FEC7F30646E268284655
S315020046D0314600F093FE202E02D1284600F094FEC9
S315020046E03E0E22692846314600F088FE202E02D16F
S315020046F0284600F089FE1434C2E700BF00BF00BF9F
S31502004700380414D4380221D4B7F1FF3FFEB241DD9A
S31502004710FF2EBCD1C7F30628B8F1040F02D0B8F1B8
S31502004720020F5BD12846043400F06EFEA8E7FEB203
S31502004730322E53D062682846314600F05FFE202EA4
S3150200474002D1284600F060FE083499E7FEB2C7F3AC
S315020047500627FF2E08D1022F41D12846043400F045
S3150200476053FE4FF002088BE762682846314600F096
S3150200477045FE202E02D1284600F046FEA2682846B3
S31502004780394600F03BFE202F02D1284600F03CFEBF
S315020047900C3475E762682846314600F02FFE202E5B
S315020047A002D1284600F030FEC7F30626A268284644
S315020047B0314600F023FE202E02D1284600F024FEC8
S315020047C0C7F30646E2682846314600F017FE202E59
S315020047D002D1284600F018FE103451E74746384603
S315020047E0BDE8F081B0B50446FFF7D6FDE068826900
S315020047F0032A2AD80169DFE802F00219071140F2FA
S31502004800FF4241F8042B1FE00022C8F28002120C7C
S315020048104A8040F2FF42CA60103115E08022CA7017
S3150200482040F2FF420A61016914310DE048F20003C9
S315020048300A68C0F2800363F31F2242F400420A6050
S3150200484040F2FF428A600C310161C16900250139DB
S31502004850C0E90651012901D8FFF77EFB002084F842
S31502004860C651B0BDB0B50446FFF796FDE068826951
S31502004870032A2AD80169DFE802F00219071140F279
S31502004880FF2241F8042B1FE00022C8F28002120C1C
S315020048904A8040F2FF22CA60103115E08022CA70B7
S315020048A040F2FF220A61016914310DE048F2000369
S315020048B00A68C0F2800363F31F2242F400420A60D0
S315020048C040F2FF228A600C310161C169002501397B
S315020048D0C0E90651012901D8FFF73EFB002084F802
S315020048E0C651B0BDD4D4D4D470B505464FF4EA70DF
S315020048F002F04BFC0446002850D029A0A5660026EB
S31502004900A4F8C66190ED001F2046C4E9066684ED50
S31502004910121FFEF739FEC4E908006906A062E062CA
S315020049204FF0000002D4702002F02FFC206304F145
S315020049303400142184F8C66184F8C4610DF0AAF823
S3150200494001206066201D14210DF0A4F83320C4F85E
S31502004950880015F0040F4FF0040050EA1090A4F8F6
S315020049607860C4E91B662907666740F2271148BFCB
S3150200497000F00100C4E9170604F18C0084F8C8614E
S31502004980C4E91F660DF086F846F270410820C2F2AD
S31502004990182184F8C501086820600C60204670BDA5
S315020049A002000000000000000000000000002000DD
S315020049B0B0B5044600F0FCFC0028A06154D004F512
S315020049C0BC703B210DF066F8E56F7DB1D4F8881016
S315020049D02046FFF773F928602046D4F88810FFF7BF
S315020049E06DF929680860286801680860D4F888109B
S315020049F020460A4602F006FDD4F8881020612046B9
S31502004A000A4602F0FFFC21690125606169B360B3C1
S31502004A10C4E901014FF40070E1600025656302F00C
S31502004A20B4FB44F299324021C0F20022C4E96D007F
S31502004A30A06984F8C951C4E96F120A2108F039F84D
S31502004A4098B1A0690A210022FF23002508F00AF87E
S31502004A50A0690A21002208F01DF8FF2805D10025C9
S31502004A60012084F8C90100E00525284684F8C651CC
S31502004A70B0BD80697047E0B1B0B50446406E0D46E0
S31502004A8088422DD0082D18BF082814D1616A6566A0
S31502004A90082891F80E2142F0010081F80E0102D198
S31502004AA0204602F02FFE082D1AD1204602F0D8FD2C
S31502004AB016E002207047204602F067FD606A90F811
S31502004AC00E1141F0010180F80E11616A002084F88E
S31502004AD0C601656691F80E0140F0010081F80E01EB
S31502004AE0002084F8C601B0BD38B110B5044600F006
S31502004AF097FC002084F8C60110BD022070472DE9FC
S31502004B00F04F81B004460B981F4690468B460D9E89
S31502004B10C0070C990A9D02D1D1F8100100E00020CD
S31502004B20009007FB07F005FB0500D1F810A14FEA3C
S31502004B300A1902F08FFA99FBF0F006B1306005FB14
S31502004B4000F105EB080600FB07F95F44C1F1000E10
S31502004B50CBF100054FEA29114FEA2E104F430B9A6B
S31502004B6000FB167700FB05F601FB186C00FB08F646
S31502004B7001FB056695070C9A4FEA2715D2F8102114
S31502004B804FEA520258BF0AEB271502EB2C12009B82
S31502004B9004F1100C03EB26170026C4E90217A6EB54
S31502004BA02E132062A6EB2916C4E900208CE86A00BF
S31502004BB001B0BDE8F08F2DE9F04F81B099460A9D0C
S31502004BC05B43044605FB053090468B46DDF830A074
S31502004BD002F040FA4FF48011BAF1000F0B9ECBF1AE
S31502004BE0000791FBF0F018BFCAF8000005FB00F1C0
S31502004BF04FF4803C00FB09F22CEAC63E49422CEAFD
S31502004C00064C0811131100FB08F50A9E03FB075A0E
S31502004C1009EB0B054743464403FB18774FF400485C
S31502004C205D43206200FB165508EB2716C4E90060B7
S31502004C300CEB2A174FF0000CACEB2111C4E902373A
S31502004C400EEB2515ACEB2212C4E90431C4E9065277
S31502004C5001B0BDE8F08F2DE9F04F0024DDE90ACE60
S31502004C60B3F1FF3FDDF824B0CFF6FF7415DDBBF1DB
S31502004C70FF3F38DD5B455BD94FEA0B465F4204F5E1
S31502004C80704496FBF7F6544306FB01F706FB02F562
S31502004C905A44A4EB27182C113BE0BBF1FF3F68DD19
S31502004CA05E42B34580F086804FEA0B46170304F551
S31502004CB07045BEF1000F96FBF3F606FB01F806FB04
S31502004CC002F95A4406FB02FAA7EB281803EB01077E
S31502004CD007FB05F54FEA291202EB0139A5EB2A116A
S31502004CE040F0CA80CAE0CBF10007BB4240F28080A6
S31502004CF04FEA0B465F4204F5704496FBF7F65443BF
S31502004D0006FB01F706FB02F95A44A4EB27184FEA01
S31502004D1029147243A4EB01391944BEF1000F4FEA7C
S31502004D2001314FF48034A1EB221140F0A580A5E0B9
S31502004D301D040B4404F57046BEF1000F95FBFBF50E
S31502004D4002FB06F605FB02F75A4405FB01F94FEA98
S31502004D500131A1EB271805FB03F1A6EB291926461B
S31502004D604FEA21115B4601EB02312C4640F084806A
S31502004D7084E05B455ED24FEA0B46170304F57045A5
S31502004D80BEF1000F96FBF3F606FB01F806FB02F9ED
S31502004D905A4406FB02FAA7EB281803EB010707FBA6
S31502004DA005F54FEA291202EB0139A5EB2A1165D066
S31502004DB05B4261E01E040B44BEF1000F96FBFBF75B
S31502004DC004F5704607FB02F807FB01F94FEA0131C9
S31502004DD002FB06F65A44A1EB281807FB03F1A6EBE1
S31502004DE0291926464FEA21115B4601EB023141E0C1
S31502004DF01E0404F570444C43BEF1000F96FBF7FA0D
S31502004E000AFB01F919440AFB02F64FEA02330AFBCE
S31502004E1001F15A44A3EB29193B464FEA2111A4EBAF
S31502004E202618A1EB02314FF48036544618BFCEF84D
S31502004E30003023E01E04CBF1000A04F57044BEF1F3
S31502004E40000F96FBFAF701FB04F407FB01F619447F
S31502004E5007FB02F84FEA023307FB01F15A44A3EBC0
S31502004E6026194FF480364FEA2111A4EB2818A1EB3C
S31502004E70023153463C4601D0CEF800304FF4803220
S31502004E8008F5004722EACC33754222EA0C42C0E911
S31502004E9000764A441944C0E902426342C0E9044525
S31502004EA018304AC0BDE8F08FB0B5B3F1FF3FDDE977
S31502004EB0045C06DDB5F1FF3F12DDAB4222D92D04BB
S31502004EC016E0B5F1FF3F27DD5C4240F2000ECFF659
S31502004ED0FF7EA54227D22C04120394FBF3F343E090
S31502004EE06C4219442A44A34227D92D0409B212B2AC
S31502004EF095FBF3F3594309115B42A1EB02314FF4DF
S31502004F00803E34E01B04090393FBF5FE00230EFBEF
S31502004F1002F2CFF6FF730DE02A44AB42194412B2F5
S31502004F2019D91B040BE01B04090393FBF5F4734622
S31502004F306243A646A1EB221119E01B0412B293FBAF
S31502004F40F5F35A4309B2C3F1000E4FF4803312113E
S31502004F50A2EB01310BE02C0409B2120340F2000E5F
S31502004F6094FBF3F3CFF6FF7E5943A2EB2111BCF17A
S31502004F70000F51EA019180E80A40B0BDB0B5DDF8F4
S31502004F8014C0B3F1FF3F049CDCF810E106DDB4F176
S31502004F90FF3F1ADDA34209D924041EE0B4F1FF3F04
S31502004FA028DD5D42AC4201D224043CE01B04090325
S31502004FB093FBF4F303FB02F483FB0E2352EA1F4333
S31502004FC0A1EB2411CEF1000439E0654219442244D2
S31502004FD0AB4216D9240409B212B294FBF3F3594335
S31502004FE083FB0E4354EA1F430911A1EB02317246B9
S31502004FF0644224E02244A342194412B211D91B048A
S3150200500001E01B0412B293FBF4F35A4309B283FB89
S315020050100E4354EA1F431211A2EB01316242744657
S315020050200DE0240409B294FBF3F35943120383FB04
S315020050300E4354EA1F43A2EB2111CEF10002BCF942
S3150200504014300901826091FBF3F10EEBDE7301EB82
S315020050506301C0E90014B0BD10B5DDF808C0002434
S31502005060BCF1000F0CEAEC7E48BF1944724409B247
S315020050700CFB01F112B2DDF80CE003FB1211BEF1DA
S31502005080000F4FF4004252EA02921B03A4EB0C34C7
S31502005090836002EB0121C0E9001410BD2DE9F04343
S315020050A081B0089F044607EAE7700E4602EB000845
S315020050B003FB03F007FB07001D46002FDDF82490D3
S315020050C048BF1E4401F0C6FF4FF480110FFA88F262
S315020050D033B2B9F1000FB1FBF0F007FB00F105FBAB
S315020050E000F0C1F100014FEA20104FEA211100FB46
S315020050F002F2A06001FB03224FF4004353EA03933A
S31502005100524203EB2212C4E9002101B0BDE8F0834A
S315020051108268036802FB0131016051428160704777
S3150200512080B518210CF0B6FC80BD2DE9F04381B0A4
S315020051304D7E0F461E469046E9078146089C15D1CC
S31502005140A8071ED4BA7D900702D5787E40074FD4B1
S31502005150500778D5787E000775D517F8640FC00713
S3150200516062D1042E98BF24F400046CE0394611F88B
S315020051701C0FC00710D1042E65D824F40004023691
S31502005180DEE73D4615F8340FC0071BD1042E5AD868
S3150200519024F400040236D5E7052E54D804F08070B4
S315020051A0009048464246334600F051F824F4000186
S315020051B03A7F7D7E013640EA0104500648BF24F458
S315020051C04004BDE7052E3ED804F0807000904846A4
S315020051D029464246334600F03AF824F400012A787A
S315020051E0013640EA0104500648BF24F44004A9E708
S315020051F0394611F84C0FC00705D1042E23D824F4E2
S3150200520000040236A4E7052E1DD804F08070009033
S3150200521048464246334600F01AF824F40001BA7DA5
S31502005220013640EA010493E7052E0CD804F080709B
S315020052300090484639464246334600F008F824F4C0
S31502005240000140EA0104204601B0BDE8F0832DE9E1
S31502005250F0410E46B1F91410B2F90070B2F902200B
S31502005260B6F91650DDF818C0C91B1C46AA1AD6E9AB
S3150200527001757943376802FB0511C7F3C00205467B
S3150200528048F20100043302EB2111FA0648BFA1F5E8
S3150200529080315FEA477848BF091AD5F8B801BCF1F0
S315020052A0000F00F10802C5F8B82103604BD00022B6
S315020052B0A2EB81114160D5F8BC010138C5F8BC01E9
S315020052C003DCD5F8C01128468847D5F8B82171689D
S315020052D004F10A0002F10803C5F8B8318901C2E9EE
S315020052E00001D5F8BC010138C5F8BC0103DCD5F8CC
S315020052F0C01128468847D5F8B821B16844F0100095
S3150200530002F10803C5F8B8318901C2E90001D5F8EE
S31502005310BC010138C5F8BC0103DCD5F8C01128462A
S31502005320884740F20120B8F1000F4FEA54014FF4CA
S31502005330003258BF012002FA01F1A0407A0648BFA6
S315020053400843BDE8F08149424160D5F8BC01013805
S31502005350C5F8BC0103DCD5F8C01128468847D5F844
S31502005360B811706801F10802C5F8B82104F10A0201
S31502005370C1E90020D5F8BC010138C5F8BC0103DC3F
S31502005380D5F8C01128468847D5F8B811B06801F19A
S315020053900802C5F8B82144F01002C1E90020D5F888
S315020053A0BC010228A0F10100C5F8BC01B5DBB8E7D3
S315020053B070B50446084607F024FB0546E0B1012114
S315020053C001222846012607F065FB4101C4F8800048
S315020053D048BF84F8C861800303D4A06E40F0010080
S315020053E0A066E36D01213122284607F03BFB2846E1
S315020053F007F00EFCC4F88400284670BD8C460121D5
S315020054001346624607F02EBB10B5044600BF00BF26
S3150200541001210022204607F03DFBC007F8D110BD4E
S31502005420B0B5054690F86800C007AC6914D100BF54
S3150200543001210022204607F02DFB000713D595F81F
S3150200544068008007F4D40421C822204607F07BFBBB
S31502005450EEE700BF00BF00BF01210022204607F091
S3150200546019FB8007F8D1B0BDB0B5044690F86800C4
S315020054700B6BC00710D1D3F800C0BCF1000F1BD0D4
S3150200548094F8C901012132220028A06908BF6346A7
S31502005490BDE8B04007F0E6BA2AB119682046BDE871
S315020054A0B040FFF7E5B80D1D2D682DB1696820469D
S315020054B0FFF7DEF80328F7D1B0BD2DE9F04FA3B010
S315020054C01746DDE92C24A2EB070BE21A109252EAE8
S315020054D00B0200F0B180DDE92EC482460CF10F000A
S315020054E0172642101D460B4691F8D69002FB06F18E
S315020054F00C9204F00308B9F1010F4FEA111618BF16
