S02B0000766973696F6E5F61695F6574686F73755F6D6970696373695F676C63645F656B5F72613870315F6CD1
S31502000000600001221FDC0002E9D900022DDC000299
S315020000102DDC00022DDC00022DDC00022DDC0002AC
S31502000020000000000000000000000000EDA5000234
S315020000302DDC00020000000005A600026DA60002EB
S315020000407DB00002B1AF000253B10002DDB1000281
S3150200005013C600026DBF00026DBF000299B800020E
S3150200006083BA0002CDBB0002D9BC0002CBD2000289
S31502000070D7D00002F9A90002F90B00024B0C0002CC
S31502000080F70C0002A30C0002470D0002A70D0002A6
S30902000090190E00023B
S315020000941000000000000000017A5200017C0E01EB
S315020000A41B0C0D00100000001800000084F401006F
S311020000B410000000000000000000000028
S315020000C000E1F5050101000000710200005802007E
S315020000D000900000000000000000000080AF0A222D
S315020000E0000000000000000000000000101F0000D9
S315020000F000203440002834400101000000000300C3
S31502000100252A0102272A01022D2A01021D2B01029C
S31102000110152C01024AF2020234FC0A22FB
S31502000180B0B502AF4BF6C050C0F209208568D0E97F
S3150200019000412A682046904769682046884740F20F
S315020001A090000021C2F201200160B0BDB0B502AFDD
S315020001B04BF6C050C0F20920856804682046A9683B
S315020001C0884740F290000021C2F2012001602046D9
S315020001D0E968884769682046BDE8B040084740F2AA
S315020001E09000C2F2012000687047081A4CF6CD4111
S315020001F0CCF6CC41A0FB0101C80870474FF47A71D6
S31502000200B1FBF0F070470079002818BF704740F242
S315020002109000C2F201200168013101607047D4D416
S31502000220F0B503AF2DE900072DED088B4EF220063F
S31502000230C4F2010696F9F000002809D443F2080533
S31502000240C4F220052868400505D4062000F0A1BCAA
S31502000250132000F09EBC0124EFF3108884F310886B
S3150200026003204FF003090DF029FC44F20800C4F202
S315020002702000016821F400410160816921F40041F6
S31502000280816103200DF0F0FB286820F4003028601D
S3150200029001200FF0ADFA3168B28842EA113002F05D
S315020002A00F020007C1F3033020D44BF2F861C2F209
S315020002B00A2109689140C14032E000BF286B6E4EA8
S315020002C00000AA4200001643000094420000FA42CF
S315020002D0000009440000F4420000B7430000C64291
S315020002E000000F430000C0420000D04202F00703A4
S315020002F00E0B09FA03F3082A38BF04FA02F306F0D2
S3150200030007024BF2F866C2F20A26090409FA02F259
S31502000310366806FB03F158BF04FA00F2B1FBF2F1AC
S3150200032000EE101A4DF68362B8EE400AC4F21B3292
S315020003301FED1E1A40F2940CA1FB022381EE000A65
S31502000340C2F2012C40F200021FED231AC2F2002271
S3150200035081EE001ACCF80010C3F38741BFEE002AE3
S315020003601FED283AB3EE044A47F2100011604FF629
S31502000370384131EE021A83EE003AC4F2340084EEBA
S31502000380004ACFF6FF711FED305A1FED306A1FED9E
S31502000390307A5FED300A5FED301A5FED302A5FED9D
S315020003A0303A5FED304AF2EE0A5A5FED316A85EE77
S315020003B0005A435886EE006A4FF6F03487EE007A0A
S315020003C023F00103C0EE800A4350C1EE801ACFF635
S315020003D0FF74C2EE802A1168C3EE803A0139C4EE78
S315020003E0804A0359C5EE805AC6EE806AFCEEC17A8F
S315020003F033EE020A34EE021ABCEEC08ABCEEC19A91
S3150200040035EE020A36EE021ABCEEC0AABCEEC1BA3C
S3150200041061F307034FF60041CFF6FF7137EE026A2A
S3150200042030EE825A035131EE824A4FF60C4432EED6
S31502000430823A435833EE820ACFF6FF7434EE821ABA
S3150200044043F0010317EE905A435018EE106A19EE64
S31502000450102A1AEE109A1BEE10EA35EE827A36EE62
S31502000460822A0159C907FCD04FF6144142F2F944D7
S31502000470CFF6FF71C0F20104BCEEC66A40F6FF7AFF
S315020004804358BCEEC55A64F3120343504FF6184163
S31502000490BCEEC44ACFF6FF71BCEEC33ABCEEC11A3B
S315020004A040F27F244358BCEEC00A23F0FF032B44DC
S315020004B04350435847F2404523F47F43C4F2340580
S315020004C043EA06234350435823F47F0343EA024296
S315020004D042504FF61C4216EE103ACFF6FF72815882
S315020004E021F0FF014944815081584FF6FF7921F4EA
S315020004F07F41CFF2000941EA0E2181504FF6204199
S315020005004FF0010ECFF6FF71465826F0FF06334430
S31502000510435015EE103A465826F47F4646EA032320
S31502000520435014EE103A465826F47F0646EA034331
S31502000530435013EE106A435823F07F43BCEEC73A8A
S3150200054043EA066343504FF6244113EE106ACFF690
S31502000550FF71435823F47F0343EA0643435011EEE7
S31502000560106A435823F47F4343EA06234350435811
S3150200057010EE106A23F0FF03BCEEC20A3344435066
S315020005804FF6284110EE106ACFF6FF71435823F05A
S31502000590FF03334443504FF6104347F20041CFF670
S315020005A0FF73C4F23401C65846F00106C6500B6802
S315020005B01E2623F001030B608B6823F002038B6077
S315020005C055F8203C23F00F0345F8203C55F8203C13
S315020005D043F0007345F8203CAB6923F40063AB613A
S315020005E055F8203C66F30D2345F8203C0B68AA26F5
S315020005F06EF312430B60AB6923F4E043AB61AB6964
S3150200060023F48073AB61AB6923F00303AB61AB697F
S3150200061023F4E043AB61AB6923F48073AB61AB694E
S3150200062023F40063AB61AB6923F00303AB61AB69EF
S3150200063023F00403AB61AB6943F01003AB61AB6912
S3150200064066F31F63AB614E6926EA0A064E618E693E
S3150200065064F30B068E61CC68EF266FF30B04CC6055
S315020006600C6966F30B040C6155F8144C4FF4A07632
S3150200067066F30C0445F8144C55F8144C240740F064
S315020006801C812C6A41F6D66304F07F042C620C6846
S31502000690C0F2C21324F480140C6040F2FF34D5F881
S315020006A0C06026EA0404C5F8C040D5F8C0406FF31E
S315020006B09324C5F8C040D5F8C0406FF31D54C5F861
S315020006C0C04041F29F24C0F20104C5F8C04240F680
S315020006D00004C0F20014C5F8C44240F60254C1F642
S315020006E08914C5F8C84242F24504C0F24564C5F809
S315020006F0CC4240F20714C5F8E84140F20424C0F2A5
S315020007006404C5F8EC4140F60004C8F60124A4F5D9
S315020007100066C5F8F06141F66876C5F8F461C5F879
S31502000720F8314FF4E173C5F8FC41C5F8003241F6E1
S315020007308763C1F6B773C5F80432C5F80842402488
S315020007400B6823F000730B600B6823F440430B60C5
S315020007500B6843F080730B600B686EF3C4030B6087
S315020007600B6823F040030B600B6823F040530B60C9
S3150200077055F81C3C23F0010345F81C3C55F81C3C7B
S3150200078043F4803345F81C3C55F81C3C23F03003F7
S3150200079045F81C3C2B6843F001032B602B6823F0C1
S315020007A002032B602B6823F004032B602B6823F0D3
S315020007B010032B602B6823F020032B602B6823F495
S315020007C080732B602B6823F400732B602B6843F431
S315020007D080432B602B6843F400432B602B6823F481
S315020007E080332B602B6843F400332B602B6823F095
S315020007F000432B600B6843F480030B600B68C3F362
S3150200080080530B68C3F380530B68C3F380530B68A2
S31502000810C3F380530B68C3F380530B68C3F380534F
S315020008200B68C3F380530B68C3F380530B68C3F39F
S3150200083080530B68C3F380530B6823F080630B600D
S315020008402B6C23F480332B642B6C23F400332B6440
S315020008502B6C23F480232B642B6C23F480132B64E0
S315020008602B6C23F080532B642B6C43F080432B6458
S315020008706B6C23EA0A036B646B6C23F470436B6440
S315020008806B6C03EA09036B646B6C23F070436B6455
S315020008902B6D64F316432B652B6D64F306032B65F0
S315020008A06B6EF02464F30B036B666B6E03EA09034B
S315020008B043F020736B660023AB608B58022423F04F
S315020008C001038B500368B7EE081A64F3030303604F
S315020008D00368B0EE082A23F480330360036809F143
S315020008E0606543F400330360036843F40023036046
S315020008F0036843F480130360036843F08073036064
S31502000900036823F0007303609CED000A8668B8EE64
S31502000910400A20EE011A20EE020A9FEDA02A81EE7D
S31502000920021A80EE020ABCEEC11ABCEEC00A11EE31
S31502000930103A013363F30806866010EE103A8668B1
S315020009402E404FF610750133C4F200056FF35F2394
S3150200095046EA034383604FF64040CFF6FF700B58DA
S315020009606FF31E430B500B5823F000430B5047F610
S31502000970FF730E5826EA03030B500B584FF66046D8
S3150200098023F400430B504FF64440CFF6FF76CFF6E2
S31502000990FF700B5823F040030B500B5823F0300323
S315020009A00B504FF664408D51CFF6FF7000230F2592
S315020009B00B504FF68060CFF6FF700E5865F30606B1
S315020009C00E500E584FF6784546F480360E500E58A5
S315020009D0CFF6FF7546F480360E504FF688404B51DF
S315020009E0CFF6FF700F23C0F203134FF608560B50D3
S315020009F04FF69840CFF6FF70CFF6FF7640F27F357E
S31502000A000B504FF68C60CFF6FF70C1F601658D5123
S31502000A1013230B504FF60860CFF6FF70FC230B50E2
S31502000A204FF62C40CFF6FF7041F802E00A58D20783
S31502000A30FCD188F310884EF2124C4BF29468CEF237
S31502000A40000CC2F20A284CF24836C4F200064FF0F5
S31502000A50C00E0CF804EC0020C8F838004FF48042AF
S31502000A6056F8104C6FF0FF0324F4803446F8104C0D
S31502000A7056F8104C4EF2001444F63215CEF200042B
S31502000A80C4F25335BFF35F8FC4F8802122600CF89D
S31502000A9003ECC8F83C0056F80C2C22F4803246F8D7
S31502000AA00C2C56F80C2CBFF35F8F4FF40042C4F89F
S31502000AB0802122600CF801ECC8F8440056F8042C98
S31502000AC022F4803246F8042C56F8042CBFF35F8FCA
S31502000AD04FF40032C4F8802122600CF802ECC8F808
S31502000AE0400056F8082C22F4803246F8082C56F8B4
S31502000AF0082CBFF35F8F4FF48032C4F88021226046
S31502000B008CF800E0C8F84800326822F4803232607D
S31502000B103268BFF35F8F4FF48022C4F880212260CF
S31502000B20CD504FF0FF3341F8D03C41F8CC3C41F870
S31502000B30C83C41F8C43C8CF800E0C8F8480031686B
S31502000B4021F4803131603168BFF35F8FC4F88021B0
S31502000B5022608CF801E0C8F84C00716821F48031FB
S31502000B6071607168BFF35F8F4FF40021C4F8801182
S31502000B7021608CF802E0C8F85000B16821F4803197
S31502000B80B160B168BFF35F8F4FF48011C4F8801172
S31502000B902160BDEC088BBDE80007F0BDB083854D32
S31502000BA047F240414306C4F234014FF000030A689B
S31502000BB00B600AD1D1F800C00B6041F8100C41F865
S31502000BC00C0C41F8080CC1F800C051F8400C40F07A
S31502000BD0010041F8400C51F8380C40F002030020A5
S31502000BE041F8383C0A60704740F298020146C2F268
S31502000BF0012200201160704747F270004FF0FF316A
S31502000C00C4F2340002684160EFF303804FF0704192
S31502000C1001EB00604CF200318015C4F2000143582A
S31502000C2023F480334350405840F29801C2F2012126
S31502000C300B68002B08BF704780B56F4686B0002050
S31502000C4001210192984706B080BD47F280004FF01D
S31502000C507041C4F234000368D0F810C04360C0F893
S31502000C6014C0EFF3038001EB00604CF200318015F3
S31502000C70C4F20001425822F480324250405840F2F7
S31502000C809801C2F201210A68002A08BF704780B59E
S31502000C906F4686B000200221CDF800C0904706B00C
S31502000CA080BD47F204104CF27F31C4F23400C1F623
S31502000CB0016102680160EFF303804FF0704101EBBE
S31502000CC000604CF200318015C4F20001435823F44F
S31502000CD080334350405840F29801C2F201210B681A
S31502000CE0002B08BF704780B56F4686B000200321EF
S31502000CF0984706B080BD47F20020C4F2340002686D
S31502000D00D1B24160EFF303804FF0704101EB006016
S31502000D104CF200318015C4F20001435823F48033AB
S31502000D204350405840F29801C2F201210B68002B51
S31502000D3008BF704780B56F4686B000200421029234
S31502000D40984706B080BDEFF303804FF0704101EB88
S31502000D5000604CF200318015C4F20001425822F4C0
S31502000D6080324250405847F28421C4F23401086866
S31502000D700A68C2F30722002A1CBF13014B6040F225
S31502000D809801C2F201210B68002B08BF704780B59B
S31502000D906F4686B020F47F4C00200521CDE903C2C0
S31502000DA0984706B080BD47F244414FF07043C4F203
S31502000DB034014CF2003CC4F2000C08680860EFF300
S31502000DC0038203EB0262921552F80C3023F480334D
S31502000DD042F80C3052F80C2051F8402C0A6940F2C5
S31502000DE09802D1F82813C2F20122D2F800C0BCF14F
S31502000DF0000F08BF704780B56F4686B000210022FB
S31502000E0000234FF0000ECDE900EECDF808E0CDE963
S31502000E1003EEE04706B080BD47F244414FF0704210
S31502000E20C4F2340108680860EFF3038102EB016142
S31502000E304CF200328915C4F200028B5823F4803337
S31502000E408B50895840F29802C2F20122D2F800C0B1
S31502000E50BCF1000F08BF704780B56F4686B000210F
S31502000E60002200234FF0000ECDE900EECDF808E097
S31502000E70CDE903EEE04706B080BDF0B503AF2DE93C
S31502000E80000F81B02DED048B8CB0099018461C46DC
S31502000E90B0EE408A91460B911EF04CFB00280146AB
S31502000EA00A905DD04FEA09104FF0000900B208908F
S31502000EB04FF68040DDF824A0C0F20120002500F1A3
S31502000EC0100B07943FE051E903480120CDE9008069
S31502000ED050462246234602F0EEFB00EE104A0B9ED7
S31502000EE0B8EE400A01EE108AB8EE411A20EE089AD0
S31502000EF021EE080A21B23401BCEEC91ABCEEC00AC0
S31502000F0011EE100A10EE103A00010FFA88F200B242
S31502000F101B01CDE9005008981BB204900C2024B2A4
S31502000F20CDE90234002305905046079C02F0F4FBFB
S31502000F30BDEEC90A10EE100A06440B960A9809F18C
S31502000F40010981450CD014F809004522594611F8C9
S31502000F50103C8342B7D0013A01F55671F7D1EDE75D
S31502000F600CB0BDEC048B01B0BDE8000FF0BDB0B50E
S31502000F7002AF82B0002004F0BBFD4BF22005002137
S31502000F80C2F20A25286004F023FE40F20001286816
S31502000F90C6F600014FF480624FF480634FF0010CF5
S31502000FA04FF49664CDE9004C08F0C4FE286800218F
S31502000FB008F009FA28680221032203F083FC286854
S31502000FC0012103F060FC2868FF2103F041FC286838
S31502000FD0012103F0B4FC2868002103F0D0FC286844
S31502000FE0002103F0DCFC002002B0B0BDD0B502AF98
S31502000FF04AF6F87440F20661C2F20A24002220463A
S315020010000AF05BF90A2001210CF0ACFC40F2066101
S31502001010012220460AF051F978204FF47A710CF039
S31502001020A1FC4AF6C8704BF69C41C2F20A20C0F2F5
S3150200103009210BF077FB30B1002040F6072101228F
S315020010400AF03BF900BE05204FF47A710CF08AFCD7
S315020010504AF6C870C2F20A200BF0D8FD30B1002061
S3150200106040F6072101220AF028F900BEC8204FF4F3
S315020010707A710CF077FC4AF6C87040F20001C2F2AF
S315020010800A20C6F6000100220BF017FE4AF6F87097
S3150200109040F20E51C2F20A2001220AF00EF9002095
S315020010A0D0BD80B56F4640F200004FF41611C6F669
S315020010B000001EF008FA80BDB0B502AF82B000781B
S315020010C080074FF0000001902ED040F29C05C2F23C
S315020010D001252C68FFF783F801462046FFF785F8BD
S315020010E04AF62061C2F20A218860FFF778F84BF2CD
S315020010F01C012860C2F20A214EF27960C0F2002079
S3150200110001AB09684FF480620FF035FB60B10198BC
S3150200111050B14EF604504FF08051CEF200000160FD
S31502001120BFF34F8FBFF36F8F40F2A000C2F20120D0
S315020011300178772901D80131017002B0B0BDD0B56E
S3150200114002AF82B04BF22004C2F20A24206807F0F2
S315020011506CFC40F2040040F20001C2F20020C6F626
S3150200116000014FF496124FF4806300784FF0010CA1
S3150200117000FB021120684FF480624FF41674CDE929
S31502001180004C08F0D7FD02B0D0BD80B56F464BF2D9
S315020011902000C2F20A20006807F08AFC40F2040C22
S315020011A04FF49611C2F2002C00229CF8000000288F
S315020011B05FEA1F9340F200008CF80030C6F600008A
S315020011C003FB01014BF62450C0F209200068BDE87A
S315020011D080400BF072BDD4D4F0B503AF2DE9000FF9
S315020011E081B02DED048B8AB04BF21C068046C2F20A
S315020011F00A260021002530680DF0FFF9000400F1EF
S31502001200ED8130684FF480610022012301260096A9
S315020012100DF03CF9FFF793FF4BF2200940F25851CB
S31502001220C2F20A29C2F201214FF4A0724FF4A0734E
S31502001230D9F80000F024CDE9004602F03CFA4FF45A
S3150200124004514FF43052D9F80000CDE90052F02291
S315020012500023CDE902154FF4A07104950C260596DC
S3150200126002F05AFA40F2A205C2F2012528780128B4
S3150200127061D84EF6E803B7EE048AD9F80000C0F248
S3150200128002234FF44D713222B0EE480AFFF7F5FD04
S315020012904FF6BF53D9F80000C0F202234FF44D7146
S315020012A05A22B0EE480AFFF7E8FD4EF2FE73D9F86D
S315020012B00000C0F202234FF44D717822B0EE480AC4
S315020012C0FFF7DBFD4FF28E23D9F80000C0F20223AE
S315020012D04FF44D71C822B0EE480AFFF7CEFD4FF625
S315020012E0BE23D9F80000C0F202234FF44D71E62264
S315020012F0B0EE480AFFF7C1FD40F67B23D9F800009D
S31502001300C0F203234FF44D714FF4AF72B0EE480AA8
S31502001310FFF7B3FD4EF69823D9F80000C0F2022378
S315020013204FF44D714FF4BE72B0EE480AFFF7A5FDB9
S3150200133028780130287040F2A109B8F1000FC2F2F4
S31502001340012900F0998041F6745040F21C1AC2F24B
S315020013500A2040F2F40B40F2CC0440F2A408002624
S31502001360051DC2F2012AC2F2012BC2F20124C2F207
S315020013700128B7EE048A9FED9D9A89F800600CE079
S31502001380013608350AF1020A0BF1020B142E04F19A
S31502001390020408F1020800F0858035F8041C0029D1
S315020013A0EED035F8020C0028EAD009B200EE101A87
S315020013B0B8EEC00A00B201EE100AB5F9000020EE3E
S315020013C0080A02EE100AB5F90200B8EEC22ABDEE0C
S315020013D0C00A22EE082A03EE100AB8EEC11AB8EEC7
S315020013E0C33A10EE100A21EE081ABDEEC20A2830E0
S315020013F023EE082A03EE100AB8EEC33ABDEEC11A6E
S3150200140010EE101ABDEEC20A23EE093A0844B8EEEF
S31502001410C14A11EE101A10EE102A01EE100A24EE3D
S31502001420094A5018BDEEC32AB8EEC11A03EE100AD5
S3150200143099F80000B8EEC33A21EE091A0130BDEE62
S31502001440C40A89F8000023EE093A10EE102ABDEE0E
S31502001450C10A2280BDEEC31A10EE100AABF80000D4
S3150200146011EE100A12EE101AAAF80000F0B2A8F84D
S31502001470001000F0BDF883E741F674500025C2F271
S315020014800A20841C03E001350834142D0AD034F8EE
S31502001490020C0028F7D020880028F4D0E8B200F029
S315020014A0A7F8F0E74AF620604BF2200AC2F20A20B9
S315020014B0C2F20A2A40F68223B7EE048A0469DAF8EF
S315020014C00000C0F203234FF44D714FF48C72B0EE5C
S315020014D0480AFFF7D2FC40F6DF03DAF80000C0F252
S315020014E003234FF44D714FF4D772B0EE480AFFF75B
S315020014F0C4FC48F21F5049F69A12C5F2EB10C1F627
S315020015009912A4FB000144F6D355C1F262054FF0CD
S31502001510300849094FF0303CA1FB0236CDF820C015
S315020015204CF6CD4346F6205CCCF6CC43C0F2730CA7
S31502001530A4FB0330CDF824C0A4FB0535B0EE480A5F
S31502001540C00806EB8603A0FB022608EB95128DF86F
S315020015502020A1EB430106EB860241F0300100EBAD
S3150200156080038DF82110A0EB42004FF48C7240F0FC
S315020015703000A4EB43018DF8220041F030008DF8D3
S315020015802300DAF8000008AB4FF44D71FFF775FC43
S3150200159099F80000CD2243F23003ADF81C30C1B2F7
S315020015A0002351438DF81E3007ABB0EE480ACA0A33
S315020015B008EBD1218DF81C1002EB82024FF44D711B
S315020015C0A0EB42004FF4D77240F030008DF81D00B8
S315020015D0DAF80000FFF751FCFFF7D7FD0AB0BDECC1
S315020015E0048B01B0BDE8000FF0BD00BFCDCC0C40AE
S315020015F0F0B503AF2DE9000F83B04BF22006044687
S31502001600C2F20A2600214FF47F024FF00009306829
S3150200161003F00BF940F2A40040F2CC0A40F2F405C2
S31502001620C2F20120C2F2012AC2F2012530F81410D8
S3150200163030683AF8142035F8143009014FF0200BBF
S3150200164012011B0112B2009209B2CDE901B91BB215
S3150200165007F0C4FE40F21C1835F81410C2F2012835
S315020016603AF814200901306838F81430120109B228
S31502001670CDE901B91B0112B21BB200930B4607F06A
S31502001680ADFE40F2A40035F81410C2F2012038F87B
S3150200169014200901CDE901B930F81430120130687D
S315020016A012B21B0109B21BB2009207F097FE40F27A
S315020016B0A4003AF81430C2F2012038F814201B01B3
S315020016C0CDE901B930F8141012011BB230680901D4
S315020016D012B209B200930B4607F080FE03B0BDE8D2
S315020016E0000FF0BD4BF60061C0F2092107C912686E
S315020016F01047F0B503AF4DF8048D04464BF6006073
S31502001700C0F2092040F24C56C2F20126002281683C
S31502001710056832602046D1F808801DF00BFF0246AC
S3150200172028462146C047044638B1142001F046FD3A
S3150200173000BE02E001200EF05BF830680028F9D006
S3150200174024B11420142401F039FD00E000242046BF
S315020017505DF8048BF0BD007901281BD0022814D055
S3150200176004281DD140F248500022C2F2012001682D
S31502001770B2EB912F18BF70474BF6E052C0F2092226
S315020017805278022A0DD8013109E040F24C50C2F2D9
S31502001790012003E040F24450C2F20120012101601F
S315020017A070470231FBE740F205010079C2F20021DF
S315020017B008707047D0B502AF82B0020A07F80A0C69
S315020017C04AF6C86007F80B2C07F8091CC2F20A2071
S315020017D0A7F10B0103220023002409F0AEFE10B18B
S315020017E0012002B0D0BD40F205014FF6FF70C2F2F1
S315020017F000210C7001380204F2D00A780AB92FF0DF
S3150200180007C8087800220A7001285FEA1F9002B012
S31502001810D0BDF0B503AF2DE9000B82B08846010AB0
S3150200182007F8190C4AF6C86007F81A1CC2F20A2011
S31502001830A7F11A0102220123012509F07EFEB8B999
S3150200184040F205060020C2F200264FF6FF74307001
S315020018504FF6FF700138010409D0317809B92FF02B
S3150200186007C8307801284FF00000307005D10125F5
S31502001870284602B0BDE8000BF0BD4AF6C860012258
S31502001880C2F20A200023414601254FF0000909F061
S315020018904EFE0028ECD186F80090013C2004E6D0EA
S315020018A0307808B92FF007C8307801285FEA1F950B
S315020018B000203070DCE7F0B503AF4DF8048D82B03E
S315020018C04AF6F87580460020C2F20A2507F8120C7D
S315020018D007F8130C40F209710022284609F0EDFCC4
S315020018E064200DF085FF40F209710122284609F0B5
S315020018F0E4FC4AF6A8654BF62841C2F20A25C0F274
S31502001900092128460AF079FB28460AF0F3FC0A2048
S315020019100DF06EFF4AF6C86001A9C2F20A2009F06C
S3150200192017FE9DF80400002800F098804AF6C86069
S315020019303C21C2F20A200122012409F004FEA7F189
S31502001940120143F20A00FFF764FFA7F1130143F203
S315020019500B00FFF75EFF17F8130CA0F140010A20F7
S315020019600C2900F2898041F2030204FA01F11142C4
S3150200197000F0828041F2F0104AF6AA26C0F2032055
S315020019804FF6FF74851C03E028780DF031FF04350D
S3150200199035F8020CB042F7D0A04204D02978FFF7FE
S315020019A009FF0435F4E743F235001221FFF702FF7F
S315020019B043F236008C21FFF7FDFE43F23700132176
S315020019C0FFF7F8FE43F208100121FFF7F3FEA7F135
S315020019D0110144F61400FFF71CFF17F8110C00F072
S315020019E03F0144F6140007F8111CFFF7E3FEB8F1B5
S315020019F0000F18D041F26C604AF6AA25C0F2032005
S31502001A004FF6FF76841C03E020780DF0F1FE0434D5
S31502001A1034F8020CA842F7D0B04204D02178FFF77E
S31502001A20C9FE0434F4E744F202200F21FFF7C2FE96
S31502001A3005200DF0DDFE41F68120C0F20020FFF701
S31502001A40D3F8FEF7EDFBB8B905200DF0D1FE44F24E
S31502001A5002200021FFF7AEFE00200DE04AF6C86024
S31502001A604BF65041C2F20A20C0F2092109F015FDD7
S31502001A7000283FF45BAF642002B05DF8048BF0BD32
S31502001A80B0B502AF82B080034FF00000019043D59B
S31502001A9045F65855C2F203252C68FEF7A0FB01460F
S31502001AA02046FEF7A2FB4AF62061C2F20A2108602E
S31502001AB0FEF795FB4BF21C012860C2F20A214EF298
S31502001AC07960C0F2002001AB09684FF480520EF033
S31502001AD052FE60B1019850B14EF604504FF080515B
S31502001AE0CEF200000160BFF34F8FBFF36F8F40F25B
S31502001AF0515040F27121C2F2012040F25052C2F21C
S31502001B00012248F200030078C6F62503107041430D
S31502001B1003EB0120FFF744F802B0B0BD80B56F4673
S31502001B2048F200004EF20021C6F62500C0F204017A
S31502001B301DF0C9FC40F258504FF41631C2F2012092
S31502001B401DF0C1FC80BD40F2515048F20002C2F2C3
S31502001B500120C6F62502017840F27120484302EBC5
S31502001B60002040F25052C2F201221170FFF718B85B
S31502001B70D0B502AF40F2505C40F20800C2F2012C2E
S31502001B80C2F2002040F2515E48F200049CF80020A6
S31502001B900068C2F2012EC6F62504002A5FEA1F91EA
S31502001BA0431E8EF800101ADB002A5FEA1F9140F2EC
S31502001BB071200122484302EB531EBFF34F8F4EF6AC
S31502001BC05C7304EB0022CEF200031A6020320FF09F
S31502001BD005C0BFF34F8FBFF36F8F9CF80020002A1A
S31502001BE05FEA1F9040F2712140F20C024843C2F2B2
S31502001BF00022126804EB002140F25850C2F2012082
S31502001C001DF06FFCD0BD00284FF0050C18BF00294F
S31502001C1001D1604670479A4203D24FF0030C6046E8
S31502001C207047F0B503AF2DE9000F81B0D7F80CC0AD
S31502001C30BCF1000F33D0D61AD7F808B04FF000091E
S31502001C404FF07E0A06EBD67626F001052844009070
S31502001C50FFE74BF001C804E009F10109E1451ED096
S31502001C60F7E709FB03F0009CB0FBFCF0504304EBE2
S31502001C7040000024B4FBFBF51C4430F81550C5F3B4
S31502001C80C4260AEA151805F01F05454405EB460564
S31502001C9085F0800501F8015B0FF015C0DCE7002036
S31502001CA001B0BDE8000FF0BD4BF2303045F6605191
S31502001CB0C0F20920C2F203210068084470474BF2C1
S31502001CC0383045F66051C0F20920C2F2032100689D
S31502001CD0084470474BF2343045F66051C0F2092091
S31502001CE0C2F2032100680844704700F000B8B0B59C
S31502001CF002AF96B044F290210024C0F20321CDE94E
S31502001D000A1444F2842145F66055C0F20321C2F258
S31502001D1003250028CDE90C54096804914FF4D82113
S31502001D20CDE90E544FF410400790CDE9051105F5A3
S31502001D301031CDE910140BD005F5AB404FF42261FA
S31502001D401DF0C1FB05F558604FF422711DF0BBFB77
S31502001D5005F5AB40CDE912044FF42260089005F573
S31502001D60586041F28461CDE914044FF42270C0F246
S31502001D700321099004A800900A684AF6807041F28D
S31502001D809061C2F20A20C0F203210AAB0625CDE910
S31502001D90015408F00CFC01305FEA1FA016B0B0BD7A
S31502001DA0F0B503AF2DE9000F89B00446D7F808E075
S31502001DB080E80E4000206062C4E907004B680D69A6
S31502001DC007958969D3E9003506915168DEE900066F
S31502001DD008905B68F01702936B680193D1E90013D0
S31502001DE006EBD06C156906EB107003954D685968C1
S31502001DF04FEA201838204FEA6C1B92690492009130
S31502001E00DEF81C100591DEE9039A9DF0BEFA0799E9
S31502001E10C16002990161019941610699C0E90618FA
S31502001E2003214160C0E9081A0399089AC0F800B074
S31502001E30C0E90A150099016304994163B968C0F8BB
S31502001E400890096A6261059AC4E90620383026615B
S31502001E50C4E908002046A16209B0BDE8000FF0BD42
S31502001E60F0B503AF2DE9000F81B02DED088B8CB0D4
S31502001E700446C06800210B91856804F1100190EDBB
S31502001E80050A20462A462B460BAE009600F034F988
S31502001E90E068A16990ED060A304600F037FDDDF8EC
S31502001EA02C90B9F1000F00F0098100EE105A4AF6A3
S31502001EB0AA22B8EEC08A4AF6AB23C0F6AA22A069C5
S31502001EC0B6EE009A9FED8BAACAF6AA23A4460394FD
S31502001ED005E0D9F80090B9F1000F00F0ED80012875
S31502001EE0F7DB99ED040A99ED021A20EE090A99ED3B
S31502001EF0033A4FF0000A31EE002A31EE400A23EE91
S31502001F00091A99ED013AB4EE482AF1EE10FA33EEC7
S31502001F10014AB5EE400A38FE022AF1EE10FAB4EE94
S31502001F20484A48BFB0EE4A0AF1EE10FA33EE411AB9
S31502001F3032EE402AB5EE401A38FE043AF1EE10FAB5
S31502001F4048BFB0EE4A1A33EE413ACDF80890BDEEDC
S31502001F50C11ABDEEC00ABDEEC33A11EE101ABDEEAD
S31502001F60C22A0A9110EE101A099113EE101A08915C
S31502001F7012EE101A079116E00A98CBF80800099893
S31502001F80CBF80C0008988BED00BBCBF81000079835
S31502001F90CBF814000BF118046C60DCF818000AF197
S31502001FA0010A824595DAD9F8141001EB8A0191EDFE
S31502001FB0000AB5EE400AF1EE10FAF0DDDCF8085040
S31502001FC0B7EEC0BAD5E901B08345D5D34E46D5F8AA
S31502001FD00090ABEB09010695C91001FB03F808F165
S31502001FE00101914200F28080A0EB090045F25554AE
S31502001FF0C010C0F255545843B1EB400F38BF4100F0
S31502002000A04251EA32845CB1944270D804EB440097
S31502002010C0009DF0BAF94AF6AB23CAF6AA2300E03D
S31502002020002008EB4801CB4500EBC1020A999160FA
S315020020300999D160089982ED00BB11610799516136
S315020020401AD09046CDE90424ABF1180BA8F1180872
S315020020505E46C646CB4596E83E108EE83E10F3D164
S31502002060069D4AF6AB23DDE9029CCAF6AA23D5F8F9
S3150200207000B0DDE9042404E09046069DDDF80CC0BC
S31502002080B14604EB440102F11804BBF1000FC5F896
S31502002090008000EBC101C5E9014108D058466646F9
S315020020A010F0FBFC4AF6AB23B446CAF6AA234AF65C
S315020020B0AA22C0F6AA226FE70B9C6CB901200CB0CB
S315020020C0BDEC088B01B0BDE8000FF0BD204610F054
S315020020D0E4FC002D2C46F1D0606925680028F5D075
S315020020E0A06110F0DAFCF1E7069800F0A9FA00F018
S315020020F09FFA00BF00000000F0B503AF2DE9000F04
S3150200210081B02DED108B96B08A46D1E9030181424A
S3150200211000F00A82B0EE408A0EAE00EE102ADAF81D
S315020021200890B8EEC0EA103600EE103A09F105053D
S31502002130B8EEC0FA0196DFEDE98A002600220B927C
S315020021400895CDF830900CE0DAF810100A1A46F627
S31502002150B7539210CBF2DB635A430136964280F0B4
S31502002160E381C6EBC60B50F82B20012AEEDB00EB0F
S315020021708B0100EE102AF8EEC09A002349680591F9
S315020021801146CDE9022607E050F82B10049BDDE943
S31502002190022601338B42D7DA0129FADB00EE103A26
S315020021A003FB02F1F8EEC0AA04930023069105E0B0
S315020021B050F82B10079B01338B42E5DA00EB8B01BB
S315020021C0079349680129F3DB069900EE103A194490
S315020021D0059AF8EEC0BA51430024099108E0444634
S315020021E0DAF80C00013400EB8B0149688C42DFDA25
S315020021F000EB8B000999A0460C44C16890ED051AC4
S3150200220004FB0511B8EEC11A91F9041000EE101A7A
S31502002210B8EEC00A30EE410A90ED041A21EE000A29
S3150200222000F0F1FCB4EE480AF1EE10FAD7DDDAF866
S315020022300C0004FB05F600EB8B00002512951395A6
S3150200224014958DED150AC168B0EE409A90ED051A07
S3150200225090ED043A8A57314400EE102A91F9012092
S31502002260B8EEC11A02EE102A91F90200B8EEC22A9D
S3150200227091F90310B8EEC00A32EE412A30EE410A55
S3150200228023EE02AA02EE100A04EE101AB8EEC22AD1
S31502002290B8EEC44A23EE000A32EE412A34EE411A5F
S315020022A023EE02BA23EE01CA00F0ADFCB0EE40DA2C
S315020022B0B0EE4A0A00F0A7FC30EE2A0A3DEE2B1ACF
S315020022C080EE29AA8DED0FAAB0EE4B0A81EE29DA2D
S315020022D08DED0EDA1CF0F6FFDAF80C0000EB8B003F
S315020022E0806800EBC80090ED001A20EE010A9AED14
S315020022F0001AB8EEC11A80EE01BA8DED10BAB0EE30
S315020023004C0A1CF0DFFFDAF80C00B9F1010F00EB02
S315020023108B00CDF82880806800EBC80090ED011A8A
S3150200232020EE010A9AED011AB8EEC11A80EE010AF0
S315020023308DED110AC0F28A8000240D9605E0A5EC07
S3150200234001AA013413954C4576D0DAF80C0000EB5D
S315020023508B00C16890ED051A3144B8EEC11A2144CA
S3150200236091F9051000EE101AB8EEC00A30EE410AD5
S3150200237090ED041A21EE000A00F045FC29EE000A4F
S315020023801498B4EE480AF1EE10FA30FE28AA8542F5
S31502002390D5D35E46DDF848B0D146A5EB0B0A01213E
S315020023A001EBAA08B8F1804F80F0C580A0EB0B00C4
S315020023B04FF6FC71C7F6FF71B8EB600F38BF4FEAF4
S315020023C06008884228BF6FF04048B8F1000F08D075
S315020023D0B8F1804F80F0B2804FEA88009CF0D5FFBA
S315020023E000E000204FEAAA015D4500EB810282ED82
S315020023F000AA0FD0AAF104010123B34603EB910E02
S31502002400134655F8041D43F8041D0FF007C0129930
S31502002410CA4603E029461346CA46B346151DDDF8E9
S31502002420309000EB88001293CDE9135011B10846A3
S3150200243010F033FB0D9E84E79DED0EDA9DED0FAA9B
S315020024409DED10BA9DED110A0A9C00E044462DEE60
S315020024500E1ADAF818008DED0E1A2BEE0E1A0B99DB
S315020024608DED101A2AEE0F1A814220EE0F0A8DED1B
S315020024700F1A8DED110AA8BF012831DAB86804686F
S3150200248024209CF082FF06460EAB0FCBC6E9004025
S31502002490129C3046B160A542C6E903234FF0000103
S315020024A040F8141FC6E9061111D02D1BB5F1FF3FE6
S315020024B046DD28469CF069FF21462A46706100EBFC
S315020024C00508C6F81C801DF00CF8C6F81880159889
S315020024D03062B868089D0A9C066016E0000000009B
S315020024E00B99089D814214D1B8680021006828B171
S315020024F00246126801310AB12FF005C800F0B0F8A1
S31502002500B9680EAA086000F01DF80B9801300B900E
S3150200251003E0B9680EAA00F015F8129800283FF4F5
S315020025205FAE10F0BAFA5BE616B0BDEC108B01B0E6
S31502002530BDE8000FF0BD019800F08AF800F078F8C7
S3150200254000F086F8F0B503AF2DE9000F81B00868F8
S315020025508846154658B195ED070A90ED081AB4EE6D
S31502002560401AF1EE10FA05DD002401460EE00024C1
S3150200257000210BE001460C4609680029F8D091EDCE
S31502002580081AB4EE401AF1EE10FAF4DD814240D098
S315020025902420D4F800A09CF0F8FE0646D5E9049162
S315020025A095E80D10C6E900A006F10800494580E845
S315020025B00C1030464FF00002C6E9062240F8142FEE
S315020025C012D0A1EB090ABAF1FF3F26DD50469CF074
S315020025D0DCFE49465246706100EB0A0BC6F81CB097
S315020025E01CF07FFFC6F818B0E86930622660D8F89A
S315020025F000402068C8F80000606910B1A06110F0C0
S315020026004CFA204601B0BDE8000FBDE8F04010F0DC
S3150200261044BA01B0BDE8000FF0BD00F019F880B56C
S315020026206F4601464FF29510C0F202201BF088F960
S3150200263080B56F4640F69170C0F203201BF080F918
S3150200264080B56F4640F2E330C0F20320FFF7E7FFA2
S3150200265080B56F4640F2E330C0F20320FFF7DFFF9A
S31502002660022938BF7047F0B503AF4DF804BD0FD14C
S3150200267002460068114690ED080A92ED081AB4EE79
S31502002680410AF1EE10FA3AD5016000220A6066E0CC
S3150200269001EBD1720B4604294FEA6201A3EB6204F5
S315020026A0024609DB4A1E012A28BF0122A1EB020EBD
S315020026B0024612680FF003C8166800231360FFF77C
S315020026C0CFFF054630462146FFF7CAFF002D46D00A
S315020026D0B8B190ED081A95ED080AB4EE401AF1EE7B
S315020026E010FA10D501460A46096831B191ED081A69
S315020026F0B4EE401AF1EE10FAF5D4156005E008467C
S315020027002DE028462BE00146284600295FEA0F9372
S315020027102AD02A6802B391ED081A92ED080AB4EE9D
S31502002720401A1446F1EE10FA0DD50B461A461B68EE
S3150200273033B193ED081AB4EE401AF1EE10FAF5D45D
S31502002740296011681460226800295FEA0F9322B19A
S31502002750254611B12FF021C82C4603B121605DF840
S3150200276004BBBDE8F04070472C46002BF6D1F6E7D5
S31502002770F0B503AF4DF8048DACB0FFF795FA41F60C
S3150200278018614FF41042C2F20A211CF0AAFEFDF7AC
S3150200279026FD2B9000200026FFF7A7FAFDF71FFD66
S315020027A02A902A982B99401A29902B982A99FDF754
S315020027B01CFD4AF62061C2F20A210861FFF77FFA80
S315020027C00446FFF787FAC021CDE91D111F914BF28E
S315020027D03C31C0F2092120914BF2543140F20922D8
S315020027E0CDE9110641F66C50C0F20921ADF8702010
S315020027F0ADF85020C2F20A204CF6D16221914FF078
S315020028007C51C3F63D62229146F2666141F66053FF
S31502002810426041F67052C3F6E661C2F20A23C2F280
S315020028200A2223910121CDE924160A251591169330
S315020028305560269683E8450002A80DAACDE90D1338
S3150200284015A926AB289627961B96CDE919461DADE6
S315020028508DF8726013968DF852600095FFF7A0FA14
S31502002860FFF7FEFA804680B30024A5B200210022BB
S3150200287000232846009600F061FA132D04F10104A4
S31502002880F3D3DDE92601814231D04AF6AB25002198
S31502002890CAF6AA25002601EB410100EBC100B0F9F8
S315020028A00810B0F90C20B0F91030B0F91440B0B2EB
S315020028B0009400F043FADDE926010136091ACA102E
S315020028C0B1B26A438A42E6D811E04FF29820C0F2CA
S315020028D0022000F063FC4EF60600C0F2022000F071
S315020028E05DFC4FF66610C0F2022000F057FC099814
S315020028F010B10A9010F0D1F8269810B1279010F076
S31502002900CCF840462CB05DF8048BF0BD0129B8BF67
S315020029107047F0B503AF2DE9000B2DED068B82B0A3
S315020029208946B0EE408A054600260DF10408B6EE49
S31502002930009A9FED57AA002403E001344C4500F0AB
S315020029409E8028680021019628B10246126801314C
S315020029500AB12FF005C8424600F09CF8286020B95B
S31502002960EBE7016800290846E7D0416901EB8401DB
S3150200297091ED000A0168B5EE400AF1EE10FAF1D0C7
S3150200298049B9DAE7B4EE485AF1EE10FAC8BF166052
S3150200299009680029E5D04A6902EB840292ED000A31
S315020029A0B5EE400AF1EE10FAF2D090ED030A91ED7F
S315020029B0031A20EE092A90ED014A21EE093A91ED19
S315020029C0015A34EE426A35EE437A34EE022AB4EE06
S315020029D0476AF1EE10FA35EE033AB0EE4A5AB4EE11
S315020029E0423A36FE074AF1EE10FA32FE032A32EE78
S315020029F0443AB5EE403AF1EE10FAC3D490ED042A09
S31502002A0091ED044A22EE095A90ED027A24EE096A01
S31502002A10D1ED020A77EE451A70EEC62A37EE055A4E
S31502002A20F4EE621AF1EE10FA30EE866AB4EE456AF8
S31502002A3031FEA27AF1EE10FA35FE065A35EE476AF3
S31502002A40B0EE4A5AB5EE406AF1EE10FA9AD423EE87
S31502002A50063AB0EE4A5AB5EE403AF1EE10FA91D085
S31502002A6021EE041AA0EE021A31EE430AB5EE400A2E
S31502002A70F1EE10FA83EE000A0AFE005A82E702B06D
S31502002A80BDEC068BBDE8000BBDE8F040704700BF09
S31502002A9000000000022938BF7047F0B503AF2DE9E8
S31502002AA0000B16D1034600681268194646695B692F
S31502002AB006EB820603EB820296ED000A92ED001AFD
S31502002AC0B4EE410AF1EE10FA4BDD016000220A6013
S31502002AD086E001EBD1730E4604294FEA6301A6EBA9
S31502002AE06308034609DB4B1E012B28BF0123A1EB1A
S31502002AF0030E03461B680FF003C800251E681D60FF
S31502002B001546FFF7C7FF8146304641462A462C4600
S31502002B10FFF7C0FFB9F1000F62D020B32368416905
S31502002B20D9F81460A44601EB830106EB830691ED06
S31502002B30001A96ED000AB4EE401AF1EE10FA14DD10
S31502002B4001460E46096849B14D6905EB830595EDC7
S31502002B50001AB4EE401AF1EE10FAF2DCC6F8009052
S31502002B6005E008463CE048463AE001464846002968
S31502002B705FEA0F9539D0D9F8003073B3DCF80060FC
S31502002B801C464B6903EB8603656905EB860593EDE7
S31502002B90001A95ED000AB4EE401AF1EE10FA13DDB2
S31502002BA00B461D461B684BB15A6902EB860292ED33
S31502002BB0001AB4EE401AF1EE10FAF2DCC9F800106F
S31502002BC029682C60DCF80060236800295FEA0F950B
S31502002BD023B1A14611B12FF02DC84C4605B1216093
S31502002BE0BDE8000BBDE8F04070474C46002DF6D11B
S31502002BF0F6E780B56F46FFF7BBFD0221002818BF36
S31502002C000021084680BD80B56F46B1EE400A1CF031
S31502002C1059FBB7EE001A30EE010A81EE000A80BDBA
S31502002C20B0B502AFD0B100F01F020A44B2F12003E0
S31502002C3058BF00230129B8BFB0BDD94311440122B0
S31502002C40BFF34F8F02EB511E4EF68051CEF20001BA
S31502002C50C1F8E80120300FF005C823E04EF6805097
S31502002C600021CEF2000043F6E07C4160BFF34F8FB5
S31502002C700268C2F34E31D308C2F3C902541C9A0742
S31502002C804B0103EA0C0544F001E01544C0F8EC518F
S31502002C9005F140450FF007C00029A1F10101A3F19A
S31502002CA02003EED1BFF34F8FBFF36F8FB0BDB0B528
S31502002CB002AFD0B100F01F020A44B2F1200358BF9E
S31502002CC000230129B8BFB0BDD94311440122BFF385
S31502002CD04F8F02EB511E4EF68051CEF20001C1F823
S31502002CE0DC0120300FF005C823E04EF680500021AB
S31502002CF0CEF2000043F6E07C4160BFF34F8F0268DC
S31502002D00C2F34E31D308C2F3C902541C9A074B01CF
S31502002D1003EA0C0544F001E01544C0F8E05105F160
S31502002D2040450FF007C00029A1F10101A3F12003DC
S31502002D30EED1BFF34F8FBFF36F8FB0BD132888BF9D
S31502002D407047D0B502AF41F6745CBC68C2F20A2C79
S31502002D500CEBC00E2CF83010AEF80220AEF80430A0
S31502002D60AEF80640BDE8D040704780B56F4682B0E7
S31502002D704BF21C060321C2F20A26002201234FF05F
S31502002D80FF383068CDF800800BF080FB40F214006B
S31502002D904BF67C41C2F20020C0F2092107F0B5FDD4
S31502002DA0306804210BF010FB42F61B60C0F20020D3
S31502002DB007F098F8306808210BF006FB41F67454C8
S31502002DC0C2F20A2407E030684FF480410BF0FCFAA5
S31502002DD019200CF00DFD30684FF400510122012339
S31502002DE0CDF800800BF052FB00204FF4C0610122A7
S31502002DF008F063FAA02120461CF065FBFFF7F9FEF6
S31502002E00054600204FF4C061002208F056FA022D52
S31502002E10D9D1022000F0D2F9D5E71AF093BE80B5D7
S31502002E206F4684B0FEF75EFC10B1132000F0C6F9BF
S31502002E3000F0BDFA10B1162000F0C0F94AF6F8709B
S31502002E404FF48471C2F20A20002208F036FAFEF725
S31502002E5028F9FEF78CF810B10A2000F0AFF9FEF758
S31502002E60C5F84BF21C05C2F20A2518B10A2000F079
S31502002E70A5F903E0286801210BF0A6FAFEF74EFE3B
S31502002E800020FEF718FD18B10F2000F097F903E0B5
S31502002E90286802210BF098FAFDF772F9FDF786F918
S31502002EA04FF0FF31286800910F21002201230BF019
S31502002EB0EDFAFEF748FE41F618604AF6186AC2F2C3
S31502002EC00A204AF61C684AF6206B4EF6687900F02C
S31502002ED01F00C2F20A2AC2F20A28C2F20A2BC02430
S31502002EE0CEF20009411E029160F01F0003902BE012
S31502002EF0BFF34F8FBFF36F8FFDF771F9C8F800006C
S31502002F00DAF80000D8F80010FDF76FF9CBF80C00DC
S31502002F1028684FF400510BF057FA01200CF068FCB8
S31502002F20286800210BF069FBC0F3803628684FF44D
S31502002F3080410BF062FB3046FEF74EF9304600F058
S31502002F4050F814200CF054FC28684FF480510122EA
S31502002F5001234FF0FF3600960BF098FAFDF73FF982
S31502002F60CAF80000FEF704FEFDF739F9C8F80000BA
S31502002F70DAF80000D8F80010FDF737F9CBF80400AC
S31502002F80FDF72DF9CAF8000048F2000041F6186173
S31502002F904FF4A072F023C6F62500C2F20A21CDE94B
S31502002FA00044FEF730FE40F210000399C2F2002000
S31502002FB000220068091851EA428101289CDB029A24
S31502002FC01044401A0121BFF34F8F01EB501E41F608
S31502002FD01860C2F20A20C9F8000020300FF005C8B6
S31502002FE086E7F0B503AF2DE9000B84B040F2441535
S31502002FF04EF61E01C2F2012540F68A5240F6E7035A
S315020030008046C0F20221C0F20322C0F20323284600
S315020030101AF0F8FD2846FEF76CFB4BF26C311522CE
S31502003020C0F2092128461CF05CFA2846FEF761FB2D
S315020030304AF62064C2F20A2426683046FDF7DEF814
S315020030404FF2A1210346C0F20221284632461AF067
S31502003050D9FD2846FEF74DFB66683046FDF7CEF8E9
S315020030604EF6EF510346C0F20221284632461AF0C6
S31502003070C9FD2846FEF73DFBE6683046FDF7BEF879
S3150200308040F2E3010346C0F20321284632461AF013
S31502003090B9FD2846FEF72DFB26693046FDF7AEF848
S315020030A04EF616710346C0F20221284632461AF03F
S315020030B0A9FD2846FEF71DFBA6683046FDF79EF8D9
S315020030C04FF6C4210346C0F20221284632461AF0C0
S315020030D099FD2846FEF70DFB4BF290611922C0F2CC
S315020030E0092128461CF0FDF92846FEF702FB40F2AC
S315020030F04410B8F1000FC2F2012005D04BF2944100
S315020031000F22C0F2092104E04BF684211922C0F2F3
S3150200311009211CF0E6F940F24419C2F20129484697
S31502003120FEF7E7FA41F6745040F2EA38C2F20A2094
S315020031300025061DC0F20328002436F9043CA3B17B
S3150200314036F9020C36F9081B36F9062C01348DE8DD
S315020031500700484641462A461AF054FD4846FEF7FD
S31502003160C8FA0135142DE8D100E01CB104B0BDE85F
S31502003170000BF0BD40F244144BF63431C2F2012486
S31502003180C0F20921412220461CF0ABF9204604B0C8
S31502003190BDE8000BBDE8F040FEF7ABBAD0B502AF12
S315020031A040F244140146C2F2012420461AF02AFDD6
S315020031B02046FEF79EFA0020D0BDD4D40138152849
S315020031C000F2F38080B56F46DFE800F00B785064BA
S315020031D03396B46ED246C8293DAA1F5A1582BEDC62
S315020031E08CA040F244104BF6BC11C2F20120C0F290
S315020031F009213722CFE040F244104BF2F861C2F2C5
S315020032000120C0F209215122C5E040F244104BF2DE
S315020032102841C2F20120C0F209215022BBE040F24D
S3150200322044104BF24C61C2F20120C0F20921422243
S31502003230B1E040F244104BF20451C2F20120C0F256
S3150200324009214722A7E040F244104BF24C71C2F228
S315020032500120C0F209219DE040F244104BF6F41120
S31502003260C2F20120C0F209215A2294E040F244102F
S315020032704BF2A451C2F20120C0F2092141228AE096
S3150200328040F244104BF29031C2F20120C0F2092101
S31502003290502280E040F244104BF66C11C2F201203B
S315020032A0C0F20921422276E040F244104BF2E031AC
S315020032B0C2F20120C0F2092148226CE040F2441019
S315020032C04BF65401C2F20120C0F209213E2262E00D
S315020032D040F244104BF6A021C2F20120C0F20921AD
S315020032E04F2258E040F244104BF2F471C2F2012030
S315020032F0C0F2092152224EE040F244104BF2AC7168
S31502003300C2F20120C0F20921462244E040F24410F2
S315020033104BF24C51C2F20120C0F2092156223AE088
S3150200332040F244104BF69401C2F20120C0F2092188
S315020033305C2230E040F244104BF2AC61C2F2012052
S31502003340C0F209214A2226E040F244104BF6F0016F
S31502003350C2F20120C0F2092153221CE040F24410BD
S315020033604BF69431C2F20120C0F20921422212E048
S3150200337040F244104BF2F451C2F20120C0F209218C
S31502003380552208E040F244104BF2B041C2F201204D
S31502003390C0F2092154221CF0A4F840F24410C2F2F1
S315020033A00120FEF7A6F9BDE8804000BE704780B551
S315020033B06F464AF6E8704BF64C51C2F20A20C0F24A
S315020033C0092108F063FD98B94AF6D8704BF63451D4
S315020033D0C2F20A20C0F2092108F058FD002818BFDF
S315020033E080BD4AF6E870C2F20A2008F09DFD00B1DF
S315020033F080BD4AF6D870C2F20A20BDE8804008F0C5
S3150200340093BDD0B502AF82B04BF21C040020C2F2CB
S315020034100A24019020680BF026F90004216818D4CA
S315020034204EF2796001ABC0F200204FF400420DF07B
S31502003430A2F960B1019850B14EF604504FF0805196
S31502003440CEF200000160BFF34F8FBFF36F8F02B061
S31502003450D0BD4EF27D604FF40042C0F20020002340
S3150200346002B0BDE8D0400DF086B97047022818BFF9
S31502003470704780B56F464AF6F8704CF2CC11C2F22C
S315020034800A20C0F2092107F00CFF0120BDE88040A6
S315020034900AF05EBB80B56F4684B04BF27C004BF6F9
S315020034A0E433C2F20A204AF6346C4FF6584EC0F2A2
S315020034B0092301684FF48052013101600220009015
S315020034C043F2015040F29371C0F20020C0F2032190
S315020034D0C2F20A2CC2F20A2ECDE901EC0BF017FF5A
S315020034E04AF6A4610028C2F20A2108601CBF04B091
S315020034F080BD0020002104B0BDE8804000F062B823
S31502003500D0B502AF044600F05FF82046BDE8D040D1
S31502003510FFF72BBC80B56F4684B04BF27C004BF6AE
S315020035207843C2F20A204AF6087C43F6584EC0F2A5
S31502003530092301684FF40062013101600120009005
S3150200354043F281504FF2CD71C0F20020C0F2022147
S31502003550C2F20A2CC2F20B2ECDE901EC0BF0D7FE19
S315020035604AF678710028C2F20A2108601CBF04B02C
S3150200357080BD0020002104B0BDE8804000F022B8E2
S31502003580D0B502AF044600F01FF82046BDE8D04091
S31502003590FFF745BC80B56F464BF20000C2F20A2027
S315020035A00AF0DFFE4BF21C010028C2F20A21086073
S315020035B018BF80BD00200021BDE8804000F002B89F
S315020035C0FFF7E8BF00BE7047B0B502AF4BF2740416
S315020035D04FF0FF31C2F20A2420680BF04AFD01289F
S315020035E003D020680021FFF7EDFF4BF27800C2F20C
S315020035F00A200178002918BFB0BD01210170FFF72A
S31502003600DFFF4BF27C05C2F20A25286801382860E2
S315020036100CD020680021002200230BF09FF901281C
S31502003620F3D020680021FFF7CDFFEEE7B0BD80B5ED
S315020036306F464BF278024BF27C00C2F20A22C2F2C9
S315020036400A20002111704BF280020160C2F20A22A6
S315020036504FF4807001210BF033F94BF27401C2F280
S315020036600A21086018B900200021FFF7ABFFFFF717
S3150200367051FFFFF70FFF0CF077F9002080BD4BF2E8
S31502003680C80C4BF23813C2F20A2CC2F20A23C0F853
S3150200369000C00B608020106070474BF2383C4BF242
S315020036A0A833C2F20A2CC2F20A23C0F800C00B6089
S315020036B0802010607047D0B502AFD7F80CC05FEA21
S315020036C0CC6E04D590F882E05FEA0E6E17D55FEAFB
S315020036D08C6E04D590F882E05FEA8E6E0FD52CF0E0
S315020036E0300EAEF10D0EBEF1020F0DD8D0F880E00D
S315020036F05FEACE3408D40EF0FE04092C04D8092160
S3150200370080F8C6110920D0BD406ABC6800F5B470C5
S3150200371080E81E100020D0BDF0B503AF2DE9000FE2
S315020037208DB0446A8246D7F808C0D7F81C90D4E90F
S315020037305B060CEB020ED4F87451B0F5006F03EB86
S3150200374001009346A8BF29F00809B04208460C9327
S31502003750C8BFF01AAE45DAF830800590C8BFA5EBAF
S315020037600C0BB8F1000F5FEA0F9019F4807F5FEA45
S315020037701080E37DD4F8785101280B90CDE9091227
S3150200378074D188F8003094F80E0188F8020094F893
S31502003790D50088F80100D4F8FC00C8F80400D4F873
S315020037A00001C8F80800D4F82C01C8F80C0094F8F7
S315020037B0E90088F82900D4F83801C8F81000D4F8CE
S315020037C03401C8F8140094F8E80088F82800D4F800
S315020037D0EC00C8F81800D4F8F000C8F81C00D4F8B9
S315020037E0F400C8F82000D4F8F800C8F8240094F8C9
S315020037F0EA0088F82A0094F8EB0088F82B00D4F83F
S315020038003C01C8F82C00D4F84001C8F83000D4F8BE
S315020038102401C8F83400D4F85801C8F83800D4F89E
S315020038205C01C8F83C00B4F8A800A8F85400B4F843
S31502003830AA00A8F85600D4F8A000C8F84C00D4F89C
S31502003840A400C8F85000D4F89800C8F84400D4F888
S315020038509C00C8F84800D4F8B000C8F85C00D4F858
S31502003860B400C8F860000020069000E00693032129
S31502003870504600F0B5FF00210022504606F07BF8C4
S31502003880E806089500F15580D4F87801002620F064
S315020038903000422800F27080DFE810F043005B003F
S315020038A065005B005B00880165005B005B0043000E
S315020038B04300430043004300430043006E006E0092
S315020038C06E006E006E006E006E006E006E006E0080
S315020038D06E006E006E006E006E006E006E006E0070
S315020038E06E006E006E006E006E006E006E006E0060
S315020038F06E006E006E006E006E006E006E006E0050
S315020039006E006E006E006E006E006E006E006E003F
S315020039106E006E006E006E006E006E0065005B004B
S315020039205B00D4E95A010C9A1044BA6801FB0206FC
S3150200393022E009F00F015046D4F8686105F0EFFE67
S31502003940D4E95D01D4E95B23CDE900015046314655
S3150200395020E0D4E95A01BA6851430C9A00EB4200BE
S3150200396000EB410608E0D4E95A01BA6851430C9AC1
S3150200397000EB820000EB810609F00F01504605F0CC
S31502003980CEFED4F87801D4F86C21CDE900B05046C9
S315020039903146059B05F064FD4FEA09604FF07F4111
S315020039A001EAE0705FEA896109F0A001FB6858BF8D
S315020039B04FF07F40A03918BF4FF07F415FEAC962DE
S315020039C0DDE9095C05D45FEA496207D46FF07F42FC
S315020039D007E05FEA4962A26801D402E0A2681043E6
S315020039E0E268114394F80E21D7F810B0112BC4E9FE
S315020039F0560142F0050084F80E01CDF81CA005D34D
S31502003A0098B22905B1FBF0F14B0802E04FF4803180
S31502003A100023D7F818E0BBF1110FD7F814A007DB83
S31502003A204FEA0C521FFA8BF6B2FBF6F6720802E068
S31502003A304FF48036002219F4007018BFC3EB054319
S31502003A4051EA01B019F48061089956EA06B618BF20
S31502003A50C2EB0C425FEA497501F0100148BFA3F5BB
S31502003A6000435FEA097548BFA2F5004200290C9996
S31502003A7018BF03EB0143B968754618BF02EB014252
S31502003A80CDE900200020DDF81C905146CDE9020068
S31502003A9048467246049605F04CFFF868CDE9000BDD
S31502003AA04846214652462B4600F029FC0B98002830
S31502003AB073D098F80000E07598F8020084F80E01B9
S31502003AC098F8010084F8D500D8F80400C4F8FC0080
S31502003AD0D8F80800C4F80001D8F80C00C4F82C0184
S31502003AE098F8290084F8E900D8F81000C4F83801DB
S31502003AF0D8F81400C4F8340198F8280084F8E800CD
S31502003B00D8F81800C4F8EC00D8F81C00C4F8F00085
S31502003B10D8F82000C4F8F400D8F82400C4F8F80055
S31502003B2098F82A0084F8EA0098F82B0084F8EB004B
S31502003B30D8F82C00C4F83C01D8F83000C4F840018B
S31502003B40D8F83400C4F82401D8F83800C4F858016B
S31502003B50D8F83C00C4F85C01B8F85400A4F8A800F0
S31502003B60B8F85600A4F8AA00D8F84C00C4F8A00089
S31502003B70D8F85000C4F8A400D8F84400C4F8980055
S31502003B80D8F84800C4F89C00D8F85C00C4F8B00025
S31502003B90D8F86000C4F8B40003E04846069900F07D
S31502003BA01FFE00200DB0BDE8000FF0BD9AF882009E
S31502003BB0800603D409208AF8C601F3E71020C0F272
S31502003BC00400C4F82C01012084F8E900A9E6F0B546
S31502003BD003AF2DE9000F83B0BE688146002E4FF079
S31502003BE0000000F093828846F9680129C0F28E82AD
S31502003BF022F00F001644ADF8040023F00F00ADF8D2
S31502003C000600701E5C1820F00F00ADF80800601E5A
S31502003C1020F00F00ADF80A0001A948469B4615465A
S31502003C2006F02DF9B8B1A6F11000A4F110010FFAB1
S31502003C3080FA48460CB2414604F0B4FF98F8D50023
S31502003C4081074FEAC07008D4002840F01C8101AAFF
S31502003C50002300202EE2002058E2002840F01381C3
S31502003C604AEA050044EA0B0100074FEA017000F038
S31502003C705182BDF904104FF480320028A1EB0501F0
S31502003C8040F20005CFF6FF7502EB0131D9F8B821F3
S31502003C9002F10803C9F8B8314FF00403C2E9003152
S31502003CA0D9F8BC11A1F10100C9F8BC0100F0B28239
S31502003CB0012903DCD9F8C01148468847D9F8B8016A
S31502003CC04FF4803200F10801C9F8B8110A21C0E99F
S31502003CD00012D9F8BC010138C9F8BC0103DCD9F8D5
S31502003CE0C01148468847D9F8B801002200F10801F8
S31502003CF0C9F8B8111021C0E90012D9F8BC0101387F
S31502003D00C9F8BC0103DCD9F8C01148468847BDF999
S31502003D1004004FF48031AAEB000001EB0030D9F821
S31502003D20B81101F10802C9F8B8210522C1E900203B
S31502003D30D9F8BC010138C9F8BC0103DCD9F8C011B5
S31502003D4048468847D9F8B80100F10801C9F8B81100
S31502003D500B21C0E90015D9F8BC010138C9F8BC012C
S31502003D6003DCD9F8C01148468847D9F8B8010022C1
S31502003D7000F10801C9F8B8111121C0E90012D9F8F9
S31502003D80BC010138C9F8BC0103DCD9F8C0114846A8
S31502003D908847BDF906004FF48031A0EB0B0001EB1A
S31502003DA00030D9F8B81101F10802C9F8B821062283
S31502003DB0C1E90020D9F8BC010138C9F8BC0103DC0D
S31502003DC0D9F8C01148468847D9F8B801002200F14F
S31502003DD00801C9F8B8110C21C0E90012D9F8BC01D2
S31502003DE00138C9F8BC0103DCD9F8C0114846884736
S31502003DF0D9F8B8014FF4803600F10801C9F8B811B4
S31502003E001221C0E90016D9F8BC010138C9F8BC0173
S31502003E1003DCD9F8C01148468847BDF90600D9F82F
S31502003E20B81101F10802C9F8B821201A072206EBD7
S31502003E300030C1E90020D9F8BC010138C9F8BC013B
S31502003E4003DCD9F8C01148468847D9F8B8010022E0
S31502003E5000F10801C9F8B8110D21C0E90012D9F81C
S31502003E60BC010138C9F8BC0103DCD9F8C0114846C7
S31502003E708847D9F8B80100F10801C9F8B811132129
S31502003E80C0E9001509E1BDF90400D8F81011401B7C
S31502003E90484301EB1010D9F8B81101F10802C9F82C
S31502003EA0B8210422C1E90020D9F8BC010138C9F8B9
S31502003EB0BC0103DCD9F8C01148468847D9F8B811C5
S31502003EC0D8F8100101F10802C9F8B8210A22C1E99D
S31502003ED00020D9F8BC010138C9F8BC0103DCD9F8C5
S31502003EE0C01148468847D9F8B801002200F10801F6
S31502003EF0C9F8B8111021C0E90012D9F8BC0101387D
S31502003F00C9F8BC0103DCD9F8C01148468847BDF997
S31502003F100400D8F81011AAEB0000484301EB101078
S31502003F20D9F8B81101F10802C9F8B8210522C1E988
S31502003F300020D9F8BC010138C9F8BC0103DCD9F864
S31502003F40C01148468847D9F8B811D8F8100101F1CE
S31502003F5008024042C9F8B8210B22C1E90020D9F86B
S31502003F60BC010138C9F8BC0103DCD9F8C0114846C6
S31502003F708847D9F8B801002200F10801C9F8B8113A
S31502003F801121C0E90012D9F8BC010138C9F8BC01F7
S31502003F9003DCD9F8C01148468847BDF90600D8F8AF
S31502003FA01011A0EB0B00484301EB1010D9F8B81121
S31502003FB001F10802C9F8B8210622C1E90020D9F8A0
S31502003FC0BC010138C9F8BC0103DCD9F8C011484666
S31502003FD08847D9F8B801002200F10801C9F8B811DA
S31502003FE00C21C0E90012D9F8BC010138C9F8BC019C
S31502003FF003DCD9F8C01148468847D9F8B811D8F871
S31502004000100101F10802C9F8B8211222C1E9002003
S31502004010D9F8BC010138C9F8BC0103DCD9F8C011D2
S3150200402048468847BDF90600D8F81011201A4843B9
S3150200403001EB1010D9F8B81101F10802C9F8B8213C
S315020040400722C1E90020D9F8BC010138C9F8BC0130
S3150200405003DCD9F8C01148468847D9F8B8010022CE
S3150200406000F10801C9F8B8110D21C0E90012D9F80A
S31502004070BC010138C9F8BC0103DCD9F8C0114846B5
S315020040808847D9F8B811D8F8100101F10802404260
S31502004090C9F8B8211322C1E90020D9F8BC010138B8
S315020040A0C9F8BC0103DCD9F8C0114846884701AA01
S315020040B004230F2000904846414602F061F901AE02
S315020040C005460023484641463246002404F0B9FA22
S315020040D0002348464146324605F07DFCD9F8B80130
S315020040E000F10801C9F8B811C0E90045D9F8BC01C8
S315020040F00138C9F8BC0103DCD9F8C0114846884723
S3150200410001A90022484605F010F8012003B0BDE8D7
S31502004110000FF0BD00283FF49AADBDF906004FF43A
S315020041208031A0EB0B0001EB0030D9F8B81101F198
S315020041300802C9F8B8210422C1E90020D9F8BC0155
S315020041400138C9F8BC0103DCD9F8C01148468847D2
S31502004150D9F8B801002200F10801C9F8B8110A21FC
S31502004160C0E90012D9F8BC010138C9F8BC0103DC68
S31502004170D9F8C01148468847D9F8B8014FF48035B6
S3150200418000F10801C9F8B8111021C0E90015D9F8E3
S31502004190BC010138C9F8BC0103DCD9F8C011484694
S315020041A08847BDF90600D9F8B81101F10802C9F825
S315020041B0B821201A052205EB0030C1E90020D9F802
S315020041C0BC010138C9F8BC0103DCD9F8C011484664
S315020041D08847D9F8B801002200F10801C9F8B811D8
S315020041E00B21C0E90012D9F8BC010138C9F8BC019B
S315020041F003DCD9F8C01148468847D9F8B80111221C
S3150200420000F10801C9F8B8110021CFF6FF71C0E923
S31502004210002166E0012903DCD9F8C0114846884727
S31502004220D9F8B8014FF4803200F10801C9F8B81183
S315020042300A21C0E90012D9F8BC010138C9F8BC014B
S3150200424003DCD9F8C01148468847D9F8B8010022DC
S3150200425000F10801C9F8B8111021C0E90012D9F815
S31502004260BC010138C9F8BC0103DCD9F8C0114846C3
S315020042708847BDF904004FF48031AAEB000001EB38
S315020042800030D9F8B81101F10802C9F8B82105229F
S31502004290C1E90020D9F8BC010138C9F8BC0103DC28
S315020042A0D9F8C01148468847D9F8B80100F1080183
S315020042B0C9F8B8110B21C0E90015D9F8BC010138BB
S315020042C0C9F8BC0103DCD9F8C01148468847D9F8B9
S315020042D0B801002200F10801C9F8B8111121C0E99C
S315020042E00012D9F8BC010138C9F8BC0103DCD9F8BF
S315020042F0C0114846884701AA02230320DAE680B5A0
S315020043006F4682B0D7E902CECDE900CEFFF75FFC59
S3150200431002B080BDF0B503AF2DE9000F83B00446AD
S315020043200D4641F20008B0F872A0B0F87600B4F873
S315020043307460616CB4F978B0C0F240180329ADF824
S3150200434004A0ADF80800ADF80660ADF80AB014DCBA
S31502004350A26E12F0100210D1042292FBF1F9216C26
S3150200436091FBF9F202FB191139B994F83C1089074D
S3150200437004BFE16C5FEA81724BD0204601F034FB48
S31502004380D4F8B80100F10801C4F8B8111921C0E93E
S315020043900015D4F8BC010138C4F8BC0103DCD4F81A
S315020043A0C01120468847D4F8B80100F10801C4F8C4
S315020043B0B8110021C0E90011D4F8BC010138C4F8D3
S315020043C0BC0103DCD4F8C01120468847D4F8B811E2
S315020043D0606D01F1080240EA0800C4F8B821012222
S315020043E0C1E90020D4F8BC010138C4F8BC0103DCE1
S315020043F0D4F8C0112046884701A90022204604F0BD
S3150200440094FE204601F0F0FA002003B0BDE8000F4A
S31502004410F0BDBAF10F0FB0D802B2481EB0EB221FA0
S31502004420ABD1A06C009207280FD8DFE800F0043168
S31502004430421042424020280E05F07F4141EA0041E7
S3150200444041EA002040EA156533E0412831D14FF4B4
S3150200445070404FF4706100EA1540F02201EA15310E
S3150200446002EA15220844C5F3031110441BE04FF477
S31502004470704005F0F00100EA15204FF4706241EA3F
S31502004480157102EA15120844104400EB004510E0CB
S315020044904FF478404FF4FC6100EA152001EA551109
S315020044A00844C5F3C401084400EB004501E04FEAA5
S315020044B03565204601F098FAD4F8B80100F10801F2
S315020044C0C4F8B8111921C0E90015D4F8BC010138A5
S315020044D0C4F8BC0103DCD4F8C01120468847D4F8DE
S315020044E0B80100F10801C4F8B8110021C0E90011B1
S315020044F0D4F8BC010138C4F8BC0103DCD4F8C011FD
S3150200450020468847D4F8B80108F5001200F10801E0
S31502004510C4F8B8110121C0E90012D4F8BC0100990F
S315020045200FFA86F8A1EB0A0601384FF00105C4F826
S31502004530BC0103DCD4F8C01120468847206CD4F8AD
S31502004540B81101F10802C4F8B82190FBF9F01F2254
S3150200455005EB261680B2C1E90020D4F8BC01ABEB0C
S3150200456008050138C4F8BC0103DCD4F8C0112046A2
S3150200457088474FF6FF70290321EA000000F58030D4
S31502004580B6FBF9F10843D4F8B81101F10802C4F8F0
S31502004590B8211E22C1E90020D4F8BC010138C4F8B2
S315020045A0BC0103DCD4F8C01120468847606C04289D
S315020045B02DD002280DD001287FF423AFD4E90F01B4
S315020045C04FEA281300EB1A10D4F8B82101FB0300B6
S315020045D00CE0D4E90F014FEA28124FEA1A135143AD
S315020045E0D4F8B82100EB430000EB410002F10801C8
S315020045F0C4F8B8112021C2E90010D4F8BC0102287F
S31502004600A0F10100C4F8BC01BFF6FBAE1BE0D4E981
S315020046100F014FEA28126FF00303514303EA9A028D
S315020046201044D4F8B82100EB810002F10801C4F865
S31502004630B8112021C2E90010D4F8BC010138C4F82F
S31502004640BC013FF7DEAED4F8C01120468847D8E653
S31502004650F0B503AF4DF8048D04464FF4BE7003F077
S3150200466064FF00284FF0010100F09E806FF07F4248
S315020046704FF07F43C0F84C314FF0FF38C0E901429A
S315020046800026C0F8286180F80E61C0E903280222DC
S3150200469080F8D5204FF0100CC0E954334FF4803E19
S315020046A0A0F814C0C0F810E14FF4B055C0F81C5180
S315020046B0D4F880504FF470322D014FF0040340F2CB
S315020046C00805C2F2400558BF4FF48005C0F83421F0
S315020046D04FF40022C0F82C2139A2C0F8205180F8EC
S315020046E0E930C0F83C6192ED001FC0E95066626D88
S315020046F0C0F830E12A43C0F818E142F4002200F182
S31502004700C40E42F4B052C0F82421AA22C0F81421E1
S3150200471080F8D410A0F80C118EE84C1040F2011269
S3150200472000F11C0180ED160F0546A0F8D6204022A6
S31502004730C0F8D82080F80F61C0E93F66C0F848612A
S31502004740C0E94166084601F013FE05F1340001F0A6
S315020047500FFE05F14C0001F00BFE05F1640001F0BD
S3150200476007FE05F17C0001F003FE05F1940001F05D
S31502004770FFFD05F1AC0001F0FBFD15A005F1E4011A
S31502004780C5E9376890ED001F0C2085F8E80081ED39
S31502004790000F20462946C5F8388105F003F8E1697D
S315020047A0284629600021E56184F8C6115DF8048B6C
S315020047B0F0BD00BF00BF00BF00BF00BF00BF00BF0B
S315020047C001000000000000000000000000000000E0
S315020047D001000000030000000300000003000000C7
S315020047E00246406A032990F80E31C17543F001036F
S315020047F080F80E3114D8DFE801F00202070D90F8B6
S31502004800D51001F0F30109E090F8D51001F0F3019B
S31502004810043103E090F8D51041F00C0180F8D51070
S315020048200020002182F8C61170470346406A00EB59
S31502004830810022F07F418160586A90F80E1141F0A2
S31502004840010180F80E110020002183F8C61170477D
S315020048508446406A827C90F80E318A4243F0010215
S3150200486080F80E2103D043F0070280F80E21827DE4
S315020048708174D20702D00906C0F84C11002000212B
S315020048808CF8C61170478446406A827D90F80E31D4
S315020048908A4243F0010280F80E2103D043F0070258
S315020048A080F80E21CA07817502D14FF07F4101E0DF
S315020048B0817C0906C0F84C11002000218CF8C61133
S315020048C07047D4D4B0B502AFD0F824E003299EF8DD
S315020048D00EC14CF001038EF80E310ED8032A0CD805
S315020048E04CF22423C0F2092353F82110DFE802F028
S315020048F0020C070A41F4805106E010211BE041F444
S31502004900806101E041F4A051CEF81C11DEF82C21A1
S31502004910436DDEF820C1DEF83C511A43DEF8403121
S3150200492042EA0C02DEF844412A431A432243114367
S31502004930CEF82411002180F8C6110846B0BD024601
S31502004940406A90F8D53039B143F0020180F8D510AB
S315020049500021C0F828110DE04FF4FC41C0F82811DF
S315020049604FF48031C0F8101103F0FC0180F8D51025
S31502004970102181820020002182F8C611704702466A
S31502004980406A0023022980F8D6104FF0000108BFC2
S31502004990032380F80F31002082F8C61170470246C1
S315020049A0406A80F8D7100020002182F8C6117047AD
S315020049B0D0F84C11027C437C090A6FF07F4C01FB54
S315020049C002C201FB03C190F80E3102F07F4201F0F0
S315020049D07F41C0E9542103F0FD0180F80E117047B2
S315020049E0F0B503AF2DE9000F85B0044691F8D50066
S315020049F0D7E902599346D7F814A03E69C007A3EB3C
S31502004A000908A5EB090C38D10FFA8CF10FFA88F2D6
S31502004A1052EA010040F20000CFF6C07000F090802A
S31502004A20AE461FFA89F590FBF9FC02FB02F00496EA
S31502004A3011FB010009EBD53636B2114410228CFB6C
S31502004A4000054FEAEC08A2EB4303A2EB4E0250EA42
S31502004A50DF2508FB03F301EB560608FB02F14FEADA
S31502004A60E37CA0EB0632C817049E03EB1C7301EB32
S31502004A7010704FEA23190511B6E001A8049680E8E2
S31502004A80200CB86918B194F8830040076AD44FF035
S31502004A907840B1F91420D1F810B1009390FBF9F0E7
S31502004AA0D617E246C517334650EA0F2529461AF0AD
S31502004AB027FF18FB08F21FFA89F31AFB0A2209EBF1
S31502004AC0D333120A0FFA83FCA0FB026501FB0255DF
S31502004AD00FFA88F606FA8AFE01FB02F3ED172E0F8D
S31502004AE00EEB6C05E0FB02634FEAE57CA5FB0B25AA
S31502004AF056EA2F130CFB0B5552EA0F15B21AAB41AD
S31502004B00CD17DE1712EB1662019E43F1000310EB7E
S31502004B10155841F10001102058EA1F31009952EA56
S31502004B201F23A0EB4101A0EB460001FB08F100FBAD
S31502004B3008F0CD17C61701EB157100EB16704DE0A4
S31502004B4000F5601090FBF9F81020A0EB490008FB75
S31502004B5000F0C11700EB117000210511A1EBC9226B
S31502004B60A94641E04FF07840B1F9142018FB08F647
S31502004B701FFA89F590FBF9F01CFB0C66E2468001F0
S31502004B800FFA88FE4FEA162B09EBD53690FBF2F2A6
S31502004B90D1F81011002582FB0B0C4FEA22184FEABE
S31502004BA01C700FFA86FC0EFA8AF6C2FB0B0506EBA0
S31502004BB05C0650EA2F1571431026A6EB430208FB4A
S31502004BC002F3019AA6EB4202DD1708FB02F6A0EBFE
S31502004BD0810203EB1571F01706EB10704FEA2119EB
S31502004BE00511DDE902AB049EBAF1000F0BF10400D8
S31502004BF002EB06016DD0D4F8B821494202F108034E
S31502004C00C4F8B831C2E90001D4F8BC010138C4F8CD
S31502004C10BC0103DCD4F8C01120468847D4F8B81189
S31502004C200BF1050001F10802C4F8B821C9F100022E
S31502004C30C1E90002D4F8BC010138C4F8BC0103DCA6
S31502004C40D4F8C01120468847D4F8B8110BF11000E9
S31502004C5001F10802C4F8B8216A42C1E90002D4F897
S31502004C60BC010138C4F8BC0103DCD4F8C0112046EB
S31502004C708847D4F8B8010BF10B0100F10802C4F819
S31502004C80B8210022A2EB4805C0E90015D4F8BC0100
S31502004C900138C4F8BC0103DCD4F8C01120468847A9
S31502004CA0D4F8B80100F10801C4F8B8110BF11101EA
S31502004CB0C0E90015D4F8BC010138C4F8BC016ADCAD
S31502004CC0D4F8C011204605B0BDE8000FBDE8F0409B
S31502004CD00847D4F8B82102F10803C4F8B831C2E98A
S31502004CE00001D4F8BC010138C4F8BC0103DCD4F8D5
S31502004CF0C01120468847D4F8B80100F10801C4F86B
S31502004D00B8110BF10501C0E90019D4F8BC0101384C
S31502004D10C4F8BC0103DCD4F8C01120468847D4F895
S31502004D20B80100F10801C4F8B8110BF11001C0E98D
S31502004D300015D4F8BC010138C4F8BC0103DCD4F870
S31502004D40C01120468847D4F8B8110BF10B0001F1C7
S31502004D500802C4F8B8214FEA4805C1E90005D4F8AB
S31502004D60BC010138C4F8BC0103DCD4F8C0112046EA
S31502004D708847D4F8B80100F10801C4F8B8110BF15C
S31502004D801101C0E90015D4F8BC010228A0F1010006
S31502004D90C4F8BC0194DB05B0BDE8000FF0BDF0B568
S31502004DA003AF4DF8048D0546D0F8188014200E4640
S31502004DB003F0BBFB4FF0000160B3C0E90261044699
S31502004DC095F8680006EB86018900C00703D12846DC
S31502004DD003F0F3FB02E0084603F0A7FB01460028B6
S31502004DE02046616014D00026066195F86820D20735
S31502004DF01AD1D5F88420D30610D4910714D5806829
S31502004E00042100EB80008200404608F0B1FA08E077
S31502004E1003F08DFB00205DF8048BF0BD404608F0E0
S31502004E20AFFA01462046216106605DF8048BF0BDAB
S31502004E30F0B503AF4DF8048D804608600020486146
S31502004E40D8F87C500C46D5B328686060202003F061
S31502004E506CFB0028606151D00646A868800003F00A
S31502004E6064FB0028306049D0AA6872606968D8F885
S31502004E7088305943002AB1606A6872610AD00020FC
S31502004E800021326842F82100013172689142F8D35A
S31502004E903068B168F06001EB8101D8F818008A0029
S31502004EA0042108F065FA316808603068006828B3A2
S31502004EB0306170687169C6E90610616805E04046AE
S31502004EC01146FFF76CFF0146606000294FF00000B3
S31502004ED0E1605AD0A1604A6822618968C4E9060184
S31502004EE0C4E90A001020A086402003F01EFB2063BE
S31502004EF020B10146606928B100680FE000205DF824
S31502004F00048BF0BD98F8840010F0120F606804D08C
S31502004F10D0F81080B8F1000F02D10430D0F800802A
S31502004F20B4F93400012811DB0022002341F8042BD6
S31502004F300133B4F934008342F8DB26460021012806
S31502004F4026F8361F56F8061C04DD1AE0264600220D
S31502004F5026F8362F1030A08602B29000012203F006
S31502004F60E8FAB4F9341020630129014609DB00206E
S31502004F700A46002342F8040B0133B4F93450AB421B
S31502004F80F8DB0120C1F8008030805DF8048BF0BDAB
S31502004F90B1F9340001280ADB086B4FF0000C00233C
S31502004FA040F804CB0133B1F934209342F8DB0020F8
S31502004FB0C8867047F0B503AF4DF8048DB1F9366077
S31502004FC0B1F934000C469046411EB142216B18DC01
S31502004FD080B21030A08602B29000012203F0A9FA34
S31502004FE0B4F9341020638E4201460ADA01EB8600D8
S31502004FF00022334640F8042B0133B4F93450AB4255
S31502005000F8DB01EB860041F82680711CE1865DF82B
S31502005010048BF0BDF0B503AF2DE9000B82B04669F3
S3150200502004465EB1E069B169002847D0012940F023
S31502005030478120680121D0F8188076E0206948F27D
S315020050403201C8F280010026016020694660A0682C
S3150200505021690D1D40F2FF31C560206981600C3067
S315020050602061A068E169A6610139E161006840B981
S315020050702068216AFFF793FE002800F0A480A16849
S315020050800860C660416821618168E161A0602068AC
S3150200509090F8C701002874D0A16920690329A0F1FC
S315020050A00C02226100F2B980DFE801F002A6929DAD
S315020050B040F2FF3140F80C1C0838ADE020680229A6
S315020050C0D0F8188031D3A5683169A868D5F804E00C
S315020050D0EB6800EB800220690EEB820C01EB820981
S315020050E01BB1C3F800900021E96060450DD2910022
S315020050F0021D7144914251EA8281C24311448022C7
S3150200510021F0030104311AF0D9F9D5E901203169F8
S3150200511000EB8000830010200090404608F034F92E
S31502005120B069C6F810900138B8E0F269022A1FD3B6
S31502005130D6F80C90A568501EF06159F8040F88B98C
S31502005140B068042100EB80008200404608F010F9A6
S31502005150C9F8000030B92068012180F8C711D9F8D2
S31502005160000018B3E96881B108600020E8601DE01C
S31502005170002900F09480012A04BF152180F8C71186
S315020051808DE0A068406828609AE0216948F2320200
S31502005190C8F280020A6021694860A0682169043168
S315020051A0C1602069083020610020A061A16903293D
S315020051B05AD82069DFE801F00249374140F2FF314F
S315020051C040F8041B4FE02068152180F8C7115EE7FE
S315020051D00021C8F28001090C20F80A1C40F2FF31B6
S315020051E040F8041B18E0802100F8091C40F2FF3148
S315020051F04160206914300FE048F2000250F80C1C9E
S31502005200C0F2800262F31F2141F4004140F80C1CF7
S3150200521040F2FF3140F8041C20610020A061E069E1
S315020052200138E0614CE00021C8F28001090C41809E
S3150200523040F2FF31C160103015E08021C17040F2AA
S31502005240FF310161206914300DE048F20002016865
S31502005250C0F2800262F31F2141F40041016040F274
S31502005260FF3181600C3020610020A061A068E169F5
S315020052700139E161D0E90120316900EB8000830048
S3150200528010200090404608F07FF8D9F8000030B1AF
S31502005290C6F80C90D9F8000030617069B061A06858
S315020052A0006830B92068216AFFF779FD60B1A1680C
S315020052B008600021C160416821618168E161A060E6
S315020052C002B0BDE8000BF0BD2068152180F8C711B9
S315020052D0F6E7D4D4B0B502AF8469032C20D840F2E5
S315020052E0000C0169C8F2800C0CF500434FF0020E67
S315020052F0FF22DFE804F01A0E02084FF0030E4FF603
S31502005300FF72634605E04FF0040E4FF000436FF064
S315020053107F420D682A401A430A6001EB8E01016141
S3150200532000218161C1690139C161B0BDD0B502AF49
S315020053300446006890F86810890604D400F5BC702B
S315020053403B211AF0C0F861696068C4E9020061B1E4
S315020053500868C86060690168096801616069416836
S31502005360C1616069416981616068416821618068E3
S315020053700021C4E90610E162D0BDD4D4F0B503AF72
S315020053802DE9000F83B08146086890468B4600F0EF
S315020053903AF9DBF8181003292DD8DBF81000DFE8FC
S315020053A001F0021A071140F2FF3140F8041B20E017
S315020053B00021C8F28001090C418040F2FF31C16030
S315020053C0103016E08021C17040F2FF310161DBF836
S315020053D0100014300DE048F200020168C0F28002AB
S315020053E062F31F2141F40041016040F2FF31816006
S315020053F00C30CBF810000020CBF81800DBF81C00AC
S315020054000138CBF81C00D9F87C0000283ED1DBF825
S3150200541008502868B8B3DBF828000130CBF828001A
S315020054203C2833D12868CDF80880A846054600688E
S3150200543008B12FF007C0DBF80060D6F818A003E029
S31502005440204603F074F8CDB196F868002C46D5E9EB
S315020054500051C00703D1304603F0D1F802E00846F6
S3150200546003F065F82269002AEAD096F884008007DC
S31502005470E6D50421504607F07EFFE1E70020C8F892
S315020054800000DDF808800020CBF82800DBF81400C5
S31502005490C8B1B8F1000F00F09680DBF8000000F00A
S315020054A0FFFBDBF80810DBF81C30D1E90121C91A31
S315020054B0DBF8143001EB81061969B3000026009669
S315020054C007F062FF50E0D9F8840081071FD4DBF8A9
S315020054D00010C006DBF808508E69886E1BD4C00720
S315020054E03FD1DBF80C40AC420BD0D4E901200421B9
S315020054F000EB80008300304607F04FFF2468AC4281
S31502005500F3D1D5E90120DBF81C10401A22E05846F7
S3150200551000F070F925E0C00723D1DBF80C4009E062
S31502005520A0682269042100EB80008300304607F060
S3150200553034FF2468AC4208D020680028F0D0E16825
S3150200554000291CBF00690860EAE7A868DBF81C109E
